:100000000C9460000C9488000C9488000C94880078
:100010000C9488000C9488000C9488000C94880040
:100020000C9488000C9488000C9488000C946E0842
:100030000C9488000C9488000C9488000C94880020
:100040000C9404030C9488000C946A040C94AD0482
:100050000C9488000C9488000C9488000C94880000
:100060000C942F0E0C948800000000070002010081
:100070000003040600000000000000000102040864
:100080001020408001020408102001020408102002
:10009000040404040404040402020202020203032E
:1000A0000303030300000000250028002B000000CC
:1000B0000000240027002A00040169056A081E01C7
:1000C00011241FBECFEFD8E0DEBFCDBF11E0A0E00E
:1000D000B1E0ECE0F6E202C005900D92AE37B10758
:1000E000D9F715E0AEE7B1E001C01D92A134B10728
:1000F000E1F710E0CEEBD0E004C02297FE010E94B1
:10010000F512C83BD107C9F70E94BF050C94830FB5
:100110000C9400002F923F924F925F926F927F92C9
:100120008F929F92AF92BF92CF92DF92EF92FF9207
:100130000F931F93CF93DF9300D01F92CDB7DEB7FD
:100140005C014B012901FB0104811581015011095A
:10015000612C712CCC24CA94DC2C212C312CE12C68
:10016000F12C7B826A82061517057CF14E145F0420
:100170002CF16A817B81C40149830E9445072A8151
:100180003B812F5F3F4F4981841741F08A819B81DA
:100190008017910719F0DB82CA820CC09FEFE91A21
:1001A000F90A1601EFEF2E1A3E0A6016710611F4D5
:1001B0003B832A833901CA80DB80D3CF9601A1011A
:1001C000B401C5010E94470708C04E145F04B4F390
:1001D0006AE371E0C5010E94A506C5010F900F906A
:1001E0000F90DF91CF911F910F91FF90EF90DF90D3
:1001F000CF90BF90AF909F908F907F906F905F90C7
:100200004F903F902F9008956AE371E08FE891E05E
:100210000E94A5066AE371E086E991E00E94A506C6
:100220006AE371E084E891E00E94A50681E891E02C
:100230000E942A098EE791E00C942A0984E891E053
:100240000E94370686E991E00E9437068FE891E028
:100250000C9437061F93CF93DF931F92CDB7DEB771
:10026000162FBC0187E594E049830E945208612F54
:1002700087E594E00E94EF074981642F87E594E0C9
:100280000E94EF0787E594E00F90DF91CF911F91D7
:100290000C94670840E061E38091040190910501AE
:1002A0000E942A0148E06CE28091040190910501CE
:1002B0000E942A0148E06DE28091040190910501BD
:1002C0000E942A0140E06EE28091040190910501B4
:1002D0000E942A0140E06EE18091040190910501A5
:1002E0000E942A0140E06FE1809104019091050194
:1002F0000E942A0140E060E2809104019091050192
:100300000C942A0169E070E081E891E00E94C40940
:100310006AE070E08EE791E00E94C40987E594E00E
:100320000E942E0840E855E260E070E08DEA93E01C
:100330000E94E8046CE071E08DEA93E00E942506DB
:100340000E944A0165E271E08DEA93E00E94250671
:100350006BE371E08DEA93E00E9425066CED75E099
:1003600080E090E00C9471031F93CF93DF93EC0136
:10037000162FBC0187E594E00E945208612F87E5A3
:1003800094E00E94EF0787E594E00E946708BE01B1
:1003900087E594E00E94520841E050E0BE0187E505
:1003A00094E00E94450887E594E00E949707892B16
:1003B000D1F387E594E00E949F07EC0187E594E084
:1003C0000E946708CE01DF91CF911F910895DF92BF
:1003D000EF92FF920F931F93CF93DF9363E380918C
:1003E0000401909105010E94B401D82E62E380912E
:1003F0000401909105010E94B401FD2CE12CE82A32
:10040000F092A303E092A20365E38091040190912E
:1004100005010E94B401F82E64E3809104019091DB
:1004200005010E94B4011F2D00E0082B1093A103C9
:100430000093A00367E380910401909105010E945D
:10044000B401182F66E380910401909105010E9488
:10045000B401D12F90E0C92FC82BD0939F03C09334
:100460009E03DF91CF911F910F91FF90EF90DF904E
:100470000895CF93DF93CDB7DEB72E970FB6F894DC
:10048000DEBF0FBECDBF6AE371E084E891E00E9459
:10049000DD068DEA93E00E94D2031816190664F473
:1004A0008DEA93E00E94FF0380939D01682F84E80A
:1004B00091E00E942107EDCF0E94E70169E170E021
:1004C00080E090E00E94710364E871E0CE0108963C
:1004D0000E94D30621E030E04CE2BE01685F7F4F0E
:1004E000CE0101960E948A00BE016F5F7F4F8FE8A8
:1004F00091E00E94BC06CE0101960E943706CE0113
:1005000008960E94370664E871E0CE0108960E94C2
:10051000D30622E030E04CE2BE01685F7F4FCE019F
:1005200001960E948A00BE016F5F7F4F86E991E0CD
:100530000E94BC06CE0101960E943706CE010896A5
:100540000E9437068FE891E00E948C0770938C011F
:1005500060938B0186E991E00E948C0770938E0175
:1005600060938D0160918B0170918C0181E891E025
:100570000E94FD0960918D0170918E018EE791E0DE
:100580000E94FD0980918E018F9380918D018F9340
:1005900080918C018F9380918B018F9380919F0329
:1005A0008F9380919E038F938091A1038F9380916D
:1005B000A0038F938091A3038F938091A2038F93C5
:1005C00084E491E09F938F938EE991E09F938F93C2
:1005D0000E94AB0F6EE971E08DEA93E00E94250660
:1005E00064E170E080E090E00E9471030FB6F8943F
:1005F000DEBF0FBECDBF2E960FB6F894DEBF0FBE86
:10060000CDBFDF91CF9108951F920F920FB60F9239
:1006100011242F933F938F939F93AF93BF93809118
:10062000A5039091A603A091A703B091A8033091D0
:10063000A40323E0230F2D3720F40196A11DB11D43
:1006400005C026E8230F0296A11DB11D2093A40327
:100650008093A5039093A603A093A703B093A80348
:100660008091A9039091AA03A091AB03B091AC0330
:100670000196A11DB11D8093A9039093AA03A09395
:10068000AB03B093AC03BF91AF919F918F913F911A
:100690002F910F900FBE0F901F9018953FB7F894B1
:1006A0008091A9039091AA03A091AB03B091AC03F0
:1006B00026B5A89B05C02F3F19F00196A11DB11DBD
:1006C0003FBF6627782F892F9A2F620F711D811DDA
:1006D000911D42E0660F771F881F991F4A95D1F739
:1006E0000895CF92DF92EF92FF92CF93DF936B0149
:1006F0007C010E944E03EB01C114D104E104F1041A
:1007000079F00E944E036C1B7D0B683E7340A0F392
:1007100081E0C81AD108E108F108C851DC4FECCFDC
:10072000DF91CF91FF90EF90DF90CF900895789474
:1007300084B5826084BD84B5816084BD85B58260E6
:1007400085BD85B5816085BDEEE6F0E08081816084
:100750008083E1E8F0E01082808182608083808184
:1007600081608083E0E8F0E0808181608083E1EB5C
:10077000F0E0808184608083E0EBF0E08081816044
:100780008083EAE7F0E080818460808380818260FA
:1007900080838081816080838081806880831092E3
:1007A000C1000895FC0124853585F901E05CFF4F07
:1007B00080819181F901EE5BFF4F20813181821BA5
:1007C000930B8F7399270895FC0184859585FC010F
:1007D000E05CFF4F40815181FC01EE5BFF4F2081C7
:1007E00031814217530741F00190F081E02DE80F6D
:1007F000F91F808190E008958FEF9FEF0895FC012D
:1008000084859585FC01E05CFF4F40815181FC01AE
:10081000EE5BFF4F208131814217530779F0A081B1
:10082000B181A80FB91F8C91208131812F5F3F4F7B
:100830002F7333273183208390E008958FEF9FEF4C
:100840000895FC0181A1882329F0A489B5898C91A0
:1008500086FFFBCF11A20895CF93DF93FC0126857D
:100860003785D901A05CBF4F8D919C91119701965E
:100870008F739927E901CE5BDF4F48815981841737
:100880009507D9F30D90BC91A02DA20FB31F6C93C7
:10089000A685B785A05CBF4F11969C938E93A689C1
:1008A000B7892C9181E090E0078C02C0880F991FD6
:1008B0000A94E2F7282B2C9381E081A30488F58920
:1008C000E02D80818064808381E090E0DF91CF9192
:1008D000089508951F920F920FB60F9211242F932F
:1008E0003F934F938F939F93EF93FF938091C0001B
:1008F00082FD1CC04091C600809153049091540425
:1009000001968F73992720915504309156048217D0
:10091000930771F0E0915304F0915404ED5EFB4FA6
:100920004083909354048093530402C08091C60086
:10093000FF91EF919F918F914F913F912F910F9048
:100940000FBE0F901F9018958DEA93E00E94D2037E
:10095000892B11F00C94690408951F920F920FB621
:100960000F9211242F933F938F939F93EF93FF93B5
:1009700020910F0430911004809111049091120481
:100980002817390731F48091C1008F7D8093C10011
:1009900014C0E0911104F0911204E153FC4F208146
:1009A000809111049091120401968F73992790936E
:1009B0001204809311042093C600FF91EF919F9140
:1009C0008F913F912F910F900FBE0F901F90189510
:1009D000CF92DF92EF92FF92CF93DF93EC016A0107
:1009E0007B01411581EE580761057105F9F0EC892D
:1009F000FD8981E090E008A002C0880F991F0A9449
:100A0000E2F7808360E079E08DE390E0A701960152
:100A10000E946C12215031094109510956954795A0
:100A200037952795211580E1380798F0EC89FD89E5
:100A3000108260E874E88EE190E0A70196010E94C0
:100A40006C12215031094109510956954795379546
:100A50002795E889F9893083EA89FB89208319A2DF
:100A6000EE89FF89408181E090E09C010C8C02C0FE
:100A7000220F331F0A94E2F7422B4083EE89FF894D
:100A800040819C010D8C02C0220F331F0A94E2F7B3
:100A9000422B4083EE89FF8940819C010E8C02C06D
:100AA000220F331F0A94E2F7422B4083EE89FF891D
:100AB00020810F8C02C0880F991F0A94E2F780955D
:100AC00082238083DF91CF91FF90EF90DF90CF90D2
:100AD00008951092B0031092AF0388EE93E0A0E067
:100AE000B0E08093B1039093B203A093B303B093AB
:100AF000B40382E691E09093AE038093AD0383E16B
:100B000094E09093BA038093B9038FEC93E09093B1
:100B1000BC038093BB0385EC90E09093BE0380936D
:100B2000BD0384EC90E09093C0038093BF0380ECFE
:100B300090E09093C2038093C10381EC90E0909386
:100B4000C4038093C30382EC90E09093C603809328
:100B5000C50386EC90E09093C8038093C70384E0BC
:100B60008093C90383E08093CA0387E08093CB031B
:100B700085E08093CC0381E08093CD0308950E94AB
:100B800097030E948201C4EAD4E00E9439022097B0
:100B9000E1F30E94A404F9CFCF92DF92EF92FF928B
:100BA0000F931F93CF93DF936C017A01EB01E60E55
:100BB000F71E00E010E0CE15DF0561F06991D60167
:100BC000ED91FC910190F081E02DC6010995080F8F
:100BD000191FF1CFC801DF91CF911F910F91FF90A5
:100BE000EF90DF90CF9008956115710581F0DB01E2
:100BF0000D900020E9F7AD0141505109461B570BFC
:100C0000DC01ED91FC910280F381E02D099480E0FC
:100C100090E00895DC01ED91FC910190F081E02DD0
:100C200009940F931F93CF93DF93EC016DE00E9423
:100C30000A068C016AE0CE010E940A06800F911F0D
:100C4000DF91CF911F910F9108950F931F93CF9331
:100C5000DF93EC010E94F4058C01CE010E94110685
:100C6000800F911FDF91CF911F910F910895FC018B
:100C7000808191810C94920BCF93DF93EC0188815A
:100C80009981009711F00E94920B198218821D829F
:100C90001C821B821A82DF91CF9108950F931F93BC
:100CA000CF93DF93EC018B016F5F7F4F8881998138
:100CB0000E94210C009731F0998388831B830A835B
:100CC00081E001C080E0DF91CF911F910F910895E5
:100CD000CF93DF93EC0188819981892B29F08A8158
:100CE0009B818617970760F4CE010E944E068823E9
:100CF00041F08C819D81892B19F4E881F981108262
:100D000081E0DF91CF910895EF92FF920F931F93AF
:100D1000CF93DF93EC017B018A01BA010E94680640
:100D2000811104C0CE010E943C0607C01D830C83C4
:100D3000B701888199810E948F0FCE01DF91CF91F9
:100D40001F910F91FF90EF900895FC011182108286
:100D5000138212821582148216826115710559F070
:100D6000FB0101900020E9F7AF0141505109461BFA
:100D7000570B0C9484060895CF93DF93EC01FB018D
:100D80008617970761F0608171816115710529F0FF
:100D9000448155810E94840602C00E943C06CE0117
:100DA000DF91CF910895FC0111821082138212828B
:100DB0001582148216820C94BC06CF93DF93EC014B
:100DC0006115710561F0FB0101900020E9F7AF01A9
:100DD00041505109461B570B0E94840602C00E94D5
:100DE0003C06CE01DF91CF910895EF92FF920F93D1
:100DF0001F93CF93DF93EC017B010C811D81611563
:100E0000710511F480E016C04115510591F0040FF1
:100E1000151FB8010E9468068823A1F32881398133
:100E20008C819D81B701820F931F0E948F0F1D83BC
:100E30000C8381E0DF91CF911F910F91FF90EF9094
:100E40000895CF93DF9300D0CDB7DEB769831A82C0
:100E500041E050E0BE016F5F7F4F0E94F5060F90AA
:100E60000F90DF91CF910895FC01248135816217A5
:100E7000730748F480819181009729F0FC01E60F07
:100E8000F71F8081089580E008950C943407BF9285
:100E9000CF92DF92EF92FF920F931F93CF93DF9346
:100EA0006C017B01EA0189012417350720F48D2F9D
:100EB000E901042F182F6AE371E0C6010E94A5061C
:100EC000D70114968D919C9115978C179D07C8F0AA
:100ED0008017910708F48C01D701ED91FC911197CF
:100EE000E00FF11FB08010826D917C916C0F7D1F1F
:100EF000C6010E94DD06D701ED91FC91E00FF11FC4
:100F0000B082C601DF91CF911F910F91FF90EF90BA
:100F1000DF90CF90BF900895FC0180819181009770
:100F200011F00C945C0F60E070E0CB0108958091AB
:100F3000870490E020918804821B910908952091F4
:100F4000880480918704281750F4E22FF0E0E757D7
:100F5000FB4F808190E02F5F2093880408958FEFEE
:100F60009FEF0895E091880480918704E81730F49A
:100F7000F0E0E757FB4F808190E008958FEF9FEFFF
:100F800008950895CF92DF92EF92FF920F931F93EF
:100F9000CF93DF937C01CB018A012091630422234C
:100FA00089F0EB016B01C40ED51ECC15DD0569F08F
:100FB0006991D701ED91FC910190F081E02DC7017D
:100FC0000995F3CF642F0E94060EC801DF91CF91DF
:100FD0001F910F91FF90EF90DF90CF900895CF93E6
:100FE000DF931F92CDB7DEB769832091630422237C
:100FF000D1F020916404203240F021E030E0FC0187
:101000003383228380E090E015C080916504E82F4F
:10101000F0E0EA59FB4F998190838F5F80936504DC
:101020008093640405C061E0CE0101960E94060E23
:1010300081E090E00F90DF91CF910895FC01138241
:10104000128248EE53E060E070E04483558366838B
:10105000778382E791E091838083089510928804DA
:101060001092870410926504109264040C94510D40
:10107000862F413208F040E269E874E00E946F0D6B
:101080001092880480938704089521E00C94380816
:1010900081E080936304609386041092650410924B
:1010A000640408950C9448080F93062F21E04091A2
:1010B000640466E674E0809186040E94B30D109289
:1010C000650410926404109263040F91089561E026
:1010D0000C94540887E594E00C941E081F920F921C
:1010E0000FB60F9211242F933F934F935F936F93FB
:1010F0007F938F939F93AF93BF93EF93FF938091D1
:10110000AA0487FF05C010928500109284001AC0BF
:101110002091AA04332727FD30958091A90490E0FF
:10112000281739077CF48091AA04992787FD9095A8
:10113000FC01EE0FFF1FE80FF91FE555FB4F808103
:1011400086FD15C08091AA048F5F8093AA04209128
:10115000AA04332727FD30958091A90490E0281731
:101160003907BCF48091AA048C305CF112C08091E4
:10117000AA04992787FD9095FC01EE0FFF1FE80F49
:10118000F91FE555FB4F808160E08F730E94C40A10
:10119000D9CF8091840090918500049680349C4939
:1011A00018F480E49CE905C080918400909185004A
:1011B000049690938900809388008FEF8093AA040F
:1011C00038C080918400909185002091AA04332733
:1011D00027FD3095F901EE0FFF1FE20FF31FE555D4
:1011E000FB4F21813281820F931F9093890080935E
:1011F00088008091AA04992787FD9095FC01EE0F45
:10120000FF1FE80FF91FE555FB4F808186FF11C0D6
:101210008091AA04992787FD9095FC01EE0FFF1F8E
:10122000E80FF91FE555FB4F808161E08F730E9445
:10123000C40AFF91EF91BF91AF919F918F917F91E0
:101240006F915F914F913F912F910F900FBE0F9033
:101250001F9018952091A9042C30A0F431E0320F92
:101260003093A904FC012083822F90E0FC01EE0F53
:10127000FF1FE80FF91FE555FB4F88EB9BE09283BA
:10128000818308952FEFFC0120830895DF92EF9270
:10129000FF920F931F93CF93DF93EC01D62E7A0129
:1012A000890188818C3008F066C061E08D2D0E9434
:1012B0008B0A8881A82FB0E0FD01EE0FFF1FEA0F17
:1012C000FB1FE555FB4F2D2D2F739081907C922BAA
:1012D000908360E272E06E197F0977FF02C06D5F54
:1012E0007F4F7595679575956795698340E659E0D9
:1012F000401B510B57FF02C04D5F5F4F55954795FF
:10130000559547954A836CE00E9460129CE0899F46
:10131000B001112420E030E0A901460F571FFA0167
:10132000EE0FFF1FE40FF51FE555FB4F908196FD73
:1013300016C02F5F3F4F2C30310571F781110FC060
:101340001092800082E080938100109285001092BC
:101350008400B19A80916F00826080936F008881D1
:1013600090E0FC01EE0FFF1FE80FF91FE555FB4F62
:101370008081806480838881DF91CF911F910F915C
:10138000FF90EF90DF90089520E639E040E252E0D0
:101390000C944609FC0180818C3070F5918128E81D
:1013A00030E0291B310997FD3395220F331F220F9F
:1013B000331F621773077CF0928128E532E0291B06
:1013C000310997FD3395220F331F220F331F621708
:1013D00073070CF49B014FB7F89490E0FC01EE0FFB
:1013E000FF1FE80FF91FE555FB4F22503109220F6F
:1013F000331F328321834FBF08954F925F926F92C4
:101400007F92AF92BF92CF92DF92EF92FF920F93B3
:101410001F93CF93DF93EC01603282E078070CF0EA
:1014200040C077FD06C0653B71052CF064EB70E0B1
:1014300002C060E070E0898128E830E0281B3109B3
:1014400087FD3395220F331F220F331F5901CC2400
:10145000B7FCC094DC2C882777FD8095982F2A81D3
:1014600048E552E0421B510927FD5395440F551F93
:10147000440F551F2A01662457FC6094762C7F92F6
:101480006F925F924F9214EBE12EF12C00E010E08E
:1014900020E030E0A9010E940A0D0F900F900F90FC
:1014A0000F90CE01DF91CF911F910F91FF90EF90A0
:1014B000DF90CF90BF90AF907F906F905F904F90F4
:1014C0000C94CA09833081F028F4813099F082307D
:1014D000A1F008958630A9F08730B9F08430D1F4B6
:1014E000809180008F7D03C0809180008F778093F2
:1014F0008000089584B58F7702C084B58F7D84BD48
:1015000008958091B0008F7703C08091B0008F7DE7
:101510008093B0000895CF93DF9390E0FC01E458EE
:10152000FF4F2491FC01E057FF4F8491882349F13C
:1015300090E0880F991FFC01E255FF4FA591B491EF
:101540008C559F4FFC01C591D4919FB7611108C084
:10155000F8948C91209582238C93888182230AC0F1
:10156000623051F4F8948C91322F309583238C9310
:101570008881822B888304C0F8948C91822B8C9371
:101580009FBFDF91CF9108950F931F93CF93DF9368
:101590001F92CDB7DEB7282F30E0F901E859FF4F91
:1015A0008491F901E458FF4F1491F901E057FF4F7E
:1015B00004910023C9F0882321F069830E94620A04
:1015C0006981E02FF0E0EE0FFF1FEC55FF4FA59172
:1015D000B4919FB7F8948C91611103C01095812349
:1015E00001C0812B8C939FBF0F90DF91CF911F91F2
:1015F0000F910895CF93DF938230910510F482E02C
:1016000090E0E0913F05F091400520E030E0A0E05F
:10161000B0E0309739F14081518148175907B8F04F
:101620004817590771F482819381109729F0139616
:101630009C938E9312972CC09093400580933F0506
:1016400027C02115310531F04217530718F0A901C1
:10165000DB0101C0EF019A01BD01DF010280F381CE
:10166000E02DD7CF21153105F9F0281B390B243097
:10167000310580F48A819B816115710521F0FB01A0
:101680009383828304C09093400580933F05FE01BD
:10169000329644C0FE01E20FF31F819391932250D2
:1016A0003109398328833AC020913D0530913E05A8
:1016B000232B41F4209108013091090130933E051C
:1016C00020933D0520910601309107012115310538
:1016D00041F42DB73EB740910A0150910B01241BF4
:1016E000350BE0913D05F0913E05E217F307A0F4BC
:1016F0002E1B3F0B2817390778F0AC014E5F5F4F68
:101700002417350748F04E0F5F1F50933E05409356
:101710003D058193919302C0E0E0F0E0CF01DF91BD
:10172000CF910895CF93DF93009709F487C0FC0110
:10173000329713821282C0913F05D09140052097C5
:1017400081F420813181280F391F80913D059091CE
:101750003E058217930779F5F0933E05E0933D052A
:101760006DC0DE0120E030E0AE17BF0750F41296E6
:101770004D915C9113979D014115510509F1DA01D5
:10178000F3CFB383A28340815181840F951F8A17C1
:101790009B0771F48D919C911197840F951F029670
:1017A0009183808312968D919C911397938382836A
:1017B0002115310529F4F0934005E0933F053EC023
:1017C000D9011396FC93EE9312974D915D91A40F5E
:1017D000B51FEA17FB0779F480819181840F951F6B
:1017E0000296D90111969C938E93828193811396D0
:1017F0009C938E931297E0E0F0E08A819B810097A2
:1018000019F0FE01EC01F9CFCE0102962881398151
:10181000820F931F20913D0530913E05281739070F
:1018200069F4309729F41092400510923F0502C0E8
:1018300013821282D0933E05C0933D05DF91CF9174
:1018400008956F927F928F929F92AF92BF92CF92A4
:10185000DF92EF92FF920F931F93CF93DF93EC01F0
:10186000CB01209781F4DF91CF911F910F91FF90D1
:10187000EF90DF90CF90BF90AF909F908F907F9030
:101880006F900C94FA0AFE01E60FF71F9E0122509A
:101890003109E217F30708F4ACC0D9010D911C918E
:1018A000119706171707B8F00530110508F49FC007
:1018B000A801445051094617570708F498C0025030
:1018C0001109061B170B019311936D937C93CF01A4
:1018D0000E94920B8CC05B01A01AB10A4E01800ECF
:1018E000911EA0913F05B0914005612C712C60E0E4
:1018F00070E0109709F449C0A815B905C9F5ED9035
:10190000FC901197670142E0C40ED11CCA14DB049D
:1019100078F147018A189B08640142E0C40ED11C8B
:101920001296BC9012971396AC91B5E0CB16D104E9
:1019300040F0B282A38391828082D9018D939C93DF
:1019400009C00E5F1F4F0E0D1F1DF901118300838B
:10195000EB2DFA2F6115710531F0DB011396FC9325
:10196000EE93129744C0F0934005E0933F053FC0CB
:101970006D917C9111976616770608F43B01BD01C5
:1019800012960D90BC91A02DB4CF60913D05709141
:101990003E0568157905E9F468167906D0F440919A
:1019A0000601509107014115510541F44DB75EB74D
:1019B00060910A0170910B01461B570BE417F50764
:1019C000C0F4F0933E05E0933D05F90191838083D7
:1019D0000EC00E94FA0A7C01009759F0A801BE01CE
:1019E0000E94860FCE010E94920BC70104C0CE0157
:1019F00002C080E090E0DF91CF911F910F91FF90A6
:101A0000EF90DF90CF90BF90AF909F908F907F909E
:101A10006F9008954F925F926F927F92AF92BF92B4
:101A2000CF92DF92EF92FF920F931F93CF93DF93AA
:101A3000CDB7DEB729013A01621B730B840B950BFE
:101A400029893A894B895C892A193B094C095D0926
:101A5000298B3A8B4B8B5C8B9B01AC0169897A8912
:101A60008B899C890E945012E418F5080609170911
:101A7000A80197010E948E122A0D3B1D4C1D5D1D71
:101A8000CA01B901DF91CF911F910F91FF90EF90A3
:101A9000DF90CF90BF90AF907F906F905F904F900E
:101AA000089510923C0581E080933A051092390523
:101AB00061E082E10E94C40A61E083E10E94C40AFD
:101AC000E9EBF0E080818E7F808380818D7F808351
:101AD00088E48093B80085E48093BC000895413287
:101AE00008F03FC090913C059111FCCF91E090939C
:101AF0003C0520933A052FEF2093CF041092140554
:101B0000240F2093130590933B0590913B05880F7C
:101B1000892B80933B0580913905813041F41092E7
:101B2000390580913B058093BB0085EC01C085EEB3
:101B30008093BC0080913C058130E1F380911405D5
:101B4000841710F44091140525E135E0FB01D9011B
:101B50008A2F821B841718F48D918193F9CF842FDB
:101B6000089580E008950F93413208F046C09091A7
:101B70003C059111FCCF92E090933C0500933A050F
:101B80009FEF9093CF041092140540931305FB012F
:101B900065E175E0DB019A2F961B941718F491917B
:101BA0009D93F9CF10923B0590913B05880F892BAF
:101BB00080933B0580913905813041F410923905BD
:101BC00080913B058093BB0085EC01C085EE80933E
:101BD000BC00222321F080913C058230E1F380910A
:101BE000CF048F3F61F08091CF04803251F080911B
:101BF000CF04803341F483E007C081E005C080E07A
:101C000003C082E001C084E00F910895613298F42E
:101C100020913C05243089F46093F104FC0183EFAA
:101C200094E0DC012A2F281B261718F421912D930C
:101C3000F9CF80E0089581E0089582E0089585ED70
:101C40008093BC008091BC0084FDFCCF10923C05C9
:101C5000089585EC8093BC0010923C0508951F9276
:101C60000F920FB60F9211242F933F934F935F93D0
:101C70006F937F938F939F93AF93BF93EF93FF9354
:101C80008091B900887F803609F49CC068F588325D
:101C900009F45BC090F4803109F454C038F488230F
:101CA00009F4F5C0883009F44DC0F5C0883109F455
:101CB0004CC0803209F45DC0EEC0803409F468C0C5
:101CC00048F4803309F455C0883309F0E4C08093A8
:101CD000CF04A8C0803509F44FC0883509F45DC031
:101CE000883409F0D8C0D5C0883909F4C6C0A8F432
:101CF000883709F467C038F4883609F463C0803740
:101D000009F460C0C8C0883809F4B7C0803909F444
:101D10005FC0803809F0BFC05BC0803B09F485C05C
:101D200038F4803A09F466C0883A09F47EC0B3C03A
:101D3000803C09F4A6C0883C09F4A3C0883B09F4A0
:101D400089C0A9C080913B0510C090911405809175
:101D50001305981770F5E091140581E08E0F8093BC
:101D60001405F0E0EB5EFA4F80818093BB0085ECB8
:101D700085C08093CF048DC0E091140581E08E0F63
:101D8000809314058091BB00F0E0EB5EFA4F8083F6
:101D900090911405809113056DC0E091140581E0C8
:101DA0008E0F809314058091BB00F0E0EB5EFA4F3C
:101DB000808380913A0581116CC081E08093390560
:101DC00084EA60C083E080933C051092D004CFCFBA
:101DD0008091D004803208F050C0E091D00481E0BE
:101DE0008E0F8093D0048091BB00F0E0EF52FB4F48
:101DF0008083BDCF8091D004803230F4E091D00454
:101E0000F0E0EF52FB4F10820E941F0E6091D00451
:101E100070E0E0913505F091360581ED94E009958B
:101E20001092D0040E94290E36C084E080933C05B5
:101E30001092F2041092F104E0913705F091380508
:101E400009958091F104811105C081E08093F1042E
:101E50001092F304E091F20481E08E0F8093F2047B
:101E6000F0E0ED50FB4F80818093BB009091F20435
:101E70008091F104981708F47ACF85E88093BC002C
:101E80000AC085EC8093BC0010923C0504C01092FF
:101E9000CF040E941F0EFF91EF91BF91AF919F91D0
:101EA0008F917F916F915F914F913F912F910F9003
:101EB0000FBE0F901F9018951F93FC01992788273C
:101EC000BC01E89411911032E9F3193010F01E3082
:101ED000C8F31B3251F01D3249F4689406C00E94C9
:101EE000960F610F711D811D911D119110531A30B4
:101EF000B0F33EF490958095709561957F4F8F4F2C
:101F00009F4F1F910895F8940C94F912FB01DC0186
:101F100002C001900D9241505040D8F70895FB0146
:101F2000DC0101900D920020E1F70895592F482F10
:101F3000372F262F660F771F881F991F660F771F71
:101F4000881F991F620F731F841F951F660F771FCD
:101F5000881F991F0895AEE0B0E0E1EBFFE00C941C
:101F6000BB120D891E8986E08C831A8309838FEF4B
:101F70009FE79E838D83AE01475E5F4F6F89788DAB
:101F8000CE0101960E94CD0FEF81F885E00FF11F81
:101F900010822E96E4E00C94D712ACE0B0E0E3EDB2
:101FA000FFE00C94AD127C016B018A01FC011782E9
:101FB0001682838181FFBDC1CE0101964C01F701DC
:101FC0009381F60193FD859193FF81916F018823A1
:101FD00009F4ABC1853239F493FD859193FF81916A
:101FE0006F01853229F4B70190E00E94B511E7CF67
:101FF000512C312C20E02032A0F48B3269F030F4E7
:10200000803259F0833269F420612CC08D3239F06E
:10201000803339F4216026C02260246023C0286008
:1020200021C027FD27C030ED380F3A3078F426FF65
:1020300006C0FAE05F9E300D1124532E13C08AE0D3
:10204000389E300D1124332E20620CC08E3221F4C4
:1020500026FD6BC1206406C08C3611F4206802C0D6
:10206000883641F4F60193FD859193FF81916F01CC
:102070008111C1CF982F9F7D9554933028F40C5F28
:102080001F4FFFE3F9830DC0833631F0833771F0C2
:10209000833509F05BC022C0F801808189830E5F1F
:1020A0001F4F44244394512C540115C03801F2E0D1
:1020B0006F0E711CF801A080B18026FF03C0652D52
:1020C00070E002C06FEF7FEFC5012C870E94AA115C
:1020D0002C0183012C852F77222E17C03801F2E0C6
:1020E0006F0E711CF801A080B18026FF03C0652D22
:1020F00070E002C06FEF7FEFC5012C870E949F1137
:102100002C012C852068222E830123FC1BC0832DEB
:1021100090E048165906B0F4B70180E290E00E94C2
:10212000B5113A94F4CFF50127FC859127FE8191F2
:102130005F01B70190E00E94B51131103A94F1E0CF
:102140004F1A51084114510471F7E5C0843611F05B
:10215000893639F5F80127FF07C0608171818281D6
:1021600093810C5F1F4F08C060817181882777FDC4
:102170008095982F0E5F1F4F2F76B22E97FF09C0C4
:1021800090958095709561957F4F8F4F9F4F2068F8
:10219000B22E2AE030E0A4010E94E711A82EA81870
:1021A00044C0853729F42F7EB22E2AE030E025C0C6
:1021B000F22FF97FBF2E8F36C1F018F4883579F0F1
:1021C000B4C0803719F0883721F0AFC02F2F2061BD
:1021D000B22EB4FE0DC08B2D8460B82E09C024FF32
:1021E0000AC09F2F9660B92E06C028E030E005C0D7
:1021F00020E130E002C020E132E0F801B7FE07C084
:1022000060817181828193810C5F1F4F06C0608164
:10221000718180E090E00E5F1F4FA4010E94E711E2
:10222000A82EA818FB2DFF77BF2EB6FE0BC02B2DB6
:102230002E7FA51450F4B4FE0AC0B2FC08C02B2DAA
:102240002E7E05C07A2C2B2D03C07A2C01C0752C54
:1022500024FF0DC0FE01EA0DF11D8081803311F4D1
:10226000297E09C022FF06C07394739404C0822F94
:10227000867809F0739423FD13C020FF06C05A2C02
:10228000731418F4530C5718732C731468F4B701B3
:1022900080E290E02C870E94B51173942C85F5CFD5
:1022A000731410F4371801C0312C24FF12C0B70189
:1022B00080E390E02C870E94B5112C8522FF17C087
:1022C00021FF03C088E590E002C088E790E0B701F5
:1022D0000CC0822F867859F021FD02C080E201C037
:1022E0008BE227FD8DE2B70190E00E94B511A514A5
:1022F00038F4B70180E390E00E94B5115A94F7CF0B
:10230000AA94F401EA0DF11D8081B70190E00E94CA
:10231000B511A110F5CF332009F451CEB70180E2F9
:1023200090E00E94B5113A94F6CFF701868197812B
:1023300002C08FEF9FEF2C96E2E10C94C912FC01D2
:102340000590615070400110D8F7809590958E0FE0
:102350009F1F0895FC016150704001900110D8F753
:10236000809590958E0F9F1F08950F931F93CF9385
:10237000DF93182F092FEB018B8181FD03C08FEFB5
:102380009FEF20C082FF10C04E815F812C813D8174
:10239000421753077CF4E881F9819F012F5F3F4F7B
:1023A00039832883108306C0E885F985812F099534
:1023B000892B29F72E813F812F5F3F4F3F832E834B
:1023C000812F902FDF91CF911F910F910895FA01E6
:1023D000AA27283051F1203181F1E8946F936E7F64
:1023E0006E5F7F4F8F4F9F4FAF4FB1E03ED0B4E055
:1023F0003CD0670F781F891F9A1FA11D680F791F96
:102400008A1F911DA11D6A0F711D811D911DA11DA6
:1024100020D009F468943F912AE0269F11243019B6
:10242000305D3193DEF6CF010895462F4770405D51
:102430004193B3E00FD0C9F7F6CF462F4F70405D00
:102440004A3318F0495D31FD4052419302D0A9F75B
:10245000EACFB4E0A6959795879577956795BA9555
:10246000C9F700976105710508959B01AC010A2E1B
:1024700006945795479537952795BA95C9F7620FF2
:10248000731F841F951FA01D08950E94E412A59F2D
:10249000900DB49F900DA49F800D911D112408955F
:1024A000DB018F939F930E944512BF91AF91A29F32
:1024B000800D911DA39F900DB29F900D1124089542
:1024C000991B79E004C0991F961708F0961B881F86
:1024D0007A95C9F780950895A1E21A2EAA1BBB1B15
:1024E000FD010DC0AA1FBB1FEE1FFF1FA217B307E0
:1024F000E407F50720F0A21BB30BE40BF50B661FF6
:10250000771F881F991F1A9469F7609570958095B9
:1025100090959B01AC01BD01CF010895052E97FB5D
:102520001EF400940E94A51257FD07D00E946C1261
:1025300007FC03D04EF40C94A512509540953095AD
:1025400021953F4F4F4F5F4F08959095809570951F
:1025500061957F4F8F4F9F4F08952F923F924F92DB
:102560005F926F927F928F929F92AF92BF92CF9223
:10257000DF92EF92FF920F931F93CF93DF93CDB72C
:10258000DEB7CA1BDB0B0FB6F894DEBF0FBECDBFA4
:1025900009942A88398848885F846E847D848C8475
:1025A0009B84AA84B984C884DF80EE80FD800C817E
:1025B0001B81AA81B981CE0FD11D0FB6F894DEBF61
:1025C0000FBECDBFED010895A29FB001B39FC00122
:1025D000A39F700D811D1124911DB29F700D811D4F
:1025E0001124911D0895EE0FFF1F0590F491E02D29
:1025F000099410E0CEEBD0E004C0FE010E94F51279
:0C2600002296C03CD107C9F7F894FFCF28
:10260C0001000000530000004105800073746172EA
:10261C0074696E67207570207365747570414458C9
:10262C004C3334350066696E697368656420736574
:10263C007475704144584C333435005B495D204906
:10264C00444C45005B525D2C2534642C2534642CA1
:10265C002534642C5B4D5D2C25642C256400000016
:10266C0000002C04CC05D203FF03E403210400007A
:0E267C000000EF07C20797079F07B207C107CC
:00000001FF
