:100000000C946A000C9492000C9492000C94920050
:100010000C9492000C9492000C9492000C94920018
:100020000C9492000C9492000C9492000C94920008
:100030000C9492000C9492000C9492000C949200F8
:100040000C94C1030C9492000C9427050C946A053F
:100050000C9492000C9492000C9492000C949200D8
:100060000C94710A0C9492004702440241023E0231
:100070003B023802350232022F022C0229022602EC
:10008000230220021D021A020000000700020100E4
:100090000003040600000000000000000102040844
:1000A00010204080010204081020010204081020E2
:1000B000040404040404040402020202020203030E
:1000C0000303030300000000250028002B00830227
:1000D00026068F0911241FBECFEFD8E0DEBFCDBFAB
:1000E00012E0A0E0B1E0E0EBFCE102C005900D926F
:1000F000A43AB107D9F714E0A4EAB2E001C01D9216
:10010000A032B107E1F710E0C4EDD0E004C02297BF
:10011000FE010E94520ECE3CD107C9F70E947C0618
:100120000C94FD0B0C94000008950F931F93CF9334
:10013000DF938C01EB0188E2FB0111928A95E9F7CC
:100140004BE050E060E071E0CE010E94000C1B86A5
:1001500041E050E060E070E04C875D876E877F870C
:10016000F8014381548165817681488B598B6A8B74
:100170007B8B46E050E060E070E04C8B5D8B6E8BDB
:100180007F8B1CA21DA21EA21FA24AE058EE6CE1AA
:1001900073EC488F598F6A8F7B8F4AE058EE6CE181
:1001A00073E44C8F5D8F6E8F7F8F43EA5FEA60E26E
:1001B0007DE348A359A36AA37BA3DF91CF911F914D
:1001C0000F910895FC018CE091E09183808343833B
:1001D000548365837683108617820895CF93DF93C7
:1001E000D82FC62F63E570E080E693E00E94770980
:1001F0006D2F80E693E00E9414096C2F80E693E057
:100200000E94140980E693E0DF91CF910C948C0951
:10021000CF93C82F63E570E080E693E00E947709F2
:100220006C2F80E693E00E94140980E693E00E9420
:100230008C0941E050E063E570E080E693E00E94C5
:100240006A0980E693E00E94C408CF91089580E691
:1002500093E00E94530980E00E940801853E49F026
:1002600040E150E0682F86EB92E00E94B80780E002
:10027000089568E08DE20E94EE0081E00895EF921B
:10028000FF921F93CF93DF931F92CDB7DEB77C0110
:10029000162F81E379830E940801682F607F612B0C
:1002A000686081E30E94EE00F7011783798170870F
:1002B0000F90DF91CF911F91FF90EF90089581E310
:1002C0000E940801837090E008958CE20E9408016A
:1002D0008F7090E00895CF93C82F63E570E080E6BB
:1002E00093E00E9477096C2F80E693E00E94140946
:1002F00080E693E00E948C0942E050E063E570E004
:1003000080E693E00E946A0980E693E00E94C408B8
:10031000C82F80E693E00E94C408982F88278C2B72
:10032000CF910895CF93DF93EB0124E2FB0111926B
:100330002A95E9F744E250E060E070E04883598391
:100340006A837B83FC0183819481A581B6818C8340
:100350009D83AE83BF8381E090E0A0E0B0E088871A
:100360009987AA87BB87188A198A1A8A1B8A82E307
:100370000E946B01BC01882777FD8095982F0E9411
:10038000130D2FE632E143E85BE30E94C70D2AE03C
:1003900038EE4CE151E40E94C70D6C8B7D8B8E8B47
:1003A0009F8B84E30E946B01BC01882777FD8095B9
:1003B000982F0E94130D2FE632E143E85BE30E9481
:1003C000C70D2AE038EE4CE151E40E94C70D688F5A
:1003D000798F8A8F9B8F86E30E946B01BC018827EF
:1003E00077FD8095982F0E94130D2FE632E143E8A8
:1003F0005BE30E94C70D2AE038EE4CE151E40E9415
:10040000C70D6C8F7D8F8E8F9F8FDF91CF91089559
:1004100062E171E086EB92E00E94C70684EA92E016
:100420000E94650180319105A8F5FC01EC5CFF4F4D
:100430000C94500E61E271E02FC067E271E02CC0B5
:100440006DE271E029C062E371E026C062E271E012
:1004500023C067E371E020C06CE371E01DC068E475
:1004600071E01AC060E471E017C066E471E014C086
:100470006CE471E011C062E571E00EC068E571E006
:100480000BC06EE571E008C064E671E005C06AE685
:1004900071E002C060E771E086EB92E00E94C7065F
:1004A00066E771E086EB92E00C94E4066AE771E09F
:1004B00086EB92E00E94C70684EA92E00E945F0108
:1004C0008130910589F02CF4892B89F463E772E07F
:1004D00010C08230910529F0039749F46EE871E06D
:1004E00008C06BE571E005C062E971E002C062E737
:1004F00071E086EB92E00E94C70665E971E086EB49
:1005000092E00C94E40649E350E360E070E084EA92
:1005100092E00C94E200CF93DF93CDB7DEB7A897BB
:100520000FB6F894DEBF0FBECDBFBE016F5F7F4F29
:1005300084EA92E00E94950068E971E086EB92E01F
:100540000E94E4066DEB71E086EB92E00E94C70624
:10055000BE016F5F7F4F86EB92E00E94E4066CEC79
:1005600071E086EB92E00E94C7064D855E856F853F
:1005700078892AE030E086EB92E00E9499076BEDE3
:1005800071E086EB92E00E94C70649895A896B891F
:100590007C892AE030E086EB92E00E9499076AEEBF
:1005A00071E086EB92E00E94C706498D5A8D6B8DF3
:1005B0007C8D22E030E086EB92E00E94BA0869EF81
:1005C00071E086EB92E00E94E40660E072E086EB68
:1005D00092E00E94C7064D8D5E8D6F8D78A122E05E
:1005E00030E086EB92E00E94BA0869EF71E086EB9A
:1005F00092E00E94E4066FE072E086EB92E00E94D7
:10060000C70649A15AA16BA17CA122E030E086EB8C
:1006100092E00E94BA0869EF71E086EB92E00E94D6
:10062000E40668E971E086EB92E00E94E4066BEC78
:1006300071E086EB92E00E94E40664EF71E080E0F6
:1006400090E00E942E04A8960FB6F894DEBF0FBE6D
:10065000CDBFDF91CF91089540E855E260E070E0B2
:1006600086EB92E00E94A5056EE172E086EB92E0D7
:100670000E94E4066BEC71E086EB92E00E94E406D7
:1006800084EA92E00E942701811107C061E372E0D1
:1006900086EB92E00E94E406FFCF60E070E084EA1F
:1006A00092E00E943F010E948B020E9408020E9479
:1006B00056026BEC71E086EB92E00C94E406CF936B
:1006C000DF93CDB7DEB7A4970FB6F894DEBF0FBEA9
:1006D000CDBFBE016F5F7F4F84EA92E00E9492011E
:1006E00063E672E086EB92E00E94C7064D895E8960
:1006F0006F89788D22E030E086EB92E00E94BA08A4
:1007000069EC71E086EB92E00E94C70667E672E052
:1007100086EB92E00E94C706498D5A8D6B8D7C8DC9
:1007200022E030E086EB92E00E94BA0869EC71E0CA
:1007300086EB92E00E94C7066BE672E086EB92E0E1
:100740000E94C7064D8D5E8D6F8D78A122E030E04E
:1007500086EB92E00E94BA0869EC71E086EB92E0C9
:100760000E94C7066FE672E086EB92E00E94E40604
:10077000A4960FB6F894DEBF0FBECDBFDF91CF9128
:1007800008951F920F920FB60F9211242F933F934B
:100790008F939F93AF93BF938091AE029091AF02DE
:1007A000A091B002B091B1023091AD0223E0230FCD
:1007B0002D3720F40196A11DB11D05C026E8230F99
:1007C0000296A11DB11D2093AD028093AE029093BD
:1007D000AF02A093B002B093B1028091B2029091A7
:1007E000B302A091B402B091B5020196A11DB11D52
:1007F0008093B2029093B302A093B402B093B50277
:10080000BF91AF919F918F913F912F910F900FBE0C
:100810000F901F9018953FB7F8948091B202909175
:10082000B302A091B402B091B50226B5A89B05C051
:100830002F3F19F00196A11DB11D3FBF6627782FEC
:10084000892F9A2F620F711D811D911D42E0660F45
:10085000771F881F991F4A95D1F70895CF92DF928D
:10086000EF92FF92CF93DF936B017C010E940B0408
:10087000EB01C114D104E104F10479F00E940B04EE
:100880006C1B7D0B683E7340A0F381E0C81AD10851
:10089000E108F108C851DC4FECCFDF91CF91FF9018
:1008A000EF90DF90CF900895789484B5826084BDF6
:1008B00084B5816084BD85B5826085BD85B5816064
:1008C00085BDEEE6F0E0808181608083E1E8F0E0C4
:1008D0001082808182608083808181608083E0E8F3
:1008E000F0E0808181608083E1EBF0E080818460D2
:1008F0008083E0EBF0E0808181608083EAE7F0E0D4
:100900008081846080838081826080838081816037
:1009100080838081806880831092C1000895FC01EB
:1009200024853585F901E05CFF4F80819181F901D3
:10093000EE5BFF4F20813181821B930B8F739927D0
:100940000895FC0184859585FC01E05CFF4F4081A2
:100950005181FC01EE5BFF4F20813181421753072B
:1009600041F00190F081E02DE80FF91F808190E0C7
:1009700008958FEF9FEF0895FC0184859585FC0114
:10098000E05CFF4F40815181FC01EE5BFF4F208115
:1009900031814217530779F0A081B181A80FB91FA7
:1009A0008C91208131812F5F3F4F2F73332731830B
:1009B000208390E008958FEF9FEF0895FC0181A1BF
:1009C000882329F0A489B5898C9186FFFBCF11A2D9
:1009D0000895CF93DF93FC0126853785D901A05C6C
:1009E000BF4F8D919C91119701968F739927E901C3
:1009F000CE5BDF4F4881598184179507D9F30D905D
:100A0000BC91A02DA20FB31F6C93A685B785A05CE7
:100A1000BF4F11969C938E93A689B7892C9181E044
:100A200090E0078C02C0880F991F0A94E2F7282BE8
:100A30002C9381E081A30488F589E02D8081806476
:100A4000808381E090E0DF91CF91089508951F9217
:100A50000F920FB60F9211242F933F934F938F93C2
:100A60009F93EF93FF938091C00082FD1CC0409143
:100A7000C60080915C0390915D0301968F73992766
:100A800020915E0330915F038217930771F0E0912C
:100A90005C03F0915D03E45EFC4F408390935D0343
:100AA00080935C0302C08091C600FF91EF919F91FB
:100AB0008F914F913F912F910F900FBE0F901F90EC
:100AC000189586EB92E00E948F04892B11F00C940C
:100AD000260508951F920F920FB60F9211242F939F
:100AE0003F938F939F93EF93FF932091180330913F
:100AF000190380911A0390911B032817390731F4C9
:100B00008091C1008F7D8093C10014C0E0911A03D1
:100B1000F0911B03E852FD4F208180911A039091C0
:100B20001B0301968F73992790931B0380931A03DD
:100B30002093C600FF91EF919F918F913F912F914C
:100B40000F900FBE0F901F901895CF92DF92EF92EB
:100B5000FF92CF93DF93EC016A017B01411581EE97
:100B6000580761057105F9F0EC89FD8981E090E095
:100B700008A002C0880F991F0A94E2F7808360E002
:100B800079E08DE390E0A70196010E942E0E21509E
:100B900031094109510956954795379527952115F2
:100BA00080E1380798F0EC89FD89108260E874E8EC
:100BB0008EE190E0A70196010E942E0E215031098E
:100BC000410951095695479537952795E889F9893F
:100BD0003083EA89FB89208319A2EE89FF8940814D
:100BE00081E090E09C010C8C02C0220F331F0A941C
:100BF000E2F7422B4083EE89FF8940819C010D8CF6
:100C000002C0220F331F0A94E2F7422B4083EE8981
:100C1000FF8940819C010E8C02C0220F331F0A9471
:100C2000E2F7422B4083EE89FF8920810F8C02C0BE
:100C3000880F991F0A94E2F7809582238083DF91C1
:100C4000CF91FF90EF90DF90CF9008951092B9026E
:100C50001092B80288EE93E0A0E0B0E08093BA0270
:100C60009093BB02A093BC02B093BD028AE792E0CE
:100C70009093B7028093B6028CE193E09093C30205
:100C80008093C20288ED92E09093C5028093C402E3
:100C900085EC90E09093C7028093C60284EC90E0CC
:100CA0009093C9028093C80280EC90E09093CB02AD
:100CB0008093CA0281EC90E09093CD028093CC02A5
:100CC00082EC90E09093CF028093CE0286EC90E08D
:100CD0009093D1028093D00284E08093D20283E08B
:100CE0008093D30287E08093D40285E08093D5027D
:100CF00081E08093D60208950E9454040E942C0340
:100D0000C1E6D5E00E945F032097E1F30E946105F0
:100D1000F9CFCF92DF92EF92FF920F931F93CF9371
:100D2000DF936C017A01EB01E60EF71E00E010E0A4
:100D3000CE15DF0561F06991D601ED91FC9101902E
:100D4000F081E02DC6010995080F191FF1CFC801E8
:100D5000DF91CF911F910F91FF90EF90DF90CF9097
:100D600008956115710581F0DB010D900020E9F710
:100D7000AD0141505109461B570BDC01ED91FC912F
:100D80000280F381E02D099480E090E008950C94B6
:100D9000B106DC01ED91FC910190F081E02D099408
:100DA0000F931F93CF93DF93EC016DE00E94C90670
:100DB0008C016AE0CE010E94C906800F911FDF916D
:100DC000CF911F910F9108950F931F93CF93DF93AE
:100DD000EC010E94B1068C01CE010E94D006800F6A
:100DE000911FDF91CF911F910F9108958F929F9244
:100DF000AF92BF92CF92DF92EF92FF920F931F9329
:100E0000CF93DF93CDB7DEB7A1970FB6F894DEBFCF
:100E10000FBECDBF7C01C42EE52FCB01D22E19A26F
:100E200021E02D1510F02AE0D22E8E010F5D1F4F0C
:100E30008D2C912CA12CB12C6C2D7E2FA501940111
:100E40000E942E0E8C2DD29E801911240150110962
:100E50008A3014F4805D01C0895CF801808321151B
:100E600031054105510521F0C22EE32FCA01E4CF1F
:100E7000B801C7010E94B106A1960FB6F894DEBF73
:100E80000FBECDBFDF91CF911F910F91FF90EF90DB
:100E9000DF90CF90BF90AF909F908F900895CF92AA
:100EA000DF92EF92FF920F931F93CF93DF93EC01AA
:100EB0006A017B012115310579F4E881F9810190FE
:100EC000F081E02D642FDF91CF911F910F91FF9062
:100ED000EF90DF90CF9009942A303105E9F477FF45
:100EE0001AC06DE20E94C9068C0144275527BA0139
:100EF0004C195D096E097F092AE0CE010E94F606B1
:100F0000800F911FDF91CF911F910F91FF90EF9074
:100F1000DF90CF9008952AE0B701A601CE01DF91BE
:100F2000CF911F910F91FF90EF90DF90CF900C9495
:100F3000F6060F931F93CF93DF93EC010E944F07A8
:100F40008C01CE010E94D006800F911FDF91CF91BE
:100F50001F910F9108952115310541F4DC01ED91A8
:100F6000FC910190F081E02D642F09940C94F60619
:100F70000F931F93CF93DF93EC019A01462F50E01C
:100F800060E070E00E94AB078C01CE010E94D006A9
:100F9000800F911FDF91CF911F910F9108954F9274
:100FA0005F926F927F928F929F92AF92BF92CF92F9
:100FB000DF92EF92FF920F931F93CF93DF93EC0199
:100FC0006A017B01B22E9A01AB01C701B6010E94F2
:100FD0002A0E882319F066E872E027C0260137013F
:100FE000E89477F82FEF3FEF4FE75FE7C301B201D7
:100FF0000E942A0E81110DC02FEF3FEF4FE75FE7F0
:10100000C301B2010E94740C18161CF46AE872E065
:101010000CC02FEF3FEF4FE75FE4C701B6010E941E
:10102000C30D1816ACF46EE872E0CE01DF91CF91DB
:101030001F910F91FF90EF90DF90CF90BF90AF90F6
:101040009F908F907F906F905F904F900C94B1061F
:101050002FEF3FEF4FE75FECC701B6010E94740C22
:1010600087FDE1CF20E030E0A901C701B6010E9471
:10107000740C87FF0AC06DE2CE010E94C9068C0184
:10108000F7FAF094F7F8F09402C000E010E0A12C19
:1010900060E070E080E09FE3AB1441F020E030E0DE
:1010A00040E251E40E94780CA394F6CF9B01AC017E
:1010B000C701B6010E94100C6B017C010E94E50C77
:1010C0002B013C010E94110D9B01AC01C701B6012F
:1010D0000E940F0C6B017C012AE0B301A201CE013A
:1010E0000E94F606080F191FBB2039F062E972E072
:1010F000CE010E94B106080F191F7B2C772041F109
:1011000020E030E040E251E4C701B6010E94C70D83
:101110006B017C010E94E00C4B01AA2497FCA09477
:10112000BA2C2AE030E0B501A401CE010E944F079D
:10113000080F191FC501B4010E94130D9B01AC01DA
:10114000C701B6010E940F0C6B017C017A94D6CFC7
:10115000C801DF91CF911F910F91FF90EF90DF9029
:10116000CF90BF90AF909F908F907F906F905F9047
:101170004F9008950C94CF078091900390E02091B8
:101180009103821B9109089520919103809190030E
:10119000281750F4E22FF0E0EE56FC4F808190E0EB
:1011A0002F5F2093910308958FEF9FEF0895E091B3
:1011B000910380919003E81730F4F0E0EE56FC4F75
:1011C000808190E008958FEF9FEF08950895CF926A
:1011D000DF92EF92FF920F931F93CF93DF937C01E7
:1011E000CB018A0120916C03222389F0EB016B0172
:1011F000C40ED51ECC15DD0569F06991D701ED91BE
:10120000FC910190F081E02DC7010995F3CF642F87
:101210000E94480AC801DF91CF911F910F91FF9062
:10122000EF90DF90CF900895CF93DF931F92CDB7CB
:10123000DEB7698320916C032223D1F020916D03E6
:10124000203240F021E030E0FC013383228380E053
:1012500090E015C080916E03E82FF0E0E159FC4F5B
:10126000998190838F5F80936E0380936D0305C097
:1012700061E0CE0101960E94480A81E090E00F9063
:10128000DF91CF910895FC011382128248EE53E062
:1012900060E070E0448355836683778388E992E059
:1012A000918380830895109291031092900310927D
:1012B0006E0310926D030C949309862F413208F04F
:1012C00040E262E973E00E94B109109291038093B9
:1012D0009003089521E00C945D0981E080936C03F4
:1012E00060938F0310926E0310926D0308950C9417
:1012F0006D090F93062F21E040916D036FE673E0B7
:1013000080918F030E94F50910926E0310926D0375
:1013100010926C030F91089561E00C94790980E6B6
:1013200093E00C94430910921F0481E080931D0404
:1013300010921C0461E082E10E94C70B61E083E12E
:101340000E94C70BE9EBF0E080818E7F8083808173
:101350008D7F808388E48093B80085E48093BC000F
:101360000895413208F03FC090911F049111FCCFC5
:1013700091E090931F0420931D042FEF2093B2035C
:101380001092F703240F2093F60390931E0490917C
:101390001E04880F892B80931E0480911C048130C9
:1013A00041F410921C0480911E048093BB0085ECD4
:1013B00001C085EE8093BC0080911F048130E1F371
:1013C0008091F703841710F44091F70328EF33E07E
:1013D000FB01D9018A2F821B841718F48D91819308
:1013E000F9CF842F089580E008950F93413208F0DB
:1013F00046C090911F049111FCCF92E090931F047E
:1014000000931D049FEF9093B2031092F703409353
:10141000F603FB0168EF73E0DB019A2F961B94172C
:1014200018F491919D93F9CF10921E0490911E048F
:10143000880F892B80931E0480911C04813041F415
:1014400010921C0480911E048093BB0085EC01C0A7
:1014500085EE8093BC00222321F080911F0482300E
:10146000E1F38091B2038F3F61F08091B20380324B
:1014700051F08091B203803341F483E007C081E0F2
:1014800005C080E003C082E001C084E00F910895B0
:10149000613298F420911F04243089F46093D403BE
:1014A000FC0186ED93E0DC012A2F281B261718F497
:1014B00021912D93F9CF80E0089581E0089582E095
:1014C000089585ED8093BC008091BC0084FDFCCF25
:1014D00010921F04089585EC8093BC0010921F04A5
:1014E00008951F920F920FB60F9211242F933F93DE
:1014F0004F935F936F937F938F939F93AF93BF931C
:10150000EF93FF938091B900887F803609F49CC0E7
:1015100068F5883209F45BC090F4803109F454C056
:1015200038F4882309F4F5C0883009F44DC0F5C0BB
:10153000883109F44CC0803209F45DC0EEC08034BB
:1015400009F468C048F4803309F455C0883309F0C1
:10155000E4C08093B203A8C0803509F44FC0883539
:1015600009F45DC0883409F0D8C0D5C0883909F4C1
:10157000C6C0A8F4883709F467C038F4883609F47F
:1015800063C0803709F460C0C8C0883809F4B7C0A8
:10159000803909F45FC0803809F0BFC05BC0803B70
:1015A00009F485C038F4803A09F466C0883A09F431
:1015B0007EC0B3C0803C09F4A6C0883C09F4A3C037
:1015C000883B09F489C0A9C080911E0410C0909185
:1015D000F7038091F603981770F5E091F70381E027
:1015E0008E0F8093F703F0E0E850FC4F80818093EA
:1015F000BB0085EC85C08093B2038DC0E091F703FA
:1016000081E08E0F8093F7038091BB00F0E0E850FB
:10161000FC4F80839091F7038091F6036DC0E091B9
:10162000F70381E08E0F8093F7038091BB00F0E019
:10163000E850FC4F808380911D0481116CC081E0D3
:1016400080931C0484EA60C083E080931F0410929E
:10165000B303CFCF8091B303803208F050C0E09144
:10166000B30381E08E0F8093B3038091BB00F0E061
:10167000EC54FC4F8083BDCF8091B303803230F4B3
:10168000E091B303F0E0EC54FC4F10820E94610A39
:101690006091B30370E0E0911804F091190484EBB9
:1016A00093E009951092B3030E946B0A36C084E060
:1016B00080931F041092D5031092D403E0911A0472
:1016C000F0911B0409958091D403811105C081E03C
:1016D0008093D4031092D603E091D50381E08E0F5E
:1016E0008093D503F0E0EA52FC4F80818093BB00E9
:1016F0009091D5038091D403981708F47ACF85E8A8
:101700008093BC000AC085EC8093BC0010921F043B
:1017100004C01092B2030E94610AFF91EF91BF9141
:10172000AF919F918F917F916F915F914F913F9179
:101730002F910F900FBE0F901F901895833081F05E
:1017400028F4813099F08230A1F008958630A9F014
:101750008730B9F08430D1F4809180008F7D03C050
:10176000809180008F7780938000089584B58F7773
:1017700002C084B58F7D84BD08958091B0008F77BD
:1017800003C08091B0008F7D8093B00008950F93C7
:101790001F93CF93DF931F92CDB7DEB7282F30E092
:1017A000F901E857FF4F8491F901E456FF4F149176
:1017B000F901E055FF4F04910023C9F0882321F07F
:1017C00069830E949E0B6981E02FF0E0EE0FFF1FFE
:1017D000EC53FF4FA591B4919FB7F8948C91611190
:1017E00003C01095812301C0812B8C939FBF0F9064
:1017F000DF91CF911F910F910895F8940C94560E9C
:10180000FB01DC014150504048F001900D92002056
:10181000C9F701C01D9241505040E0F7089550585B
:10182000BB27AA270ED075C166D130F06BD120F04E
:1018300031F49F3F11F41EF45BC10EF4E095E7FB19
:1018400051C1E92F77D180F3BA1762077307840774
:10185000950718F071F49EF58FC10EF4E0950B2EEC
:10186000BA2FA02D0B01B90190010C01CA01A001F2
:101870001124FF27591B99F0593F50F4503E68F14D
:101880001A16F040A22F232F342F4427585FF3CF8E
:10189000469537952795A795F0405395C9F77EF45F
:1018A0001F16BA0B620B730B840BBAF09150A1F0A8
:1018B000FF0FBB1F661F771F881FC2F70EC0BA0F2E
:1018C000621F731F841F48F4879577956795B795B6
:1018D000F7959E3F08F0B3CF9395880F08F09927AE
:1018E000EE0F979587950895D9D008F481E0089573
:1018F0000CD00FC107D140F0FED030F021F45F3F93
:1019000019F0F0C0511139C1F3C014D198F39923E3
:10191000C9F35523B1F3951B550BBB27AA276217B3
:101920007307840738F09F5F5F4F220F331F441FF8
:10193000AA1FA9F333D00E2E3AF0E0E830D0915030
:101940005040E695001CCAF729D0FE2F27D0660F1D
:10195000771F881FBB1F261737074807AB07B0E85C
:1019600009F0BB0B802DBF01FF2793585F4F2AF072
:101970009E3F510568F0B6C000C15F3FECF3983E52
:10198000DCF3869577956795B795F7959F5FC9F7CF
:10199000880F911D9695879597F90895E1E0660F58
:1019A000771F881FBB1F621773078407BA0720F0D1
:1019B000621B730B840BBA0BEE1F88F7E09508953A
:1019C00004D06894B111D9C00895BCD088F09F5755
:1019D00090F0B92F9927B751A0F0D1F0660F771F7B
:1019E000881F991F1AF0BA95C9F712C0B13081F05B
:1019F000C3D0B1E00895C0C0672F782F8827B85FA3
:101A000039F0B93FCCF3869577956795B395D9F7BB
:101A10003EF490958095709561957F4F8F4F9F4FC5
:101A20000895E89409C097FB3EF4909580957095D1
:101A300061957F4F8F4F9F4F9923A9F0F92F96E91A
:101A4000BB279395F695879577956795B795F1118F
:101A5000F8CFFAF4BB0F11F460FF1BC06F5F7F4F2C
:101A60008F4F9F4F16C0882311F096E911C077233E
:101A700021F09EE8872F762F05C0662371F096E847
:101A8000862F70E060E02AF09A95660F771F881F16
:101A9000DAF7880F9695879597F90895990F0008BA
:101AA000550FAA0BE0E8FEEF16161706E807F90730
:101AB000C0F012161306E407F50798F0621B730BCB
:101AC000840B950B39F40A2661F0232B242B252B4C
:101AD00021F408950A2609F4A140A6958FEF811DEF
:101AE000811D089597F99F6780E870E060E0089590
:101AF0009FEF80EC089500240A9416161706180626
:101B00000906089500240A94121613061406050601
:101B10000895092E0394000C11F4882352F0BB0F92
:101B200040F4BF2B11F460FF04C06F5F7F4F8F4FF5
:101B30009F4F089557FD9058440F551F59F05F3F30
:101B400071F04795880F97FB991F61F09F3F79F0DF
:101B500087950895121613061406551FF2CF469561
:101B6000F1DF08C0161617061806991FF1CF8695E3
:101B70007105610508940895E894BB2766277727C7
:101B8000CB0197F908958ADF08F48FEF08950BD001
:101B9000C0CFB1DF28F0B6DF18F0952309F0A2CF4F
:101BA000A7CF1124EACFC6DFA0F3959FD1F3950FFD
:101BB00050E0551F629FF001729FBB27F00DB11DD1
:101BC000639FAA27F00DB11DAA1F649F6627B00D61
:101BD000A11D661F829F2227B00DA11D621F739F4A
:101BE000B00DA11D621F839FA00D611D221F749F58
:101BF0003327A00D611D231F849F600D211D822F9F
:101C0000762F6A2F11249F5750408AF0E1F08823E5
:101C10004AF0EE0FFF1FBB1F661F771F881F9150F2
:101C20005040A9F79E3F510570F05CCFA6CF5F3FB3
:101C3000ECF3983EDCF3869577956795B795F79525
:101C4000E7959F5FC1F7FE2B880F911D96958795AD
:101C500097F9089523DF880B990B0895A1E21A2EB6
:101C6000AA1BBB1BFD010DC0AA1FBB1FEE1FFF1F40
:101C7000A217B307E407F50720F0A21BB30BE40B90
:101C8000F50B661F771F881F991F1A9469F76095D7
:101C90007095809590959B01AC01BD01CF01089591
:101CA000EE0FFF1F0590F491E02D0994F894FFCFFB
:101CB0004144584C33343500000000009400920138
:101CC00095004461746120526174653A202020209F
:101CD00000333230302000313630302000383030A0
:101CE00020003430302000313030200035302000EA
:101CF00031322E352000362E32352000332E31334E
:101D00002000312E35362000302E37382000302E7E
:101D100033392000302E32302000302E3130200078
:101D20003F3F3F3F200020487A0052616E67653A8E
:101D30002020202020202020202B2F2D2000313675
:101D400020003420002067002D2D2D2D2D2D2D2D30
:101D50002D2D2D2D2D2D2D2D2D2D2D2D2D2D2D2DB3
:101D60002D2D2D2D2D2D2D2D2D2D2D2D0053656E31
:101D7000736F723A20202020202020004472697660
:101D80006572205665723A20202000556E69717583
:101D9000652049443A20202020004D61782056617A
:101DA0006C75653A2020202000206D2F735E320074
:101DB0004D696E2056616C75653A202020200052D6
:101DC00065736F6C7574696F6E3A202020004163F3
:101DD00063656C65726F6D657465722054657374AC
:101DE000004F6F6F70732C206E6F204144584C333E
:101DF0003435206465746563746564202E2E2E204E
:101E0000436865636B20796F757220776972696EBC
:101E1000672100583A2000593A20005A3A20006DB4
:101E20002F735E32200000000000E90489068F0451
:101E3000BC04A104DE046E616E00696E66006F76FC
:101E400066002E00000000001409E708BC08C40862
:041E5000D708E608C1
:00000001FF
