:100000000C9466000C948E000C948E000C948E0060
:100010000C948E000C948E000C948E000C948E0028
:100020000C948E000C948E000C948E000C948E0018
:100030000C948E000C948E000C948E000C948E0008
:100040000C9442020C948E000C944C040C948F047B
:100050000C948E000C948E000C948E000C948E00E8
:100060000C948E000C948E0000000007000201002A
:100070000003040600000000000000000102040864
:100080001020408001020408102001020408102002
:10009000040404040404040402020202020203032E
:1000A0000303030300000000250028002B000000CC
:1000B0000000240027002A0090004B05FC05A90A37
:1000C0003A0CD70DBB0FC60F1F10AE0011241FBE78
:1000D000CFEFD8E0DEBFCDBF13E0A0E0B1E0E0E8B5
:1000E000F3E302C005900D92A43EB107D9F715E0E5
:1000F000A4EEB3E001C01D92A030B107E1F710E01B
:10010000CAECD0E004C02297FE010E94AF19C83BA0
:10011000D107C9F70E940B060C9455190C940000E6
:100120000F9300E020E040E060E087EF93E00E9462
:10013000E50502EA2AE048EA60EC81EF93E00E94DC
:10014000E50560E570E08BEE93E00E94A20C6DE3A4
:1001500071E084EE93E00F910C94B10784EE93E08C
:100160000C944307CF93DF9300D000D000D0CDB7DD
:10017000DEB740E855E260E070E086E094E00E947F
:10018000CA0487E993E09A8389838091F30390916D
:10019000F403A091F503B091F6038B839C83AD83A8
:1001A000BE83AE014F5F5F4F66E071E08CEB94E081
:1001B0000E94DA0B8BEE93E00E945E0C64E171E02A
:1001C00086E094E00E948B066CEB74E0CE01019611
:1001D0000E94180CBE016F5F7F4F86E094E00E9482
:1001E000C40661E0809104010E94450326960FB683
:1001F000F894DEBF0FBECDBFDF91CF910895DF929F
:10020000EF92FF920F931F93CF93DF93CDB7DEB79B
:100210006B970FB6F894DEBF0FBECDBF6BEE73E0E9
:10022000CE0101960E94660DCE0101960E94ED0856
:10023000882309F419C162E271E086E094E00E942B
:10024000B20663E673E0CE0145960E94B107EE2444
:10025000E394CE0101960E94850A882309F4F6C032
:10026000CE0101960E940F09892B99F3CE010196C8
:100270000E941A09F82EE0910604F09107040190FB
:10028000F081E02D682F86E094E009956F2DCE0176
:1002900045960E940C086DE271E0CE010E960E9418
:1002A000B107BE01625F7F4FCE0145960E946B0889
:1002B0008C01CE010E960E944307A801BE016B5E21
:1002C0007F4FCE010E960E94B40862E371E0CE012A
:1002D0000E960E941F08D82ECE010E960E9443074C
:1002E000DD2059F061E0809104010E947E0366E305
:1002F00071E084EE93E00E94C807A801BE016B5E26
:100300007F4FCE010E960E94B40869E371E0CE01E2
:100310000E960E941F08182FCE010E960E944307CA
:10032000112359F060E0809104010E947E036DE387
:1003300071E084EE93E00E94C8078AE0F81280C062
:10034000EE2009F484CF61E471E0CE0101960E94B1
:10035000B20661E571E0CE0101960E94B206CE01BF
:1003600001960E949E0669E671E0CE0101960E9408
:10037000B20660E771E0CE0101960E94B20667E71F
:1003800071E0CE0101960E94B2066FE771E0CE01E6
:1003900001960E94B20666E871E0CE0101960E94C5
:1003A000B2066FEE71E0CE0101960E94B20660E1E6
:1003B00072E0CE0101960E94B20666E371E0CE01C2
:1003C00001960E94B20669EA72E0CE0101960E948F
:1003D000B20663EB72E0CE0101960E94B2066DE3B5
:1003E00071E0CE0101960E94B20669EA72E0CE0188
:1003F00001960E94B2066DE473E0CE0101960E9460
:10040000B2066AE573E0CE0101960E94B20664EE80
:1004100073E0CE0101960E94560664E673E0CE01B9
:1004200001960E94B2066FE673E0CE0101960E942B
:10043000B2066BE773E0CE0101960E94B20606C0D9
:100440008DE0F81609F405CFE12C03CF61E070E0F0
:1004500080E090E00E94BB02CE0101960E94440A17
:10046000CE0145960E9443076B960FB6F894DEBF07
:100470000FBECDBFDF91CF911F910F91FF90EF90F5
:10048000DF9008951F920F920FB60F9211242F93B1
:100490003F938F939F93AF93BF938091FE0390916F
:1004A000FF03A0910004B09101043091FD0323E00B
:1004B000230F2D3720F40196A11DB11D05C026E89C
:1004C000230F0296A11DB11D2093FD038093FE030F
:1004D0009093FF03A0930004B09301048091020461
:1004E00090910304A0910404B09105040196A11D0C
:1004F000B11D8093020490930304A0930404B0936D
:100500000504BF91AF919F918F913F912F910F90D3
:100510000FBE0F901F9018952FB7F8946091FE03AF
:100520007091FF0380910004909101042FBF089502
:100530003FB7F8948091020490910304A0910404C1
:10054000B091050426B5A89B05C02F3F19F0019670
:10055000A11DB11D3FBF6627782F892F9A2F620FEB
:10056000711D811D911D42E0660F771F881F991F25
:100570004A95D1F70895CF92DF92EF92FF92CF93F1
:10058000DF936B017C010E949802EB01C114D1043E
:10059000E104F10479F00E9498026C1B7D0B683E27
:1005A0007340A0F381E0C81AD108E108F108C851EE
:1005B000DC4FECCFDF91CF91FF90EF90DF90CF90A9
:1005C0000895789484B5826084BD84B5816084BDCB
:1005D00085B5826085BD85B5816085BDEEE6F0E0BC
:1005E000808181608083E1E8F0E010828081826018
:1005F0008083808181608083E0E8F0E08081816099
:100600008083E1EBF0E0808184608083E0EBF0E0C8
:10061000808181608083EAE7F0E08081846080836C
:100620008081826080838081816080838081806816
:1006300080831092C1000895833081F028F48130C6
:1006400099F08230A1F008958630A9F08730B9F092
:100650008430D1F4809180008F7D03C08091800030
:100660008F7780938000089584B58F7702C084B51A
:100670008F7D84BD08958091B0008F7703C08091F5
:10068000B0008F7D8093B0000895CF93DF9390E00A
:10069000FC01E458FF4F2491FC01E057FF4F849187
:1006A000882349F190E0880F991FFC01E255FF4F24
:1006B000A591B4918C559F4FFC01C591D4919FB7E2
:1006C000611108C0F8948C91209582238C938881C5
:1006D00082230AC0623051F4F8948C91322F309505
:1006E00083238C938881822B888304C0F8948C9117
:1006F000822B8C939FBFDF91CF9108950F931F930F
:10070000CF93DF931F92CDB7DEB7282F30E0F901EA
:10071000E859FF4F8491F901E458FF4F1491F90112
:10072000E057FF4F04910023C9F0882321F069832B
:100730000E941C036981E02FF0E0EE0FFF1FEC55D3
:10074000FF4FA591B4919FB7F8948C91611103C0AC
:100750001095812301C0812B8C939FBF0F90DF9157
:10076000CF911F910F910895FC0124853585F901E2
:10077000E05CFF4F80819181F901EE5BFF4F2081AA
:100780003181821B930B8F7399270895FC01848517
:100790009585FC01E05CFF4F40815181FC01EE5BDF
:1007A000FF4F208131814217530741F00190F081C2
:1007B000E02DE80FF91F808190E008958FEF9FEF03
:1007C0000895FC0184859585FC01E05CFF4F408124
:1007D0005181FC01EE5BFF4F2081318142175307AD
:1007E00079F0A081B181A80FB91F8C91208131814E
:1007F0002F5F3F4F2F7333273183208390E008957D
:100800008FEF9FEF0895FC0181A1882329F0A4892F
:10081000B5898C9186FFFBCF11A20895CF93DF930A
:10082000FC0126853785D901A05CBF4F8D919C9135
:10083000119701968F739927E901CE5BDF4F4881AD
:10084000598184179507D9F30D90BC91A02DA20F63
:10085000B31F6C93A685B785A05CBF4F11969C9380
:100860008E93A689B7892C9181E090E0078C02C015
:10087000880F991F0A94E2F7282B2C9381E081A31B
:100880000488F589E02D80818064808381E090E098
:10089000DF91CF91089508951F920F920FB60F9296
:1008A00011242F933F934F938F939F93EF93FF9335
:1008B0008091C00082FD1CC04091C6008091AC04B4
:1008C0009091AD0401968F7399272091AE043091D9
:1008D000AF048217930771F0E091AC04F091AD047E
:1008E000E459FB4F40839093AD048093AC0402C065
:1008F0008091C600FF91EF919F918F914F913F9111
:100900002F910F900FBE0F901F90189586E094E0E6
:100910000E94B403892B11F00C944B0408951F928C
:100920000F920FB60F9211242F933F938F939F93A3
:10093000EF93FF93209168043091690480916A04D9
:1009400090916B042817390731F48091C1008F7D95
:100950008093C10014C0E0916A04F0916B04E85DDB
:10096000FB4F208180916A0490916B0401968F73F4
:10097000992790936B0480936A042093C600FF919B
:10098000EF919F918F913F912F910F900FBE0F90FC
:100990001F901895CF92DF92EF92FF92CF93DF9343
:1009A000EC016A017B01411581EE58076105710573
:1009B000F9F0EC89FD8981E090E008A002C0880F81
:1009C000991F0A94E2F7808360E079E08DE390E07C
:1009D000A70196010E948B19215031094109510943
:1009E0005695479537952795211580E1380798F05A
:1009F000EC89FD89108260E874E88EE190E0A7013F
:100A000096010E948B1921503109410951095695CF
:100A1000479537952795E889F9893083EA89FB89D5
:100A2000208319A2EE89FF89408181E090E09C013A
:100A30000C8C02C0220F331F0A94E2F7422B408332
:100A4000EE89FF8940819C010D8C02C0220F331F6B
:100A50000A94E2F7422B4083EE89FF8940819C0192
:100A60000E8C02C0220F331F0A94E2F7422B408300
:100A7000EE89FF8920810F8C02C0880F991F0A948C
:100A8000E2F7809582238083DF91CF91FF90EF90F2
:100A9000DF90CF900895109209041092080488EE18
:100AA00093E0A0E0B0E080930A0490930B04A0933D
:100AB0000C04B0930D0487E893E0909307048093AF
:100AC00006048CE694E0909313048093120488E269
:100AD00094E0909315048093140485EC90E0909337
:100AE00017048093160484EC90E09093190480938B
:100AF000180480EC90E090931B0480931A0481EC1E
:100B000090E090931D0480931C0482EC90E09093FD
:100B10001F0480931E0486EC90E090932104809340
:100B2000200484E08093220483E08093230487E000
:100B30008093240485E08093250481E0809326043B
:100B40000895AF92BF92CF92DF92EF92FF920F93F0
:100B50001F93CF93DF936C017B01C0E0D0E000E0F6
:100B600010E0F601EC0FFD1F4AE050E06281C70182
:100B70000E943C075C016EE2C7010E948D068A0D4F
:100B80009B1D080F191F2196C330D10551F74AE06C
:100B900050E0F6016581C7010E943C07800F911F5C
:100BA000DF91CF911F910F91FF90EF90DF90CF9049
:100BB000BF90AF90089527E933E0FC013183208393
:100BC000128213821482158208950F93FC0187E923
:100BD00093E09183808362834383248305830F9111
:100BE0000895FB014081518162817381FC01428340
:100BF000538364837583089587E993E09093B104E8
:100C00008093B0041092B2041092B3041092B40412
:100C10001092B50408950E94E1020E94B200C6E855
:100C2000D4E00E94FF002097E1F30E948604F9CFF0
:100C3000CF92DF92EF92FF920F931F93CF93DF93A8
:100C40006C017A01EB01E60EF71E00E010E0CE1514
:100C5000DF0561F06991D601ED91FC910190F08181
:100C6000E02DC6010995080F191FF1CFC801DF91CA
:100C7000CF911F910F91FF90EF90DF90CF9008954B
:100C80006115710581F0DB010D900020E9F7AD01E0
:100C900041505109461B570BDC01ED91FC9102803C
:100CA000F381E02D099480E090E00895AF92BF9227
:100CB000CF92DF92EF92FF920F931F93CF93DF9328
:100CC0007C016B01C0E0D0E000E010E0D60114969A
:100CD0008D919C911597C817D90788F4D701ED918C
:100CE000FC91A080B180BE01C6010E943E08682F21
:100CF000C701F5010995080F191F2196E7CFC80113
:100D0000DF91CF911F910F91FF90EF90DF90CF90E7
:100D1000BF90AF9008950C944006DC01ED91FC91DA
:100D20000190F081E02D0994DB01ED91FC91119788
:100D30000190F081E02DBC01CD0109940F931F9328
:100D4000CF93DF93EC016DE00E948D068C016AE089
:100D5000CE010E948D06800F911FDF91CF911F91D0
:100D60000F9108950F931F93CF93DF93EC010E948F
:100D700040068C01CE010E949E06800F911FDF91DC
:100D8000CF911F910F9108950F931F93CF93DF93EE
:100D9000EC010E9494068C01CE010E949E06800FF9
:100DA000911FDF91CF911F910F9108958F929F9284
:100DB000AF92BF92CF92DF92EF92FF920F931F9369
:100DC000CF93DF93CDB7DEB7A1970FB6F894DEBF10
:100DD0000FBECDBF7C01C42EE52FCB01D22E19A2B0
:100DE00021E02D1510F02AE0D22E8E010F5D1F4F4D
:100DF0008D2C912CA12CB12C6C2D7E2FA501940152
:100E00000E948B198C2DD29E80191124015011093A
:100E10008A3014F4805D01C0895CF801808321155B
:100E200031054105510521F0C22EE32FCA01E4CF5F
:100E3000B801C7010E944006A1960FB6F894DEBF24
:100E40000FBECDBFDF91CF911F910F91FF90EF901B
:100E5000DF90CF90BF90AF909F908F900895211515
:100E6000310541F4DC01ED91FC910190F081E02D20
:100E7000642F09940C94D6069A01462F50E060E046
:100E800070E00C942F07FC01808191810C94C717AE
:100E9000CF93DF93EC0188819981009711F00E9434
:100EA000C717198218821D821C821B821A82DF9149
:100EB000CF9108950F931F93CF93DF93EC018B0194
:100EC0006F5F7F4F888199810E945618009731F09B
:100ED000998388831B830A8381E001C080E0DF91CE
:100EE000CF911F910F910895CF93DF93EC018881EB
:100EF0009981892B29F08A819B818617970760F455
:100F0000CE010E945A07882341F08C819D81892B54
:100F100019F4E881F981108281E0DF91CF91089581
:100F2000EF92FF920F931F93CF93DF93EC017B011E
:100F30008A01BA010E947407811104C0CE010E9487
:100F4000480707C01D830C83B701888199810E94DF
:100F50006A19CE01DF91CF911F910F91FF90EF9011
:100F60000895FC011182108213821282158214826C
:100F700016826115710559F0FB0101900020E9F717
:100F8000AF0141505109461B570B0C94900708952F
:100F9000CF93DF93EC016115710561F0FB010190C6
:100FA0000020E9F7AF0141505109461B570B0E9441
:100FB000900702C00E944807CE01DF91CF910895AB
:100FC000EF92FF920F931F93CF93DF93EC017B017E
:100FD0000C811D816115710511F480E016C0411569
:100FE000510591F0040F151FB8010E947407882362
:100FF000A1F3288139818C819D81B701820F931FD4
:101000000E946A191D830C8381E0DF91CF911F91AB
:101010000F91FF90EF900895CF93DF9300D0CDB75D
:10102000DEB769831A8241E050E0BE016F5F7F4FF7
:101030000E94E0070F900F90DF91CF910895FC017F
:1010400024813581232B31F421E061157105A1F054
:10105000FB0108C0FC01808191816115710531F4AB
:1010600021E0FC018081882339F005C00E946119CC
:1010700021E0892B09F020E0822F0895FC012481D2
:1010800035816217730748F480819181009729F0B8
:10109000FC01E60FF71F8081089580E00895CF934B
:1010A000DF93FC01848195814817590778F4C0814A
:1010B000D181FB0160817181CE01840F951F0E9457
:1010C0007119009719F08C1B9D0B02C08FEF9FEFD9
:1010D000DF91CF91089540E050E00C944F08BF920B
:1010E000CF92DF92EF92FF920F931F93CF93DF93F4
:1010F0006C017B01EA0189012417350720F48D2F4B
:10110000E901042F182F63E673E0C6010E94B107BE
:10111000D70114968D919C9115978C179D07C8F057
:101120008017910708F48C01D701ED91FC9111977C
:10113000E00FF11FB08010826D917C916C0F7D1FCC
:10114000C6010E94C807D701ED91FC91E00FF11F85
:10115000B082C601DF91CF911F910F91FF90EF9068
:10116000DF90CF90BF900895CF93DF93EC01FB0108
:10117000248135810E946F08CE01DF91CF910895BF
:10118000CF93DF931F92CDB7DEB76983DC01ED917A
:10119000FC910280F381E02D41E050E0BE016F5FE1
:1011A0007F4F09950F90DF91CF910895CF93DF93F3
:1011B000EC01E881F9810480F581E02DCE010995EB
:1011C000892B41F0E881F9810680F781E02DCE017D
:1011D0000995EFCFDF91CF91089521E0FC0184853F
:1011E000843009F420E0822F08950F931F93CF934A
:1011F000DF93EC018A018C85843021F00E94B413C6
:10120000892B39F481E090E09B838A8380E090E031
:1012100001C0C801DF91CF911F910F910895FC018A
:101220006485643021F08CEE94E00C94D21580E05B
:1012300090E00895CF93DF931F92CDB7DEB741E0E2
:1012400050E0BE016F5F7F4FFC0184850E94061451
:10125000181619061CF4898190E002C08FEF9FEFE9
:101260000F90DF91CF910895FC0184850C940614B2
:101270000F931F93CF93DF931F92CDB7DEB78C01EF
:10128000DC01ED91FC910480F581E02D0995892B1D
:1012900051F0BE016F5F7F4FF80184850E944A14B0
:1012A000898190E002C08FEF9FEF0F90DF91CF9187
:1012B0001F910F910895CF92DF92EF92FF920F93BB
:1012C0001F93CF93DF93CDB7DEB7AF970FB6F894E8
:1012D000DEBF0FBECDBF7C018B016A01CE0101963E
:1012E0000E94DB05CE0109960E94480FCE018A9626
:1012F0000E94DB056CEB74E0CE0184960E942A0C00
:10130000BE016C5D7F4FCE0101960E94D10FAE01F0
:10131000465D5F4FB801CE0101960E9436128130C2
:101320009105C1F4D701ED91FC910484F585E02D80
:1013300087E993E09DA38CA30CA51DA52EA53FA531
:101340000EA31FA328A739A7A601BE016C5D7F4F7E
:10135000C7010995AF960FB6F894DEBF0FBECDBF9B
:10136000DF91CF911F910F91FF90EF90DF90CF9081
:101370000895FC01262F1382128248EE53E060E0AC
:1013800070E044835583668377838DE993E091838E
:10139000808324870895FC018485843039F090E0AF
:1013A000982F88278D5F9B4F0C94661580E00895D9
:1013B000AF92BF92CF92DF92EF92FF920F931F9363
:1013C000CF93DF93EC015B016A018C85843009F0D7
:1013D0004EC033E0E32E34E0F32E00E010E0C7010E
:1013E0000E946615811102C00C8709C08B7F88316D
:1013F000D9F30F5F1F4FF3940430110581F78C85EB
:101400008430A9F120910C0130910D012F5F3F4FE5
:101410002115310511F420E034E030930D012093C3
:101420000C0140910C0150910D0120E061E00E94FF
:101430002313B5016E5F7F4FA6018C850E94771341
:10144000811103C084E08C8712C0CE010E94CB09B9
:10145000873151F061E070E080E090E00E94BB02D3
:10146000CE010E94CB09ECCF81E090E002C080E089
:1014700090E0DF91CF911F910F91FF90EF90DF905F
:10148000CF90BF90AF900895CF92DF92EF92FF92EE
:10149000CF93DF93EC018C85843081F10E94AD13F2
:1014A0000E948C026B017C01CE010E94CB09882333
:1014B00059F00E948C026C197D098E099F09683EC3
:1014C00073408105910598F0CE010E94CB098823D5
:1014D00019F08C850E941513EC85F0E0EE0FFF1FCC
:1014E000EC53FB4F1182108284E08C8707C061E0CF
:1014F00070E080E090E00E94BB02D6CFDF91CF91F8
:10150000FF90EF90DF90CF900895CF93DF93EC01A1
:101510008C858430D1F0CE010E94CB098431A9F0B2
:10152000882399F0883189F08C3169F4E881F98158
:101530000480F581E02DCE01099521E0892B09F485
:1015400020E0822F03C081E001C080E0DF91CF91D5
:1015500008950F9300E020E040E060E086EB94E027
:101560000E94E5050F91089544E050E0BC0181E040
:1015700090E00C94371544E050E0BC0185E090E029
:101580000C94371544E050E0BC018FE090E00C94DF
:1015900037158F929F92AF92BF92CF92DF92EF92C8
:1015A000FF920F931F93CF93DF9300D0CDB7DEB799
:1015B0004C016A0159018CEE94E069837A830E94A0
:1015C000F91446E050E069817A8189E090E00E9458
:1015D0003715C60102960E94C20AC80102960E94EF
:1015E000B40AC70102960E94BB0AF50142815381E9
:1015F00064817581F40142835383648375830F9002
:101600000F90DF91CF911F910F91FF90EF90DF909E
:10161000CF90BF90AF909F908F9008956F927F92E0
:101620008F929F92AF92BF92CF92DF92EF92FF92F2
:101630000F931F93CF93DF93CDB7DEB76E970FB69F
:10164000F894DEBF0FBECDBF6C015B017A0149018A
:10165000380100E02FEF4FEF6FEFCE0149960E9467
:10166000E50527E933E03A8329838B8D9C8DAD8D89
:10167000BE8D8B839C83AD83BE8338872F83F3011C
:1016800082819381A481B58189879A87AB87BC8742
:101690003E872D87F40182819381A481B5818F8754
:1016A000988BA98BBA8B3C8B2B8BF7014281538192
:1016B000648175814D8B5E8B6F8B788FCE01019627
:1016C0007C018E01095F1F4F9E01235F3F4FAE01DA
:1016D0004D5E5F4FB501C6010E94C90A6E960FB6F6
:1016E000F894DEBF0FBECDBFDF91CF911F910F9158
:1016F000FF90EF90DF90CF90BF90AF909F908F9032
:101700007F906F900895CF92DF92EF92FF920F93A8
:101710001F93CF93DF93CDB7DEB768970FB6F894DA
:10172000DEBF0FBECDBF6B017901DA0112964D917C
:101730005D916D917C9115974D8B5E8B6F8B788F42
:10174000A7E9B3E0BA83A98321E0288F0D891E8918
:101750002F89388D0B831C832D833E83B887AF83FD
:10176000F701028113812481358109871A872B872C
:101770003C87BE87AD874F87588B698B7A8B8E01EC
:101780000F5F1F4F9E01295F3F4FAE01435F5F4FC9
:10179000B6010E940E0B68960FB6F894DEBF0FBE1E
:1017A000CDBFDF91CF911F910F91FF90EF90DF9010
:1017B000CF9008950F931F93CF93DF93CDB7DEB7EC
:1017C00062970FB6F894DEBF0FBECDBFDB01FA0102
:1017D00042815381648175814F87588B698B7A8BE5
:1017E000E7E9F3E0FA83E98321E02A8B0F85188982
:1017F00029893A890B831C832D833E83F887EF83E5
:1018000049875A876B877C879E012F5F3F4FAE01C8
:10181000495F5F4FBD010E94830B62960FB6F8943B
:10182000DEBF0FBECDBFDF91CF911F910F91089505
:10183000CF93DF93EC010E94DB05BE016E5F7F4F0B
:1018400044E050E08FE090E00E946816CE01DF9106
:10185000CF91089527E933E0FC0131832083FB0118
:101860004281538164817581FC0142835383648387
:10187000758308950F9300E020E040E060E08CEC79
:1018800094E00E94E5058CEB94E00F910C94DB054D
:10189000CF93DF931F92CDB7DEB76983DC01ED9163
:1018A000FC910280F381E02D41E050E0BE016F5FCA
:1018B0007F4F09950F90DF91CF910895EF92FF929E
:1018C0000F931F93CF93DF93CDB7DEB72D970FB64E
:1018D000F894DEBF0FBECDBF7C0100E010E0602FAA
:1018E000CE0101960E94B909CE0101960E94CB0952
:1018F000811116C0F7014481558120E061E0802FFD
:101900000E942313802F0E946313F7018481958125
:10191000F801EE0FFF1FEC53FB4F9183808305C04E
:101920000F5F1F4F04301105D1F62D960FB6F894B6
:10193000DEBF0FBECDBFDF91CF911F910F91FF9002
:10194000EF900895FC011382128289EB93E091835A
:101950008083758364830895BF92CF92DF92EF9264
:10196000FF920F931F93CF93DF93CDB7DEB72D97E1
:101970000FB6F894DEBF0FBECDBF8C0144ECC42E71
:1019800044E0D42EB12CE12CF12C6B2DCE0101962C
:101990000E94B909D6012D913D916D01F801848114
:1019A000958128173907B1F4CE0101960E94CB0921
:1019B000843169F0CE0101960E94CB098C3151F43B
:1019C000CE0101960E940F09892B99F003C0EE24E5
:1019D000E394F12CB394F4E0BF12D7CFEF2871F465
:1019E000D801ED91FC910480F581E02DC8010995A5
:1019F00005C0CE0101960E94440AECCF2D960FB689
:101A0000F894DEBF0FBECDBFDF91CF911F910F9134
:101A1000FF90EF90DF90CF90BF9008957F928F92CC
:101A20009F92AF92BF92CF92DF92EF92FF920F936D
:101A30001F93CF93DF93CDB7DEB72D970FB6F894F2
:101A4000DEBF0FBECDBF6C015B014A010E94AC0C32
:101A500054ECE52E54E0F52E712C00E010E0672DDB
:101A6000CE0101960E94B909F701219131917F01C0
:101A7000F601848195812817390731F4CE0101964A
:101A80000E94CB098731C9F07394F4E07F12E7CF4D
:101A9000C8012D960FB6F894DEBF0FBECDBFDF9103
:101AA000CF911F910F91FF90EF90DF90CF90BF905B
:101AB000AF909F908F907F900895A401B501CE01C3
:101AC00001960E94F508080F191FDECFBF92CF9232
:101AD000DF92EF92FF920F931F93CF93DF93CDB7D7
:101AE000DEB72D970FB6F894DEBF0FBECDBF8C01C9
:101AF0006B01CB010E94AC0C64ECE62E64E0F62E88
:101B0000B12C6B2DCE0101960E94B909F7012191EC
:101B100031917F01F601848195812817390761F49D
:101B2000CE0101960E94CB09873179F0CE01019652
:101B30000E94CB098C3149F0B394F4E0BF12E1CF9D
:101B400064E0C8010E94B90921C0CE0101960E943B
:101B50000F09892B89F38B819C81F8019383828300
:101B60008D819E81AF81B88584839583A683B78359
:101B700049855A856B857C85408751876287738745
:101B80008DE993E0918380838D858487C8012D96AC
:101B90000FB6F894DEBF0FBECDBFDF91CF911F917E
:101BA0000F91FF90EF90DF90CF90BF9008950F932B
:101BB00000E020E040E060E082ED94E00E94E50576
:101BC0000F910895DC01ED91FC91008CF18DE02DD9
:101BD000099427E933E0FC0131832083FB0141892B
:101BE000528963897489FC014283538364837583BA
:101BF0000895FC01858996890895FC01818D928D57
:101C00000895CF93DF931F92CDB7DEB76983DC01D0
:101C1000ED91FC910280F381E02D41E050E0BE01A6
:101C20006F5F7F4F09950F90DF91CF910895CF930C
:101C3000DF93EC01898D9A8D892B41F0E881F98140
:101C40000680F781E02DCE010995F4CFDF91CF9189
:101C50000895CF93DF93EC018C85843061F00E946E
:101C60001513EC85F0E0EE0FFF1FEC53FB4F1182D4
:101C7000108284E08C87DF91CF910895FC01108E53
:101C8000178A6E5F7F4F84850C948614FC018485CF
:101C90000C94AB14CF93DF93EC019A018F89988D4C
:101CA000AB01BC018C850E9458142F89388D280FF8
:101CB000391F388F2F8BDF91CF9108950F931F938A
:101CC000CF93DF931F92CDB7DEB78C01FC01818DDE
:101CD000928D892B59F041E050E0BE016F5F7F4F3C
:101CE00084850E940614181619061CF08FEF9FEFCA
:101CF00008C0F801818D928D0197928F818F898123
:101D000090E00F90DF91CF911F910F910895CF93A5
:101D1000DF93EC01898D9A8D009719F48FEF9FEF77
:101D200010C04817590708F0AC018C850E940614B2
:101D3000181619069CF7298D3A8D281B390B3A8FF6
:101D4000298FDF91CF910895CF93DF931F92CDB765
:101D5000DEB7FC01218D328D232B49F0BE016F5F70
:101D60007F4F84850E944A14898190E002C08FEFE2
:101D70009FEF0F90DF91CF9108950F931F93CF9313
:101D8000DF93CDB7DEB728970FB6F894DEBF0FBE4E
:101D9000CDBF8C01DC01ED91FC910284F385E02D37
:101DA0000995F80164858CEE94E00E94D215892B88
:101DB00041F148E050E0BE016F5F7F4FD8011C96B3
:101DC0008C910E94061418161906ECF4BE016F5F80
:101DD0007F4FC8010F960E94F1058D8190E0982FEA
:101DE00088272E81820F911DF801968B858B8F811C
:101DF00090E0982F88272885820F911D928F818FE0
:101E000002C080E090E028960FB6F894DEBF0FBEC7
:101E1000CDBFDF91CF911F910F910895CF92DF92A7
:101E2000EF92FF920F931F93CF93DF93EC016B011F
:101E30008C85843019F543E0E42E44E0F42E00E074
:101E400010E0C7010E946615811102C00C8708C00E
:101E50008831E1F30F5F1F4FF3940430110589F7C8
:101E60008C85843059F0DE86CD861A8E198E20E05E
:101E7000A60162E00E94231381E001C080E0DF91AF
:101E8000CF911F910F91FF90EF90DF90CF90089529
:101E9000FC011382128248EE53E060E070E044835C
:101EA00055836683778383EC93E09183808384E01A
:101EB0008487CF010F960C94DB05CF92DF92EF92CF
:101EC000FF920F931F93CF93DF93CDB7DEB7AF97FA
:101ED0000FB6F894DEBF0FBECDBF7C018B016A0147
:101EE000CE0101960E94DB05CE0109960E94480FA3
:101EF000CE018A960E94DB056CEB74E0CE018496DD
:101F00000E942A0CBE016C5D7F4FCE0101960E949B
:101F1000D10FAE01465D5F4FB801CE0101960E9420
:101F2000361281309105C1F4D701ED91FC91008802
:101F3000F189E02D87E993E09DA38CA30CA51DA555
:101F40002EA53FA50EA31FA328A739A7A601BE0152
:101F50006C5D7F4FC7010995AF960FB6F894DEBF51
:101F60000FBECDBFDF91CF911F910F91FF90EF90EA
:101F7000DF90CF9008950F9300E020E040E060E014
:101F800088ED94E00E94E5050F9108950F9300E01D
:101F900020E040E060E08EED94E00E94E5050F91C6
:101FA0000895FB014281538164817581FC01428364
:101FB000538364837583178216820895CF93FB0140
:101FC00081918111FDCFFB0180E090E020E030E0C5
:101FD000CAE06191662309F12430310564F56E325F
:101FE00071F48F3F910509F034F5DA01A20FB31FA8
:101FF00012968C932F5F3F4F80E090E0EACFDC0198
:10200000CA9FC001CB9F900D1124772767FD709563
:1020100060537109860F971FDCCF8F3F910509F040
:1020200054F4243031053CF4FA01E20FF31F8283AB
:1020300081E090E002C080E090E0CF9108950F939E
:1020400000E020E040E060E084EE94E00E94E505DE
:102050000F910895AF92BF92CF92DF92EF92FF92CD
:102060000F931F93CF93DF9300D01F92CDB7DEB7AE
:102070006C017B010E948C02F601778366838601E6
:10208000085F1F4FB6016A5F7F4F42E050E0C80112
:102090000E944A0E81E090E09A83898342E050E0FA
:1020A000BE016F5F7F4FC8010E944A0E80E091E041
:1020B0009A83898342E050E0BE016F5F7F4FC80181
:1020C0000E944A0E1A82198242E050E0BE016F5F00
:1020D0007F4FC8010E944A0E42E050E0BE016F5F90
:1020E0007F4FC8010E944A0E42E050E0BE016F5F80
:1020F0007F4FC8010E944A0E6701F6018081882344
:1021000011F1F7016F018191811115C05601AE18CF
:10211000BF081A141B0494F4AB8241E050E0BE01E6
:102120006D5F7F4FC8010E944A0EA501B701C8012B
:102130000E944A0E03C08E3229F7E8CF7601FFEFE6
:10214000EF1AFF0ADACF1B8241E050E0BE016D5F5B
:102150007F4FC8010E944A0EE12CFF24F394FA82BB
:10216000E98242E050E0BE016F5F7F4FC8010E94EC
:102170004A0EFA82E98242E050E0BE016F5F7F4F73
:10218000C8010E944A0E81E090E00F900F900F90DE
:10219000DF91CF911F910F91FF90EF90DF90CF9043
:1021A000BF90AF9008954F925F926F927F928F92FF
:1021B0009F92AF92BF92CF92DF92EF92FF920F93D6
:1021C0001F93CF93DF93CDB7DEB763970FB6F89425
:1021D000DEBF0FBECDBF7C015B016A010E948C0295
:1021E0002B013C018701085F1F4F4501A12CB12C39
:1021F000C8010E94BD0E1816190694F00E948C02A8
:10220000641975098609970986169706A806B906FE
:10221000D0F062E370E080E090E00E94BB02E8CF83
:10222000F7014281538164817581818D928DA38DE7
:10223000B48D481759076A077B0741F4858D968D41
:10224000C59721F406C08FEF9FEFF9C08EEF9FEF87
:10225000F6C0C8010E94FD0D0C970CF4EEC04CE0D6
:1022600050E0BE016F5F7F4FC8010E94870E8B81D7
:102270009C819827892798279A8B898BF70146811B
:10228000578129813A814217530711F497FD06C0FF
:10229000C8010E94170E8CEF9FEFD1C08F70927013
:1022A000892B31F0C8010E94170E8BEF9FEFC7C03A
:1022B000AF80B884BA24AB24BA24A114B10419F0B5
:1022C000E12CF12C23C0C8010E94170E8AEF9FEF6A
:1022D000B6C041E050E0BE01635F7F4FC8010E947D
:1022E000870E8D8581111BC08D858111F2CFC801AC
:1022F0000E945E0EC8010E945E0EC8010E945E0E22
:10230000C8010E945E0EFFEFEF1AFF0A8D819E81C9
:10231000982789279827E816F906D8F20AC08D85EC
:102320009FEF980F9D878823F9F2C8010E945E0EE7
:10233000F6CFE12CF12C41E050E0BE016D5E7F4F05
:10234000C8010E94870E8B89982F907C61F48823A6
:1023500071F08B899FEF980F9B8B882341F0C80108
:102360000E945E0EF6CFC8010E945E0E1B8A8B890A
:102370008111E1CF42E050E0BE01615F7F4FC801B3
:102380000E94870E42E050E0BE01635F7F4FC801AC
:102390000E94870EC8010E945E0EC8010E945E0E58
:1023A000C8010E945E0EC8010E945E0E42E050E02D
:1023B000BE016F5E7F4FC8010E94870E8F8598898E
:1023C0008115914029F48D859E858115914019F0E4
:1023D000812C912C16C089899A898115944031F0FD
:1023E000C8010E94170E87EF9FEF29C0B6016E5FEC
:1023F0007F4F44E050E0C8010E94870E81E090E0EA
:102400001EC089899A89982789279827881699064E
:1024100038F4C8010E945E0E2FEF821A920AF1CFA3
:102420008FEFE81AF80AEA14FB0409F084CFC80118
:102430000E94170E86EF9FEF02C08DEF9FEF63960D
:102440000FB6F894DEBF0FBECDBFDF91CF911F91C5
:102450000F91FF90EF90DF90CF90BF90AF909F9043
:102460008F907F906F905F904F9008958F929F9282
:10247000AF92BF92CF92DF92EF92FF920F931F9392
:10248000CF93DF9300D000D000D0CDB7DEB78C0162
:102490005B016A010E94DE0F4C01009709F05FC0EA
:1024A000F80142815381648175818091E6049091A5
:1024B000E704A091E804B091E904481759076A07B6
:1024C0007B0709F450C00E948C027801F8E0EF0EFF
:1024D000F11C6F7077277C5FC7010E940E0F81305F
:1024E00009F045C087E993E09A838983F8018281E6
:1024F0009381A481B5818B839C83AD83BE8345E3A7
:1025000050E0BE016F5F7F4FC7010E943E0E892BD6
:1025100019F4812C912C1FC0B501C8010E942A100A
:10252000892BB9F3C7010E94460E892B91F333E042
:10253000A32EB12CA60168E873E1C8010E94D31054
:102540004C01F1E0AF1AB108A114B10421F08F3FA2
:102550002FEF920779F3C7010E94290E08C0882443
:102560008394912C04C09EEF892E99249A94C401DF
:1025700026960FB6F894DEBF0FBECDBFDF91CF9188
:102580001F910F91FF90EF90DF90CF90BF90AF9091
:102590009F908F90089590E0982F882744E050E016
:1025A000845F9B4F0C943715282F30E02C5F3F4FF2
:1025B000922F8827860F971F0C94661562E070E0B3
:1025C0000C94D412FB01282F30E02C5F3F4F922F48
:1025D0008827642F8E0F9F1F0C94D714CF93DF93FF
:1025E000C82FD62F472F64E070E00E94E2124D2FD3
:1025F00065E070E08C2FDF91CF910C94E212462FB2
:1026000062E070E00C94E212CF93DF93C82FD62FD4
:10261000472F60E170E00E94E2124D2F61E170E00F
:102620008C2FDF91CF910C94E212CF93C82F40E111
:1026300050E0682F8CEE94E00E941F176FEF8C2FF4
:10264000CF910C94FF12EF92FF921F93CF93DF93E1
:1026500000D0CDB7DEB7182F7A018FEF860F853007
:1026600048F5812F2A8369830E9415132A81698185
:10267000462F422B60E070E0812F0E94E212E114AD
:10268000F10411F0B7010AC06091EA047091EB0403
:102690006F5F7F4F7093EB046093EA04812F0E9479
:1026A000EE1241E050E0612F8CEE94E00E941F1783
:1026B00081E001C080E00F900F90DF91CF911F91DA
:1026C000FF90EF900895CF93C82F63E070E00E94D1
:1026D000D412833149F442E050E06C2F8CEE94E048
:1026E0000E941F1781E001C080E0CF9108951F93E1
:1026F000CF93DF93182FFB01EA0180818F3F51F4C4
:1027000081818F3F91F482818F3F79F483818F3F64
:1027100061F41EC0811109C08181811106C08281CE
:10272000811103C08381882399F0209789F0BF012C
:10273000812F0E94CB12BE01812F0E94041344E01E
:1027400050E0612F8CEE94E00E941F1781E001C0E1
:1027500080E0DF91CF911F91089548E050E0682F0D
:102760008CEE94E00C941F17DF92EF92FF920F9380
:102770001F93CF93DF93D82E8B01EA01413088E07D
:10278000580710F0C0E0D8E06D2D8CEE94E00E9468
:102790009E157C0163E070E08D2D0E94D41287317C
:1027A00011F08C3121F4EC16FD0670F302C0C0E08C
:1027B000D0E09E01A8016D2D8CEE94E00E945D1684
:1027C00040E250E06D2D8CEE94E00E941F178D2D9D
:1027D0000E94DE1284FD0DC063E070E08D2D0E942A
:1027E000D4128111F4CF8D2D0E94151380E090E05A
:1027F00005C060E18D2D0E94FF12CE01DF91CF91C7
:102800001F910F91FF90EF90DF900895DF92EF926C
:10281000FF920F931F93CF93DF93D82E7B018A01F2
:10282000682F8CEE94E00E94D215EC01009799F489
:1028300063E070E08D2D0E94D412843111F1882361
:1028400001F1C1E0D0E08C3111F4C0E0D0E0D195CD
:10285000C195D10916C0081719070CF4E8011C1618
:102860001D067CF400E09E01A7016D2D8CEE94E026
:102870000E94CF1640E450E06D2D8CEE94E00E9453
:102880001F17CE01DF91CF911F910F91FF90EF9015
:10289000DF9008950F93AB0101E021E030E0682F55
:1028A0008CEE94E00E94CF1681E090E00F910895A5
:1028B000BF92CF92DF92EF92FF920F931F93CF932D
:1028C000DF93B82E7B016A01E901682F8CEE94E05A
:1028D0000E949E158C179D0730F46B2D8CEE94E0B2
:1028E0000E949E15EC018E019601A7016B2D8CEEC6
:1028F00094E00E94EE15CE01DF91CF911F910F91D0
:10290000FF90EF90DF90CF90BF9008951F93CF93EB
:10291000DF93182FFB01EA018081811109C08181B9
:10292000811106C08281811103C08381882369F0EF
:10293000209759F0BF01812F0E94CB12BE01812F39
:102940000E94041381E090E002C080E090E0DF91FB
:10295000CF911F910895CF93C82F40E250E0682F88
:102960008CEE94E00E941F178C2F0E94DE1284FDD3
:102970000CC08C2F0E94DE1283FFF6CF68E18C2FF3
:102980000E94FF1280E090E006C060E18C2F0E9460
:10299000FF1281E090E0CF9108958EBD0DB407FE47
:1029A000FDCF8EB508952A9808952A9A08951F9309
:1029B000CF93DF9300D0CDB7DEB7182F6A8399830A
:1029C0000E94D31480EF0E94CD149981892F0E9418
:1029D000CD14812F0E94CD146A81862F0E94CD14C0
:1029E0000E94D51481E00F900F90DF91CF911F913D
:1029F0000895CF93DF93EC016CE271E080E090E00A
:102A00000E94BB020E943F19229A60E880E090E099
:102A10000E94D71465E58BE190E00E94D71465E52C
:102A20008AE190E00E94D71480E090E49983888343
:102A300080E090E69987888780E098E49B838A838A
:102A400080E098E69B878A8780E090E59D838C8371
:102A500080E090E79D878C8780E098E59F838E8358
:102A600080E098E79F878E87DF91CF910895CF927E
:102A7000DF92EF92FF920F931F93CF93DF93EC01BE
:102A80007A018B016C01C40ED51ECC15DD05A1F0B9
:102A90000E94D31480EF0E94CD148D2F0E94CD147C
:102AA0008C2F0E94CD142196F80181918F010E94F4
:102AB000CD140E94D514E9CFC701DF91CF911F91AA
:102AC0000F91FF90EF90DF90CF9008951F93CF93D9
:102AD000DF931F92CDB7DEB7182F99830E94D314CE
:102AE0008FE00E94CD149981892F0E94CD14812FEF
:102AF0000E94CD1480E00E94CD1489830E94D514D9
:102B000089810F90DF91CF911F9108951F93CF93EB
:102B1000DF93182F60E270E00E94D412C82FD0E03B
:102B200061E270E0812F0E94D412DC2FCC279E013D
:102B3000282BC901DF91CF911F910895FF920F9328
:102B40001F93CF93DF93F62EC0E0D0E08F2D0E942D
:102B500086158C01009721F08F2D0E948615EC01BF
:102B6000C017D10799F7CE01DF91CF911F910F9137
:102B7000FF9008951F93CF93DF93182F66E270E0C4
:102B80000E94D412C82FD0E067E270E0812F0E942B
:102B9000D412DC2FCC279E01282BC901DF91CF91C5
:102BA0001F910895FF920F931F93CF93DF93F62EFB
:102BB000C0E0D0E08F2D0E94BA158C01009721F063
:102BC0008F2D0E94BA15EC01C017D10799F7CE01DD
:102BD000DF91CF911F910F91FF9008956F927F9297
:102BE0009F92AF92BF92CF92DF92EF92FF920F939C
:102BF0001F93CF93DF931F92CDB7DEB7D82E962EBB
:102C00003A01590164E270E0892D99830E94D4123F
:102C1000E82EF12C65E270E0892D0E94D412FE2C82
:102C2000EE24E82AE60CF71C970137706D2C998189
:102C3000792E690C711C690C711CD301ED91FC910A
:102C4000E20FF31FC901800F911F81309840A0F05F
:102C5000C12C48E0D42EC21AD30AA601B501CF0177
:102C60000E943715A8014C195D09B5016C0D7D1D39
:102C7000F3018081918103C0A801B501CF010E94B9
:102C80003715E00EF11E4F2D64E270E0892D0E9491
:102C9000E2124E2D65E270E0892D0F90DF91CF9109
:102CA0001F910F91FF90EF90DF90CF90BF90AF906A
:102CB0009F907F906F900C94E2120F931F93890165
:102CC0009A0140E050E00E94EE151F910F91089587
:102CD000CF92DF92EF92FF920F931F93CF93DF93E8
:102CE000EC017A018B016C01C40ED51ECC15DD05FB
:102CF000A9F00E94D3148FE00E94CD148D2F0E9462
:102D0000CD148C2F0E94CD14219680E00E94CD140A
:102D1000F80181938F010E94D514E8CFC701DF919C
:102D2000CF911F910F91FF90EF90DF90CF9008957A
:102D3000CF92DF92EF92FF920F931F93CF93DF9387
:102D400069015770EC01C60FD11DC60FD11D8885D2
:102D50009985840F951F9A01200F311F213038402B
:102D600090F0E12C68E0F62EE41AF50AA701B6010E
:102D70000E946816A8014E195F09B6016E0D7F1DED
:102D80008885998502C0A801B601DF91CF911F9176
:102D90000F91FF90EF90DF90CF900C9468168F9278
:102DA0009F92AF92BF92CF92DF92EF92FF920F93DA
:102DB0001F93CF93DF936C01962E5A017901802ED9
:102DC00068E270E0892D0E94D412C82FD0E069E239
:102DD00070E0892D0E94D412DC2FCC27C82B8701EC
:102DE0009501AE01692DC6010E94981681101AC086
:102DF000CE0DDF1D4D2F68E270E0892D0E94E2129A
:102E00004C2F69E270E0892DDF91CF911F910F91D6
:102E1000FF90EF90DF90CF90BF90AF909F908F90FA
:102E20000C94E212DF91CF911F910F91FF90EF90E0
:102E3000DF90CF90BF90AF909F908F900895CF93E9
:102E4000C62F61E070E08C2F0E94E21261E070E01A
:102E50008C2F0E94D4128111F9CFCF910895CF9376
:102E6000DF938230910510F482E090E0E091FE045F
:102E7000F091FF0420E030E0A0E0B0E0309739F1BD
:102E80004081518148175907B8F04817590771F424
:102E900082819381109729F013969C938E931297B9
:102EA0002CC09093FF048093FE0427C021153105A8
:102EB00031F04217530718F0A901DB0101C0EF01FF
:102EC0009A01BD01DF010280F381E02DD7CF2115EA
:102ED0003105F9F0281B390B2430310580F48A8143
:102EE0009B816115710521F0FB019383828304C0EE
:102EF0009093FF048093FE04FE01329644C0FE01CD
:102F0000E20FF31F81939193225031093983288373
:102F10003AC02091FC043091FD04232B41F4209110
:102F20001001309111013093FD042093FC04209195
:102F30000E0130910F012115310541F42DB73EB737
:102F40004091120150911301241B350BE091FC04B8
:102F5000F091FD04E217F307A0F42E1B3F0B281796
:102F6000390778F0AC014E5F5F4F2417350748F002
:102F70004E0F5F1F5093FD044093FC048193919387
:102F800002C0E0E0F0E0CF01DF91CF910895CF9350
:102F9000DF93009709F487C0FC01329713821282F5
:102FA000C091FE04D091FF04209781F420813181EB
:102FB000280F391F8091FC049091FD04821793071C
:102FC00079F5F093FD04E093FC046DC0DE0120E090
:102FD00030E0AE17BF0750F412964D915C911397F5
:102FE0009D014115510509F1DA01F3CFB383A283A5
:102FF00040815181840F951F8A179B0771F48D9131
:103000009C911197840F951F02969183808312964D
:103010008D919C911397938382832115310529F417
:10302000F093FF04E093FE043EC0D9011396FC9395
:10303000EE9312974D915D91A40FB51FEA17FB0710
:1030400079F480819181840F951F0296D9011196A0
:103050009C938E938281938113969C938E93129767
:10306000E0E0F0E08A819B81009719F0FE01EC011D
:10307000F9CFCE01029628813981820F931F2091CA
:10308000FC043091FD042817390769F4309729F4BE
:103090001092FF041092FE0402C013821282D09399
:1030A000FD04C093FC04DF91CF9108956F927F924D
:1030B0008F929F92AF92BF92CF92DF92EF92FF9248
:1030C0000F931F93CF93DF93EC01CB01209781F4F3
:1030D000DF91CF911F910F91FF90EF90DF90CF90F4
:1030E000BF90AF909F908F907F906F900C942F1710
:1030F000FE01E60FF71F9E0122503109E217F30788
:1031000008F4ACC0D9010D911C911197061717074F
:10311000B8F00530110508F49FC0A80144505109CA
:103120004617570708F498C002501109061B170BE1
:10313000019311936D937C93CF010E94C7178CC0AC
:103140005B01A01AB10A4E01800E911EA091FE04EF
:10315000B091FF04612C712C60E070E0109709F4CD
:1031600049C0A815B905C9F5ED90FC901197670104
:1031700042E0C40ED11CCA14DB0478F147018A185E
:103180009B08640142E0C40ED11C1296BC901297B9
:103190001396AC91B5E0CB16D10440F0B282A38374
:1031A00091828082D9018D939C9309C00E5F1F4F3D
:1031B0000E0D1F1DF90111830083EB2DFA2F6115F0
:1031C000710531F0DB011396FC93EE93129744C026
:1031D000F093FF04E093FE043FC06D917C91119742
:1031E0006616770608F43B01BD0112960D90BC915E
:1031F000A02DB4CF6091FC047091FD046815790591
:10320000E9F468167906D0F440910E0150910F014F
:103210004115510541F44DB75EB7609112017091AF
:103220001301461B570BE417F507C0F4F093FD0498
:10323000E093FC04F901918380830EC00E942F1754
:103240007C01009759F0A801BE010E945819CE01D7
:103250000E94C717C70104C0CE0102C080E090E001
:10326000DF91CF911F910F91FF90EF90DF90CF9062
:10327000BF90AF909F908F907F906F90089561E086
:103280008AE00E947E0361E08AE00E9445038CB5DB
:1032900080618CBD8CB580648CBD61E08DE00E9446
:1032A000450361E08BE00C944503F8940C94B3194A
:1032B000FB01DC0102C001900D9241505040D8F753
:1032C0000895FB01DC018D91019080190110D9F363
:1032D000990B0895FB01DC0101900D920020E1F7AC
:1032E0000895FB0151915523A9F0BF01DC014D91D7
:1032F00045174111E1F759F4CD010190002049F043
:103300004D9140154111C9F3FB014111EFCF81E00F
:1033100090E001970895A1E21A2EAA1BBB1BFD01A4
:103320000DC0AA1FBB1FEE1FFF1FA217B307E407A4
:10333000F50720F0A21BB30BE40BF50B661F771FFC
:10334000881F991F1A9469F76095709580959095DC
:103350009B01AC01BD01CF010895EE0FFF1F059049
:10336000F491E02D099410E0CAECD0E004C0FE0115
:103370000E94AF192296CC3CD107C9F7F894FFCF31
:103380000100000006000000BEEFBEEF00040000D8
:103390000005800073657276657220697320617420
:1033A00020006E657720636C69656E74004C45443F
:1033B0003D004C45443D4F4E004C45443D4F464634
:1033C00000485454502F312E3120323030204F4B92
:1033D00000436F6E74656E742D547970653A207475
:1033E0006578742F68746D6C003C68746D6C3E0079
:1033F0003C686561643E003C2F686561643E003C4A
:10340000626F64793E003C683120616C69676E3D93
:103410002763656E746572273E4449594D616B653B
:1034200072733C2F68313E3C683320616C69676E73
:103430003D2763656E746572273E4C454420636F7B
:103440006E74726F6C205765622053657276657278
:10345000206F6E2041726475696E6F205059203D57
:103460002043686F757A6875203C2F68333E003CB6
:10347000646976207374796C653D27746578742D62
:10348000616C69676E3A63656E7465723B273E00D6
:103490003C627574746F6E206F6E436C69636B3D34
:1034A0006C6F636174696F6E2E687265663D272E5E
:1034B0002F3F4C45443D4F4E27207374796C653D3A
:1034C000276D617267696E3A6175746F3B62616303
:1034D0006B67726F756E642D636F6C6F723A202329
:1034E0003834423146463B636F6C6F723A20736EDC
:1034F0006F773B70616464696E673A203130707831
:103500003B626F726465723A2031707820736F6C21
:10351000696420233346374346463B7769647468C1
:103520003A363570783B273E003C2F627574746FD5
:103530006E3E003C627574746F6E206F6E436C69F2
:10354000636B3D6C6F636174696F6E2E6872656644
:103550003D272E2F3F4C45443D4F46462720737450
:10356000796C653D276D617267696E3A6175746F3C
:103570003B6261636B67726F756E642D636F6C6F16
:10358000723A20233834423146463B636F6C6F7287
:103590003A20736E6F773B70616464696E673A209E
:1035A000313070783B626F726465723A20317078A6
:1035B00020736F6C696420233346374346463B775C
:1035C000696474683A363570783B273E003C627215
:1035D000202F3E3C6272202F3E003C623E4C454410
:1035E000203D20003C2F623E3C6272202F3E003C7A
:1035F0002F623E3C2F626F64793E003C2F68746DF1
:103600006C3E00000000000E041806B403E103C67F
:1036100003030400000000A10500000000C008F53D
:10362000080F091A093809D608D8095B0934094472
:103630000A850AED0800000000480C0E0D5E0C0023
:10364000000000010E4A0EFD0D5E0EA40E170E0EB8
:103650000F290E3E0E5D0F460EBD0E870EE20DE9E0
:043660000DF90D0053
:00000001FF
