:100000000C946F000C9497000C9497000C9497003C
:100010000C9497000C9497000C9497000C94970004
:100020000C9497000C9497000C9497000C949700F4
:100030000C9497000C9497000C9497000C949700E4
:100040000C94C8010C9497000C943A030C947D0313
:100050000C9497000C9497000C9497000C949700C4
:100060000C9497000C9497007C3C3E5E2B3D3F2FF8
:100070005B5D3B2C2A225C000000000700020100AF
:100080000003040600000000000000000102040854
:1000900010204080010204081020010204081020F2
:1000A000040404040404040402020202020203031E
:1000B0000303030300000000250028002B000000BC
:1000C0000000240027002A0099003904EA04C70729
:1000D0004609E30AC70CB410CA252326B50011242B
:1000E0001FBECFEFD8E0DEBFCDBF12E0A0E0B1E091
:1000F000E0E9F2E502C005900D92A637B107D9F705
:1001000015E0A6E7B2E001C01D92A83FB107E1F7F4
:1001100010E0CCEDD0E004C02297FE010E94372908
:10012000C83CD107C9F70E94F9040C94CF280C945D
:1001300000000F9300E020E040E060E08DE992E0F5
:100140000E94D30408E72EEA41E26AE087E992E0E0
:100150000E94D30460E570E081E992E00E94AE095C
:1001600086E792E00F910C94900D86E792E00C9454
:10017000A30DCF93DF9300D000D000D0CDB7DEB772
:100180008FE092E09A8389838091990290919A02FC
:10019000A0919B02B0919C028B839C83AD83BE8314
:1001A000AE014F5F5F4F64E071E082E693E00E9432
:1001B000F80881E992E00E946A0940E855E260E0AF
:1001C00070E08CEA92E00E94B80366E171E08CEA8C
:1001D00092E00E945F0564E084E893E00E940A0FC9
:1001E000811103C06EE271E013C065E571E08CEA35
:1001F00092E00E945F0564E771E084E893E00E946A
:10020000A910811103C06EE771E002C061EA71E0DC
:100210008CEA92E00E945F0526960FB6F894DEBF46
:100220000FBECDBFDF91CF9108951F93CF93DF9382
:10023000CDB7DEB7A8970FB6F894DEBF0FBECDBF1F
:1002400061E972E0CE014C960E94720ACE014C9692
:100250000E940B06882309F491C011E0CE014C9650
:100260000E94A307882309F47FC0CE014C960E9408
:100270002D06892B99F3CE014C960E9438068A30C0
:1002800009F06DC0112349F361EC71E0CE014C9689
:100290000E945F0561ED71E0CE014C960E945F0502
:1002A00069EE71E0CE014C960E945F05CE014C963E
:1002B0000E944B0521E044E751E064E873E0CE0181
:1002C00001960E9423108B819C81909379028093E8
:1002D00078028D819E81AF81B88580937A02909358
:1002E0007B02A0937C02B0937D0289859A85AB85C1
:1002F000BC8580937E0290937F02A0938002B0938E
:1003000081028DE0FE013D96A2E8B2E001900D92DF
:100310008A95E1F78A8D9B8D9093900280938F024E
:10032000CE0101960E94A30D86E792E00E940A0E7C
:100330008823D1F086E792E00E94C90D892B51F005
:1003400086E792E00E94220D682FCE014C960E9413
:10035000DE05F0CF86E792E00E94F80D05C08D30F3
:1003600009F47CCF10E07ACF61E070E080E090E0AB
:100370000E944102CE014C960E946207A8960FB6D9
:10038000F894DEBF0FBECDBFDF91CF911F910895CE
:100390001F920F920FB60F9211242F933F938F93BA
:1003A0009F93AF93BF938091A4029091A502A091D7
:1003B000A602B091A7023091A30223E0230F2D37AC
:1003C00020F40196A11DB11D05C026E8230F029659
:1003D000A11DB11D2093A3028093A4029093A502B6
:1003E000A093A602B093A7028091A8029091A902BF
:1003F000A091AA02B091AB020196A11DB11D8093FC
:10040000A8029093A902A093AA02B093AB02BF9155
:10041000AF919F918F913F912F910F900FBE0F90B1
:100420001F9018952FB7F8946091A4027091A502BF
:100430008091A6029091A7022FBF08953FB7F8942C
:100440008091A8029091A902A091AA02B091AB025A
:1004500026B5A89B05C02F3F19F00196A11DB11D1F
:100460003FBF6627782F892F9A2F620F711D811D3C
:10047000911D42E0660F771F881F991F4A95D1F79B
:100480000895CF92DF92EF92FF92CF93DF936B01AB
:100490007C010E941E02EB01C114D104E104F104AD
:1004A00079F00E941E026C1B7D0B683E7340A0F326
:1004B00081E0C81AD108E108F108C851DC4FECCF3F
:1004C000DF91CF91FF90EF90DF90CF9008957894D7
:1004D00084B5826084BD84B5816084BD85B5826049
:1004E00085BD85B5816085BDEEE6F0E080818160E7
:1004F0008083E1E8F0E010828081826080838081E7
:1005000081608083E0E8F0E0808181608083E1EBBE
:10051000F0E0808184608083E0EBF0E080818160A6
:100520008083EAE7F0E0808184608083808182605C
:100530008083808181608083808180688083109245
:10054000C1000895FC0124853585F901E05CFF4F69
:1005500080819181F901EE5BFF4F20813181821B07
:10056000930B8F7399270895FC0184859585FC0171
:10057000E05CFF4F40815181FC01EE5BFF4F208129
:1005800031814217530741F00190F081E02DE80FCF
:10059000F91F808190E008958FEF9FEF0895FC018F
:1005A00084859585FC01E05CFF4F40815181FC0111
:1005B000EE5BFF4F208131814217530779F0A08114
:1005C000B181A80FB91F8C91208131812F5F3F4FDE
:1005D0002F7333273183208390E008958FEF9FEFAF
:1005E0000895FC0181A1882329F0A489B5898C9103
:1005F00086FFFBCF11A20895CF93DF93FC012685E0
:100600003785D901A05CBF4F8D919C9111970196C0
:100610008F739927E901CE5BDF4F48815981841799
:100620009507D9F30D90BC91A02DA20FB31F6C9329
:10063000A685B785A05CBF4F11969C938E93A68923
:10064000B7892C9181E090E0078C02C0880F991F38
:100650000A94E2F7282B2C9381E081A30488F58982
:10066000E02D80818064808381E090E0DF91CF91F4
:10067000089508951F920F920FB60F9211242F9391
:100680003F934F938F939F93EF93FF938091C0007D
:1006900082FD1CC04091C60080915203909153038B
:1006A00001968F7399272091540330915503821737
:1006B000930771F0E0915203F0915303EE5EFC4F0B
:1006C0004083909353038093520302C08091C600ED
:1006D000FF91EF919F918F914F913F912F910F90AB
:1006E0000FBE0F901F9018958CEA92E00E94A20214
:1006F000892B11F00C94390308951F920F920FB6B5
:100700000F9211242F933F938F939F93EF93FF9317
:1007100020910E0330910F038091100390911103EB
:100720002817390731F48091C1008F7D8093C10073
:1007300014C0E0911003F0911103E253FD4F2081AA
:10074000809110039091110301968F7399279093D4
:100750001103809310032093C600FF91EF919F91A6
:100760008F913F912F910F900FBE0F901F90189572
:10077000CF92DF92EF92FF92CF93DF93EC016A0169
:100780007B01411581EE580761057105F9F0EC898F
:10079000FD8981E090E008A002C0880F991F0A94AB
:1007A000E2F7808360E079E08DE390E0A7019601B5
:1007B0000E94042921503109410951095695479554
:1007C00037952795211580E1380798F0EC89FD8948
:1007D000108260E874E88EE190E0A70196010E9423
:1007E00004292150310941095109569547953795FA
:1007F0002795E889F9893083EA89FB89208319A242
:10080000EE89FF89408181E090E09C010C8C02C060
:10081000220F331F0A94E2F7422B4083EE89FF89AF
:1008200040819C010D8C02C0220F331F0A94E2F715
:10083000422B4083EE89FF8940819C010E8C02C0CF
:10084000220F331F0A94E2F7422B4083EE89FF897F
:1008500020810F8C02C0880F991F0A94E2F78095BF
:1008600082238083DF91CF91FF90EF90DF90CF9034
:1008700008951092AF021092AE0288EE93E0A0E0CD
:10088000B0E08093B0029093B102A093B202B09313
:10089000B3028FEF91E09093AD028093AC0282E1BE
:1008A00093E09093B9028093B8028EEC92E090931B
:1008B000BB028093BA0285EC90E09093BD028093D6
:1008C000BC0284EC90E09093BF028093BE0280EC67
:1008D00090E09093C1028093C00281EC90E09093ED
:1008E000C3028093C20282EC90E09093C502809391
:1008F000C40286EC90E09093C7028093C60284E025
:100900008093C80283E08093C90287E08093CA0283
:1009100085E08093CB0281E08093CC020895AF9272
:10092000BF92CF92DF92EF92FF920F931F93CF93DC
:10093000DF936C017B01C0E0D0E000E010E0F60145
:10094000EC0FFD1F4AE050E06281C7010E94D7050D
:100950005C016EE2C7010E9444058A0D9B1D080FD1
:10096000191F2196C330D10551F74AE050E0F60136
:100970006581C7010E94D705800F911FDF91CF913C
:100980001F910F91FF90EF90DF90CF90BF90AF90AD
:1009900008952FE032E0FC0131832083128213821C
:1009A0001482158208950F93FC018FE092E09183E9
:1009B000808362834383248305830F910895FB0121
:1009C0004081518162817381FC014283538364833E
:1009D000758308958FE092E09093570380935603B8
:1009E000109258031092590310925A0310925B030D
:1009F00008950E9467020E94B900C4E7D3E00E94F4
:100A000015012097E1F30E947403F9CFCF92DF9292
:100A1000EF92FF920F931F93CF93DF936C017A01B4
:100A2000EB01E60EF71E00E010E0CE15DF0561F0E9
:100A30006991D601ED91FC910190F081E02DC60104
:100A40000995080F191FF1CFC801DF91CF911F91B0
:100A50000F91FF90EF90DF90CF9008956115710591
:100A600081F0DB010D900020E9F7AD014150510903
:100A7000461B570BDC01ED91FC910280F381E02DC8
:100A8000099480E090E00895DC01ED91FC910190E3
:100A9000F081E02D09940F931F93CF93DF93EC0126
:100AA0006DE00E9444058C016AE0CE010E9444057D
:100AB000800F911FDF91CF911F910F9108950F9398
:100AC0001F93CF93DF93EC010E942E058C01CE0182
:100AD0000E944B05800F911FDF91CF911F910F91C5
:100AE00008958F929F92AF92BF92CF92DF92EF9232
:100AF000FF920F931F93CF93DF93CDB7DEB7A197EC
:100B00000FB6F894DEBF0FBECDBF7C01C42EE52F1B
:100B1000CB01D22E19A221E02D1510F02AE0D22E01
:100B20008E010F5D1F4F8D2C912CA12CB12C6C2DA3
:100B30007E2FA50194010E9404298C2DD29E80193C
:100B40001124015011098A3014F4805D01C0895CC0
:100B5000F8018083211531054105510521F0C22E90
:100B6000E32FCA01E4CFB801C7010E942E05A19668
:100B70000FB6F894DEBF0FBECDBFDF91CF911F91AE
:100B80000F91FF90EF90DF90CF90BF90AF909F902C
:100B90008F9008952115310541F4DC01ED91FC9110
:100BA0000190F081E02D642F09940C9471059A0155
:100BB000462F50E060E070E00C94CA05CF93DF93BD
:100BC0001F92CDB7DEB76983DC01ED91FC91028005
:100BD000F381E02D41E050E0BE016F5F7F4F09954A
:100BE0000F90DF91CF910895CF93DF93EC01E881CF
:100BF000F9810480F581E02DCE010995892B41F022
:100C0000E881F9810680F781E02DCE010995EFCFCB
:100C1000DF91CF91089521E0FC018485843009F4AF
:100C200020E0822F08950F931F93CF93DF93EC0161
:100C30008A018C85843021F00E94C011892B39F4FF
:100C400081E090E09B838A8380E090E001C0C8014E
:100C5000DF91CF911F910F910895FC01648564305D
:100C600021F08FEC93E00C94DE1380E090E0089587
:100C7000CF93DF931F92CDB7DEB741E050E0BE01C6
:100C80006F5F7F4FFC0184850E94121218161906AF
:100C90001CF4898190E002C08FEF9FEF0F90DF91ED
:100CA000CF910895FC0184850C9412120F931F9329
:100CB000CF93DF931F92CDB7DEB78C01DC01ED91AE
:100CC000FC910480F581E02D0995892B51F0BE013E
:100CD0006F5F7F4FF80184850E945612898190E0F2
:100CE00002C08FEF9FEF0F90DF91CF911F910F9177
:100CF0000895CF92DF92EF92FF920F931F93CF93BD
:100D0000DF93CDB7DEB7AF970FB6F894DEBF0FBE57
:100D1000CDBF7C018B016A01CE0101960E94C904FE
:100D2000CE0109960E94540CCE018A960E94C904F5
:100D300062E673E0CE0184960E943609BE016C5DC6
:100D40007F4FCE0101960E94D525AE01465D5F4FD3
:100D5000B801CE0101960E943A2881309105C1F474
:100D6000D701ED91FC910484F585E02D8FE092E0B0
:100D70009DA38CA30CA51DA52EA53FA50EA31FA367
:100D800028A739A7A601BE016C5D7F4FC701099551
:100D9000AF960FB6F894DEBF0FBECDBFDF91CF91F7
:100DA0001F910F91FF90EF90DF90CF900895FC017D
:100DB000262F1382128248EE53E060E070E04483F5
:100DC00055836683778385E192E0918380832487CE
:100DD0000895FC018485843039F090E0982F8827AD
:100DE0008D5F9B4F0C94721380E00895AF92BF9279
:100DF000CF92DF92EF92FF920F931F93CF93DF93E7
:100E0000EC015B016A018C85843009F04EC033E04F
:100E1000E32E34E0F32E00E010E0C7010E947213CD
:100E2000811102C00C8709C08B7F8831D9F30F5F15
:100E30001F4FF3940430110581F78C858430A9F19C
:100E400020910A0130910B012F5F3F4F2115310591
:100E500011F420E034E030930B0120930A0140911B
:100E60000A0150910B0120E061E00E942F11B501B1
:100E70006E5F7F4FA6018C850E948311811103C094
:100E800084E08C8712C0CE010E94E906873151F0C0
:100E900061E070E080E090E00E944102CE010E949B
:100EA000E906ECCF81E090E002C080E090E0DF91C5
:100EB000CF911F910F91FF90EF90DF90CF90BF9057
:100EC000AF900895CF92DF92EF92FF92CF93DF938E
:100ED000EC018C85843081F10E94B9110E941202CC
:100EE0006B017C01CE010E94E906882359F00E9423
:100EF00012026C197D098E099F09683E73408105B5
:100F0000910598F0CE010E94E906882319F08C859E
:100F10000E942111EC85F0E0EE0FFF1FE659FC4F17
:100F20001182108284E08C8707C061E070E080E06D
:100F300090E00E944102D6CFDF91CF91FF90EF90D9
:100F4000DF90CF900895CF93DF93EC018C858430B0
:100F5000D1F0CE010E94E9068431A9F0882399F0EE
:100F6000883189F08C3169F4E881F9810480F58158
:100F7000E02DCE01099521E0892B09F420E0822F94
:100F800003C081E001C080E0DF91CF9108950F930D
:100F900000E020E040E060E08CE593E00E94D304B4
:100FA0000F91089544E050E0BC0181E090E00C9482
:100FB000431344E050E0BC0185E090E00C944313FF
:100FC00044E050E0BC018FE090E00C9443138F921A
:100FD0009F92AF92BF92CF92DF92EF92FF920F93C8
:100FE0001F93CF93DF9300D0CDB7DEB74C016A01DA
:100FF00059018FEC93E069837A830E94051346E0E0
:1010000050E069817A8189E090E00E944313C60133
:1010100002960E94E007C80102960E94D207C7010B
:1010200002960E94D907F50142815381648175813E
:10103000F40142835383648375830F900F90DF9193
:10104000CF911F910F91FF90EF90DF90CF90BF90C5
:10105000AF909F908F9008956F927F928F929F9202
:10106000AF92BF92CF92DF92EF92FF920F931F93B6
:10107000CF93DF93CDB7DEB76E970FB6F894DEBF90
:101080000FBECDBF6C015B017A014901380100E060
:101090002FEF4FEF6FEFCE0149960E94D3042FE060
:1010A00032E03A8329838B8D9C8DAD8DBE8D8B83F1
:1010B0009C83AD83BE8338872F83F3018281938124
:1010C000A481B58189879A87AB87BC873E872D87A6
:1010D000F40182819381A481B5818F87988BA98B3C
:1010E000BA8B3C8B2B8BF7014281538164817581D4
:1010F0004D8B5E8B6F8B788FCE0101967C018E01BC
:10110000095F1F4F9E01235F3F4FAE014D5E5F4F52
:10111000B501C6010E94E7076E960FB6F894DEBFD0
:101120000FBECDBFDF91CF911F910F91FF90EF9038
:10113000DF90CF90BF90AF909F908F907F906F90F7
:101140000895CF92DF92EF92FF920F931F93CF9368
:10115000DF93CDB7DEB768970FB6F894DEBF0FBE4A
:10116000CDBF6B017901DA0112964D915D916D91C0
:101170007C9115974D8B5E8B6F8B788FAFE0B2E0D3
:10118000BA83A98321E0288F0D891E892F89388D84
:101190000B831C832D833E83B887AF83F7010281C5
:1011A00013812481358109871A872B873C87BE8765
:1011B000AD874F87588B698B7A8B8E010F5F1F4FDE
:1011C0009E01295F3F4FAE01435F5F4FB6010E9412
:1011D0002C0868960FB6F894DEBF0FBECDBFDF9126
:1011E000CF911F910F91FF90EF90DF90CF900895D6
:1011F0000F931F93CF93DF93CDB7DEB762970FB6F0
:10120000F894DEBF0FBECDBFDB01FA0142815381EE
:10121000648175814F87588B698B7A8BEFE0F2E0A0
:10122000FA83E98321E02A8B0F85188929893A8975
:101230000B831C832D833E83F887EF8349875A876E
:101240006B877C879E012F5F3F4FAE01495F5F4FE9
:10125000BD010E94A10862960FB6F894DEBF0FBED2
:10126000CDBFDF91CF911F910F9108952FE032E014
:10127000FC0131832083FB014281538164817581AC
:10128000FC01428353836483758308950F9300E0C8
:1012900020E040E060E082E793E00E94D30482E631
:1012A00093E00F910C94C904CF93DF931F92CDB7B5
:1012B000DEB76983DC01ED91FC910280F381E02DC2
:1012C00041E050E0BE016F5F7F4F09950F90DF91C5
:1012D000CF910895EF92FF920F931F93CF93DF93D7
:1012E000CDB7DEB72D970FB6F894DEBF0FBECDBFDA
:1012F0007C0100E010E0602FCE0101960E94D7062D
:10130000CE0101960E94E906811116C0F7014481C1
:10131000558120E061E0802F0E942F11802F0E94D4
:101320006F11F70184819581F801EE0FFF1FE659D7
:10133000FC4F9183808305C00F5F1F4F0430110560
:10134000D1F62D960FB6F894DEBF0FBECDBFDF915C
:10135000CF911F910F91FF90EF900895FC011382A0
:10136000128281E392E09183808375836483089580
:10137000BF92CF92DF92EF92FF920F931F93CF9382
:10138000DF93CDB7DEB72D970FB6F894DEBF0FBE53
:10139000CDBF8C014AE6C42E43E0D42EB12CE12C03
:1013A000F12C6B2DCE0101960E94D706D6012D910E
:1013B0003D916D01F8018481958128173907B1F4B9
:1013C000CE0101960E94E906843169F0CE010196B2
:1013D0000E94E9068C3151F4CE0101960E942D063F
:1013E000892B99F003C0EE24E394F12CB394F4E03C
:1013F000BF12D7CFEF2871F4D801ED91FC91048092
:10140000F581E02DC801099505C0CE0101960E9425
:101410006207ECCF2D960FB6F894DEBF0FBECDBF9E
:10142000DF91CF911F910F91FF90EF90DF90CF90C0
:10143000BF9008957F928F929F92AF92BF92CF926A
:10144000DF92EF92FF920F931F93CF93DF93CDB76D
:10145000DEB72D970FB6F894DEBF0FBECDBF6C017F
:101460005B014A010E94B8095AE6E52E53E0F52EC9
:10147000712C00E010E0672DCE0101960E94D70686
:10148000F701219131917F01F6018481958128171F
:10149000390731F4CE0101960E94E9068731C9F07F
:1014A0007394F4E07F12E7CFC8012D960FB6F8943D
:1014B000DEBF0FBECDBFDF91CF911F910F91FF9087
:1014C000EF90DF90CF90BF90AF909F908F907F90E4
:1014D0000895A401B501CE0101960E941306080FDC
:1014E000191FDECFBF92CF92DF92EF92FF920F9340
:1014F0001F93CF93DF93CDB7DEB72D970FB6F89438
:10150000DEBF0FBECDBF8C016B01CB010E94B809BD
:101510006AE6E62E63E0F62EB12C6B2DCE01019625
:101520000E94D706F701219131917F01F601848154
:1015300095812817390761F4CE0101960E94E906CA
:10154000873179F0CE0101960E94E9068C3149F08D
:10155000B394F4E0BF12E1CF64E0C8010E94D70663
:1015600021C0CE0101960E942D06892B89F38B8123
:101570009C81F801938382838D819E81AF81B885A0
:1015800084839583A683B78349855A856B857C853B
:10159000408751876287738785E192E091838083DA
:1015A0008D858487C8012D960FB6F894DEBF0FBED7
:1015B000CDBFDF91CF911F910F91FF90EF90DF9002
:1015C000CF90BF9008950F9300E020E040E060E0EE
:1015D00088E793E00E94D3040F910895DC01ED9118
:1015E000FC91008CF18DE02D09942FE032E0FC019C
:1015F00031832083FB014189528963897489FC010D
:1016000042835383648375830895FC018589968999
:101610000895FC01818D928D0895CF93DF931F92E1
:10162000CDB7DEB76983DC01ED91FC910280F381D7
:10163000E02D41E050E0BE016F5F7F4F09950F90B4
:10164000DF91CF910895CF93DF93EC01898D9A8D2F
:10165000892B41F0E881F9810680F781E02DCE01E8
:101660000995F4CFDF91CF910895CF93DF93EC01EB
:101670008C85843061F00E942111EC85F0E0EE0F42
:10168000FF1FE659FC4F1182108284E08C87DF91A6
:10169000CF910895FC01108E178A6E5F7F4F84856D
:1016A0000C949212FC0184850C94B712CF93DF93B3
:1016B000EC019A018F89988DAB01BC018C850E9449
:1016C00064122F89388D280F391F388F2F8BDF91A7
:1016D000CF9108950F931F93CF93DF931F92CDB7B0
:1016E000DEB78C01FC01818D928D892B59F041E090
:1016F00050E0BE016F5F7F4F84850E941212181662
:1017000019061CF08FEF9FEF08C0F801818D928DB4
:101710000197928F818F898190E00F90DF91CF9117
:101720001F910F910895CF93DF93EC01898D9A8DCE
:10173000009719F48FEF9FEF10C04817590708F072
:10174000AC018C850E941212181619069CF7298D7F
:101750003A8D281B390B3A8F298FDF91CF9108954D
:10176000CF93DF931F92CDB7DEB7FC01218D328D71
:10177000232B49F0BE016F5F7F4F84850E94561274
:10178000898190E002C08FEF9FEF0F90DF91CF91A2
:1017900008950F931F93CF93DF93CDB7DEB72897AC
:1017A0000FB6F894DEBF0FBECDBF8C01DC01ED910A
:1017B000FC910284F385E02D0995F80164858FEC96
:1017C00093E00E94DE13892B41F148E050E0BE0116
:1017D0006F5F7F4FD8011C968C910E9412121816D1
:1017E0001906ECF4BE016F5F7F4FC8010F960E948F
:1017F000DF048D8190E0982F88272E81820F911D24
:10180000F801968B858B8F8190E0982F882728850B
:10181000820F911D928F818F02C080E090E0289608
:101820000FB6F894DEBF0FBECDBFDF91CF911F91F1
:101830000F910895CF92DF92EF92FF920F931F9333
:10184000CF93DF93EC016B018C85843019F543E075
:10185000E42E44E0F42E00E010E0C7010E94721371
:10186000811102C00C8708C08831E1F30F5F1F4F60
:10187000F3940430110589F78C85843059F0DE86A5
:10188000CD861A8E198E20E0A60162E00E942F11EB
:1018900081E001C080E0DF91CF911F910F91FF9017
:1018A000EF90DF90CF900895FC011382128248EEF2
:1018B00053E060E070E044835583668377838BE375
:1018C00092E09183808384E08487CF010F960C940B
:1018D000C904CF92DF92EF92FF920F931F93CF93A1
:1018E000DF93CDB7DEB7AF970FB6F894DEBF0FBE6C
:1018F000CDBF7C018B016A01CE0101960E94C90413
:10190000CE0109960E94540CCE018A960E94C90409
:1019100062E673E0CE0184960E943609BE016C5DDA
:101920007F4FCE0101960E94D525AE01465D5F4FE7
:10193000B801CE0101960E943A2881309105C1F488
:10194000D701ED91FC910088F189E02D8FE092E0C4
:101950009DA38CA30CA51DA52EA53FA50EA31FA37B
:1019600028A739A7A601BE016C5D7F4FC701099565
:10197000AF960FB6F894DEBF0FBECDBFDF91CF910B
:101980001F910F91FF90EF90DF90CF9008950F93EC
:1019900000E020E040E060E08EE793E00E94D304A6
:1019A0000F910895CF93DF931F92CDB7DEB7698370
:1019B000DC01ED91FC910280F381E02D41E050E0EB
:1019C000BE016F5F7F4F09950F90DF91CF91089512
:1019D000CF93DF93EC01898D9A8D009759F0FC012C
:1019E000138212820E949A1DE98DFA8D2281338121
:1019F000232B31F081E090E09B838A8380E090E0AC
:101A0000DF91CF910895FC01818D928D009711F0A7
:101A10000C943A1B0895CF93DF931F92CDB7DEB796
:101A200041E050E0BE016F5F7F4F0E944B1901976C
:101A300019F4898190E002C08FEF9FEF0F90DF9142
:101A4000CF910895FC01818D928D009711F00C9437
:101A50000B0D8FEF9FEF08950F931F93CF93DF939D
:101A60008C01FC01818D928D0097B9F00E940B0DC5
:101A7000EC018F3FFFEF9F0799F0F801818D928D68
:101A8000FC01428553856485758541505109610982
:101A900071090E949E1ACE0105C080E090E002C04C
:101AA0008FEF9FEFDF91CF911F910F910895CF920C
:101AB000DF92EF92FF920F931F93CF93DF93EC018E
:101AC0007B016A011B821A8208EE13E020E030E0FD
:101AD0000C831D832E833F838FE592E09983888357
:101AE0008DE190E00E948D249A8F898F009779F084
:101AF0002DE1F701DC0101900D922A95E1F74CE010
:101B000050E0B601CE010C960E94EA28188EDF91B3
:101B1000CF911F910F91FF90EF90DF90CF9008959C
:101B2000FC011382128248EE53E060E070E04483CF
:101B30005583668377838FE592E091838083128E4D
:101B4000118E148608952FE532E0FC013183208345
:101B50000895DC015996ED91FC915A97309729F040
:101B6000628573858485958508956FEF7FEFCB013E
:101B70000895DC015996ED91FC915A97309729F020
:101B80006389748985899689089560E070E0CB0146
:101B90000895CF92DF92EF92FF92CF93DF93EC0103
:101BA000898D9A8D892BD9F0CE010E94B90D6B01D8
:101BB0007C01CE010E94A90DA7019601261B370BBF
:101BC000480B590BDA01C901811530E89307A105CB
:101BD000B10538F08FEF9FE7A0E0B0E002C080E0F1
:101BE00090E0DF91CF91FF90EF90DF90CF9008953C
:101BF000CF93DF93EC01898D9A8D009741F00E947D
:101C0000811B898D9A8D0E9425251A8E198EDF9150
:101C1000CF910895DC015996ED91FC915A97309738
:101C200021F081E09581911101C080E008951F931A
:101C3000CF93DF93CDB7DEB76D970FB6F894DEBFC5
:101C40000FBECDBFAB011C821B8221E732E03A837D
:101C500029831E8221E0BC01CE0101960E94B51CA1
:101C6000182F882321F0CE0101960E94811B812F1D
:101C70006D960FB6F894DEBF0FBECDBFDF91CF914A
:101C80001F910895CF93DF93FB0120813181FC01E7
:101C9000E20FF31FE081EF3211F42F5F3F4FDA01C3
:101CA000E0E0F0E0EC01C20FD31FC881CF3249F071
:101CB000CC2339F031962F5F3F4FCD93EC30F105B7
:101CC00089F7E40FF51F1082FC01E20FF31F40813A
:101CD0004F3211F42F5F3F4FFB0131832083FC0112
:101CE000E20FF31F81E09081911101C080E0DF914C
:101CF000CF9108954F925F926F927F928F929F92B1
:101D0000AF92BF92CF92DF92EF92FF920F931F9309
:101D1000CF93DF93CDB7DEB7C954D1090FB6F8948E
:101D2000DEBF0FBECDBF5C016B013A01490119A2B4
:101D300018A281E792E09F8F8E8F1BA21C821B82CC
:101D40009A8389831E822A961FAE1EAE2A978B0124
:101D50007E018EE1E80EF11C44244394AE01455C03
:101D60005F4FBE01685B7F4FC5010E94420E582E37
:101D7000482F44259401BE01655C7F4FC801F301E3
:101D80000995811108C00C151D0519F0C8010E94A4
:101D9000811B80E027C05520B9F021E0AE01455CF1
:101DA0005F4FB801C7010E94B51C582E0C151D05C8
:101DB00099F0C8010E94811B552059F3902F812F63
:101DC0008701E92EF82ECACF0C151D0519F0C801A0
:101DD0000E94811B81E006C08823D9F28E010F5F2B
:101DE0001F4FECCFC75BDF4F0FB6F894DEBF0FBEBF
:101DF000CDBFDF91CF911F910F91FF90EF90DF90BA
:101E0000CF90BF90AF909F908F907F906F905F909A
:101E10004F9008950F931F93CF93DF93EC01462FBC
:101E200061E00E940E16811102C080E01DC08E018B
:101E3000045F1F4F41E0BE01C8010E94E1228823D8
:101E400059F0B801CE018A960E94FB1891E08111E9
:101E500001C090E0892F08C040E0BE01C8010E9487
:101E6000E122882311F3EDCFDF91CF911F910F91E4
:101E70000895FC01DB0112968D919C911397938339
:101E8000828381E792E09183808314968C911497EA
:101E9000848315968C911597858316964D915D9147
:101EA0006D917C91199746835783608771871A9645
:101EB0004D915D916D917C911D9742875387648709
:101EC00075871E964D915D916D917C9151974687D6
:101ED0005787608B718B52968C915297828B539659
:101EE0004D915D916D917C915697438B548B658B91
:101EF000768B57964D915D916D917C915A97478B5A
:101F0000508F618F728F5B968D919C915C97948FAF
:101F1000838F08954F925F926F927F928F929F92DC
:101F2000AF92BF92CF92DF92EF92FF920F931F93E7
:101F3000CF93DF93CDB7DEB7C754D1090FB6F8946E
:101F4000DEBF0FBECDBF6C014A013901665D7F4F18
:101F50005E018EE1A80EB11CC5010E94390F1C82E2
:101F60001B8281E792E09A8389831E828401FE01AD
:101F700031967F015A2C4B2C6FE270E0C8010E9411
:101F8000DF280097E9F1F80120812F3219F40F5F63
:101F90001F4FF2CF801B8D3008F08CE0A82EB12CA3
:101FA000A501B801CE01CB960E94EA28EBE3F0E050
:101FB000EC0FFD1FEA0DFB1D1082C7010E94811B63
:101FC00021E0AE01455C5F4F652D742DC7010E9475
:101FD000B51C811109C0F6011382128281E792E0DB
:101FE00091838083158216C00A0D1B1D852D942DAB
:101FF0000E94811BC2015E2C4F2CE92EF82EBCCF13
:1020000008191909F30111830083652D742DC60188
:102010000E94390FC601C95BDF4F0FB6F894DEBFCF
:102020000FBECDBFDF91CF911F910F91FF90EF9029
:10203000DF90CF90BF90AF909F908F907F906F90E8
:102040005F904F900895BF92CF92DF92EF92FF92F0
:102050000F931F93CF93DF93CDB7DEB7C955D10947
:102060000FB6F894DEBF0FBECDBF7C016A01B22E61
:102070009E01285A3F4FCE01CB960E948A0F6A9646
:102080000EAD1FAD6A970C0D1D1DF80180818111E9
:102090000AC0BE01655C7F4FCE0101960E94390FD8
:1020A0004BE652E03EC019A218A281E792E09F8F52
:1020B0008E8F1BA221968FAD2197811104C0C7017D
:1020C0000E94900D34C082502B2DA801823048F41C
:1020D0006EEA73E0CE014E960E94B51C81110EC0CF
:1020E000EECFBE01655C7F4FCE014E960E94B51CBF
:1020F000882329F3CE01CB960E94811B8B2D8670FD
:1021000041F049A95AA96BA97CA9CE014E960E941B
:102110009E1ABE01625E7F4FCE0101960E94390F6A
:10212000A801BE016F5F7F4FC7010E94570DC70115
:10213000C75ADF4F0FB6F894DEBF0FBECDBFDF9199
:10214000CF911F910F91FF90EF90DF90CF90BF90B4
:102150000895FB01BC01665D7F4F20E030E047E160
:102160005EE0CF010C947A0E1092890310928A03DC
:1021700010928D0310928F0382E090E0A0E0B0E017
:102180008093900390939103A0939203B093930351
:102190001092A7031092B1031092B00381E792E06E
:1021A0009093AF038093AE031092B303089590E031
:1021B000982F882744E050E0845F9B4F0C94431392
:1021C000282F30E02C5F3F4F922F8827860F971FD4
:1021D0000C94721362E070E00C94E010FB01282F65
:1021E00030E02C5F3F4F922F8827642F8E0F9F1F68
:1021F0000C94E312CF93DF93C82FD62F472F64E0C0
:1022000070E00E94EE104D2F65E070E08C2FDF91A2
:10221000CF910C94EE10462F62E070E00C94EE101B
:10222000CF93DF93C82FD62F472F60E170E00E9435
:10223000EE104D2F61E170E08C2FDF91CF910C9467
:10224000EE10CF93C82F40E150E0682F8FEC93E061
:102250000E942B156FEF8C2FCF910C940B11EF92E6
:10226000FF921F93CF93DF9300D0CDB7DEB7182F27
:102270007A018FEF860F853048F5812F2A83698395
:102280000E9421112A816981462F422B60E070E073
:10229000812F0E94EE10E114F10411F0B7010AC081
:1022A0006091CD037091CE036F5F7F4F7093CE032B
:1022B0006093CD03812F0E94FA1041E050E0612F1E
:1022C0008FEC93E00E942B1581E001C080E00F901D
:1022D0000F90DF91CF911F91FF90EF900895CF93D2
:1022E000C82F63E070E00E94E010833149F442E0BF
:1022F00050E06C2F8FEC93E00E942B1581E001C021
:1023000080E0CF9108951F93CF93DF93182FFB01A7
:10231000EA0180818F3F51F481818F3F91F4828166
:102320008F3F79F483818F3F61F41EC0811109C012
:102330008181811106C08281811103C0838188233C
:1023400099F0209789F0BF01812F0E94D710BE011C
:10235000812F0E94101144E050E0612F8FEC93E038
:102360000E942B1581E001C080E0DF91CF911F9189
:10237000089548E050E0682F8FEC93E00C942B1503
:10238000DF92EF92FF920F931F93CF93DF93D82E9C
:102390008B01EA01413088E0580710F0C0E0D8E036
:1023A0006D2D8FEC93E00E94AA137C0163E070E036
:1023B0008D2D0E94E010873111F08C3121F4EC1644
:1023C000FD0670F302C0C0E0D0E09E01A8016D2DB3
:1023D0008FEC93E00E94691440E250E06D2D8FEC89
:1023E00093E00E942B158D2D0E94EA1084FD0DC0F4
:1023F00063E070E08D2D0E94E0108111F4CF8D2DEF
:102400000E94211180E090E005C060E18D2D0E94C6
:102410000B11CE01DF91CF911F910F91FF90EF90A3
:10242000DF900895DF92EF92FF920F931F93CF9367
:10243000DF93D82E7B018A01682F8FEC93E00E94F6
:10244000DE13EC01009799F463E070E08D2D0E949B
:10245000E010843111F1882301F1C1E0D0E08C312A
:1024600011F4C0E0D0E0D195C195D10916C008178C
:1024700019070CF4E8011C161D067CF400E09E010F
:10248000A7016D2D8FEC93E00E94DB1440E450E037
:102490006D2D8FEC93E00E942B15CE01DF91CF9133
:1024A0001F910F91FF90EF90DF9008950F93AB0174
:1024B00001E021E030E0682F8FEC93E00E94DB1414
:1024C00081E090E00F910895BF92CF92DF92EF925A
:1024D000FF920F931F93CF93DF93B82E7B016A0176
:1024E000E901682F8FEC93E00E94AA138C179D07D7
:1024F00030F46B2D8FEC93E00E94AA13EC018E0157
:102500009601A7016B2D8FEC93E00E94FA13CE0188
:10251000DF91CF911F910F91FF90EF90DF90CF90BF
:10252000BF9008951F93CF93DF93182FFB01EA010B
:102530008081811109C08181811106C08281811150
:1025400003C08381882369F0209759F0BF01812F50
:102550000E94D710BE01812F0E94101181E090E0EF
:1025600002C080E090E0DF91CF911F910895CF935A
:10257000C82F40E250E0682F8FEC93E00E942B15AB
:102580008C2F0E94EA1084FD0CC08C2F0E94EA1050
:1025900083FFF6CF68E18C2F0E940B1180E090E062
:1025A00006C060E18C2F0E940B1181E090E0CF917A
:1025B00008958EBD0DB407FEFDCF8EB508952A98FF
:1025C00008952A9A08951F93CF93DF9300D0CDB733
:1025D000DEB7182F6A8399830E94DF1280EF0E9472
:1025E000D9129981892F0E94D912812F0E94D91264
:1025F0006A81862F0E94D9120E94E11281E00F9019
:102600000F90DF91CF911F910895CF93DF93EC014D
:102610006CE271E080E090E00E9441020E94B425EB
:10262000229A60E880E090E00E94E31265E58BE189
:1026300090E00E94E31265E58AE190E00E94E312D7
:1026400080E090E49983888380E090E6998788878A
:1026500080E098E49B838A8380E098E69B878A8762
:1026600080E090E59D838C8380E090E79D878C8758
:1026700080E098E59F838E8380E098E79F878E8730
:10268000DF91CF910895CF92DF92EF92FF920F9357
:102690001F93CF93DF93EC017A018B016C01C40E81
:1026A000D51ECC15DD05A1F00E94DF1280EF0E943F
:1026B000D9128D2F0E94D9128C2F0E94D9122196E7
:1026C000F80181918F010E94D9120E94E112E9CF95
:1026D000C701DF91CF911F910F91FF90EF90DF9095
:1026E000CF9008951F93CF93DF931F92CDB7DEB79E
:1026F000182F99830E94DF128FE00E94D9129981CE
:10270000892F0E94D912812F0E94D91280E00E9445
:10271000D91289830E94E11289810F90DF91CF91B4
:102720001F9108951F93CF93DF93182F60E270E0FD
:102730000E94E010C82FD0E061E270E0812F0E947B
:10274000E010DC2FCC279E01282BC901DF91CF910F
:102750001F910895FF920F931F93CF93DF93F62E4F
:10276000C0E0D0E08F2D0E9492138C01009721F0E1
:102770008F2D0E949213EC01C017D10799F7CE015B
:10278000DF91CF911F910F91FF9008951F93CF93E9
:10279000DF93182F66E270E00E94E010C82FD0E0AF
:1027A00067E270E0812F0E94E010DC2FCC279E01B1
:1027B000282BC901DF91CF911F910895FF920F93AC
:1027C0001F93CF93DF93F62EC0E0D0E08F2D0E94B1
:1027D000C6138C01009721F08F2D0E94C613EC01C7
:1027E000C017D10799F7CE01DF91CF911F910F91BB
:1027F000FF9008956F927F929F92AF92BF92CF9277
:10280000DF92EF92FF920F931F93CF93DF931F926C
:10281000CDB7DEB7D82E962E3A01590164E270E0AA
:10282000892D99830E94E010E82EF12C65E270E07A
:10283000892D0E94E010FE2CEE24E82AE60CF71CFD
:10284000970137706D2C9981792E690C711C690C78
:10285000711CD301ED91FC91E20FF31FC901800FB0
:10286000911F81309840A0F0C12C48E0D42EC21AAC
:10287000D30AA601B501CF010E944313A8014C1948
:102880005D09B5016C0D7D1DF3018081918103C04F
:10289000A801B501CF010E944313E00EF11E4F2D98
:1028A00064E270E0892D0E94EE104E2D65E270E02A
:1028B000892D0F90DF91CF911F910F91FF90EF9095
:1028C000DF90CF90BF90AF909F907F906F900C94CF
:1028D000EE100F931F9389019A0140E050E00E948F
:1028E000FA131F910F910895CF92DF92EF92FF920A
:1028F0000F931F93CF93DF93EC017A018B016C014F
:10290000C40ED51ECC15DD05A9F00E94DF128FE0A4
:102910000E94D9128D2F0E94D9128C2F0E94D91299
:10292000219680E00E94D912F80181938F010E94C4
:10293000E112E8CFC701DF91CF911F910F91FF9076
:10294000EF90DF90CF900895CF92DF92EF92FF92B9
:102950000F931F93CF93DF9369015770EC01C60F5C
:10296000D11DC60FD11D88859985840F951F9A01A9
:10297000200F311F2130384090F0E12C68E0F62E16
:10298000E41AF50AA701B6010E947414A8014E19B1
:102990005F09B6016E0D7F1D8885998502C0A8016B
:1029A000B601DF91CF911F910F91FF90EF90DF90D3
:1029B000CF900C9474148F929F92AF92BF92CF924B
:1029C000DF92EF92FF920F931F93CF93DF936C01EF
:1029D000962E5A017901802E68E270E0892D0E94BE
:1029E000E010C82FD0E069E270E0892D0E94E0106D
:1029F000DC2FCC27C82B87019501AE01692DC601BC
:102A00000E94A41481101AC0CE0DDF1D4D2F68E264
:102A100070E0892D0E94EE104C2F69E270E0892D44
:102A2000DF91CF911F910F91FF90EF90DF90CF90AA
:102A3000BF90AF909F908F900C94EE10DF91CF914C
:102A40001F910F91FF90EF90DF90CF90BF90AF90CC
:102A50009F908F900895CF93C62F61E070E08C2FE8
:102A60000E94EE1061E070E08C2F0E94E010811156
:102A7000F9CFCF9108958EBD0DB407FEFDCF089517
:102A80008FEF0E943B158EB5089561E0FC018481B3
:102A90000C94572460E0FC0184810C945724CF935C
:102AA000DF93EC018E818823C9F08FEF8EBD4FEF4D
:102AB0008F8198859C012F5F3F4F38872F8381300E
:102AC000924028F40DB407FEFDCF4EBDF1CF0DB4FA
:102AD00007FEFDCFCE010E9445151E82DF91CF91EA
:102AE0000895673028F026E1FC01258380E00895F1
:102AF0008DB560FD02C0663011F48E7F01C081602B
:102B00008DBD8CB58C7F8CBD9CB562FF02C082E010
:102B100001C080E066956170692B682B6CBD81E017
:102B200008950F931F93CF93DF93EB010E9412023E
:102B30008B010E9440158F3F49F00E941202601BDA
:102B4000710B6C177D07A8F380E001C081E0DF9175
:102B5000CF911F910F910895CF92DF92FF920F9323
:102B60001F93CF93DF9300D000D0CDB7DEB76C01B9
:102B7000F62E29833A834B835C830E944F15C6014E
:102B80000E944A156CE271E0C6010E9491158F2DDA
:102B900080640E943B1508E110E05C814B813A8122
:102BA0002981DA01C901002E04C0B695A795979531
:102BB00087950A94D2F729833A834B835C830E94DA
:102BC0003B150850110929813A814B815C81083FEE
:102BD0008FEF180731F7FF2029F0E8E0FE1621F00B
:102BE0008FEF03C085E901C087E80E943B1510E024
:102BF0000E944015F601828787FF04C01F3F11F035
:102C00001F5FF6CF0F900F900F900F90DF91CF9135
:102C10001F910F91FF90DF90CF900895BF92CF92B8
:102C2000DF92EF92FF920F931F93CF93DF93EC010C
:102C3000B62E1B8619861E821D824C830E941202AC
:102C40008B0161E08C810E941E24CE010E944515FB
:102C500060E08CE00E941E2461E08BE00E941E2454
:102C600061E08DE00E941E2461E08AE00E941E2443
:102C700061E08AE00E94572483E58CBD8DB58E7F8C
:102C80008DBD2AE0F22E8FEF0E943B15FA94D9F702
:102C9000CE010E944A1520E030E0A90160E0CE019B
:102CA0000E94AC15F82E8A8781E0F81649F00E9440
:102CB0001202601B710B613D774068F381E04BC0ED
:102CC0002AEA31E040E050E068E0CE010E94AC1515
:102CD00082FF02C0FB860DC094E0F92E0E944015D1
:102CE0008A87FA94D9F78A3A11F082E034C082E0F8
:102CF0008B878B85823031F4C12CD12CE12C80E480
:102D0000F82E03C0C12CD12C760120E030E0A901BF
:102D100067E3CE010E94AC15A701960169E2CE01DE
:102D20000E94AC158A87882349F00E941202601B1A
:102D3000710B613D774048F388E00DC08B85823090
:102D400031F520E030E0A9016AE3CE010E94AC1524
:102D5000882381F086E08D83CE010E94451580E0B6
:102D6000DF91CF911F910F91FF90EF90DF90CF9067
:102D7000BF9008950E944015807C803C11F483E050
:102D80008B870E9440150E9440150E944015CE017D
:102D90000E9445156B2DCE01DF91CF911F910F91B0
:102DA000FF90EF90DF90CF90BF900C9471150F9330
:102DB0001F93CF93DF93EC010E9412028B010E94BC
:102DC00040158A878F3F49F40E941202601B710BE5
:102DD0006D327140A0F38FE003C08E3F39F08DE07B
:102DE0008D83CE010E94451580E001C081E0DF9116
:102DF000CF911F910F910895CF92DF92EF92FF92A2
:102E00000F931F93CF93DF93EC0169010115110517
:102E100009F475C0C801820F931F8130924008F0F9
:102E200070C08E81882371F088819981AA81BB81CD
:102E3000481759076A077B0729F48F819885C816B8
:102E4000D90618F5488359836A837B838B85833041
:102E500039F039E0440F551F661F771F3A95D1F7B7
:102E60009A01AB0161E1CE010E94AC15882319F0F3
:102E700083E08D8346C0CE010E94D716882309F4D3
:102E800040C018861F8281E08E838FEF8EBD2FEFAA
:102E90008F8198858C159D0550F40DB407FEFDCFEC
:102EA0002EBD8F819885019698878F83F1CFC801B9
:102EB0000197F7014FEF9F012E193F092817390796
:102EC00038F40DB407FEFDCF2EB521934EBDF3CFE0
:102ED0000DB407FEFDCF2EB5F701E80FF91F2083D3
:102EE0008F819885800F911F98878F832985222352
:102EF00019F08115924018F0CE010E944F1581E023
:102F000004C0CE010E94451580E0DF91CF911F9152
:102F10000F91FF90EF90DF90CF900895EF92FF9286
:102F20000F931F93790100E012E020E030E00E944F
:102F3000FC161F910F91FF90EF900895CF93DF93B0
:102F4000EC016EBD20E030E00DB407FEFDCFFA01CC
:102F5000E20FF31F80818EBD0DB407FEFDCF81818E
:102F60008EBD2E5F3F4F211582E0380769F70DB403
:102F700007FEFDCF8FEF0E943B158FEF0E943B15A0
:102F80000E9440158A878F71853039F081E18D83E9
:102F9000CE010E94451580E001C081E0DF91CF9114
:102FA00008950F931F93CF93DF93EC01890141158F
:102FB00051056105710511F482E132C08B858330C2
:102FC00039F089E0440F551F661F771F8A95D1F7A6
:102FD0009A01AB0168E1CE010E94AC15882311F083
:102FE00084E01EC0A8016EEFCE010E949E178823C8
:102FF000C1F068E572E0CE010E949115811102C016
:1030000085E10EC020E030E0A9016DE0CE010E9414
:10301000AC15811104C00E944015882339F084E169
:103020008D83CE010E94451580E004C0CE010E9430
:10303000451581E0DF91CF911F910F910895CF93B6
:10304000DF93EC019C012A5F3F4F41E050E060E0DC
:1030500070E08B8D9C8D0E9476218823A1F04F8992
:10306000588D698D7A8D452B462B472B71F44E81F7
:103070005F81688579854F8B588F698F7A8F8C81B6
:1030800080688C8302C080E001C081E0DF91CF9135
:103090000895CF92DF92EF92FF921F93CF93DF9329
:1030A000EC010E941F18811102C080E04BC0EB8D23
:1030B000FC8DCE80DF80E884F98482E0C81AD108D4
:1030C000E108F108058404C0CC0CDD1CEE1CFF1CDB
:1030D0000A94D2F74685578560897189C40ED51E3A
:1030E000E61EF71E148181E0C81AD108E108F10834
:1030F000112361F0C701B601610F711D811D911D82
:103100000E94C01F882389F21150F2CFEB8DFC8DF5
:10311000C12C82E0D82EE12CF12C058404C0CC0C0B
:10312000DD1CEE1CFF1C0A94D2F74B895C896D896B
:103130007E894C0D5D1D6E1D7F1D4B8B5C8B6D8BD9
:103140007E8B81E0DF91CF911F91FF90EF90DF9018
:10315000CF900895CF93DF93EC01462F6E857F8546
:10316000888999890E94851F882341F08A8920E2F5
:10317000829FC001112488519C4F02C080E090E0E2
:10318000DF91CF910895282FFB018BE030E231933E
:103190008150E9F7A22FB92F20E037E09D919923C4
:1031A00019F19E3219F0E8E6F0E008C03A3011F16A
:1031B00028E03AE0F3CF31964917E1F0449141110C
:1031C000FACF3217B8F04FED490F4E3598F441E081
:1031D000420FFB01E20FF11D2FE9290F2A3108F4FC
:1031E00090529083242FDACF81E0FB0190819032BE
:1031F00009F480E008950F931F93CF93DF93EC01C0
:103200008B018D81882311F080E040C0FB0187890C
:103210008031B1F482E08D831F8A188E198E1A8E48
:10322000408D518D60E070E095E0440F551F661FA2
:10323000771F9A95D1F74B8B5C8B6D8B7E8B15C06E
:10324000803211F783E08D83FB01428D538D648DB5
:10325000758D4F8B588F698F7A8F9E012D5E3F4FF2
:10326000C8010E946A20882379F21C8F0B8F81E0AD
:103270008C831E821F82188619861A861B861C86DE
:103280001D861E861F86188A198A1A8ADF91CF9199
:103290001F910F9108952F923F924F925F926F92DC
:1032A0007F928F929F92AF92BF92CF92DF92EF92D6
:1032B000FF920F931F93CF93DF93EC016B015A01A1
:1032C0008D81811103C08FEF9FEFDAC08C8180FF69
:1032D000FACF4B895C896D897E898A859B85AC850F
:1032E000BD852501612C712C8A019B01081B190BDE
:1032F0002A0B3B0B041515052605370518F45A0152
:10330000A81AB90A25011E0126E0220E311C41141B
:10331000510409F47BC04A855B856C857D854A0133
:1033200081E09822ED818A019B01F9E0369527958D
:1033300017950795FA95D1F78B8D9C8DE23051F456
:10334000FC01628D738D848D958D600F711F821FBE
:10335000931F3EC0FC0174807A9470228114910402
:10336000C9F4711017C0452B462B472B49F48F89A0
:10337000988DA98DBA8D8E839F83A887B9870AC03F
:103380004E815F816885798591010E94E61F8823BF
:1033900009F499CFEB8DFC8D6E817F8188859985AD
:1033A0006250710981099109058404C0660F771F75
:1033B000881F991F0A94D2F70685178520893189BD
:1033C000600F711F821F931F670D711D811D911D5D
:1033D00020E032E02819390932012415350508F4B6
:1033E00039012C8126FD04C06114F2E07F06A1F5AD
:1033F00000910C0110910D0120910E0130910F01EF
:10340000601771078207930719F426C0C50138C0F9
:10341000760183019401AB01BC018091E603909198
:10342000E7030E94FC16882309F44DCFC60CD71C75
:1034300004C0E81BF90BCE0EDF1E8A859B85AC8588
:10344000BD85860D971DA11DB11D8A879B87AC8701
:10345000BD87461857085BCF40E00E94851F882330
:1034600009F431CFC40188519C4FD6019C01260D2F
:10347000371DFC01E217F307E1F241914D93FACFBA
:10348000DF91CF911F910F91FF90EF90DF90CF9040
:10349000BF90AF909F908F907F906F905F904F9074
:1034A0003F902F900895FF920F931F93CF93DF9338
:1034B0001F92CDB7DEB78C01FC018581823018F4F4
:1034C00080E090E034C0F8014285538564857585BD
:1034D000A5E07695679557954795AA95D1F7F42F6E
:1034E000FF70FF2E41E050E0BE016F5F7F4FC801CB
:1034F0000E944B19019719F4298130E002C02FEF87
:103500003FEF2F3F3F4FE1F2F8014285538564853D
:103510007585415E5F4F6F4F7F4F4287538764874A
:103520007587F0E2FF9EC001112488519C4F0F90D7
:10353000DF91CF911F910F91FF9008954F925F926D
:103540006F927F92AF92BF92CF92DF92EF92FF92F3
:103550000F931F93CF93DF93EC016A017B012D81C1
:10356000222309F457C08B899C89AD89BE898417B1
:103570009507A607B70708F44DC04EC08A859B85FE
:10358000AC85BD85EB8DFC8DE585F0E03996AC0111
:10359000BD0141505109610971090E2E04C0769593
:1035A0006795579547950A94D2F797018601015080
:1035B00011092109310904C03695279517950795FA
:1035C000EA95D2F70417150726073707B0F58F8954
:1035D000988DA98DBA8D8E839F83A887B98728017E
:1035E00039015E0186E0A80EB11C4114510461044A
:1035F000710461F14E815F816885798595018B8DBC
:103600009C8D0E94E61F91E0491A510861087108DB
:103610008111EBCF80E01FC02230C1F0C114D10472
:10362000E104F10409F0AACF1E821F8218861986D0
:103630001A861B861C861D860DC0892B8A2B8B2B18
:1036400031F2041B150B260B370BC9CFCA86DB865C
:10365000EC86FD8681E0DF91CF911F910F91FF9065
:10366000EF90DF90CF90BF90AF907F906F905F9082
:103670004F9008950F931F93CF93DF93EC018D81AB
:103680008823C9F18C8187FF30C061E0CE010E94A0
:10369000AA188C01009779F18D81823048F44B890A
:1036A0005C896D897E89F801448F558F668F778F8D
:1036B0004F89588D698D7A8DF801538F428F758BA4
:1036C000648BE091DF03F091E003309759F0B8018B
:1036D0006A5E7F4FC80148960995F801808D918DEB
:1036E000938B828B8C818F778C83DF91CF911F910D
:1036F0000F910C944A1F80E0DF91CF911F910F91A1
:103700000895CF93DF93EC010E943A1B882319F0B0
:103710001D8281E001C080E0DF91CF9108954F923A
:103720005F926F927F92AF92BF92CF92DF92EF92B1
:10373000FF920F931F93CF93DF9300D000D0CDB7AC
:10374000DEB75C016A017B01FC0185818130F1F407
:10375000848181FF1BC0F50183899489A589B6897D
:1037600084179507A607B70788F0892B8A2B8B2B20
:1037700009F479C0F5014284538464847584B701E7
:10378000A601C5010E949E1A811102C080E06CC092
:10379000F501838D948DC114D104E104F10471F419
:1037A0004789508D618D728D0E948B22882371F321
:1037B000F501178A108E118E128E3AC0F5014681DE
:1037C0005781608571859E012F5F3F4F0E94E61FE4
:1037D0008823E1F249815A816B817C81F501838DD7
:1037E000948DFC012789203129F408EF1FEF20E098
:1037F00030E004C008EF1FEF2FEF3FE04017510704
:1038000062077307A8F40E948B22882309F4BECFB5
:10381000F50146815781608571850FEF1FEF2FEF0E
:103820003FE0838D948D0E94D520882309F4AECF8C
:10383000F501C38AD48AE58AF68A84818068848304
:10384000C5010E943A1B882309F4A0CFB701A60145
:103850004C145D046E047F0410F4B301A201C50191
:103860000E949E1A01C081E00F900F900F900F9060
:10387000DF91CF911F910F91FF90EF90DF90CF904C
:10388000BF90AF907F906F905F904F900895FF92A0
:103890000F931F93CF93DF93EC01F42E80E2689F88
:1038A000F0011124E851FC4F8385817129F0842FA8
:1038B000827411F080E053C06A8B80910C0190916A
:1038C0000D01A0910E01B0910F018E879F87A88BEB
:1038D000B98B4489558960E070E0BA0155274427C7
:1038E000028D138D20E030E0402B512B622B732B87
:1038F0004F8B588F698F7A8F8385887151F4048D2F
:10390000158D268D378D0B8B1C8B2D8B3E8B81E07F
:103910000CC0803179F69E012D5E3F4F8B8D9C8DC2
:103920000E946A20882331F284E08D838F2D8F706E
:103930008C831E821F82188619861A861B861C8617
:103940001D86F6FE0BC040E050E0BA01CE01DF91CB
:10395000CF911F910F91FF900C948F1B81E0DF910D
:10396000CF911F910F91FF900895AF92BF92CF9288
:10397000DF92EF92FF920F931F93CF93DF93CDB718
:10398000DEB72B970FB6F894DEBF0FBECDBF7C011C
:103990006B01CA01B22EF70125812111B9C0BE0108
:1039A0006F5F7F4F0E94C318882309F4B1C0F601EE
:1039B000838D948DF701948F838FF6011682178281
:1039C000108611861286138614861586A12CF601A0
:1039D000028513852485358583899489A589B689CF
:1039E000081719072A073B07E8F545E0369527959C
:1039F000179507954A95D1F70F70C6010E94531A83
:103A0000009709F485C0FC012081222311F0253E96
:103A1000B9F4A1100EC0F701028B40910C01509136
:103A20000D0160910E0170910F0146875787608BE1
:103A3000718BFC018081AA24A3948111C8CF12C08C
:103A40004BE050E0BC01CE0101960E94D228892BA8
:103A500009F0BDCF8B2D8073803309F459C04B2DF5
:103A6000602F52C08B2D8271823109F051C0AA2083
:103A700041F061E0C7010E94AA188C01009779F417
:103A800047C0F6018581823009F442C0C6010E9418
:103A900049188823E9F1F701128A08EE13E080E261
:103AA000F80111928A95E9F78BE0FE013196D80171
:103AB00001900D928A95E1F7E091DF03F091E00328
:103AC000309739F0B801625F7F4FC8014096099581
:103AD00009C081E298E2F801918B808B80E098E048
:103AE00097878687F80180899189938B828B918F44
:103AF000808F86859785978B868B0E944A1F8823A7
:103B000039F04B2DF7016289C7010E94471C01C0A3
:103B100080E02B960FB6F894DEBF0FBECDBFDF91CD
:103B2000CF911F910F91FF90EF90DF90CF90BF90BA
:103B3000AF9008952F923F924F925F926F927F9233
:103B40008F929F92AF92BF92CF92DF92EF92FF92AD
:103B50000F931F93CF93DF9300D000D01F92CDB768
:103B6000DEB78C017B013A01DC0115968C9115972B
:103B70008130C9F414968C9181FF15C082FF1BC05F
:103B8000F801438954896589768982859385A4855E
:103B9000B58584179507A607B70769F0C8010E9485
:103BA0009E1A811108C081E090E0F801938382831E
:103BB00080E090E046C1630180C0D8015B968D91A2
:103BC0009C915C97FC01F481F150B501A40129E0BE
:103BD00076956795579547952A95D1F7F423FD83F8
:103BE00021E09222FF2309F474C080E092E088195A
:103BF000990956018C159D0508F45C01D8015B9666
:103C0000ED91FC915C9716962D903D904D905C90B7
:103C10001997B2E02B1A310841085108058404C0F5
:103C2000220C331C441C551C0A94D2F786859785B8
:103C3000A089B189280E391E4A1E5B1EED812E0E09
:103C4000311C411C511CA114F2E0BF0609F088C0D0
:103C500080910C0190910D01A0910E01B0910F0186
:103C600082159305A405B50559F48FEF9FEFDC018C
:103C700080930C0190930D01A0930E01B0930F015E
:103C80009701B201A1018091E6039091E7030E94A0
:103C9000D117882309F487CF9EEFF91ACA18DB08D9
:103CA000F80182859385A485B5858A0D9B1DA11D8C
:103CB000B11D82879387A487B587D8011A968D9006
:103CC0009D90AD90BC901D97C114D10409F075CFA3
:103CD0008AC08114910409F088CF16964D915D91A8
:103CE0006D917C911997411551056105710559F444
:103CF00057968D919D910D90BC91A02D0097A10597
:103D0000B10541F521C09E012F5F3F4F0E94E61F84
:103D1000882309F44ECF89819A81AB81BC81F80157
:103D2000238D348DF9012789203129F448EF5FEF85
:103D300060E070E004C048EF5FEF6FEF7FE0841752
:103D40009507A607B70730F0C8010E941F18811118
:103D50004CCF29CFF80186839783A087B18745CFC1
:103D60008114910429F5D8011A964D915D916D91B8
:103D70007C911D9753968D919D910D90BC91A02D96
:103D8000481759076A077B0798F00E944A1F882343
:103D900009F409CF20920C0130920D0140920E01DE
:103DA00050920F018091E50381608093E50308C084
:103DB00041E0C201B1010E94851F882309F4F3CEBE
:103DC000C40188519C4FD7019C012A0D3B1DFC0169
:103DD000E217F30719F04D914193FACFE81BF90B65
:103DE000EE0EFF1E5BCF53968D919D910D90BC9171
:103DF000A02DF801248188159905AA05BB0538F482
:103E0000838A948AA58AB68A206824830CC080910C
:103E1000DF039091E003892B31F06114710419F0F4
:103E20002068F8012483D80114968C9183FD02C088
:103E3000C30107C0C8010E943A1B882309F4B3CE0E
:103E4000F7CF0F900F900F900F900F90DF91CF91C1
:103E50001F910F91FF90EF90DF90CF90BF90AF90A8
:103E60009F908F907F906F905F904F903F902F909A
:103E70000895CF93DF931F92CDB7DEB7698341E0FA
:103E800050E0BE016F5F7F4F0E949A1D0F90DF913F
:103E9000CF9108958091E503882399F140910C0119
:103EA00050910D0160910E0170910F0128EE33E0E9
:103EB0008091E6039091E7030E94D117882319F1BE
:103EC0004091E1035091E2036091E3037091E403B8
:103ED000411551056105710591F028EE33E080919F
:103EE000E6039091E7030E94D117882361F01092B6
:103EF000E1031092E2031092E3031092E4031092A4
:103F0000E50381E0089580E00895CF92DF92EF927B
:103F1000FF92CF936B017C01C42F80910C01909193
:103F20000D01A0910E01B0910F018C159D05AE05FC
:103F3000BF05D1F00E944A1F811102C080E01AC063
:103F400028EE33E0B701A6018091E6039091E703E4
:103F50000E948E17882391F3C0920C01D0920D011C
:103F6000E0920E01F0920F018091E5038C2B80937B
:103F7000E50381E0CF91FF90EF90DF90CF9008951F
:103F8000CF92DF92EF92FF926B017C010E944A1F59
:103F90008823B1F0E8EEF3E0119285E0E83EF807FF
:103FA000D9F7C0920C01D0920D01E0920E01F0926F
:103FB0000F018091E50381608093E50381E001C0FA
:103FC00080E0FF90EF90DF90CF9008958F929F92C6
:103FD000AF92BF92CF92DF92EF92FF920F931F9317
:103FE000CF93DF938C016A017B01E901FC0181859C
:103FF0009285A385B4850196A11DB11D84179507EF
:10400000A607B70710F480E058C0F8014389548927
:10401000658976898789803129F4BB27AF2D9E2D4C
:104020008D2D09C0D701C60127E0B695A7959795B4
:1040300087952A95D1F74C015D01840E951EA61E29
:10404000B71EC501B40180900C0190900D01A090A5
:104050000E01B0900F01681579058A059B0589F45A
:10406000F8018789803199F4DD24EE24FF24F601DC
:10407000EE0FFF1FE851FC4F80819181A0E0B0E07E
:1040800017C040E00E94851F8111EACFBCCFE894A1
:10409000C7F8DD24EE24FF24F601EE0FFF1FEE0F1C
:1040A000FF1FE851FC4F80819181A281B381BF70D5
:1040B00088839983AA83BB8381E0DF91CF911F918D
:1040C0000F91FF90EF90DF90CF90BF90AF909F90B7
:1040D0008F9008954F925F926F927F92AF92BF92AE
:1040E000CF92DF92EF92FF920F931F93CF93DF93C4
:1040F00000D000D0CDB7DEB78C0149835A836B83E3
:104100007C835901C12CD12C7601412C42E0542EE4
:10411000612C712C49815A816B817C819E012F5FBA
:104120003F4FC8010E94E61F882359F1D301C20105
:10413000F801058404C0880F991FAA1FBB1F0A94A9
:10414000D2F7C80ED91EEA1EFB1E49815A816B8127
:104150007C818789803129F488EF9FEFA0E0B0E06F
:1041600004C088EF9FEFAFEFBFE0481759076A0719
:104170007B0780F2F501C082D182E282F38281E086
:1041800001C080E00F900F900F900F90DF91CF91C2
:104190001F910F91FF90EF90DF90CF90BF90AF9065
:1041A0007F906F905F904F9008954F925F926F92C3
:1041B0007F928F929F92AF92BF92CF92DF92EF92B7
:1041C000FF920F931F93CF93DF93EC016A017B0162
:1041D00028013901423051056105710508F474C0A8
:1041E00049855A856B857C854F5F5F4F6F4F7F4F49
:1041F0004C155D056E057F0508F466C08B889C88AC
:10420000AD88BE888F89803129F477276F2D5E2D88
:104210004D2D09C0B701A601E7E076956795579542
:104220004795EA95D1F7840E951EA61EB71E4091BC
:104230000C0150910D0160910E0170910F018416D7
:104240009506A606B70671F48F89803199F4DD24AE
:10425000EE24FF24F601EE0FFF1FE851FC4F5182C0
:10426000408218C040E0C501B4010E94851F811141
:10427000EBCF2AC0E894C7F8DD24EE24FF24F60132
:10428000EE0FFF1FEE0FFF1FE851FC4F40825182DF
:10429000628273828091E50381608093E5038A895D
:1042A000823080F08D819E81AF81B885880D991D07
:1042B000AA1DBB1D8093E1039093E203A093E30347
:1042C000B093E40381E001C080E0DF91CF911F91C2
:1042D0000F91FF90EF90DF90CF90BF90AF909F90A5
:1042E0008F907F906F905F904F9008952F923F92A4
:1042F0004F925F926F927F929F92AF92BF92CF92B6
:10430000DF92EF92FF920F931F93CF93DF93CDB77E
:10431000DEB760970FB6F894DEBF0FBECDBF5C016D
:104320004D875E876F87788B1901D9014D905D901D
:104330006D907C90411451046104710431F0BFEF21
:104340004B1A5B0A6B0A7B0A10C0FC01408051804B
:1043500062807380992493940D851E852F853889FA
:10436000013011052105310509F0912CD50119966F
:104370002D913D914D915C911C972F5F3F4F4F4F79
:104380005F4F29873A874B875C87730162011D82E3
:104390001E821F821886F50181859285A385B485CA
:1043A0000D811E812F813885081719072A073B07C1
:1043B00008F056C029853A854B855C852C153D054E
:1043C0004E055F0550F4A2E0CA2ED12CE12CF12C51
:1043D000B2E04B2E512C612C712C9E012F5F3F4F70
:1043E000B701A601C5010E94E61F8823C9F14981D2
:1043F0005A816B817C81D701C6010196A11DB11D37
:10440000452B462B472B19F02C013D010FC0AC0169
:10441000BD0144195509660977090D851E852F854B
:104420003889401751076207730779F02D813E8163
:104430004F8158852F5F3F4F4F4F5F4F2D833E83F6
:104440004F8358876C017D01A6CF0FEF1FEF2FEF31
:104450003FE0B701A601C5010E94D520811118C017
:1044600080E041C0D701C6010197A109B1098D8340
:104470009E83AF83B88797018601AC01BD01C5015A
:104480000E94D520882361F3CD80DE80EF80F88400
:104490004C145D046E047F0428F3D1014D915D91AD
:1044A0006D917C91411551056105710599F4F101FA
:1044B00040825182628273829920A1F0FFEF4F1AED
:1044C0005F0A6F0A7F0AD5014D925D926D927C92D0
:1044D000139708C093018201C5010E94D520811164
:1044E000E6CFBECF81E060960FB6F894DEBF0FBE78
:1044F000CDBFDF91CF911F910F91FF90EF90DF9093
:10450000CF90BF90AF909F907F906F905F904F90B3
:104510003F902F900895AF92BF92CF92DF92EF928B
:10452000FF920F931F93CF93DF9300D000D0CDB7AE
:10453000DEB75C016A017B0182E090E0A0E0B0E0C0
:10454000F50180839183A283B3839E012F5F3F4F48
:10455000B701A601C5010E94E61F882311F100E002
:1045600010E09801B701A601C5010E94D52088235B
:10457000C1F0C980DA80EB80FC80F5018789803149
:1045800029F488EF9FEFA0E0B0E004C088EF9FEF30
:10459000AFEFBFE0C816D906EA06FB06B0F281E02D
:1045A00001C080E00F900F900F900F90DF91CF919E
:1045B0001F910F91FF90EF90DF90CF90BF90AF9041
:1045C00008958F929F92AF92BF92CF92DF92EF9217
:1045D000FF920F931F93CF93DF93EC01142F7093EF
:1045E000E7036093E603442341F1453010F080E097
:1045F000EFC040E060E070E0CB010E94851F88239F
:10460000B1F320E1129FF0011124EA56FA4F8081A4
:104610008F7769F784859585A685B785843691055A
:10462000A105B10520F3C084D184E284F384C114D0
:10463000D104E104F10421F4DACFC12CD12C7601AC
:1046400040E0C701B6010E94851F882381F2809156
:10465000F3039091F4038115924049F63091F803E9
:10466000332329F28091F6039091F703892B09F403
:10467000BECF2091F503222309F4B9CF3A8B2C83C6
:104680001D8630E041E050E06D85062FCA01062E00
:1046900002C0880F991F0A94E2F72817390731F0F2
:1046A00081E0860F8D87683078F3A1CF2091FE03DB
:1046B0003091FF032115310519F040E050E008C0AA
:1046C00020910C0430910D0440910E0450910F0480
:1046D0002D833E834F8358878091F6039091F70393
:1046E00046015701880E991EA11CB11C8B8A9C8A19
:1046F000AD8ABE8AE091F903F091FA03F98FE88F51
:10470000A091F803B0E00E94F928680D791D8A1D78
:104710009B1D6A8F7B8F8C8F9D8F15E0EE0FFF1F87
:104720001A95E1F7E150FE4FEF2FFF27E695DC01E8
:10473000CB018E0F9F1FA11DB11D8E879F87A88B58
:10474000B98B8090FB039090FC038114910419F0C5
:10475000A12CB12C08C08090080490900904A0906E
:104760000A04B0900B04A7019601281B390B4A0BD1
:104770005B0BDA01C901880D991DAA1DBB1D04C080
:10478000B695A795979587950A95D2F789879A87C1
:10479000AB87BC87853F3FE09307A105B10510F4C7
:1047A0008CE014C0853F9F4FA105B10510F480E156
:1047B0000DC08091140490911504A0911604B0913D
:1047C00017048A8F9B8FAC8FBD8F80E28F8B81E027
:1047D000DF91CF911F910F91FF90EF90DF90CF90DD
:1047E000BF90AF909F908F900895833081F028F410
:1047F000813099F08230A1F008958630A9F0873099
:10480000B9F08430D1F4809180008F7D03C0809115
:1048100080008F7780938000089584B58F7702C0E1
:1048200084B58F7D84BD08958091B0008F7703C0DB
:104830008091B0008F7D8093B0000895CF93DF9377
:1048400090E0FC01E457FF4F2491FC01E056FF4F3C
:104850008491882349F190E0880F991FFC01E2546C
:10486000FF4FA591B4918C549F4FFC01C591D491F9
:104870009FB7611108C0F8948C91209582238C9386
:10488000888182230AC0623051F4F8948C91322FCF
:10489000309583238C938881822B888304C0F8947D
:1048A0008C91822B8C939FBFDF91CF9108950F93B2
:1048B0001F93CF93DF931F92CDB7DEB7282F30E041
:1048C000F901E858FF4F8491F901E457FF4F149123
:1048D000F901E056FF4F04910023C9F0882321F02D
:1048E00069830E94F5236981E02FF0E0EE0FFF1F3E
:1048F000EC54FF4FA591B4919FB7F8948C9161113E
:1049000003C01095812301C0812B8C939FBF0F9012
:10491000DF91CF911F910F910895CF93DF93823054
:10492000910510F482E090E0E091F605F091F70532
:1049300020E030E0A0E0B0E0309739F140815181D3
:1049400048175907B8F04817590771F482819381C5
:10495000109729F013969C938E9312972CC09093E6
:10496000F7058093F60527C02115310531F0421770
:10497000530718F0A901DB0101C0EF019A01BD0145
:10498000DF010280F381E02DD7CF21153105F9F049
:10499000281B390B2430310580F48A819B816115F5
:1049A000710521F0FB019383828304C09093F70586
:1049B0008093F605FE01329644C0FE01E20FF31F1C
:1049C0008193919322503109398328833AC02091F1
:1049D000F4053091F505232B41F42091120130911B
:1049E00013013093F5052093F405209110013091C7
:1049F00011012115310541F42DB73EB74091140145
:104A000050911501241B350BE091F405F091F5054B
:104A1000E217F307A0F42E1B3F0B2817390778F095
:104A2000AC014E5F5F4F2417350748F04E0F5F1FF4
:104A30005093F5054093F4058193919302C0E0E013
:104A4000F0E0CF01DF91CF910895CF93DF930097EE
:104A500009F487C0FC01329713821282C091F605D7
:104A6000D091F705209781F420813181280F391FDB
:104A70008091F4059091F5058217930779F5F093ED
:104A8000F505E093F4056DC0DE0120E030E0AE17DF
:104A9000BF0750F412964D915C9113979D014115FB
:104AA000510509F1DA01F3CFB383A283408151812B
:104AB000840F951F8A179B0771F48D919C91119714
:104AC000840F951F02969183808312968D919C91FD
:104AD0001397938382832115310529F4F093F70509
:104AE000E093F6053EC0D9011396FC93EE9312971E
:104AF0004D915D91A40FB51FEA17FB0779F48081F2
:104B00009181840F951F0296D90111969C938E93E3
:104B10008281938113969C938E931297E0E0F0E04C
:104B20008A819B81009719F0FE01EC01F9CFCE013B
:104B3000029628813981820F931F2091F4053091CC
:104B4000F5052817390769F4309729F41092F7050D
:104B50001092F60502C013821282D093F505C0931D
:104B6000F405DF91CF91089561E08AE00E94572417
:104B700061E08AE00E941E248CB580618CBD8CB5FA
:104B800080648CBD61E08DE00E941E2461E08BE0BA
:104B90000C941E240F9300E020E040E060E088EEDB
:104BA00095E00E94D3040F910895FB014281538147
:104BB00064817581FC01428353836483758317820A
:104BC00016820895CF93FB0181918111FDCFFB01E6
:104BD00080E090E020E030E0CAE06191662309F1D6
:104BE0002430310564F56E3271F48F3F910509F080
:104BF00034F5DA01A20FB31F12968C932F5F3F4F4B
:104C000080E090E0EACFDC01CA9FC001CB9F900D0D
:104C10001124772767FD709560537109860F971FE0
:104C2000DCCF8F3F910509F054F4243031053CF47A
:104C3000FA01E20FF31F828381E090E002C080E07E
:104C400090E0CF9108950F9300E020E040E060E015
:104C50008EEE95E00E94D3040F910895AF92BF921B
:104C6000CF92DF92EF92FF920F931F93CF93DF9338
:104C700000D01F92CDB7DEB76C017B010E941202FB
:104C8000F601778366838601085F1F4FB6016A5F6E
:104C90007F4F42E050E0C8010E94560B81E090E057
:104CA0009A83898342E050E0BE016F5F7F4FC80165
:104CB0000E94560B80E091E09A83898342E050E0A5
:104CC000BE016F5F7F4FC8010E94560B1A82198286
:104CD00042E050E0BE016F5F7F4FC8010E94560B5B
:104CE00042E050E0BE016F5F7F4FC8010E94560B4B
:104CF00042E050E0BE016F5F7F4FC8010E94560B3B
:104D00006701F6018081882311F1F7016F0181911C
:104D1000811115C05601AE18BF081A141B0494F473
:104D2000AB8241E050E0BE016D5F7F4FC8010E9441
:104D3000560BA501B701C8010E94560B03C08E3265
:104D400029F7E8CF7601FFEFEF1AFF0ADACF1B82CF
:104D500041E050E0BE016D5F7F4FC8010E94560BDD
:104D6000E12CFF24F394FA82E98242E050E0BE0194
:104D70006F5F7F4FC8010E94560BFA82E98242E0C2
:104D800050E0BE016F5F7F4FC8010E94560B81E06B
:104D900090E00F900F900F90DF91CF911F910F91A6
:104DA000FF90EF90DF90CF90BF90AF9008954F921B
:104DB0005F926F927F928F929F92AF92BF92CF92AB
:104DC000DF92EF92FF920F931F93CF93DF93CDB7B4
:104DD000DEB763970FB6F894DEBF0FBECDBF7C0180
:104DE0005B016A010E9412022B013C018701085FEE
:104DF0001F4F4501A12CB12CC8010E94C90B1816E8
:104E0000190694F00E94120264197509860997091F
:104E100086169706A806B906D0F062E370E080E037
:104E200090E00E944102E8CFF70142815381648102
:104E30007581818D928DA38DB48D481759076A07AE
:104E40007B0741F4858D968DC59721F406C08FEFC1
:104E50009FEFF9C08EEF9FEFF6C0C8010E94090BCB
:104E60000C970CF4EEC04CE050E0BE016F5F7F4F3A
:104E7000C8010E94930B8B819C81982789279827D2
:104E80009A8B898BF7014681578129813A81421794
:104E9000530711F497FD06C0C8010E94230B8CEF45
:104EA0009FEFD1C08F709270892B31F0C8010E94A2
:104EB000230B8BEF9FEFC7C0AF80B884BA24AB241D
:104EC000BA24A114B10419F0E12CF12C23C0C801BB
:104ED0000E94230B8AEF9FEFB6C041E050E0BE0175
:104EE000635F7F4FC8010E94930B8D8581111BC0AA
:104EF0008D858111F2CFC8010E946A0BC8010E9402
:104F00006A0BC8010E946A0BC8010E946A0BFFEF7E
:104F1000EF1AFF0A8D819E81982789279827E81626
:104F2000F906D8F20AC08D859FEF980F9D878823D8
:104F3000F9F2C8010E946A0BF6CFE12CF12C41E096
:104F400050E0BE016D5E7F4FC8010E94930B8B89BC
:104F5000982F907C61F4882371F08B899FEF980FD4
:104F60009B8B882341F0C8010E946A0BF6CFC801D1
:104F70000E946A0B1B8A8B898111E1CF42E050E0CD
:104F8000BE01615F7F4FC8010E94930B42E050E079
:104F9000BE01635F7F4FC8010E94930BC8010E944E
:104FA0006A0BC8010E946A0BC8010E946A0BC80103
:104FB0000E946A0B42E050E0BE016F5E7F4FC80165
:104FC0000E94930B8F8598898115914029F48D85D6
:104FD0009E858115914019F0812C912C16C08989EC
:104FE0009A898115944031F0C8010E94230B87EF04
:104FF0009FEF29C0B6016E5F7F4F44E050E0C801CB
:105000000E94930B81E090E01EC089899A899827BD
:10501000892798278816990638F4C8010E946A0BD8
:105020002FEF821A920AF1CF8FEFE81AF80AEA14EA
:10503000FB0409F084CFC8010E94230B86EF9FEF89
:1050400002C08DEF9FEF63960FB6F894DEBF0FBEE0
:10505000CDBFDF91CF911F910F91FF90EF90DF9027
:10506000CF90BF90AF909F908F907F906F905F9008
:105070004F9008958F929F92AF92BF92CF92DF92FE
:10508000EF92FF920F931F93CF93DF9300D000D046
:1050900000D0CDB7DEB78C015B016A010E94E2252A
:1050A0004C01009709F05FC0F8014281538164818F
:1050B00075818091F0059091F105A091F205B09174
:1050C000F305481759076A077B0709F450C00E9487
:1050D00012027801F8E0EF0EF11C6F7077277C5F09
:1050E000C7010E941A0C813009F045C08FE092E0A0
:1050F0009A838983F80182819381A481B5818B830E
:105100009C83AD83BE8345E350E0BE016F5F7F4F5C
:10511000C7010E944A0B892B19F4812C912C1FC0C6
:10512000B501C8010E942E26892BB9F3C7010E9440
:10513000520B892B91F333E0A32EB12CA60168E822
:1051400073E1C8010E94D7264C01F1E0AF1AB10803
:10515000A114B10421F08F3F2FEF920779F3C7011B
:105160000E94350B08C088248394912C04C09EEFC4
:10517000892E99249A94C40126960FB6F894DEBF1E
:105180000FBECDBFDF91CF911F910F91FF90EF9098
:10519000DF90CF90BF90AF909F908F900895F8943C
:1051A0000C943B29FB01DC0104C08D910190801916
:1051B00021F441505040C8F7881B990B0895FC0119
:1051C0008191861721F08823D9F79927089531977F
:1051D000CF010895FB01DC014150504048F001909F
:1051E0000D920020C9F701C01D9241505040E0F7D8
:1051F00008950E942629A59F900DB49F900DA49F0D
:10520000800D911D11240895A1E21A2EAA1BBB1B2B
:10521000FD010DC0AA1FBB1FEE1FFF1FA217B30782
:10522000E407F50720F0A21BB30BE40BF50B661F98
:10523000771F881F991F1A9469F76095709580955C
:1052400090959B01AC01BD01CF010895A29FB001D3
:10525000B39FC001A39F700D811D1124911DB29FAA
:10526000700D811D1124911D0895EE0FFF1F0590F3
:10527000F491E02D099410E0CCEDD0E004C0FE01E3
:105280000E9437292296CE3DD107C9F7F894FFCF67
:1052900001000000DEADBEEFFEED0004FFFFFFFFEA
:1052A0000000F8058000496E697469616C697A696B
:1052B0006E6720534420636172642E2E2E00455287
:1052C000524F52202D205344206361726420696E36
:1052D000697469616C697A6174696F6E206661696D
:1052E0006C6564210053554343455353202D20538F
:1052F00044206361726420696E697469616C697AC3
:1053000065642E00696E6465782E68746D00455280
:10531000524F52202D2043616E27742066696E64BF
:1053200020696E6465782E68746D2066696C6521ED
:105330000053554343455353202D20466F756E64EB
:1053400020696E6465782E68746D2066696C652EC0
:1053500000485454502F312E3120323030204F4BE2
:1053600000436F6E74656E742D547970653A2074C5
:105370006578742F68746D6C00436F6E6E6563742E
:10538000696F6E3A20636C6F73650000000000FC6B
:10539000020605A202CF02B402F102000000008F53
:1053A0000400000000DE0513062D0638065606F43C
:1053B00005F606790652066207A3070B06000000F1
:1053C0000054091A0A6A09000000000D0B560B0967
:1053D0000B6A0BB00B230B1A0C350B4A0B690C52E2
:1053E0000BC90B930BEE0AF50A050B00000000D267
:1053F0000CE80CC90D220D2C0D030D2F0000000030
:0654000000391F06050043
:00000001FF
