:100000000C945D000C9485000C9485000C94850084
:100010000C9485000C9485000C9485000C9485004C
:100020000C9485000C9485000C9485000C9485003C
:100030000C9485000C9485000C9485000C9485002C
:100040000C946B010C9485000C9469030C94AC0324
:100050000C9485000C9485000C9485000C9485000C
:100060000C9485000C94850000000007000201003C
:100070000003040600000000000000000102040864
:100080001020408001020408102001020408102002
:10009000040404040404040402020202020203032E
:1000A0000303030300000000250028002B000000CC
:1000B0000000240027002A00680411241FBECFEF8F
:1000C000D8E0DEBFCDBF11E0A0E0B1E0ECE4FDE0A0
:1000D00002C005900D92AC32B107D9F711E0ACE245
:1000E000B1E001C01D92A33EB107E1F710E0CAEBF9
:1000F000D0E004C02297FE010E94A006C83BD107B1
:10010000C9F70E94BE040C9430060C94000040E035
:1001100052EC61E070E089E391E00C94E703AF9268
:10012000BF92CF92DF92EF92FF920F931F938EE0D8
:100130000E94EF0090932F0180932E01BC0188272D
:1001400077FD8095982F1F921F921F922FEF2F936C
:10015000A12CB12C6501EE24EA9413E0F12E00E00D
:1001600010E020E030E0A9010E94E90570932D0124
:1001700060932C0189E00E940C0165E071E089E345
:1001800091E00E94090560912E0170912F014AE0D3
:1001900050E089E391E00E94C9056FE071E089E3D6
:1001A00091E00E94090560912C0170912D014AE0B7
:1001B00050E089E391E00E94D1050F900F900F90DD
:1001C0000F906AE070E080E090E01F910F91FF9047
:1001D000EF90DF90CF90BF90AF900C94D8018E300D
:1001E00008F08E5087702091040190E4299F9001BF
:1001F0001124822B80937C0080917A00806480930C
:100200007A0080917A0086FDFCCF80917800209161
:10021000790090E0922B08951F93CF93DF93182FCE
:10022000EB0161E00E946202209711F460E004C0DB
:10023000CF3FD10539F461E0812FDF91CF911F913C
:100240000C949B02E12FF0E0E859FF4FE491E3307A
:10025000F9F048F4E130B9F0E230A1F584B58062FC
:1002600084BDC8BD34C0E630E9F0E73019F1E430B0
:1002700049F580918000806280938000D0938B004C
:10028000C0938A0024C084B5806884BDC7BD1FC0E8
:1002900080918000806880938000D0938900C09313
:1002A000880015C08091B00080688093B000C09332
:1002B000B3000DC08091B00080628093B000C09305
:1002C000B40005C0C038D1050CF0B5CFAFCFDF9179
:1002D000CF911F9108951F920F920FB60F92112484
:1002E0002F933F938F939F93AF93BF93809131014F
:1002F00090913201A0913301B091340130913001DD
:1003000023E0230F2D3720F40196A11DB11D05C058
:1003100026E8230F0296A11DB11D20933001809382
:10032000310190933201A0933301B0933401809155
:10033000350190913601A0913701B09138010196B5
:10034000A11DB11D8093350190933601A093370113
:10035000B0933801BF91AF919F918F913F912F91B1
:100360000F900FBE0F901F9018953FB7F894809193
:10037000350190913601A0913701B091380126B531
:10038000A89B05C02F3F19F00196A11DB11D3FBFCD
:100390006627782F892F9A2F620F711D811D911D5D
:1003A00042E0660F771F881F991F4A95D1F708957D
:1003B000CF92DF92EF92FF92CF93DF936B017C019C
:1003C0000E94B501EB01C114D104E104F10479F0FC
:1003D0000E94B5016C1B7D0B683E7340A0F381E069
:1003E000C81AD108E108F108C851DC4FECCFDF9101
:1003F000CF91FF90EF90DF90CF900895789484B5DF
:10040000826084BD84B5816084BD85B5826085BD10
:1004100085B5816085BDEEE6F0E0808181608083F6
:10042000E1E8F0E0108280818260808380818160D9
:100430008083E0E8F0E0808181608083E1EBF0E0A0
:10044000808184608083E0EBF0E080818160808344
:10045000EAE7F0E08081846080838081826080832D
:100460008081816080838081806880831092C10058
:100470000895833081F028F4813099F08230A1F022
:1004800008958630A9F08730B9F08430D1F4809196
:1004900080008F7D03C0809180008F7780938000E3
:1004A000089584B58F7702C084B58F7D84BD08958B
:1004B0008091B0008F7703C08091B0008F7D8093D2
:1004C000B0000895CF93DF9390E0FC01E458FF4F14
:1004D0002491FC01E057FF4F8491882349F190E07B
:1004E000880F991FFC01E255FF4FA591B4918C55DF
:1004F0009F4FFC01C591D4919FB7611108C0F8943A
:100500008C91209582238C93888182230AC062304B
:1005100051F4F8948C91322F309583238C938881F9
:10052000822B888304C0F8948C91822B8C939FBF7C
:10053000DF91CF9108950F931F93CF93DF931F9275
:10054000CDB7DEB7282F30E0F901E859FF4F84918D
:10055000F901E458FF4F1491F901E057FF4F04915E
:100560000023C9F0882321F069830E943902698140
:10057000E02FF0E0EE0FFF1FEC55FF4FA591B49177
:100580009FB7F8948C91611103C01095812301C02D
:10059000812B8C939FBF0F90DF91CF911F910F9173
:1005A0000895FC0124853585F901E05CFF4F8081C9
:1005B0009181F901EE5BFF4F20813181821B930B0A
:1005C0008F7399270895FC0184859585FC01E05C73
:1005D000FF4F40815181FC01EE5BFF4F2081318153
:1005E0004217530741F00190F081E02DE80FF91F09
:1005F000808190E008958FEF9FEF0895FC0184853E
:100600009585FC01E05CFF4F40815181FC01EE5B70
:10061000FF4F208131814217530779F0A081B181CA
:10062000A80FB91F8C91208131812F5F3F4F2F730D
:1006300033273183208390E008958FEF9FEF089553
:10064000FC0181A1882329F0A489B5898C9186FFBA
:10065000FBCF11A20895CF93DF93FC012685378548
:10066000D901A05CBF4F8D919C91119701968F731A
:100670009927E901CE5BDF4F48815981841795079F
:10068000D9F30D90BC91A02DA20FB31F6C93A6853A
:10069000B785A05CBF4F11969C938E93A689B789AE
:1006A0002C9181E090E0078C02C0880F991F0A947A
:1006B000E2F7282B2C9381E081A30488F589E02DB3
:1006C00080818064808381E090E0DF91CF91089504
:1006D00008951F920F920FB60F9211242F933F93FC
:1006E0004F938F939F93EF93FF938091C00082FD70
:1006F0001CC04091C6008091DF019091E0010196FD
:100700008F7399272091E1013091E20182179307BD
:1007100071F0E091DF01F091E001E156FE4F40837E
:100720009093E0018093DF0102C08091C600FF91A9
:10073000EF919F918F914F913F912F910F900FBE0D
:100740000F901F90189589E391E00E94D102892BA8
:1007500011F00C94680308951F920F920FB60F9238
:1007600011242F933F938F939F93EF93FF932091A7
:100770009B0130919C0180919D0190919E012817D1
:10078000390731F48091C1008F7D8093C10014C07E
:10079000E0919D01F0919E01E55AFE4F20818091EC
:1007A0009D0190919E0101968F73992790939E01D0
:1007B00080939D012093C600FF91EF919F918F91AF
:1007C0003F912F910F900FBE0F901F901895CF92D1
:1007D000DF92EF92FF92CF93DF93EC016A017B01EE
:1007E000411581EE580761057105F9F0EC89FD8925
:1007F00081E090E008A002C0880F991F0A94E2F7F8
:10080000808360E079E08DE390E0A70196010E948B
:100810004E062150310941095109569547953795A2
:100820002795211580E1380798F0EC89FD89108221
:1008300060E874E88EE190E0A70196010E944E0600
:10084000215031094109510956954795379527950A
:10085000E889F9893083EA89FB89208319A2EE8926
:10086000FF89408181E090E09C010C8C02C0220F46
:10087000331F0A94E2F7422B4083EE89FF894081BF
:100880009C010D8C02C0220F331F0A94E2F7422B09
:100890004083EE89FF8940819C010E8C02C0220FAB
:1008A000331F0A94E2F7422B4083EE89FF892081AF
:1008B0000F8C02C0880F991F0A94E2F7809582235B
:1008C0008083DF91CF91FF90EF90DF90CF900895DC
:1008D00010923C0110923B0188EE93E0A0E0B0E062
:1008E00080933D0190933E01A0933F01B09340015E
:1008F0008FE191E090933A01809339018FE991E083
:1009000090934601809345018BE591E090934801D7
:100910008093470185EC90E090934A0180934901D0
:1009200084EC90E090934C0180934B0180EC90E03C
:1009300090934E0180934D0181EC90E09093500193
:1009400080934F0182EC90E090935201809351018B
:1009500086EC90E0909354018093530184E080935F
:10096000550183E08093560187E08093570185E02D
:100970008093580181E08093590108950E94FE01FF
:100980000E948700C3EAD3E00E948F002097E1F322
:100990000E94A303F9CFCF92DF92EF92FF920F93C1
:1009A0001F93CF93DF936C017A01EB01E60EF71EE4
:1009B00000E010E0CE15DF0561F06991D601ED9100
:1009C000FC910190F081E02DC6010995080F191FD7
:1009D000F1CFC801DF91CF911F910F91FF90EF9060
:1009E000DF90CF9008956115710581F0DB010D90C6
:1009F0000020E9F7AD0141505109461B570BDC01BE
:100A0000ED91FC910280F381E02D099480E090E06B
:100A100008950C94F304DC01ED91FC910190F081B8
:100A2000E02D09940F931F93CF93DF93EC016DE0BA
:100A30000E940B058C016AE0CE010E940B05800F1D
:100A4000911FDF91CF911F910F9108958F929F92E7
:100A5000AF92BF92CF92DF92EF92FF920F931F93CC
:100A6000CF93DF93CDB7DEB7A1970FB6F894DEBF73
:100A70000FBECDBF7C01C42EE52FCB01D22E19A213
:100A800021E02D1510F02AE0D22E8E010F5D1F4FB0
:100A90008D2C912CA12CB12C6C2D7E2FA5019401B5
:100AA0000E944E068C2DD29E8019112401501109EE
:100AB0008A3014F4805D01C0895CF80180832115BF
:100AC00031054105510521F0C22EE32FCA01E4CFC3
:100AD000B801C7010E94F304A1960FB6F894DEBFD7
:100AE0000FBECDBFDF91CF911F910F91FF90EF907F
:100AF000DF90CF90BF90AF909F908F900895CF924E
:100B0000DF92EF92FF920F931F93CF93DF93EC014D
:100B10006A017B012115310579F4E881F9810190A1
:100B2000F081E02D642FDF91CF911F910F91FF9005
:100B3000EF90DF90CF9009942A303105E9F477FFE8
:100B40001AC06DE20E940B058C0144275527BA019B
:100B50004C195D096E097F092AE0CE010E94260525
:100B6000800F911FDF91CF911F910F91FF90EF9018
:100B7000DF90CF9008952AE0B701A601CE01DF9162
:100B8000CF911F910F91FF90EF90DF90CF900C9439
:100B900026059A01AB01662757FD6095762F0C94C8
:100BA0007F050F931F93CF93DF93EC019A01AB0165
:100BB000662757FD6095762F0E947F058C01CE0138
:100BC0000E941205800F911FDF91CF911F910F910D
:100BD00008954F925F926F927F92AF92BF92CF92A1
:100BE000DF92EF92FF920F931F93CF93DF93CDB7D6
:100BF000DEB729013A01621B730B840B950B29891F
:100C00003A894B895C892A193B094C095D09298B72
:100C10003A8B4B8B5C8B9B01AC0169897A898B8900
:100C20009C890E943E06E418F50806091709A801E8
:100C300097010E9470062A0D3B1D4C1D5D1DCA01C7
:100C4000B901DF91CF911F910F91FF90EF90DF904D
:100C5000CF90BF90AF907F906F905F904F9008952E
:100C6000F8940C94A4060E948F06A59F900DB49F43
:100C7000900DA49F800D911D11240895DB018F9389
:100C80009F930E943306BF91AF91A29F800D911D4B
:100C9000A39F900DB29F900D11240895A1E21A2EEA
:100CA000AA1BBB1BFD010DC0AA1FBB1FEE1FFF1F10
:100CB000A217B307E407F50720F0A21BB30BE40B60
:100CC000F50B661F771F881F991F1A9469F76095A7
:100CD0007095809590959B01AC01BD01CF01089561
:100CE000052E97FB1EF400940E94870657FD07D03F
:100CF0000E944E0607FC03D04EF40C9487065095D4
:100D00004095309521953F4F4F4F5F4F08959095F7
:100D10008095709561957F4F8F4F9F4F0895A29F4B
:100D2000B001B39FC001A39F700D811D1124911DBF
:100D3000B29F700D811D1124911D0895EE0FFF1FAC
:0C0D40000590F491E02D0994F894FFCF89
:100D4C00010000000173656E736F72203D20000975
:100D5C00206F7574707574203D2000000000002B0E
:0C0D6C0003CB04D102FE02E302200300CE
:00000001FF
