:100000000C9463000C948B000C948B000C948B006C
:100010000C948B000C948B000C948B000C948B0034
:100020000C948B000C948B000C948B000C948B0024
:100030000C948B000C948B000C948B000C948B0014
:100040000C945C030C948B000C9419060C945C06C5
:100050000C948B000C948B000C948B000C948B00F4
:100060000C94170A0C948B0000000007000201009A
:100070000003040600000000000000000102040864
:100080001020408001020408102001020408102002
:10009000040404040404040402020202020203032E
:1000A00003030303000000002300260029000000D2
:1000B0000000250028002B0000000000240027007D
:1000C0002A001807350911241FBECFEFD8E0DEBF84
:1000D000CDBF11E0A0E0B1E0E6EFFCE102C0059089
:1000E0000D92A636B107D9F713E0A6E6B1E001C03C
:1000F0001D92A937B107E1F710E0C6ECD0E004C0CB
:100100002297FE010E94750EC23CD107C9F70E94DA
:100110006E070C94440B0C940000CF93C82F61E041
:100120000E945E0460E08C2F0E94970482E090E0C1
:100130000E94EF0361E08C2F0E94970485E090E01D
:100140000E94EF0360E08C2F0E94970460E08C2FE8
:100150000E945E0420E432E44FE050E061E08C2F26
:10016000CF910C94F604CF92DF92EF92FF920F930F
:100170001F93CF93DF938C0138E0E32EF12CC0E086
:10018000D0E060E0F80180810E945E04F801808187
:100190000E5F1F4F0E94CD04CC0FDD1FC82BD92B43
:1001A000F1E0EF1AF108E114F10459F7CE01DF9103
:1001B000CF911F910F91FF90EF90DF90CF90089516
:1001C0001F93CF93DF931F92CDB7DEB7162FBC01DD
:1001D00089EB92E049830E941D09612F89EB92E02F
:1001E0000E94BA084981642F89EB92E00E94BA0804
:1001F00089EB92E00F90DF91CF911F910C9432091F
:10020000EF92FF920F931F93CF93DF9300D000D014
:10021000CDB7DEB77C01162FBC0189EB92E02B83B2
:100220003C8349835A830E941D09612F89EB92E028
:100230000E94BA0889EB92E00E943209B70189EB6B
:1002400092E00E941D0949815A81B70189EB92E031
:100250000E9410092B81022F3C81132F89EB92E021
:100260000E946208892B41F089EB92E00E946A08A3
:10027000F80181938F01F2CF89EB92E00F900F90FC
:100280000F900F90DF91CF911F910F91FF90EF9002
:100290000C943209CF93DF931F92CDB7DEB719824A
:1002A00048E06DE283E590E00E94E0009E012F5F50
:1002B0003F4F41E050E06DE283E590E00E94000195
:1002C000698170E04AE050E08FE092E00E944C08C3
:1002D0000F90DF91CF910895CF93DF9300D000D09E
:1002E00000D0CDB7DEB79E012F5F3F4F86E0F9010A
:1002F00011928A95E9F746E050E062E383E590E0E9
:100300000E94000129818A8190E0982F8827820F1E
:10031000911D90937301809372012B818C8190E0E9
:10032000982F8827820F911D9093750180937401F7
:100330002D818E8190E0982F8827820F911D9093B8
:1003400077018093760126960FB6F894DEBF0FBE34
:10035000CDBFDF91CF910895CF93DF931F92CDB79B
:10036000DEB719824BE166E188E690E00E94E0008A
:100370009E012F5F3F4F41E050E066E188E690E04C
:100380000E940001698170E04AE050E08FE092E055
:100390000E944C080F90DF91CF910895CF93DF9387
:1003A00000D000D000D0CDB7DEB79E012F5F3F4F09
:1003B00086E0F90111928A95E9F746E050E06DE197
:1003C00088E690E00E9400012A81898190E0982FC0
:1003D0008827820F911D90936D0180936C012C8171
:1003E0008B8190E0982F8827820F911D90936F0149
:1003F00080936E012E818D8190E0982F8827820F47
:10040000911D909371018093700126960FB6F89418
:10041000DEBF0FBECDBFDF91CF910895CF93DF93A5
:100420001F92CDB7DEB7198240E062E08EE190E026
:100430000E94E0009E012F5F3F4F41E050E062E0EC
:100440008EE190E00E940001698170E04AE050E096
:100450008FE092E00E944C080F90DF91CF910895B9
:1004600040E052EC61E070E08FE092E00E9497067D
:1004700089EB92E00E94F90810926D0110926C01D4
:10048000109267011092660110927301109272012E
:1004900010926F0110926E01109269011092680122
:1004A00010927501109274011092710110927001F6
:1004B00010926B0110926A011092770110927601EE
:1004C0000E944A010E940E020C94AC01CF93DF936C
:1004D00000D000D000D0CDB7DEB79E012F5F3F4FD8
:1004E00086E0F90111928A95E9F746E050E063E071
:1004F0008EE190E00E9400012A81898190E0982F8E
:100500008827820F911D90936701809366012C814B
:100510008B8190E0982F8827820F911D909369011D
:10052000809368012E818D8190E0982F8827820F1B
:10053000911D90936B0180936A0126960FB6F894F3
:10054000DEBF0FBECDBFDF91CF910895CF92DF9276
:10055000EF92FF9282E090E00E948D006B017C019F
:100560006093020270930302809304029093050249
:1005700024E930E040E050E00E940E0E2093FE019E
:100580003093FF014093000250930102C701B6016E
:100590002AE330E040E050E00E940E0E2093FA0182
:1005A0003093FB014093FC015093FD0185E391E002
:1005B0000E94B3009093F9018093F8010E946C01AE
:1005C0000E9466020E94CE01EAE6F1E081818F93EB
:1005D00080818F93E8E6F1E081818F9380818F9312
:1005E000E6E6F1E081818F9380818F93E0E7F1E08F
:1005F00081818F9380818F93EEE6F1E081818F93EB
:1006000080818F93ECE6F1E081818F9380818F93DD
:10061000E6E7F1E081818F9380818F93E4E7F1E059
:1006200081818F9380818F93E2E7F1E081818F93C5
:1006300080818F938091F9018F938091F8018F933E
:100640001F921F921F921F926091020270910302EB
:1006500080910402909105022AE430E040E050E0ED
:100660000E940E0E2F5F3F4F4F4F5F4F5F934F9390
:100670003F932F9380E091E09F938F9388E791E0E1
:100680009F938F930E94470B8DB79EB780960FB6AE
:10069000F8949EBF0FBE8DBF68E771E08FE092E0D7
:1006A0000E94D40764E170E080E090E0FF90EF905A
:1006B000DF90CF900C94C9031F920F920FB60F9248
:1006C00011242F933F938F939F93AF93BF93809168
:1006D000070290910802A0910902B0910A0230919C
:1006E000060223E0230F2D3720F40196A11DB11D32
:1006F00005C026E8230F0296A11DB11D2093060216
:100700008093070290930802A0930902B0930A0213
:1007100080910B0290910C02A0910D02B0910E02FB
:100720000196A11DB11D80930B0290930C02A09322
:100730000D02B0930E02BF91AF919F918F913F91A7
:100740002F910F900FBE0F901F9018953FB7F89400
:1007500080910B0290910C02A0910D02B0910E02BB
:1007600026B5A89B05C02F3F19F00196A11DB11D0C
:100770003FBF6627782F892F9A2F620F711D811D29
:10078000911D42E0660F771F881F991F4A95D1F788
:100790000895CF92DF92EF92FF92CF93DF936B0198
:1007A0007C010E94A603EB01C114D104E104F10411
:1007B00079F00E94A6036C1B7D0B683E7340A0F38A
:1007C00081E0C81AD108E108F108C851DC4FECCF2C
:1007D000DF91CF91FF90EF90DF90CF900895019738
:1007E000009739F0880F991F880F991F029701977A
:1007F000F1F70895789484B5826084BD84B58160F2
:1008000084BD85B5826085BD85B5816085BDEEE618
:10081000F0E0808181608083E1E8F0E010828081F7
:1008200082608083808181608083E0E8F0E0808165
:1008300081608083E1EBF0E0808184608083E0EB85
:10084000F0E0808181608083EAE7F0E0808184606D
:1008500080838081826080838081816080838081C9
:10086000806880831092C1000895833081F028F45D
:10087000813099F08230A1F008958630A9F0873058
:10088000B9F08430D1F4809180008F7D03C08091D5
:1008900080008F7780938000089584B58F7702C0A1
:1008A00084B58F7D84BD08958091B0008F7703C09B
:1008B0008091B0008F7D8093B0000895CF93DF9337
:1008C00090E0FC01E458FF4F2491FC01E057FF4FFA
:1008D0008491882349F190E0880F991FFC01E85426
:1008E000FF4FA591B49182559F4FFC01C591D491C2
:1008F0009FB7611108C0F8948C91209582238C9346
:10090000888182230AC0623051F4F8948C91322F8E
:10091000309583238C938881822B888304C0F8943C
:100920008C91822B8C939FBFDF91CF9108950F9371
:100930001F93CF93DF931F92CDB7DEB7282F30E000
:10094000F901E859FF4F8491F901E458FF4F1491E0
:10095000F901E057FF4F04910023C9F0882321F0EB
:1009600069830E9435046981E02FF0E0EE0FFF1FDC
:10097000E255FF4FA591B4919FB7F8948C91611106
:1009800003C01095812301C0812B8C939FBF0F90D2
:10099000DF91CF911F910F910895CF93DF93282F6F
:1009A00030E0F901E859FF4F8491F901E458FF4F15
:1009B000D491F901E057FF4FC491CC2391F08111FC
:1009C0000E943504EC2FF0E0EE0FFF1FEC55FF4FB7
:1009D000A591B4912C912D2381E090E021F480E049
:1009E00002C080E090E0DF91CF9108958F929F92B6
:1009F000AF92BF92CF92DF92EF92FF920F931F932D
:100A0000CF93DF9390E0FC01E458FF4F0491FC0189
:100A1000E057FF4F7491611102C010E001C0102F28
:100A2000DA01C901BF70672F70E0660F771F6C5540
:100A30007F4F812C912C5401FB01C591D491E88109
:100A4000E023E11310C0750164012FEFC21AD20A2E
:100A5000E20AF20A88169906AA06BB0609F441C002
:100A600046015701ECCFFB01C591D491E881E02309
:100A7000E11779F0750164012FEFC21AD20AE20A78
:100A8000F20A88169906AA06BB0659F146015701D3
:100A9000EDCF88199909AA09BB0920E030E0A90126
:100AA000FB01C591D4916881602361130AC02817A6
:100AB00039074A075B07A9F02F5F3F4F4F4F5F4F42
:100AC000F2CFA5E1B0E00E94E10D605F7F4F8F4F54
:100AD0009F4F24E096958795779567952A95D1F74E
:100AE00003C060E070E0CB01DF91CF911F910F91C7
:100AF000FF90EF90DF90CF90BF90AF909F908F903E
:100B00000895FC0124853585F901E05CFF4F808163
:100B10009181F901EE5BFF4F20813181821B930BA4
:100B20008F7399270895FC0184859585FC01E05C0D
:100B3000FF4F40815181FC01EE5BFF4F20813181ED
:100B40004217530741F00190F081E02DE80FF91FA3
:100B5000808190E008958FEF9FEF0895FC018485D8
:100B60009585FC01E05CFF4F40815181FC01EE5B0B
:100B7000FF4F208131814217530779F0A081B18165
:100B8000A80FB91F8C91208131812F5F3F4F2F73A8
:100B900033273183208390E008958FEF9FEF0895EE
:100BA000FC0181A1882329F0A489B5898C9186FF55
:100BB000FBCF11A20895CF93DF93FC0126853785E3
:100BC000D901A05CBF4F8D919C91119701968F73B5
:100BD0009927E901CE5BDF4F48815981841795073A
:100BE000D9F30D90BC91A02DA20FB31F6C93A685D5
:100BF000B785A05CBF4F11969C938E93A689B78949
:100C00002C9181E090E0078C02C0880F991F0A9414
:100C1000E2F7282B2C9381E081A30488F589E02D4D
:100C200080818064808381E090E0DF91CF9108959E
:100C300008951F920F920FB60F9211242F933F9396
:100C40004F938F939F93EF93FF938091C00082FD0A
:100C50001CC04091C6008091B5029091B6020196E9
:100C60008F7399272091B7023091B80282179307AA
:100C700071F0E091B502F091B602EB58FD4F408360
:100C80009093B6028093B50202C08091C600FF9196
:100C9000EF919F918F914F913F912F910F900FBEA8
:100CA0000F901F9018958FE092E00E948105892B8C
:100CB00011F00C94180608951F920F920FB60F9220
:100CC00011242F933F938F939F93EF93FF93209142
:100CD0007102309172028091730290917402281710
:100CE000390731F48091C1008F7D8093C10014C019
:100CF000E0917302F0917402EF5CFD4F20818091CE
:100D000073029091740201968F73992790937402E5
:100D1000809373022093C600FF91EF919F918F9172
:100D20003F912F910F900FBE0F901F901895CF926B
:100D3000DF92EF92FF92CF93DF93EC016A017B0188
:100D4000411581EE580761057105F9F0EC89FD89BF
:100D500081E090E008A002C0880F991F0A94E2F792
:100D6000808360E079E08DE390E0A70196010E9426
:100D7000EC0D215031094109510956954795379598
:100D80002795211580E1380798F0EC89FD891082BC
:100D900060E874E88EE190E0A70196010E94EC0DF6
:100DA00021503109410951095695479537952795A5
:100DB000E889F9893083EA89FB89208319A2EE89C1
:100DC000FF89408181E090E09C010C8C02C0220FE1
:100DD000331F0A94E2F7422B4083EE89FF8940815A
:100DE0009C010D8C02C0220F331F0A94E2F7422BA4
:100DF0004083EE89FF8940819C010E8C02C0220F46
:100E0000331F0A94E2F7422B4083EE89FF89208149
:100E10000F8C02C0880F991F0A94E2F780958223F5
:100E20008083DF91CF91FF90EF90DF90CF90089576
:100E3000109212021092110288EE93E0A0E0B0E04E
:100E40008093130290931402A0931502B09316029C
:100E500089E491E09093100280930F0285E792E07D
:100E600090931C0280931B0281E392E090931E02F8
:100E700080931D0285EC90E09093200280931F02E6
:100E800084EC90E0909322028093210280EC90E029
:100E9000909324028093230281EC90E090932602A9
:100EA0008093250282EC90E09093280280932702A1
:100EB00086EC90E090932A028093290284E080934C
:100EC0002B0283E080932C0287E080932D0285E043
:100ED00080932E0281E080932F0208950E94FA03EE
:100EE0000E943002C3E5D6E00E94A6022097E1F3FB
:100EF0000E945306F9CFCF92DF92EF92FF920F93A9
:100F00001F93CF93DF936C017A01EB01E60EF71E7E
:100F100000E010E0CE15DF0561F06991D601ED919A
:100F2000FC910190F081E02DC6010995080F191F71
:100F3000F1CFC801DF91CF911F910F91FF90EF90FA
:100F4000DF90CF9008956115710581F0DB010D9060
:100F50000020E9F7AD0141505109461B570BDC0158
:100F6000ED91FC910280F381E02D099480E090E006
:100F70000895DC01ED91FC910190F081E02D099440
:100F80000F931F93CF93DF93EC016DE00E94B9079D
:100F90008C016AE0CE010E94B907800F911FDF919A
:100FA000CF911F910F9108950F931F93CF93DF93CC
:100FB000EC010E94A3078C01CE010E94C007800FA4
:100FC000911FDF91CF911F910F9108958F929F9262
:100FD000AF92BF92CF92DF92EF92FF920F931F9347
:100FE000CF93DF93CDB7DEB7A1970FB6F894DEBFEE
:100FF0000FBECDBF7C01C42EE52FCB01D22E19A28E
:1010000021E02D1510F02AE0D22E8E010F5D1F4F2A
:101010008D2C912CA12CB12C6C2D7E2FA50194012F
:101020000E94EC0D8C2DD29E8019112401501109C3
:101030008A3014F4805D01C0895CF8018083211539
:1010400031054105510521F0C22EE32FCA01E4CF3D
:10105000B801C7010E94A307A1960FB6F894DEBF9E
:101060000FBECDBFDF91CF911F910F91FF90EF90F9
:10107000DF90CF90BF90AF909F908F9008952115F3
:10108000310541F4DC01ED91FC910190F081E02DFE
:10109000642F09940C94E6070F931F93CF93DF936B
:1010A000EC019A01AB0160E070E00E943F088C0106
:1010B000CE010E94C007800F911FDF91CF911F9139
:1010C0000F9108958091E90290E02091EA02821B3D
:1010D000910908952091EA028091E902281750F4BD
:1010E000E22FF0E0E551FD4F808190E02F5F2093EB
:1010F000EA0208958FEF9FEF0895E091EA02809150
:10110000E902E81730F4F0E0E551FD4F808190E00E
:1011100008958FEF9FEF08950895CF92DF92EF9299
:10112000FF920F931F93CF93DF937C01CB018A0132
:101130002091C502222389F0EB016B01C40ED51E5C
:10114000CC15DD0569F06991D701ED91FC91019015
:10115000F081E02DC7010995F3CF642F0E94EE09BD
:10116000C801DF91CF911F910F91FF90EF90DF9019
:10117000CF900895CF93DF931F92CDB7DEB76983E9
:101180002091C5022223D1F02091C602203240F0E6
:1011900021E030E0FC013383228380E090E015C041
:1011A0008091C702E82FF0E0E853FD4F99819083CA
:1011B0008F5F8093C7028093C60205C061E0CE01B5
:1011C00001960E94EE0981E090E00F90DF91CF91AF
:1011D0000895FC011382128248EE53E060E070E053
:1011E000448355836683778389E591E09183808387
:1011F00008951092EA021092E9021092C70210922A
:10120000C6020C943909862F413208F040E26BEE99
:1012100072E00E9457091092EA028093E902089551
:1012200021E00C94030981E08093C5026093E802F9
:101230001092C7021092C60208950C9413090F93DE
:10124000062F21E04091C60268EC72E08091E8022E
:101250000E949B091092C7021092C6021092C5020A
:101260000F91089561E00C941F0989EB92E00C94B2
:10127000E9081092780381E0809376031092750359
:1012800061E082E10E94970461E083E10E9497049B
:10129000E9EBF0E080818E7F808380818D7F808389
:1012A00088E48093B80085E48093BC0008954132BF
:1012B00008F03FC0909178039111FCCF91E090939A
:1012C0007803209376032FEF20930B0310925003A3
:1012D000240F20934F039093770390917703880F07
:1012E000892B8093770380917503813041F41092AC
:1012F0007503809177038093BB0085EC01C085EE78
:101300008093BC00809178038130E1F38091500399
:10131000841710F44091500321E533E0FB01D9011B
:101320008A2F821B841718F48D918193F9CF842F13
:10133000089580E008950F93413208F046C09091DF
:1013400078039111FCCF92E0909378030093760399
:101350009FEF90930B031092500340934F03FB01B8
:1013600061E573E0DB019A2F961B941718F49191B5
:101370009D93F9CF1092770390917703880F892B73
:101380008093770380917503813041F41092750347
:10139000809177038093BB0085EC01C085EE80933C
:1013A000BC00222321F0809178038230E1F3809108
:1013B0000B038F3F61F080910B03803251F08091DD
:1013C0000B03803341F483E007C081E005C080E077
:1013D00003C082E001C084E00F910895613298F467
:1013E00020917803243089F460932D03FC018FE26F
:1013F00093E0DC012A2F281B261718F421912D9346
:10140000F9CF80E0089581E0089582E0089585EDA8
:101410008093BC008091BC0084FDFCCF10927803C7
:10142000089585EC8093BC001092780308951F9274
:101430000F920FB60F9211242F933F934F935F9308
:101440006F937F938F939F93AF93BF93EF93FF938C
:101450008091B900887F803609F49CC068F5883295
:1014600009F45BC090F4803109F454C038F4882347
:1014700009F4F5C0883009F44DC0F5C0883109F48D
:101480004CC0803209F45DC0EEC0803409F468C0FD
:1014900048F4803309F455C0883309F0E4C08093E0
:1014A0000B03A8C0803509F44FC0883509F45DC02E
:1014B000883409F0D8C0D5C0883909F4C6C0A8F46A
:1014C000883709F467C038F4883609F463C0803778
:1014D00009F460C0C8C0883809F4B7C0803909F47D
:1014E0005FC0803809F0BFC05BC0803B09F485C095
:1014F00038F4803A09F466C0883A09F47EC0B3C073
:10150000803C09F4A6C0883C09F4A3C0883B09F4D8
:1015100089C0A9C08091770310C090915003809139
:101520004F03981770F5E091500381E08E0F809380
:101530005003F0E0EF5AFC4F80818093BB0085ECB4
:1015400085C080930B038DC0E091500381E08E0F26
:10155000809350038091BB00F0E0EF5AFC4F8083F2
:101560009091500380914F036DC0E091500381E052
:101570008E0F809350038091BB00F0E0EF5AFC4F38
:1015800080838091760381116CC081E08093750324
:1015900084EA60C083E08093780310920C03CFCF7D
:1015A00080910C03803208F050C0E0910C0381E080
:1015B0008E0F80930C038091BB00F0E0E35FFC4F43
:1015C0008083BDCF80910C03803230F4E0910C0316
:1015D000F0E0E35FFC4F10820E94070A60910C0369
:1015E00070E0E0917103F09172038DE093E0099552
:1015F00010920C030E94110A36C084E08093780395
:1016000010922E0310922D03E0917303F091740356
:10161000099580912D03811105C081E080932D03F0
:1016200010922F03E0912E0381E08E0F80932E0302
:10163000F0E0E15DFC4F80818093BB0090912E0330
:1016400080912D03981708F47ACF85E88093BC0029
:101650000AC085EC8093BC001092780304C01092FD
:101660000B030E94070AFF91EF91BF91AF919F91E9
:101670008F917F916F915F914F913F912F910F903B
:101680000FBE0F901F901895F8940C94790EAEE051
:10169000B0E0EDE4FBE00C943B0E0D891E8986E082
:1016A0008C831A8309838FEF9FE79E838D83AE011E
:1016B000475E5F4F6F89788DCE0101960E94690B5E
:1016C000EF81F885E00FF11F10822E96E4E00C9474
:1016D000570EACE0B0E0EFE6FBE00C942D0E7C0181
:1016E0006B018A01FC0117821682838181FFBDC1D3
:1016F000CE0101964C01F7019381F60193FD85918E
:1017000093FF81916F01882309F4ABC1853239F4CD
:1017100093FD859193FF81916F01853229F4B70183
:1017200090E00E94510DE7CF512C312C20E0203267
:10173000A0F48B3269F030F4803259F0833269F4CE
:1017400020612CC08D3239F0803339F4216026C0FD
:101750002260246023C0286021C027FD27C030ED0F
:10176000380F3A3078F426FF06C0FAE05F9E300D5D
:101770001124532E13C08AE0389E300D1124332ECD
:1017800020620CC08E3221F426FD6BC1206406C09D
:101790008C3611F4206802C0883641F4F60193FDBE
:1017A000859193FF81916F018111C1CF982F9F7D0A
:1017B0009554933028F40C5F1F4FFFE3F9830DC05D
:1017C000833631F0833771F0833509F05BC022C076
:1017D000F801808189830E5F1F4F44244394512C6C
:1017E000540115C03801F2E06F0E711CF801A080A1
:1017F000B18026FF03C0652D70E002C06FEF7FEF60
:10180000C5012C870E94460D2C0183012C852F7762
:10181000222E17C03801F2E06F0E711CF801A08073
:10182000B18026FF03C0652D70E002C06FEF7FEF2F
:10183000C5012C870E943B0D2C012C852068222E8F
:10184000830123FC1BC0832D90E048165906B0F499
:10185000B70180E290E00E94510D3A94F4CFF50177
:1018600027FC859127FE81915F01B70190E00E94DE
:10187000510D31103A94F1E04F1A510841145104BE
:1018800071F7E5C0843611F0893639F5F80127FF84
:1018900007C060817181828193810C5F1F4F08C0F6
:1018A00060817181882777FD8095982F0E5F1F4F8B
:1018B0002F76B22E97FF09C090958095709561950F
:1018C0007F4F8F4F9F4F2068B22E2AE030E0A40157
:1018D0000E94830DA82EA81844C0853729F42F7EB6
:1018E000B22E2AE030E025C0F22FF97FBF2E8F36CE
:1018F000C1F018F4883579F0B4C0803719F0883712
:1019000021F0AFC02F2F2061B22EB4FE0DC08B2D61
:101910008460B82E09C024FF0AC09F2F9660B92E9C
:1019200006C028E030E005C020E130E002C020E140
:1019300032E0F801B7FE07C0608171818281938136
:101940000C5F1F4F06C06081718180E090E00E5FE8
:101950001F4FA4010E94830DA82EA818FB2DFF770E
:10196000BF2EB6FE0BC02B2D2E7FA51450F4B4FE57
:101970000AC0B2FC08C02B2D2E7E05C07A2C2B2D60
:1019800003C07A2C01C0752C24FF0DC0FE01EA0DA6
:10199000F11D8081803311F4297E09C022FF06C029
:1019A0007394739404C0822F867809F0739423FD96
:1019B00013C020FF06C05A2C731418F4530C571888
:1019C000732C731468F4B70180E290E02C870E94B6
:1019D000510D73942C85F5CF731410F4371801C092
:1019E000312C24FF12C0B70180E390E02C870E94C5
:1019F000510D2C8522FF17C021FF03C088E590E020
:101A000002C088E790E0B7010CC0822F867859F0B9
:101A100021FD02C080E201C08BE227FD8DE2B7010B
:101A200090E00E94510DA51438F4B70180E390E0D6
:101A30000E94510D5A94F7CFAA94F401EA0DF11DBA
:101A40008081B70190E00E94510DA110F5CF3320A5
:101A500009F451CEB70180E290E00E94510D3A9412
:101A6000F6CFF7018681978102C08FEF9FEF2C960A
:101A7000E2E10C94490EFC010590615070400110A8
:101A8000D8F7809590958E0F9F1F0895FC016150A7
:101A9000704001900110D8F7809590958E0F9F1F90
:101AA00008950F931F93CF93DF93182F092FEB0106
:101AB0008B8181FD03C08FEF9FEF20C082FF10C09C
:101AC0004E815F812C813D81421753077CF4E88170
:101AD000F9819F012F5F3F4F39832883108306C010
:101AE000E885F985812F0995892B29F72E813F817A
:101AF0002F5F3F4F3F832E83812F902FDF91CF9118
:101B00001F910F910895FA01AA27283051F1203131
:101B100081F1E8946F936E7F6E5F7F4F8F4F9F4F81
:101B2000AF4FB1E03ED0B4E03CD0670F781F891FC3
:101B30009A1FA11D680F791F8A1F911DA11D6A0F91
:101B4000711D811D911DA11D20D009F468943F9144
:101B50002AE0269F11243019305D3193DEF6CF0143
:101B60000895462F4770405D4193B3E00FD0C9F709
:101B7000F6CF462F4F70405D4A3318F0495D31FD76
:101B80004052419302D0A9F7EACFB4E0A6959795C9
:101B9000879577956795BA95C9F70097610571059F
:101BA00008959B01AC010A2E0694579547953795E9
:101BB0002795BA95C9F7620F731F841F951FA01D43
:101BC00008950E94640EA59F900DB49F900DA49F50
:101BD000800D911D11240895A1E21A2EAA1BBB1B92
:101BE000FD010DC0AA1FBB1FEE1FFF1FA217B307E9
:101BF000E407F50720F0A21BB30BE40BF50B661FFF
:101C0000771F881F991F1A9469F7609570958095C2
:101C100090959B01AC01BD01CF010895052E97FB66
:101C20001EF400940E94250E57FD07D00E94EC0D73
:101C300007FC03D04EF40C94250E5095409530953A
:101C400021953F4F4F4F5F4F089590958095709528
:101C500061957F4F8F4F9F4F08952F923F924F92E4
:101C60005F926F927F928F929F92AF92BF92CF922C
:101C7000DF92EF92FF920F931F93CF93DF93CDB735
:101C8000DEB7CA1BDB0B0FB6F894DEBF0FBECDBFAD
:101C900009942A88398848885F846E847D848C847E
:101CA0009B84AA84B984C884DF80EE80FD800C8187
:101CB0001B81AA81B981CE0FD11D0FB6F894DEBF6A
:101CC0000FBECDBFED010895A29FB001B39FC0012B
:101CD000A39F700D811D1124911DB29F700D811D58
:101CE0001124911D0895EE0FFF1F0590F491E02D32
:061CF0000994F894FFCFF7
:101CF60025366C642C2536642C2536642C253664F2
:101D06002C2536642C2536642C2536642C25366421
:101D16002C2536642C2536642C2536642C25366411
:101D26002C253664000C000B000A00090008000789
:101D3600000600050000000000DB057B078105AEFC
:101D4600059305D00500000000BA088D0862086AF0
:061D5600087D088C080066
:00000001FF
