:100000000C9462000C948A000C948A000C948A0070
:100010000C948A000C948A000C948A000C948A0038
:100020000C948A000C948A000C948A000C948A0028
:100030000C948A000C948A000C948A000C948A0018
:100040000C946D040C948A000C9482060C94C506E2
:100050000C948A000C948A000C948A000C948A00F8
:100060000C948A000C948A00000000070002010032
:100070000003040600000000000000000102040864
:100080001020408001020408102001020408102002
:10009000040404040404040402020202020203032E
:1000A00003030303000000002300260029000000D2
:1000B0000000250028002B0000000000240027007D
:1000C0002A00810711241FBECFEFD8E0DEBFCDBFCD
:1000D00011E0A0E0B1E0EAEBF5E102C005900D927D
:1000E000A03DB107D9F712E0A0EDB1E001C01D922B
:1000F000A53BB107E1F710E0C4ECD0E004C02297C3
:10010000FE010E94D70AC23CD107C9F70E94D70757
:100110000C941C090C940000860F911DFC01808139
:100120000895FC0183A5833031F0813031F08C30AB
:1001300031F483E0089581E0089582E0089580E03D
:1001400008953FB7F894DC015B96ED91FC915C97C4
:1001500020815A968C91282B20833FBF08953FB76A
:10016000F894DC015E96ED91FC915F9720815D969D
:100170008C91282B20833FBF08958F929F92AF923E
:10018000BF92CF92DF92EF92FF920F931F93CF9384
:10019000DF93EC0100E010E0912CA62EBB24A7FC1D
:1001A000B094C12CD12C7601C394802EC501002EB1
:1001B00002C0959587950A94E2F780FF04C0CE01AE
:1001C0000E94AF000AC09FB7F894EE8DFF8D20818A
:1001D0008D8D8095822380839FBF9FB7F894EB8D90
:1001E000FC8D20818A8D8095822380839FBF84E04F
:1001F00090E00E940C05ECA1FDA180819BA18923C8
:1002000051F0B701A60104C0440F551F661F771FA8
:100210008A94D2F7942ACE010E94A1000F5F1F4F4B
:100220000830110509F0C1CFCE010E94AF0083E074
:1002300090E00E940C05892DDF91CF911F910F91C5
:10024000FF90EF90DF90CF90BF90AF909F908F90F6
:1002500008953FB7F894DC019196ED91FC91929747
:10026000208190968C91282B20833FBF08952FB733
:10027000F894DC019196ED91FC91929730819096E3
:100280008C918095832380832FBF0895CF92DF9236
:10029000EF92FF920F931F93CF93DF93EC017B01BB
:1002A000C42E0E9437018701D12CC8018E199F09E5
:1002B0008C159D053CF4F80161918F01CE010E94DF
:1002C000BD00F3CFCE010E9429016AA570E080E055
:1002D00090E0DF91CF911F910F91FF90EF90DF9011
:1002E000CF900C94E604CF93DF93EC0145E064E2F9
:1002F00071E00E94460149E06BE171E0CE010E948D
:1003000046018CA5882331F045E064E071E0CE0120
:100310000E9446018DA5882331F049E062E171E039
:10032000CE010E94460149E069E071E0CE01DF9113
:10033000CF910C9446012F923F924F925F927F9201
:100340008F929F92AF92BF92CF92DF92EF92FF92E5
:100350000F931F93CF93DF93CDB7DEB729970FB6D7
:10036000F894DEBF0FBECDBF4C01762E142F0E9435
:10037000B704F401C6A0D7A0E0A4F1A46C197D09CC
:100380008E099F090E94B4096B017C0120E030E8CE
:100390004BEB54E40E94660A18161CF4C4010E9438
:1003A0007301F40162A570E080E090E00E94B6095C
:1003B0001B012C019B01AC01C701B6010E948409FD
:1003C00087FF0AC0A7019601C201B1010E941F095F
:1003D0000E9488090E94E6041123E1F0612F70E079
:1003E00080E090E01F921F921F922FEF2F9320E446
:1003F000A22EB12CC12CD12CE12CF12C8701EA9436
:1004000020E030E0A9010E94D508162F0F900F9030
:100410000F900F90CE0101967C0189E0F7011192B7
:100420008A95E9F781E0898382E48A837C821D834F
:1004300015E06E01FAE0CF0ED11CC4010E94AF009E
:10044000C4010E94A100C4010E94370183E090E032
:100450000E940C0527011401F20161912F01C401D2
:100460000E94BD00F10181931F014C145D04A1F7AE
:10047000F4018181893749F0C4010E942901F40106
:100480008181807F803799F41FC0412C512C60E01E
:10049000C4010E94BD00F401E40DF51D8187FFEF4A
:1004A0004F1A5F0A8CE04816510489F7E5CFC40162
:1004B0000E947301F40162A570E080E090E00E9468
:1004C000E604115009F0B9CFF4018181807F8037B3
:1004D00031F0F40182A58A3010F48F5F82A76401A5
:1004E000E12CF12CF60161916F014AE050E08BE0C4
:1004F00092E00E94B708F8E0EF16F10431F069E2EB
:1005000071E08BE092E00E9422088FEFE81AF80A6F
:1005100099E0E916F10431F763E871E08BE092E0CD
:100520000E943F08F401808D918D978B868B83818B
:100530009481918F808F0E94B704F40166A377A302
:1005400080A791A79181907F81E0903709F080E0AA
:1005500029960FB6F894DEBF0FBECDBFDF91CF91C5
:100560001F910F91FF90EF90DF90CF90BF90AF90D1
:100570009F908F907F905F904F903F902F90089525
:1005800040E060E00C949B016F927F928F929F926B
:10059000AF92BF92CF92EF92FF920F931F93CF93A0
:1005A000DF93CDB7DEB72B970FB6F894DEBF0FBE43
:1005B000CDBF5C01862F70E0FB01E458FF4FE49152
:1005C000D5015A96EC935A97FB01E057FF4FE491FF
:1005D000F0E0EE0FFF1FE255FF4F659174915C96BE
:1005E0007C936E935B97642F70E0FB01E458FF4FA0
:1005F000E4915D96EC935D97FB01E057FF4FE4912A
:10060000F0E0EE0FFF1FE255FF4F659174915F968A
:100610007C936E935E97622F70E0FB01E458FF4F6E
:10062000E4919096EC939097FB01E057FF4FE49193
:10063000F0E0EE0FFF1FE255FF4F65917491929627
:100640007C936E939197602F70E0FB01E458FF4F0D
:10065000E4919396EC939397FB01E057FF4FE4915D
:10066000F0E0EE0FFF1FEC55FF4F659174919596EA
:100670007C936E93949761E02A874B870E947B0559
:1006800061E02A85822F0E947B0561E04B85842FE3
:100690000E947B0560E0802F0E947B0561E0802F37
:1006A0000E94B405C5010E94AF00C5010E94A100CF
:1006B000C5010E94C002C5010E94C002F5018181EE
:1006C0008134D9F08337C9F08937B9F06BE271E032
:1006D0008BE092E00E943F086EE571E08BE092E0D3
:1006E0000E94220840E150E0D50111966C918BE008
:1006F00092E00E94BE0881E08CC081E0F50182A7F3
:100700000BE010E0FF24F39445E064E271E0C501E2
:100710000E94460183E090E00E940C05C5010E9402
:10072000AF00C5010E94A100C5010E94370183E00E
:1007300090E00E940C0547EB842E41E0942ECE0100
:1007400001963C01D4016D914D01C5010E94BD008F
:10075000F30181933F01F0EC8F16F1E09F0691F7D2
:10076000C5010E9429018C81D5019B968C9349E09B
:100770006BE171E0C5010E944601CC2041F045E0EB
:1007800064E071E0C5010E944601F501F4A6EE2087
:1007900049F049E062E171E0C5010E944601D501DE
:1007A0009D96FC9249E069E071E0C5010E94460116
:1007B000C5010E94C002F5018181EE2021F0893738
:1007C00039F1833719F1833719F1015011090115F6
:1007D0001105B9F464E871E08BE092E00E943F08F3
:1007E00066EA71E08BE092E00E94220840E150E06E
:1007F000D50111966C918BE092E00E94BE0882E0D8
:1008000008C0F50182A58F5F82A77ECF83E001C07B
:1008100080E02B960FB6F894DEBF0FBECDBFDF9100
:10082000CF911F910F91FF90EF90CF90BF90AF901D
:100830009F908F907F906F900895CF92EF920F933B
:1008400040E056E960E070E08BE092E00E94000733
:100850006CE271E080E090E00E94E604CC24C39456
:10086000EE24E3940DE02AE04BE06CE084ED91E0AF
:100870000E94C40290E09093D3018093D20184ED52
:1008800091E00E9491008093D1010F91EF90CF9061
:1008900008958091D2019091D3010197E9F0809160
:1008A000D101823029F484ED91E00E94C0020EC093
:1008B0004091D00160E084ED91E00E949B016FE0E7
:1008C00084ED91E00E948C008093D00164E670E09A
:1008D00080E090E00C94E60408951F920F920FB60A
:1008E0000F9211242F933F938F939F93AF93BF93B6
:1008F0008091030290910402A0910502B09106023A
:100900003091020223E0230F2D3720F40196A11D20
:10091000B11D05C026E8230F0296A11DB11D20932D
:1009200002028093030290930402A0930502B09305
:1009300006028091070290910802A0910902B091ED
:100940000A020196A11DB11D80930702909308022F
:10095000A0930902B0930A02BF91AF919F918F912A
:100960003F912F910F900FBE0F901F9018952FB7AA
:10097000F8946091030270910402809105029091B5
:1009800006022FBF08953FB7F89480910702909117
:100990000802A0910902B0910A0226B5A89B05C0E1
:1009A0002F3F19F00196A11DB11D3FBF6627782F7B
:1009B000892F9A2F620F711D811D911D42E0660FD4
:1009C000771F881F991F4A95D1F70895CF92DF921C
:1009D000EF92FF92CF93DF936B017C010E94C304DF
:1009E000EB01C114D104E104F10479F00E94C304C5
:1009F0006C1B7D0B683E7340A0F381E0C81AD108E0
:100A0000E108F108C851DC4FECCFDF91CF91FF90A6
:100A1000EF90DF90CF9008950197009739F0880FFD
:100A2000991F880F991F02970197F1F708957894FD
:100A300084B5826084BD84B5816084BD85B58260E3
:100A400085BD85B5816085BDEEE6F0E08081816081
:100A50008083E1E8F0E01082808182608083808181
:100A600081608083E0E8F0E0808181608083E1EB59
:100A7000F0E0808184608083E0EBF0E08081816041
:100A80008083EAE7F0E080818460808380818260F7
:100A900080838081816080838081806880831092E0
:100AA000C1000895833081F028F4813099F08230BC
:100AB000A1F008958630A9F08730B9F08430D1F4E0
:100AC000809180008F7D03C0809180008F7780931C
:100AD0008000089584B58F7702C084B58F7D84BD72
:100AE00008958091B0008F7703C08091B0008F7D12
:100AF0008093B0000895CF93DF9390E0FC01E45819
:100B0000FF4F2491FC01E057FF4F8491882349F166
:100B100090E0880F991FFC01E854FF4FA591B49114
:100B200082559F4FFC01C591D4919FB7611108C0B8
:100B3000F8948C91209582238C93888182230AC01B
:100B4000623051F4F8948C91322F309583238C933A
:100B50008881822B888304C0F8948C91822B8C939B
:100B60009FBFDF91CF9108950F931F93CF93DF9392
:100B70001F92CDB7DEB7282F30E0F901E859FF4FBB
:100B80008491F901E458FF4F1491F901E057FF4FA8
:100B900004910023C9F0882321F069830E94520543
:100BA0006981E02FF0E0EE0FFF1FE255FF4FA591A6
:100BB000B4919FB7F8948C91611103C01095812373
:100BC00001C0812B8C939FBF0F90DF91CF911F911C
:100BD0000F910895FC0124853585F901E05CFF4FF4
:100BE00080819181F901EE5BFF4F20813181821B71
:100BF000930B8F7399270895FC0184859585FC01DB
:100C0000E05CFF4F40815181FC01EE5BFF4F208192
:100C100031814217530741F00190F081E02DE80F38
:100C2000F91F808190E008958FEF9FEF0895FC01F8
:100C300084859585FC01E05CFF4F40815181FC017A
:100C4000EE5BFF4F208131814217530779F0A0817D
:100C5000B181A80FB91F8C91208131812F5F3F4F47
:100C60002F7333273183208390E008958FEF9FEF18
:100C70000895FC0181A1882329F0A489B5898C916C
:100C800086FFFBCF11A20895CF93DF93FC01268549
:100C90003785D901A05CBF4F8D919C91119701962A
:100CA0008F739927E901CE5BDF4F48815981841703
:100CB0009507D9F30D90BC91A02DA20FB31F6C9393
:100CC000A685B785A05CBF4F11969C938E93A6898D
:100CD000B7892C9181E090E0078C02C0880F991FA2
:100CE0000A94E2F7282B2C9381E081A30488F589EC
:100CF000E02D80818064808381E090E0DF91CF915E
:100D0000089508951F920F920FB60F9211242F93FA
:100D10003F934F938F939F93EF93FF938091C000E6
:100D200082FD1CC04091C6008091B1029091B20238
:100D300001968F7399272091B3023091B4028217E4
:100D4000930771F0E091B102F091B202EF58FD4FBC
:100D500040839093B2028093B10202C08091C6009A
:100D6000FF91EF919F918F914F913F912F910F9014
:100D70000FBE0F901F9018958BE092E00E94EA053D
:100D8000892B11F00C94810608951F920F920FB6D3
:100D90000F9211242F933F938F939F93EF93FF9381
:100DA00020916D0230916E0280916F0290917002DD
:100DB0002817390731F48091C1008F7D8093C100DD
:100DC00014C0E0916F02F0917002E35DFD4F20814D
:100DD00080916F029091700201968F739927909382
:100DE000700280936F022093C600FF91EF919F9154
:100DF0008F913F912F910F900FBE0F901F901895DC
:100E0000CF92DF92EF92FF92CF93DF93EC016A01D2
:100E10007B01411581EE580761057105F9F0EC89F8
:100E2000FD8981E090E008A002C0880F991F0A9414
:100E3000E2F7808360E079E08DE390E0A70196011E
:100E40000E94850A2150310941095109569547955B
:100E500037952795211580E1380798F0EC89FD89B1
:100E6000108260E874E88EE190E0A70196010E948C
:100E7000850A215031094109510956954795379501
:100E80002795E889F9893083EA89FB89208319A2AB
:100E9000EE89FF89408181E090E09C010C8C02C0CA
:100EA000220F331F0A94E2F7422B4083EE89FF8919
:100EB00040819C010D8C02C0220F331F0A94E2F77F
:100EC000422B4083EE89FF8940819C010E8C02C039
:100ED000220F331F0A94E2F7422B4083EE89FF89E9
:100EE00020810F8C02C0880F991F0A94E2F7809529
:100EF00082238083DF91CF91FF90EF90DF90CF909E
:100F0000089510920E0210920D0288EE93E0A0E078
:100F1000B0E080930F0290931002A0931102B0935F
:100F2000120284EC91E090930C0280930B0281E713
:100F300092E090931802809317028DE292E09093D2
:100F40001A028093190285EC90E090931C02809322
:100F50001B0284EC90E090931E0280931D0280ECB3
:100F600090E09093200280931F0281EC90E0909398
:100F700022028093210282EC90E0909324028093DD
:100F8000230286EC90E0909326028093250284E071
:100F90008093270283E08093280287E080932902D0
:100FA00085E080932A0281E080932B0208950E94BD
:100FB00017050E941D04CCEBD6E00E94490420973F
:100FC000E1F30E94BC06F9CFCF92DF92EF92FF923D
:100FD0000F931F93CF93DF936C017A01EB01E60E21
:100FE000F71E00E010E0CE15DF0561F06991D60133
:100FF000ED91FC910190F081E02DC6010995080F5B
:10100000191FF1CFC801DF91CF911F910F91FF9070
:10101000EF90DF90CF9008956115710581F0DB01AD
:101020000D900020E9F7AD0141505109461B570BC7
:10103000DC01ED91FC910280F381E02D099480E0C8
:1010400090E008950C940C08DC01ED91FC91019066
:10105000F081E02D09940F931F93CF93DF93EC0160
:101060006DE00E9424088C016AE0CE010E942408F1
:10107000800F911FDF91CF911F910F9108950F93D2
:101080001F93CF93DF93EC010E940C088C01CE01DB
:101090000E942B08800F911FDF91CF911F910F911C
:1010A00008958F929F92AF92BF92CF92DF92EF926C
:1010B000FF920F931F93CF93DF93CDB7DEB7A19726
:1010C0000FB6F894DEBF0FBECDBF7C01C42EE52F56
:1010D000CB01D22E19A221E02D1510F02AE0D22E3C
:1010E0008E010F5D1F4F8D2C912CA12CB12C6C2DDE
:1010F0007E2FA50194010E94850A8C2DD29E801915
:101100001124015011098A3014F4805D01C0895CFA
:10111000F8018083211531054105510521F0C22ECA
:10112000E32FCA01E4CFB801C7010E940C08A196C1
:101130000FB6F894DEBF0FBECDBFDF91CF911F91E8
:101140000F91FF90EF90DF90CF90BF90AF909F9066
:101150008F9008952115310541F4DC01ED91FC914A
:101160000190F081E02D642F09940C9451089A01AC
:10117000462F50E060E070E00C94AA080F931F9394
:10118000CF93DF93EC019A01462F50E060E070E0CE
:101190000E94AA088C01CE010E942B08800F911F8B
:1011A000DF91CF911F910F9108954F925F926F92AF
:1011B0007F92AF92BF92CF92DF92EF92FF920F9306
:1011C0001F93CF93DF93CDB7DEB729013A01621B9E
:1011D000730B840B950B29893A894B895C892A19F1
:1011E0003B094C095D09298B3A8B4B8B5C8B9B012E
:1011F000AC0169897A898B899C890E94750AE418F7
:10120000F50806091709A80197010E94A70A2A0DE7
:101210003B1D4C1D5D1DCA01B901DF91CF911F918E
:101220000F91FF90EF90DF90CF90BF90AF907F90A5
:101230006F905F904F900895F8940C94DB0A50588B
:10124000BB27AA270ED008C1F9D030F0FED020F07D
:1012500031F49F3F11F41EF4EEC00EF4E095E7FB6D
:10126000E4C0E92F0AD180F3BA1762077307840735
:10127000950718F071F49EF522C10EF4E0950B2E3F
:10128000BA2FA02D0B01B90190010C01CA01A001D8
:101290001124FF27591B99F0593F50F4503E68F133
:1012A0001A16F040A22F232F342F4427585FF3CF74
:1012B000469537952795A795F0405395C9F77EF445
:1012C0001F16BA0B620B730B840BBAF09150A1F08E
:1012D000FF0FBB1F661F771F881FC2F70EC0BA0F14
:1012E000621F731F841F48F4879577956795B7959C
:1012F000F7959E3F08F0B3CF9395880F08F0992794
:10130000EE0F9795879508956CD008F481E00895C5
:10131000BCD088F09F5790F0B92F9927B751A0F013
:10132000D1F0660F771F881F991F1AF0BA95C9F779
:1013300012C0B13081F0C3D0B1E00895C0C0672FB2
:10134000782F8827B85F39F0B93FCCF38695779529
:101350006795B395D9F73EF4909580957095619512
:101360007F4F8F4F9F4F0895E89409C097FB3EF43D
:1013700090958095709561957F4F8F4F9F4F9923E2
:10138000A9F0F92F96E9BB279395F6958795779560
:101390006795B795F111F8CFFAF4BB0F11F460FF20
:1013A0001BC06F5F7F4F8F4F9F4F16C0882311F078
:1013B00096E911C0772321F09EE8872F762F05C08C
:1013C000662371F096E8862F70E060E02AF09A9527
:1013D000660F771F881FDAF7880F9695879597F91C
:1013E0000895990F0008550FAA0BE0E8FEEF1616B6
:1013F0001706E807F907C0F012161306E407F50709
:1014000098F0621B730B840B950B39F40A2661F07C
:10141000232B242B252B21F408950A2609F4A1401F
:10142000A6958FEF811D811D089597F99F6780E82C
:1014300070E060E008959FEF80EC089500240A9426
:101440001616170618060906089500240A9412169F
:101450001306140605060895092E0394000C11F4D2
:10146000882352F0BB0F40F4BF2B11F460FF04C07F
:101470006F5F7F4F8F4F9F4F089557FD9058440FD8
:10148000551F59F05F3F71F04795880F97FB991FE3
:1014900061F09F3F79F087950895121613061406A0
:1014A000551FF2CF4695F1DF08C01616170618062D
:1014B000991FF1CF86957105610508940895E89408
:1014C000BB2766277727CB0197F908958ADF08F4B1
:1014D0008FEF08950E94C60AA59F900DB49F900DAE
:1014E000A49F800D911D11240895DB018F939F937C
:1014F0000E946A0ABF91AF91A29F800D911DA39F88
:10150000900DB29F900D11240895A1E21A2EAA1BEE
:10151000BB1BFD010DC0AA1FBB1FEE1FFF1FA217A3
:10152000B307E407F50720F0A21BB30BE40BF50BA0
:10153000661F771F881F991F1A9469F76095709529
:10154000809590959B01AC01BD01CF010895052EBA
:1015500097FB1EF400940E94BE0A57FD07D00E941C
:10156000850A07FC03D04EF40C94BE0A50954095B2
:10157000309521953F4F4F4F5F4F0895909580953F
:10158000709561957F4F8F4F9F4F0895A29FB00137
:10159000B39FC001A39F700D811D1124911DB29FA7
:1015A000700D811D1124911D0895EE0FFF1F0590F0
:0A15B000F491E02D0994F894FFCFA8
:1015BA0001000000014D000001014300005A5A5A7F
:1015CA005A5A014F00FFFF030000000144000103C3
:1015DA000000000001430001002C00436F6E74728A
:1015EA006F6C6C6572206D6F6465206E6F74206D10
:1015FA00617463686564206F72206E6F20636F6E1A
:10160A0074726F6C6C657220666F756E64004578D3
:10161A0070656374656420307834312C20307837F3
:10162A0033206F7220307837392C20627574206726
:10163A006F742000436F6E74726F6C6C6572206EEB
:10164A006F7420616363657074696E6720636F6D80
:10165A006D616E6473006D6F6465207374696C20CC
:10166A00736574206174000145005A5A5A5A5A5ACD
:10167A00000000004406E407EA051706FC053906DF
:00000001FF
