:100000000C945E000C9486000C9486000C94860080
:100010000C9486000C9486000C9486000C94860048
:100020000C9486000C9486000C9486000C94860038
:100030000C9486000C9486000C9486000C94860028
:100040000C9453020C9486000C945D040C94A00450
:100050000C9486000C9486000C9486000C94860008
:100060000C9486000C94860000000007000201003A
:100070000003040600000000000000000102040864
:100080001020408001020408102001020408102002
:10009000040404040404040402020202020203032E
:1000A0000303030300000000250028002B000000CC
:1000B0000000240027002A0032025C0511241FBE24
:1000C000CFEFD8E0DEBFCDBF11E0A0E0B1E0E0E3CC
:1000D000FFE002C005900D92A631B107D9F711E0FB
:1000E000A6E1B1E001C01D92AB3DB107E1F710E020
:1000F000CCEBD0E004C02297FE010E949207C83BDF
:10010000D107C9F70E94B2050C941A070C9400009D
:10011000FC0110828FEF81831382128282E284833A
:1001200086E98583178216820895CF93DF93EC01C9
:10013000862F68839FEF99831B821A8220911A0170
:1001400030911B013F832E83D0931B01C0931A0172
:1001500060E00E948F0361E088810E94560381E085
:10016000DF91CF910895CF92DF92EF92FF92CF93DC
:10017000DF93EC0177FD06C0653B71052CF064EB65
:1001800070E002C060E070E06983CC802D8130E0D7
:100190002C193109D12CE12CF12CFE2CED2CDC2C6E
:1001A000CC24C901AA2797FDA095BA2F2227382F62
:1001B000492F5A2FDB010E94280724EB30E040E052
:1001C00050E00E946207C20ED31EE41EF51EC70156
:1001D000B60120E430E040E050E00E9462073B833B
:1001E0002A83DF91CF91FF90EF90DF90CF90089519
:1001F0007F928F929F92AF92BF92CF92DF92EF92B7
:10020000FF920F931F93CF93DF93CDB7DEB70DB758
:100210001EB70E949D02C0901601D0901701E09079
:100220001801F09019016C157D058E059F0558F099
:1002300024E1C20ED11CE11CF11C6C157D058E055C
:100240009F0508F49BC0609316017093170180937B
:10025000180190931901E0911A01F0911B01DF013F
:10026000B12C109761F012968D919C911397892B68
:1002700009F0B39416960D90BC91A02DF2CFBB203F
:1002800009F47CC08DB79EB7A2E0BA9E801991098F
:1002900011240FB6F8949EBF0FBE8DBF01967C014E
:1002A00020E0309781F082819381892B41F0D70142
:1002B000A20FB11DA20FB11DED93FC932F5F06801D
:1002C000F781E02DEECFC12CDD24D394DB1438F57B
:1002D000ED2DF0E04F01880C991C8E0C9F1CD40171
:1002E0008D919C913197EE0FFF1FEE0DFF1D208128
:1002F0003181DC0112966D917C911397D901129690
:100300004D915C9113976417750738F4D4012D93C0
:100310003C9391838083CC24C394D394D7CFC110D2
:10032000D2CF6701A12CD601ED91FD916D0161E065
:1003300080810E948F03A394AB10F5CFA6B4C12C8B
:10034000D12C712C8A2C912CD701ED91FD917D013E
:1003500082819381880D991D2A2DA6B4A21608F4D6
:10036000D39496012A0D311D82179307A8F760E0F8
:1003700080810E948F0373947B10E6CF0FB6F894B0
:100380001EBF0FBE0DBF0FB6F8941EBF0FBE0DBF30
:10039000DF91CF911F910F91FF90EF90DF90CF9061
:1003A000BF90AF909F908F907F90089562E070E033
:1003B00080E291E00E94950040E855E260E070E044
:1003C00081E391E00C94DB04AF92BF92CF92DF9275
:1003D000EF92FF920F931F9380911E010E943602AD
:1003E00090931D0180931C01BC01882777FD8095A7
:1003F000982F1F921F921F9223EB2F93A12CB12CA9
:100400006501EE24EA9413E0F12E00E010E020E014
:1004100030E0A9010E94D30670931D0160931C0176
:100420004AE050E081E391E00E94BB0660911C012C
:1004300070911D0180E291E00E94B3006FE070E0D6
:1004400080E090E00E94CC020F900F900F900F90F0
:100450001F910F91FF90EF90DF90CF90BF90AF90E2
:100460000C94F80080E291E00C9488008E3008F043
:100470008E5087702091040190E4299F90011124EF
:10048000822B80937C0080917A00806480937A0034
:1004900080917A0086FDFCCF8091780020917900D0
:1004A00090E0922B08951F920F920FB60F92112495
:1004B0002F933F938F939F93AF93BF938091290185
:1004C00090912A01A0912B01B0912C01309128012B
:1004D00023E0230F2D3720F40196A11DB11D05C087
:1004E00026E8230F0296A11DB11D209328018093B9
:1004F000290190932A01A0932B01B0932C018091A4
:100500002D0190912E01A0912F01B0913001019603
:10051000A11DB11D80932D0190932E01A0932F0159
:10052000B0933001BF91AF919F918F913F912F91E7
:100530000F900FBE0F901F9018952FB7F8946091F1
:10054000290170912A0180912B0190912C012FBFDC
:1005500008953FB7F89480912D0190912E01A091BC
:100560002F01B091300126B5A89B05C02F3F19F08F
:100570000196A11DB11D3FBF6627782F892F9A2FA5
:10058000620F711D811D911D42E0660F771F881F4C
:10059000991F4A95D1F70895CF92DF92EF92FF927B
:1005A000CF93DF936B017C010E94A902EB01C11480
:1005B000D104E104F10479F00E94A9026C1B7D0BC7
:1005C000683E7340A0F381E0C81AD108E108F10841
:1005D000C851DC4FECCFDF91CF91FF90EF90DF90CF
:1005E000CF900895789484B5826084BD84B581608D
:1005F00084BD85B5826085BD85B5816085BDEEE62B
:10060000F0E0808181608083E1E8F0E01082808109
:1006100082608083808181608083E0E8F0E0808177
:1006200081608083E1EBF0E0808184608083E0EB97
:10063000F0E0808181608083EAE7F0E0808184607F
:1006400080838081826080838081816080838081DB
:10065000806880831092C1000895833081F028F46F
:10066000813099F08230A1F008958630A9F087306A
:10067000B9F08430D1F4809180008F7D03C08091E7
:1006800080008F7780938000089584B58F7702C0B3
:1006900084B58F7D84BD08958091B0008F7703C0AD
:1006A0008091B0008F7D8093B0000895CF93DF9349
:1006B00090E0FC01E458FF4F2491FC01E057FF4F0C
:1006C0008491882349F190E0880F991FFC01E2553D
:1006D000FF4FA591B4918C559F4FFC01C591D491CA
:1006E0009FB7611108C0F8948C91209582238C9358
:1006F000888182230AC0623051F4F8948C91322FA1
:10070000309583238C938881822B888304C0F8944E
:100710008C91822B8C939FBFDF91CF9108950F9383
:100720001F93CF93DF931F92CDB7DEB7282F30E012
:10073000F901E859FF4F8491F901E458FF4F1491F2
:10074000F901E057FF4F04910023C9F0882321F0FD
:1007500069830E942D036981E02FF0E0EE0FFF1FF7
:10076000EC55FF4FA591B4919FB7F8948C9161110E
:1007700003C01095812301C0812B8C939FBF0F90E4
:10078000DF91CF911F910F910895FC01248535854C
:10079000F901E05CFF4F80819181F901EE5BFF4F31
:1007A00020813181821B930B8F7399270895FC015F
:1007B00084859585FC01E05CFF4F40815181FC01FF
:1007C000EE5BFF4F208131814217530741F00190CA
:1007D000F081E02DE80FF91F808190E008958FEF00
:1007E0009FEF0895FC0184859585FC01E05CFF4F37
:1007F00040815181FC01EE5BFF4F20813181421726
:10080000530779F0A081B181A80FB91F8C91208185
:1008100031812F5F3F4F2F7333273183208390E047
:1008200008958FEF9FEF0895FC0181A1882329F09F
:10083000A489B5898C9186FFFBCF11A20895CF932F
:10084000DF93FC0126853785D901A05CBF4F8D91D0
:100850009C91119701968F739927E901CE5BDF4F29
:100860004881598184179507D9F30D90BC91A02D2B
:10087000A20FB31F6C93A685B785A05CBF4F1196DE
:100880009C938E93A689B7892C9181E090E0078C88
:1008900002C0880F991F0A94E2F7282B2C9381E05D
:1008A00081A30488F589E02D80818064808381E0C4
:1008B00090E0DF91CF91089508951F920F920FB6A7
:1008C0000F9211242F933F934F938F939F93EF9306
:1008D000FF938091C00082FD1CC04091C6008091B2
:1008E000D7019091D80101968F7399272091D90152
:1008F0003091DA018217930771F0E091D701F091FE
:10090000D801E956FE4F40839093D8018093D701D8
:1009100002C08091C600FF91EF919F918F914F91FE
:100920003F912F910F900FBE0F901F90189581E36C
:1009300091E00E94C503892B11F00C945C0408958A
:100940001F920F920FB60F9211242F933F938F9304
:100950009F93EF93FF9320919301309194018091A5
:100960009501909196012817390731F48091C100C3
:100970008F7D8093C10014C0E0919501F0919601A4
:10098000ED5AFE4F2081809195019091960101963C
:100990008F73992790939601809395012093C600B9
:1009A000FF91EF919F918F913F912F910F900FBEEB
:1009B0000F901F901895CF92DF92EF92FF92CF93F6
:1009C000DF93EC016A017B01411581EE5807610557
:1009D0007105F9F0EC89FD8981E090E008A002C082
:1009E000880F991F0A94E2F7808360E079E08DE335
:1009F00090E0A70196010E9440072150310941096A
:100A000051095695479537952795211580E1380767
:100A100098F0EC89FD89108260E874E88EE190E03E
:100A2000A70196010E94400721503109410951094F
:100A30005695479537952795E889F9893083EA894E
:100A4000FB89208319A2EE89FF89408181E090E033
:100A50009C010C8C02C0220F331F0A94E2F7422B38
:100A60004083EE89FF8940819C010D8C02C0220FDA
:100A7000331F0A94E2F7422B4083EE89FF894081BD
:100A80009C010E8C02C0220F331F0A94E2F7422B06
:100A90004083EE89FF8920810F8C02C0880F991F47
:100AA0000A94E2F7809582238083DF91CF91FF90B3
:100AB000EF90DF90CF90089510923401109233019F
:100AC00088EE93E0A0E0B0E080933501909336018A
:100AD000A0933701B093380189E091E090933201FF
:100AE0008093310187E991E090933E0180933D012D
:100AF00083E591E09093400180933F0185EC90E085
:100B0000909342018093410184EC90E090934401E2
:100B10008093430180EC90E09093460180934501DF
:100B200081EC90E0909348018093470182EC90E043
:100B300090934A018093490186EC90E090934C0198
:100B400080934B0184E080934D0183E080934E01BC
:100B500087E080934F0185E08093500181E080938E
:100B6000510108950E94F2020E94D601C7E9D4E023
:100B70000E94E4012097E1F30E949704F9CFCF92FD
:100B8000DF92EF92FF920F931F93CF93DF936C014D
:100B90007A01EB01E60EF71E00E010E0CE15DF054E
:100BA00061F06991D601ED91FC910190F081E02D09
:100BB000C6010995080F191FF1CFC801DF91CF9128
:100BC0001F910F91FF90EF90DF90CF9008956115E6
:100BD000710581F0DB010D900020E9F7AD01415076
:100BE0005109461B570BDC01ED91FC910280F3810A
:100BF000E02D099480E090E00895DC01ED91FC91F6
:100C00000190F081E02D09940F931F93CF93DF9310
:100C1000EC016DE00E94FD058C016AE0CE010E94AE
:100C2000FD05800F911FDF91CF911F910F910895C6
:100C30008F929F92AF92BF92CF92DF92EF92FF92EC
:100C40000F931F93CF93DF93CDB7DEB7A1970FB666
:100C5000F894DEBF0FBECDBF7C01C42EE52FCB01C3
:100C6000D22E19A221E02D1510F02AE0D22E8E01ED
:100C70000F5D1F4F8D2C912CA12CB12C6C2D7E2F34
:100C8000A50194010E9440078C2DD29E8019112449
:100C9000015011098A3014F4805D01C0895CF801AB
:100CA0008083211531054105510521F0C22EE32F26
:100CB000CA01E4CFB801C7010E94E705A1960FB6AB
:100CC000F894DEBF0FBECDBFDF91CF911F910F9182
:100CD000FF90EF90DF90CF90BF90AF909F908F905C
:100CE0000895CF92DF92EF92FF920F931F93CF93CD
:100CF000DF93EC016A017B012115310579F4E8816C
:100D0000F9810190F081E02D642FDF91CF911F9147
:100D10000F91FF90EF90DF90CF9009942A3031052A
:100D2000E9F477FF1AC06DE20E94FD058C014427AB
:100D30005527BA014C195D096E097F092AE0CE01D9
:100D40000E941806800F911FDF91CF911F910F9184
:100D5000FF90EF90DF90CF9008952AE0B701A601B1
:100D6000CE01DF91CF911F910F91FF90EF90DF9017
:100D7000CF900C9418060F931F93CF93DF93EC0141
:100D80009A01AB01662757FD6095762F0E94710688
:100D90008C01CE010E940406800F911FDF91CF913C
:100DA0001F910F9108954F925F926F927F92AF9231
:100DB000BF92CF92DF92EF92FF920F931F93CF9348
:100DC000DF93CDB7DEB729013A01621B730B840BA9
:100DD000950B29893A894B895C892A193B094C0969
:100DE0005D09298B3A8B4B8B5C8B9B01AC0169892C
:100DF0007A898B899C890E943007E418F5080609D6
:100E00001709A80197010E9462072A0D3B1D4C1D7E
:100E10005D1DCA01B901DF91CF911F910F91FF9024
:100E2000EF90DF90CF90BF90AF907F906F905F90EA
:100E30004F900895F8940C9496070E948107A59FFF
:100E4000900DB49F900DA49F800D911D11240895C5
:100E5000B7FF0C941D070E941D07821B930B08957A
:100E6000DB018F939F930E941D07BF91AF91A29FBB
:100E7000800D911DA39F900DB29F900D1124089598
:100E8000A1E21A2EAA1BBB1BFD010DC0AA1FBB1F8E
:100E9000EE1FFF1FA217B307E407F50720F0A21B00
:100EA000B30BE40BF50B661F771F881F991F1A946D
:100EB00069F760957095809590959B01AC01BD0197
:100EC000CF010895052E97FB1EF400940E94790728
:100ED00057FD07D00E94400707FC03D04EF40C9446
:100EE000790750954095309521953F4F4F4F5F4F73
:100EF000089590958095709561957F4F8F4F9F4F86
:100F00000895A29FB001B39FC001A39F700D811DE2
:100F10001124911DB29F700D811D1124911D089502
:100F2000EE0FFF1F0590F491E02D0994F894FFCF88
:100F30000100000001000000001F04BF05C503F20E
:060F400003D703140400B6
:00000001FF
