:100000000C9437000C945F000C945F000C945F001C
:100010000C945F000C945F000C945F000C945F00E4
:100020000C945F000C945F000C945F000C945F00D4
:100030000C945F000C945F000C945F000C945F00C4
:100040000C9437050C945F000C945C010C949F0198
:100050000C945F000C945F000C945F000C945F00A4
:100060000C945F000C945F0073005B027900112414
:100070001FBECFEFD8E0DEBFCDBF11E0A0E0B1E002
:10008000E0EAF0E102C005900D92A833B107D9F77C
:1000900011E0A8E3B1E001C01D92A63FB107E1F76E
:1000A00010E0CCE6D0E004C02297FE010E943F0899
:1000B000C836D107C9F70E94B1020C94F3070C941B
:1000C000000040E855E260E070E08FE391E00E94BC
:1000D000DA0166E071E08FE391E00E9460038FE354
:1000E00091E00C943A0367E271E088E391E00C94AC
:1000F000AD0488E391E00C943F04CF93DF938FE34A
:1001000091E00E94C40018161906DCF58FE391E017
:100110000E94F100EC01C0970A9728F46C2F88E345
:1001200091E00E9408054AE050E0BE018FE391E0B3
:100130000E941504A19719F768E171E08FE391E03F
:100140000E94310388E391E00E942C05AB01BC01C1
:100150002AE030E08FE391E00E942D046FE171E02E
:100160008FE391E00E94310368E371E08FE391E057
:100170000E944E0367E271E088E391E00E94C404AC
:10018000BECFDF91CF910895FC0124853585F9011B
:10019000E05CFF4F80819181F901EE5BFF4F208190
:1001A0003181821B930B8F7399270895FC018485FD
:1001B0009585FC01E05CFF4F40815181FC01EE5BC5
:1001C000FF4F208131814217530741F00190F081A8
:1001D000E02DE80FF91F808190E008958FEF9FEFE9
:1001E0000895FC0184859585FC01E05CFF4F40810A
:1001F0005181FC01EE5BFF4F208131814217530793
:1002000079F0A081B181A80FB91F8C912081318133
:100210002F5F3F4F2F7333273183208390E0089562
:100220008FEF9FEF0895FC0181A1882329F0A48915
:10023000B5898C9186FFFBCF11A20895CF93DF93F0
:10024000FC0126853785D901A05CBF4F8D919C911B
:10025000119701968F739927E901CE5BDF4F488193
:10026000598184179507D9F30D90BC91A02DA20F49
:10027000B31F6C93A685B785A05CBF4F11969C9366
:100280008E93A689B7892C9181E090E0078C02C0FB
:10029000880F991F0A94E2F7282B2C9381E081A301
:1002A0000488F589E02D80818064808381E090E07E
:1002B000DF91CF91089508951F920F920FB60F927C
:1002C00011242F933F934F938F939F93EF93FF931B
:1002D0008091C00082FD1CC04091C6008091E50164
:1002E0009091E60101968F7399272091E701309153
:1002F000E8018217930771F0E091E501F091E601C2
:10030000EB55FE4F40839093E6018093E50102C0D8
:100310008091C600FF91EF919F918F914F913F91F6
:100320002F910F900FBE0F901F9018958FE391E0C3
:100330000E94C400892B11F00C945B0108951F9258
:100340000F920FB60F9211242F933F938F939F9389
:10035000EF93FF932091A1013091A2018091A3011D
:100360009091A4012817390731F48091C1008F7D45
:100370008093C10014C0E091A301F091A401EF5952
:10038000FE4F20818091A3019091A40101968F736B
:1003900099279093A4018093A3012093C600FF9115
:1003A000EF919F918F913F912F910F900FBE0F90E2
:1003B0001F901895CF92DF92EF92FF92CF93DF9329
:1003C000EC016A017B01411581EE58076105710559
:1003D000F9F0EC89FD8981E090E008A002C0880F67
:1003E000991F0A94E2F7808360E079E08DE390E062
:1003F000A70196010E941B082150310941095109AA
:100400005695479537952795211580E1380798F03F
:10041000EC89FD89108260E874E88EE190E0A70124
:1004200096010E941B082150310941095109569536
:10043000479537952795E889F9893083EA89FB89BB
:10044000208319A2EE89FF89408181E090E09C0120
:100450000C8C02C0220F331F0A94E2F7422B408318
:10046000EE89FF8940819C010D8C02C0220F331F51
:100470000A94E2F7422B4083EE89FF8940819C0178
:100480000E8C02C0220F331F0A94E2F7422B4083E6
:10049000EE89FF8920810F8C02C0880F991F0A9472
:1004A000E2F7809582238083DF91CF91FF90EF90D8
:1004B000DF90CF900895109242011092410188EE92
:1004C00093E0A0E0B0E08093430190934401A093B7
:1004D0004501B09346018CE291E0909340018093F6
:1004E0003F0185EA91E090934C0180934B0181E6B6
:1004F00091E090934E0180934D0185EC90E09093B4
:10050000500180934F0184EC90E0909352018093CE
:10051000510180EC90E0909354018093530181EC61
:1005200090E0909356018093550182EC90E0909377
:1005300058018093570186EC90E090935A01809384
:10054000590184E080935B0183E080935C0187E044
:1005500080935D0185E080935E0181E080935F017F
:1005600008950E9481050E946100C6E9D1E00E94C1
:100570007D002097E1F30E949601F9CFCF92DF92A0
:10058000EF92FF920F931F93CF93DF936C017A0149
:10059000EB01E60EF71E00E010E0CE15DF0561F07E
:1005A0006991D601ED91FC910190F081E02DC60199
:1005B0000995080F191FF1CFC801DF91CF911F9145
:1005C0000F91FF90EF90DF90CF9008956115710526
:1005D00081F0DB010D900020E9F7AD014150510998
:1005E000461B570BDC01ED91FC910280F381E02D5D
:1005F000099480E090E00895AF92BF92CF92DF928D
:10060000EF92FF920F931F93CF93DF937C016B01C7
:10061000C0E0D0E000E010E0D60114968D919C91EE
:100620001597C817D90788F4D701ED91FC91A080E0
:10063000B180BE01C6010E941B05682FC701F501EC
:100640000995080F191F2196E7CFC801DF91CF91B7
:100650001F910F91FF90EF90DF90CF90BF90AF90E0
:1006600008950C94E602DC01ED91FC910190F0817B
:10067000E02D09940F931F93CF93DF93EC016DE06E
:100680000E9433038C016AE0CE010E943303800F85
:10069000911FDF91CF911F910F9108950F931F9399
:1006A000CF93DF93EC010E94FC028C01CE010E94EB
:1006B0003A03800F911FDF91CF911F910F91089501
:1006C0000F931F93CF93DF93EC010E94E6028C01FE
:1006D000CE010E943A03800F911FDF91CF911F91AD
:1006E0000F9108958F929F92AF92BF92CF92DF9217
:1006F000EF92FF920F931F93CF93DF93CDB7DEB7A7
:10070000A1970FB6F894DEBF0FBECDBF7C01C42EFB
:10071000E52FCB01D22E19A221E02D1510F02AE0F1
:10072000D22E8E010F5D1F4F8D2C912CA12CB12C40
:100730006C2D7E2FA50194010E941B088C2DD29E4A
:1007400080191124015011098A3014F4805D01C010
:10075000895CF8018083211531054105510521F09F
:10076000C22EE32FCA01E4CFB801C7010E94E602FE
:10077000A1960FB6F894DEBF0FBECDBFDF91CF912B
:100780001F910F91FF90EF90DF90CF90BF90AF90AF
:100790009F908F900895CF92DF92EF92FF920F93E8
:1007A0001F93CF93DF93EC016A017B012115310583
:1007B00079F4E881F9810190F081E02D642FDF91D7
:1007C000CF911F910F91FF90EF90DF90CF90099400
:1007D0002A303105E9F477FF1AC06DE20E94330335
:1007E0008C0144275527BA014C195D096E097F0910
:1007F0002AE0CE010E947203800F911FDF91CF91FA
:100800001F910F91FF90EF90DF90CF9008952AE015
:10081000B701A601CE01DF91CF911F910F91FF90FB
:10082000EF90DF90CF900C9472030F931F93CF93B0
:10083000DF93EC019A01AB01662757FD6095762F97
:100840000E94CB038C01CE010E943A03800F911FBE
:10085000DF91CF911F910F9108950F931F93CF9325
:10086000DF93EC010E94CB038C01CE010E943A037E
:10087000800F911FDF91CF911F910F910895FC017F
:10088000808191810C945406CF93DF93EC01888191
:100890009981009711F00E945406198218821D82D6
:1008A0001C821B821A82DF91CF9108950F931F93B0
:1008B000CF93DF93EC018B016F5F7F4F888199812C
:1008C0000E94E306009731F0998388831B830A8393
:1008D00081E001C080E0DF91CF911F910F910895D9
:1008E000CF93DF93EC0188819981892B29F08A814C
:1008F0009B818617970760F4CE010E9456048823D7
:1009000041F08C819D81892B19F4E881F981108255
:1009100081E0DF91CF910895EF92FF920F931F93A3
:10092000CF93DF93EC017B018A01BA010E9470042E
:10093000811104C0CE010E94440407C01D830C83B2
:10094000B701888199810E94FF07CE01DF91CF9185
:100950001F910F91FF90EF900895FC01118210827A
:10096000138212821582148216826115710559F064
:10097000FB0101900020E9F7AF0141505109461BEE
:10098000570B0C948C040895CF93DF93EC01611501
:10099000710561F0FB0101900020E9F7AF014150C2
:1009A0005109461B570B0E948C0402C00E9444044C
:1009B000CE01DF91CF910895EF92FF920F931F9395
:1009C000CF93DF93EC017B010C811D8161157105D3
:1009D00011F480E016C04115510591F0040F151F68
:1009E000B8010E9470048823A1F3288139818C8189
:1009F0009D81B701820F931F0E94FF071D830C8307
:100A000081E0DF91CF911F910F91FF90EF900895BA
:100A1000CF93DF9300D0CDB7DEB769831A8241E070
:100A200050E0BE016F5F7F4F0E94DC040F900F907B
:100A3000DF91CF910895FC012481358162177307FE
:100A400048F480819181009729F0FC01E60FF71F9F
:100A50008081089580E00895FC0180819181009754
:100A600011F00C94CC0760E070E0CB0108951F9268
:100A70000F920FB60F9211242F933F938F939F9352
:100A8000AF93BF938091EA019091EB01A091EC01AB
:100A9000B091ED013091E90123E0230F2D3720F4CF
:100AA0000196A11DB11D05C026E8230F0296A11DC8
:100AB000B11D2093E9018093EA019093EB01A0938B
:100AC000EC01B093ED018091EE019091EF01A091C6
:100AD000F001B091F1010196A11DB11D8093EE01CD
:100AE0009093EF01A093F001B093F101BF91AF910A
:100AF0009F918F913F912F910F900FBE0F901F905C
:100B00001895789484B5826084BD84B5816084BD75
:100B100085B5826085BD85B5816085BDEEE6F0E076
:100B2000808181608083E1E8F0E0108280818260D2
:100B30008083808181608083E0E8F0E08081816053
:100B40008083E1EBF0E0808184608083E0EBF0E083
:100B5000808181608083EAE7F0E080818460808327
:100B600080818260808380818160808380818068D1
:100B700080831092C1000895CF93DF938230910556
:100B800010F482E090E0E091F401F091F50120E0B2
:100B900030E0A0E0B0E0309739F140815181481752
:100BA0005907B8F04817590771F48281938110975B
:100BB00029F013969C938E9312972CC09093F50175
:100BC0008093F40127C02115310531F042175307F6
:100BD00018F0A901DB0101C0EF019A01BD01DF019D
:100BE0000280F381E02DD7CF21153105F9F0281BC4
:100BF000390B2430310580F48A819B8161157105A0
:100C000021F0FB019383828304C09093F5018093CC
:100C1000F401FE01329644C0FE01E20FF31F8193FE
:100C2000919322503109398328833AC02091F201EF
:100C30003091F301232B41F4209102013091030103
:100C40003093F3012093F2012091000130910101D2
:100C50002115310541F42DB73EB740910401509163
:100C60000501241B350BE091F201F091F301E2172D
:100C7000F307A0F42E1B3F0B2817390778F0AC01BF
:100C80004E5F5F4F2417350748F04E0F5F1F50939C
:100C9000F3014093F2018193919302C0E0E0F0E010
:100CA000CF01DF91CF910895CF93DF93009709F49F
:100CB00087C0FC01329713821282C091F401D09157
:100CC000F501209781F420813181280F391F80910F
:100CD000F2019091F3018217930779F5F093F301F4
:100CE000E093F2016DC0DE0120E030E0AE17BF07F7
:100CF00050F412964D915C9113979D014115510549
:100D000009F1DA01F3CFB383A28340815181840FCB
:100D1000951F8A179B0771F48D919C911197840FF1
:100D2000951F02969183808312968D919C911397C3
:100D3000938382832115310529F4F093F501E09323
:100D4000F4013EC0D9011396FC93EE9312974D9196
:100D50005D91A40FB51FEA17FB0779F4808191819B
:100D6000840F951F0296D90111969C938E938281D0
:100D7000938113969C938E931297E0E0F0E08A8122
:100D80009B81009719F0FE01EC01F9CFCE0102968C
:100D900028813981820F931F2091F2013091F30154
:100DA0002817390769F4309729F41092F501109249
:100DB000F40102C013821282D093F301C093F201B6
:100DC000DF91CF9108956F927F928F929F92AF9211
:100DD000BF92CF92DF92EF92FF920F931F93CF9328
:100DE000DF93EC01CB01209781F4DF91CF911F912C
:100DF0000F91FF90EF90DF90CF90BF90AF909F90BA
:100E00008F907F906F900C94BC05FE01E60FF71F4A
:100E10009E0122503109E217F30708F4ACC0D90152
:100E20000D911C91119706171707B8F005301105A1
:100E300008F49FC0A801445051094617570708F409
:100E400098C002501109061B170B019311936D9363
:100E50007C93CF010E9454068CC05B01A01AB10A9A
:100E60004E01800E911EA091F401B091F501612C0C
:100E7000712C60E070E0109709F449C0A815B9051D
:100E8000C9F5ED90FC901197670142E0C40ED11CAA
:100E9000CA14DB0478F147018A189B08640142E018
:100EA000C40ED11C1296BC9012971396AC91B5E06B
:100EB000CB16D10440F0B282A38391828082D90103
:100EC0008D939C9309C00E5F1F4F0E0D1F1DF901DE
:100ED00011830083EB2DFA2F6115710531F0DB01D1
:100EE0001396FC93EE93129744C0F093F501E093B0
:100EF000F4013FC06D917C9111976616770608F456
:100F00003B01BD0112960D90BC91A02DB4CF609114
:100F1000F2017091F30168157905E9F46816790614
:100F2000D0F440910001509101014115510541F467
:100F30004DB75EB76091040170910501461B570BD8
:100F4000E417F507C0F4F093F301E093F201F9011F
:100F5000918380830EC00E94BC057C01009759F0EC
:100F6000A801BE010E94F607CE010E945406C701E7
:100F700004C0CE0102C080E090E0DF91CF911F91CC
:100F80000F91FF90EF90DF90CF90BF90AF909F9028
:100F90008F907F906F9008951F93FC019927882769
:100FA000BC01E89411911032E9F3193010F01E30B1
:100FB000C8F31B3251F01D3249F4689406C00E94F8
:100FC0000608610F711D811D911D119110531A307A
:100FD000B0F33EF490958095709561957F4F8F4F5B
:100FE0009F4F1F910895F8940C944308FB01DC0176
:100FF00002C001900D9241505040D8F70895FB0176
:10100000DC0101900D920020E1F70895592F482F3F
:10101000372F262F660F771F881F991F660F771FA0
:10102000881F991F620F731F841F951F660F771FFC
:10103000881F991F0895A1E21A2EAA1BBB1BFD0150
:101040000DC0AA1FBB1FEE1FFF1FA217B307E407A7
:10105000F50720F0A21BB30BE40BF50B661F771FFF
:10106000881F991F1A9469F76095709580959095DF
:101070009B01AC01BD01CF010895EE0FFF1F05904C
:10108000F491E02D099410E0CCE6D0E004C0FE011C
:101090000E943F082296CE36D107C9F7F894FFCFB9
:1010A0000000F60180000A0A537472696E672074AA
:1010B0006F496E7428293A0056616C75653A005381
:1010C0007472696E673A2000000000001E01BE02C3
:0810D000C400F100D600130179
:00000001FF
