:100000000C9463000C948B000C948B000C948B006C
:100010000C948B000C948B000C948B000C948B0034
:100020000C948B000C948B000C948B000C948B0024
:100030000C948B000C948B000C948B000C948B0014
:100040000C9400010C948B000C9494030C94D70333
:100050000C948B000C948B000C948B000C948B00F4
:100060000C948B000C948B00000000070002010030
:100070000003040600000000000000000102040864
:100080001020408001020408102001020408102002
:10009000040404040404040402020202020203032E
:1000A00003030303000000002300260029000000D2
:1000B0000000250028002B0000000000240027007D
:1000C0002A00F900930411241FBECFEFD8E0DEBF51
:1000D000CDBF11E0A0E0B1E0E8EDFCE002C005908A
:1000E0000D92A631B107D9F711E0A6E1B1E001C048
:1000F0001D92AF3CB107E1F710E0C6ECD0E004C0C0
:100100002297FE010E946606C23CD107C9F70E94F1
:10011000E9040C9406060C940000CF93DF93EC01E5
:1001200061E088810E94020260E088810E943B02B7
:1001300082E090E00E94930161E088810E943B028E
:1001400085E090E00E94930160E088810E943B027C
:1001500060E088810E94020220E432E44FE050E037
:1001600061E088810E9471026A837B838C839D8316
:10017000DF91CF91089540E855E260E070E085E2BC
:1001800091E00C941204CF92DF92EF92FF9286E1FD
:1001900091E00E948D006091180170911901809189
:1001A0001A0190911B012AE330E040E050E00E94E8
:1001B000360669017A0160E071E085E291E00E9413
:1001C00034052AE030E0B701A60185E291E00E9403
:1001D000BC0562E071E085E291E00E94510564E6B1
:1001E00070E080E090E0FF90EF90DF90CF900C9473
:1001F0006D0187E090E090931701809316010895B8
:100200001F920F920FB60F9211242F933F938F934B
:100210009F93AF93BF9380911D0190911E01A09178
:100220001F01B091200130911C0123E0230F2D37D5
:1002300020F40196A11DB11D05C026E8230F0296EA
:10024000A11DB11D20931C0180931D0190931E01DF
:10025000A0931F01B0932001809121019091220170
:10026000A0912301B09124010196A11DB11D80939D
:10027000210190932201A0932301B0932401BF9107
:10028000AF919F918F913F912F910F900FBE0F9043
:100290001F9018953FB7F894809121019091220109
:1002A000A0912301B091240126B5A89B05C02F3F42
:1002B00019F00196A11DB11D3FBF6627782F892F28
:1002C0009A2F620F711D811D911D42E0660F771FED
:1002D000881F991F4A95D1F70895CF92DF92EF9228
:1002E000FF92CF93DF936B017C010E944A01EB01E7
:1002F000C114D104E104F10479F00E944A016C1B9D
:100300007D0B683E7340A0F381E0C81AD108E10874
:10031000F108C851DC4FECCFDF91CF91FF90EF9007
:10032000DF90CF9008950197009739F0880F991FBB
:10033000880F991F02970197F1F70895789484B573
:10034000826084BD84B5816084BD85B5826085BDD1
:1003500085B5816085BDEEE6F0E0808181608083B7
:10036000E1E8F0E01082808182608083808181609A
:100370008083E0E8F0E0808181608083E1EBF0E061
:10038000808184608083E0EBF0E080818160808305
:10039000EAE7F0E0808184608083808182608083EE
:1003A0008081816080838081806880831092C10019
:1003B0000895833081F028F4813099F08230A1F0E3
:1003C00008958630A9F08730B9F08430D1F4809157
:1003D00080008F7D03C0809180008F7780938000A4
:1003E000089584B58F7702C084B58F7D84BD08954C
:1003F0008091B0008F7703C08091B0008F7D809393
:10040000B0000895CF93DF9390E0FC01E458FF4FD4
:100410002491FC01E057FF4F8491882349F190E03B
:10042000880F991FFC01E854FF4FA591B4918255A4
:100430009F4FFC01C591D4919FB7611108C0F894FA
:100440008C91209582238C93888182230AC062300C
:1004500051F4F8948C91322F309583238C938881BA
:10046000822B888304C0F8948C91822B8C939FBF3D
:10047000DF91CF9108950F931F93CF93DF931F9236
:10048000CDB7DEB7282F30E0F901E859FF4F84914E
:10049000F901E458FF4F1491F901E057FF4F04911F
:1004A0000023C9F0882321F069830E94D901698162
:1004B000E02FF0E0EE0FFF1FE255FF4FA591B49142
:1004C0009FB7F8948C91611103C01095812301C0EE
:1004D000812B8C939FBF0F90DF91CF911F910F9134
:1004E00008958F929F92AF92BF92CF92DF92EF9238
:1004F000FF920F931F93CF93DF9390E0FC01E4589A
:10050000FF4F0491FC01E057FF4F7491611102C04D
:1005100010E001C0102FDA01C901BF70672F70E031
:10052000660F771F6C557F4F812C912C5401FB0176
:10053000C591D491E881E023E11310C075016401F5
:100540002FEFC21AD20AE20AF20A88169906AA0600
:10055000BB0609F441C046015701ECCFFB01C59130
:10056000D491E881E023E11779F0750164012FEF60
:10057000C21AD20AE20AF20A88169906AA06BB062D
:1005800059F146015701EDCF88199909AA09BB090C
:1005900020E030E0A901FB01C591D491688160237E
:1005A00061130AC0281739074A075B07A9F02F5FB4
:1005B0003F4F4F4F5F4FF2CFA5E1B0E00E940906D9
:1005C000605F7F4F8F4F9F4F24E09695879577957B
:1005D00067952A95D1F703C060E070E0CB01DF9109
:1005E000CF911F910F91FF90EF90DF90CF90BF9030
:1005F000AF909F908F900895FC0124853585F90177
:10060000E05CFF4F80819181F901EE5BFF4F20811B
:100610003181821B930B8F7399270895FC01848588
:100620009585FC01E05CFF4F40815181FC01EE5B50
:10063000FF4F208131814217530741F00190F08133
:10064000E02DE80FF91F808190E008958FEF9FEF74
:100650000895FC0184859585FC01E05CFF4F408195
:100660005181FC01EE5BFF4F20813181421753071E
:1006700079F0A081B181A80FB91F8C9120813181BF
:100680002F5F3F4F2F7333273183208390E00895EE
:100690008FEF9FEF0895FC0181A1882329F0A489A1
:1006A000B5898C9186FFFBCF11A20895CF93DF937C
:1006B000FC0126853785D901A05CBF4F8D919C91A7
:1006C000119701968F739927E901CE5BDF4F48811F
:1006D000598184179507D9F30D90BC91A02DA20FD5
:1006E000B31F6C93A685B785A05CBF4F11969C93F2
:1006F0008E93A689B7892C9181E090E0078C02C087
:10070000880F991F0A94E2F7282B2C9381E081A38C
:100710000488F589E02D80818064808381E090E009
:10072000DF91CF91089508951F920F920FB60F9207
:1007300011242F933F934F938F939F93EF93FF93A6
:100740008091C00082FD1CC04091C6008091CB0109
:100750009091CC0101968F7399272091CD01309112
:10076000CE018217930771F0E091CB01F091CC019B
:10077000E557FE4F40839093CC018093CB0102C09C
:100780008091C600FF91EF919F918F914F913F9182
:100790002F910F900FBE0F901F90189585E291E05A
:1007A0000E94FC02892B11F00C94930308951F9270
:1007B0000F920FB60F9211242F933F938F939F9315
:1007C000EF93FF93209187013091880180918901F7
:1007D00090918A012817390731F48091C1008F7DEB
:1007E0008093C10014C0E0918901F0918A01E95B16
:1007F000FE4F20818091890190918A0101968F732B
:10080000992790938A01809389012093C600FF91D4
:10081000EF919F918F913F912F910F900FBE0F906D
:100820001F901895CF92DF92EF92FF92CF93DF93B4
:10083000EC016A017B01411581EE580761057105E4
:10084000F9F0EC89FD8981E090E008A002C0880FF2
:10085000991F0A94E2F7808360E079E08DE390E0ED
:10086000A70196010E94140621503109410951093E
:100870005695479537952795211580E1380798F0CB
:10088000EC89FD89108260E874E88EE190E0A701B0
:1008900096010E94140621503109410951095695CB
:1008A000479537952795E889F9893083EA89FB8947
:1008B000208319A2EE89FF89408181E090E09C01AC
:1008C0000C8C02C0220F331F0A94E2F7422B4083A4
:1008D000EE89FF8940819C010D8C02C0220F331FDD
:1008E0000A94E2F7422B4083EE89FF8940819C0104
:1008F0000E8C02C0220F331F0A94E2F7422B408372
:10090000EE89FF8920810F8C02C0880F991F0A94FD
:10091000E2F7809582238083DF91CF91FF90EF9063
:10092000DF90CF900895109228011092270188EE51
:1009300093E0A0E0B0E08093290190932A01A09376
:100940002B01B0932C018AE091E0909326018093D3
:1009500025018BE891E0909332018093310187E487
:1009600091E0909334018093330185EC90E0909373
:1009700036018093350184EC90E0909338018093A8
:10098000370180EC90E090933A018093390181EC3B
:1009900090E090933C0180933B0182EC90E0909337
:1009A0003E0180933D0186EC90E09093400180935E
:1009B0003F0184E08093410183E08093420187E01E
:1009C0008093430185E08093440181E08093450159
:1009D00008950E949E010E94BB00CEECD3E00E94CD
:1009E000C3002097E1F30E94CE03F9CFCF92DF92AC
:1009F000EF92FF920F931F93CF93DF936C017A01D5
:100A0000EB01E60EF71E00E010E0CE15DF0561F009
:100A10006991D601ED91FC910190F081E02DC60124
:100A20000995080F191FF1CFC801DF91CF911F91D0
:100A30000F91FF90EF90DF90CF90089561157105B1
:100A400081F0DB010D900020E9F7AD014150510923
:100A5000461B570BDC01ED91FC910280F381E02DE8
:100A6000099480E090E008950C941E05DC01ED915E
:100A7000FC910190F081E02D09940F931F93CF9387
:100A8000DF93EC016DE00E9436058C016AE0CE0137
:100A90000E943605800F911FDF91CF911F910F911A
:100AA00008950F931F93CF93DF93EC010E941E05CF
:100AB0008C01CE010E943D05800F911FDF91CF91E7
:100AC0001F910F9108958F929F92AF92BF92CF92F4
:100AD000DF92EF92FF920F931F93CF93DF93CDB7E7
:100AE000DEB7A1970FB6F894DEBF0FBECDBF7C0175
:100AF000C42EE52FCB01D22E19A221E02D1510F026
:100B00002AE0D22E8E010F5D1F4F8D2C912CA12C2F
:100B1000B12C6C2D7E2FA50194010E9414068C2D02
:100B2000D29E80191124015011098A3014F4805D7D
:100B300001C0895CF801808321153105410551050B
:100B400021F0C22EE32FCA01E4CFB801C7010E94F1
:100B50001E05A1960FB6F894DEBF0FBECDBFDF9184
:100B6000CF911F910F91FF90EF90DF90CF90BF90AA
:100B7000AF909F908F900895CF92DF92EF92FF9267
:100B80000F931F93CF93DF93EC016A017B01211533
:100B9000310579F4E881F9810190F081E02D642F2D
:100BA000DF91CF911F910F91FF90EF90DF90CF9049
:100BB00009942A303105E9F477FF1AC06DE20E94EA
:100BC00036058C0144275527BA014C195D096E0979
:100BD0007F092AE0CE010E946305800F911FDF91FB
:100BE000CF911F910F91FF90EF90DF90CF900895DC
:100BF0002AE0B701A601CE01DF91CF911F910F919D
:100C0000FF90EF90DF90CF900C946305F8940C94D4
:100C10006A060E945506A59F900DB49F900DA49F53
:100C2000800D911D11240895A1E21A2EAA1BBB1B51
:100C3000FD010DC0AA1FBB1FEE1FFF1FA217B307A8
:100C4000E407F50720F0A21BB30BE40BF50B661FBE
:100C5000771F881F991F1A9469F760957095809582
:100C600090959B01AC01BD01CF010895052E97FB26
:100C70001EF400940E944D0657FD07D00E941406F2
:100C800007FC03D04EF40C944D06509540953095DA
:100C900021953F4F4F4F5F4F0895909580957095E8
:100CA00061957F4F8F4F9F4F0895A29FB001B39FD3
:100CB000C001A39F700D811D1124911DB29F700D65
:100CC000811D1124911D0895EE0FFF1F0590F491D1
:080CD000E02D0994F894FFCF18
:100CD800200020636D00000000005603F604FC02AB
:060CE80029030E034B037B
:00000001FF
