:100000000C9463000C948B000C948B000C948B006C
:100010000C948B000C948B000C948B000C948B0034
:100020000C948B000C948B000C948B000C948B0024
:100030000C948B000C948B000C948B000C948B0014
:100040000C9410070C948B000C94D9090C941C0A86
:100050000C948B000C948B000C948B000C948B00F4
:100060000C94280E0C948B00000000070002010085
:100070000003040600000000000000000102040864
:100080001020408001020408102001020408102002
:10009000040404040404040402020202020203032E
:1000A00003030303000000002300260029000000D2
:1000B0000000250028002B0000000000240027007D
:1000C0002A00D80A460D11241FBECFEFD8E0DEBFAC
:1000D000CDBF12E0A0E0B1E0EEECF7E202C0059087
:1000E0000D92A231B107D9F714E0A2E1B2E001C04C
:1000F0001D92A735B107E1F710E0C6ECD0E004C0CF
:100100002297FE010E94E113C23CD107C9F70E9469
:100110002E0B0C94550F0C940000860F911DFC01C2
:1001200080810895FC0183A5833031F0813031F066
:100130008C3031F483E0089581E0089582E00895E1
:1001400080E008953FB7F894DC015B96ED91FC9157
:100150005C9720815A968C91282B20833FBF08956D
:100160003FB7F894DC015E96ED91FC915F9720819A
:100170005D968C91282B20833FBF08958F929F928C
:10018000AF92BF92CF92DF92EF92FF920F931F93A5
:10019000CF93DF93EC0100E010E0912CA62EBB245E
:1001A000A7FCB094C12CD12C7601C394802EC5013C
:1001B000002E02C0959587950A94E2F780FF04C04F
:1001C000CE010E94B0000AC09FB7F894EE8DFF8D5B
:1001D00020818D8D8095822380839FBF9FB7F89467
:1001E000EB8DFC8D20818A8D8095822380839FBF3B
:1001F00084E090E00E94AF07ECA1FDA180819BA16B
:10020000892351F0B701A60104C0440F551F661F92
:10021000771F8A94D2F7942ACE010E94A2000F5F22
:100220001F4F0830110509F0C1CFCE010E94B00068
:1002300083E090E00E94AF07892DDF91CF911F915D
:100240000F91FF90EF90DF90CF90BF90AF909F9075
:100250008F9008953FB7F894DC019196ED91FC9151
:100260009297208190968C91282B20833FBF0895F0
:100270002FB7F894DC019196ED91FC919297308123
:1002800090968C918095832380832FBF0895CF9281
:10029000DF92EF92FF920F931F93CF93DF93EC01C6
:1002A0007B01C42E0E9438018701D12CC8018E1910
:1002B0009F098C159D053CF4F80161918F01CE01D9
:1002C0000E94BE00F3CFCE010E942A016AA570E011
:1002D00080E090E0DF91CF911F910F91FF90EF9020
:1002E000DF90CF900C948907CF93DF93EC0145E02A
:1002F00064E271E00E94470149E06BE171E0CE01E8
:100300000E9447018CA5882331F045E064E071E04C
:10031000CE010E9447018DA5882331F049E062E1BA
:1003200071E0CE010E94470149E069E071E0CE0131
:10033000DF91CF910C9447012F923F924F925F92A1
:100340007F928F929F92AF92BF92CF92DF92EF9265
:10035000FF920F931F93CF93DF93CDB7DEB729970B
:100360000FB6F894DEBF0FBECDBF4C01762E142F12
:100370000E945A07F401C6A0D7A0E0A4F1A46C190A
:100380007D098E099F090E940F106B017C0120E0FE
:1003900030E84BEB54E40E94C11018161CF4C40161
:1003A0000E947401F40162A570E080E090E00E9478
:1003B00011101B012C019B01AC01C701B6010E9469
:1003C000DF0F87FF0AC0A7019601C201B1010E9499
:1003D0007A0F0E94E30F0E9489071123E1F0612F39
:1003E00070E080E090E01F921F921F922FEF2F93FA
:1003F00020E4A22EB12CC12CD12CE12CF12C8701B0
:10040000EA9420E030E0A9010E942C0C162F0F90F6
:100410000F900F900F90CE0101967C0189E0F701BB
:1004200011928A95E9F781E0898382E48A837C824C
:100430001D8315E06E01FAE0CF0ED11CC4010E94AD
:10044000B000C4010E94A200C4010E94380183E0F0
:1004500090E00E94AF0727011401F20161912F0182
:10046000C4010E94BE00F10181931F014C145D0480
:10047000A1F7F4018181893749F0C4010E942A0162
:10048000F4018181807F803799F41FC0412C512C69
:1004900060E0C4010E94BE00F401E40DF51D8187F7
:1004A000FFEF4F1A5F0A8CE04816510489F7E5CF39
:1004B000C4010E947401F40162A570E080E090E044
:1004C0000E948907115009F0B9CFF4018181807F22
:1004D000803731F0F40182A58A3010F48F5F82A753
:1004E0006401E12CF12CF60161916F014AE050E0CA
:1004F0008DEE92E00E940E0C69E271E08DEE92E0CA
:100500000E94790BFFEFEF1AFF0A89E0E816F10469
:1005100051F7F401808D918D978B868B8381948127
:10052000918F808F0E945A07F40166A377A380A75A
:1005300091A79181907F81E0903709F080E0299622
:100540000FB6F894DEBF0FBECDBFDF91CF911F91E4
:100550000F91FF90EF90DF90CF90BF90AF909F9062
:100560008F907F905F904F903F902F90089540E044
:1005700060E00C949C016F927F928F929F92AF9259
:10058000BF92CF92EF92FF920F931F93CF93DF937F
:10059000CDB7DEB72B970FB6F894DEBF0FBECDBF39
:1005A0005C01862F70E0FB01E458FF4FE491D50118
:1005B0005A96EC935A97FB01E057FF4FE491F0E015
:1005C000EE0FFF1FE255FF4F659174915C967C938F
:1005D0006E935B97642F70E0FB01E458FF4FE4914A
:1005E0005D96EC935D97FB01E057FF4FE491F0E0DF
:1005F000EE0FFF1FE255FF4F659174915F967C935C
:100600006E935E97622F70E0FB01E458FF4FE49118
:100610009096EC939097FB01E057FF4FE491F0E048
:10062000EE0FFF1FE255FF4F6591749192967C93F8
:100630006E939197602F70E0FB01E458FF4FE491B7
:100640009396EC939397FB01E057FF4FE491F0E012
:10065000EE0FFF1FEC55FF4F6591749195967C93BB
:100660006E93949761E02A874B870E941E0861E091
:100670002A85822F0E941E0861E04B85842F0E94EC
:100680001E0860E0802F0E941E0861E0802F0E94FB
:100690005708C5010E94B000C5010E94A200C50113
:1006A0000E94B702C5010E94B702F5018181813421
:1006B000C9F08337B9F08937A9F06BE271E08DEEAC
:1006C00092E00E94960B6EE571E08DEE92E00E9442
:1006D000790B40E150E0D50111966C918DEE92E0DE
:1006E0000E94150C81E0F50182A70BE010E0FF24C9
:1006F000F39445E064E271E0C5010E94470183E0A4
:1007000090E00E94AF07C5010E94B000C5010E94A1
:10071000A200C5010E94380183E090E00E94AF076B
:1007200047EB842E41E0942ECE0101963C01D4018A
:100730006D914D01C5010E94BE00F30181933F01FF
:10074000F0EC8F16F1E09F0691F7C5010E942A0197
:100750008C81D5019B968C9349E06BE171E0C501DA
:100760000E944701CC2041F045E064E071E0C50102
:100770000E944701F501F4A6EE2049F049E062E14C
:1007800071E0C5010E944701D5019D96FC9249E0A8
:1007900069E071E0C5010E944701C5010E94B702EE
:1007A000F5018181EE2021F0893739F1833719F184
:1007B000833719F10150110901151105B9F464E8E5
:1007C00071E08DEE92E00E94960B66EA71E08DEE8C
:1007D00092E00E94790B40E150E0D50111966C91B6
:1007E0008DEE92E00E94150C82E008C0F50182A512
:1007F0008F5F82A77ECF83E001C080E02B960FB68B
:10080000F894DEBF0FBECDBFDF91CF911F910F9146
:10081000FF90EF90CF90BF90AF909F908F907F9080
:100820006F900895CF93C82F61E00E941E0860E08A
:100830008C2F0E94570882E090E00E94AF0761E091
:100840008C2F0E94570885E090E00E94AF0760E07F
:100850008C2F0E94570860E08C2F0E941E0820E415
:1008600032E44FE050E061E08C2FCF910C94B60859
:10087000CF92DF92EF92FF920F931F93CF93DF936C
:100880008C0135E0E32EF12CC0E0D0E060E0F8010F
:1008900080810E941E08F80180810E5F1F4F0E9418
:1008A0008D08CC0FDD1FC82BD92BF1E0EF1AF10812
:1008B000E114F10459F7CE01DF91CF911F910F910F
:1008C000FF90EF90DF90CF9008951F93CF93DF9329
:1008D0001F92CDB7DEB7162FBC0187E993E049839D
:1008E0000E942E0D612F87E993E00E94CB0C498175
:1008F000642F87E993E00E94CB0C87E993E00F9087
:10090000DF91CF911F910C94430DEF92FF920F93C3
:100910001F93CF93DF9300D000D0CDB7DEB77C011B
:10092000162FBC0187E993E02B833C8349835A83CC
:100930000E942E0D612F87E993E00E94CB0C87E97E
:1009400093E00E94430DB70187E993E00E942E0DCA
:1009500049815A81B70187E993E00E94210D2B81DB
:10096000022F3C81132F87E993E00E94730C892B9F
:1009700041F087E993E00E947B0CF80181938F019D
:10098000F2CF87E993E00F900F900F900F90DF91D7
:10099000CF911F910F91FF90EF900C94430DCF9347
:1009A000DF931F92CDB7DEB7198248E06DE283E591
:1009B00090E00E9465049E012F5F3F4F41E050E0B0
:1009C0006DE283E590E00E9485040F90DF91CF9166
:1009D0000895CF93DF9300D000D000D0CDB7DEB71D
:1009E0009E012F5F3F4F86E0F90111928A95E9F74A
:1009F00046E050E062E383E590E00E9485042981AF
:100A00008A8190E0982F8827820F911D90931F0272
:100A100080931E022B818C8190E0982F8827820F73
:100A2000911D90932102809320022D818E8190E070
:100A3000982F8827820F911D909323028093220282
:100A400026960FB6F894DEBF0FBECDBFDF91CF91D3
:100A50000895CF93DF931F92CDB7DEB719824BE194
:100A600066E188E690E00E9465049E012F5F3F4F9B
:100A700041E050E066E188E690E00E9485040F9036
:100A8000DF91CF910895CF93DF9300D000D000D0B5
:100A9000CDB7DEB79E012F5F3F4F86E0F90111927F
:100AA0008A95E9F746E050E06DE188E690E00E9423
:100AB00085042A81898190E0982F8827820F911DD3
:100AC00090931902809318022C818B8190E0982FCB
:100AD0008827820F911D90931B0280931A022E810A
:100AE0008D8190E0982F8827820F911D90931D0291
:100AF00080931C0226960FB6F894DEBF0FBECDBFC2
:100B0000DF91CF910895CF93DF931F92CDB7DEB7DA
:100B1000198240E062E08EE190E00E9465049E014F
:100B20002F5F3F4F41E050E062E08EE190E00E9495
:100B300085040F90DF91CF910895CF92EF920F939C
:100B400040E056E960E070E08DEE92E00E94570AC6
:100B500087E993E00E940A0D109219021092180280
:100B6000109213021092120210921F0210921E0293
:100B700010921B0210921A02109215021092140287
:100B8000109221021092200210921D0210921C025B
:100B90001092170210921602109223021092220253
:100BA0000E94CF040E9483050E9429056CE271E037
:100BB00080E090E00E948907CC24C394EE24E39463
:100BC0000DE02AE04BE06CE088E292E00E94BB027C
:100BD00090E0909327028093260288E292E00E94A0
:100BE0009200809325020F91EF90CF900895CF93BC
:100BF000DF9300D000D000D0CDB7DEB79E012F5FCD
:100C00003F4F86E0F90111928A95E9F746E050E0FE
:100C100063E08EE190E00E9485042A81898190E062
:100C2000982F8827820F911D9093130280931202B0
:100C30002C818B8190E0982F8827820F911D9093B3
:100C40001502809314022E818D8190E0982F8827C1
:100C5000820F911D909317028093160226960FB66D
:100C6000F894DEBF0FBECDBFDF91CF910895CF9234
:100C7000DF92EF92FF9282E090E00E9412046B01FB
:100C80007C016093E0027093E1028093E202909312
:100C9000E30224E930E040E050E00E947A13209320
:100CA000DC023093DD024093DE025093DF02C70185
:100CB000B6012AE330E040E050E00E947A1320932E
:100CC000D8023093D9024093DA025093DB0288EEC7
:100CD00091E00E9438049093D7028093D6028091CD
:100CE000260290912702019709F495C08091250270
:100CF000823029F488E292E00E94B7020EC040914F
:100D0000240260E088E292E00E949C016FE088E2A9
:100D100092E00E948D00809324020E94E9040E94C8
:100D2000F7050E944305809117028F938091160268
:100D30008F93809115028F93809114028F938091ED
:100D400013028F93809112028F9380911D028F93D3
:100D500080911C028F9380911B028F9380911A02C5
:100D60008F93809119028F93809118028F938091B5
:100D700023028F93809122028F93809121028F937F
:100D8000809120028F9380911F028F9380911E0289
:100D90008F938091D7028F938091D6028F931F9269
:100DA0001F921F921F926091E0027091E102809168
:100DB000E2029091E3022AE430E040E050E00E9439
:100DC0007A132F5F3F4F4F4F5F4F5F934F933F9388
:100DD0002F9380EC91E09F938F9386E592E09F9311
:100DE0008F930E94580F8DB79EB780960FB6F894D8
:100DF0009EBF0FBE8DBF66E572E08DEE92E00E9451
:100E0000960B64E170E080E090E0FF90EF90DF905F
:100E1000CF900C948907FF90EF90DF90CF900895CA
:100E20001F920F920FB60F9211242F933F938F931F
:100E30009F93AF93BF938091E5029091E602A091BA
:100E4000E702B091E8023091E40223E0230F2D374E
:100E500020F40196A11DB11D05C026E8230F0296BE
:100E6000A11DB11D2093E4028093E5029093E60258
:100E7000A093E702B093E8028091E9029091EA0220
:100E8000A091EB02B091EC020196A11DB11D8093DF
:100E9000E9029093EA02A093EB02B093EC02BF91B7
:100EA000AF919F918F913F912F910F900FBE0F9017
:100EB0001F9018952FB7F8946091E5027091E602A3
:100EC0008091E7029091E8022FBF08953FB7F89410
:100ED0008091E9029091EA02A091EB02B091EC02BC
:100EE00026B5A89B05C02F3F19F00196A11DB11D85
:100EF0003FBF6627782F892F9A2F620F711D811DA2
:100F0000911D42E0660F771F881F991F4A95D1F700
:100F10000895CF92DF92EF92FF92CF93DF936B0110
:100F20007C010E946607EB01C114D104E104F104C5
:100F300079F00E9466076C1B7D0B683E7340A0F33E
:100F400081E0C81AD108E108F108C851DC4FECCFA4
:100F5000DF91CF91FF90EF90DF90CF9008950197B0
:100F6000009739F0880F991F880F991F02970197F2
:100F7000F1F70895789484B5826084BD84B581606A
:100F800084BD85B5826085BD85B5816085BDEEE691
:100F9000F0E0808181608083E1E8F0E01082808170
:100FA00082608083808181608083E0E8F0E08081DE
:100FB00081608083E1EBF0E0808184608083E0EBFE
:100FC000F0E0808181608083EAE7F0E080818460E6
:100FD0008083808182608083808181608083808142
:100FE000806880831092C1000895833081F028F4D6
:100FF000813099F08230A1F008958630A9F08730D1
:10100000B9F08430D1F4809180008F7D03C080914D
:1010100080008F7780938000089584B58F7702C019
:1010200084B58F7D84BD08958091B0008F7703C013
:101030008091B0008F7D8093B0000895CF93DF93AF
:1010400090E0FC01E458FF4F2491FC01E057FF4F72
:101050008491882349F190E0880F991FFC01E8549E
:10106000FF4FA591B49182559F4FFC01C591D4913A
:101070009FB7611108C0F8948C91209582238C93BE
:10108000888182230AC0623051F4F8948C91322F07
:10109000309583238C938881822B888304C0F894B5
:1010A0008C91822B8C939FBFDF91CF9108950F93EA
:1010B0001F93CF93DF931F92CDB7DEB7282F30E079
:1010C000F901E859FF4F8491F901E458FF4F149159
:1010D000F901E057FF4F04910023C9F0882321F064
:1010E00069830E94F5076981E02FF0E0EE0FFF1F92
:1010F000E255FF4FA591B4919FB7F8948C9161117F
:1011000003C01095812301C0812B8C939FBF0F904A
:10111000DF91CF911F910F910895CF93DF93282FE7
:1011200030E0F901E859FF4F8491F901E458FF4F8D
:10113000D491F901E057FF4FC491CC2391F0811174
:101140000E94F507EC2FF0E0EE0FFF1FEC55FF4F6C
:10115000A591B4912C912D2381E090E021F480E0C1
:1011600002C080E090E0DF91CF9108958F929F922E
:10117000AF92BF92CF92DF92EF92FF920F931F93A5
:10118000CF93DF9390E0FC01E458FF4F0491FC0102
:10119000E057FF4F7491611102C010E001C0102FA1
:1011A000DA01C901BF70672F70E0660F771F6C55B9
:1011B0007F4F812C912C5401FB01C591D491E88182
:1011C000E023E11310C0750164012FEFC21AD20AA7
:1011D000E20AF20A88169906AA06BB0609F441C07B
:1011E00046015701ECCFFB01C591D491E881E02382
:1011F000E11779F0750164012FEFC21AD20AE20AF1
:10120000F20A88169906AA06BB0659F1460157014B
:10121000EDCF88199909AA09BB0920E030E0A9019E
:10122000FB01C591D4916881602361130AC028171E
:1012300039074A075B07A9F02F5F3F4F4F4F5F4FBA
:10124000F2CFA5E1B0E00E943D13605F7F4F8F4F6A
:101250009F4F24E096958795779567952A95D1F7C6
:1012600003C060E070E0CB01DF91CF911F910F913F
:10127000FF90EF90DF90CF90BF90AF909F908F90B6
:101280000895FC0124853585F901E05CFF4F8081DC
:101290009181F901EE5BFF4F20813181821B930B1D
:1012A0008F7399270895FC0184859585FC01E05C86
:1012B000FF4F40815181FC01EE5BFF4F2081318166
:1012C0004217530741F00190F081E02DE80FF91F1C
:1012D000808190E008958FEF9FEF0895FC01848551
:1012E0009585FC01E05CFF4F40815181FC01EE5B84
:1012F000FF4F208131814217530779F0A081B181DE
:10130000A80FB91F8C91208131812F5F3F4F2F7320
:1013100033273183208390E008958FEF9FEF089566
:10132000FC0181A1882329F0A489B5898C9186FFCD
:10133000FBCF11A20895CF93DF93FC01268537855B
:10134000D901A05CBF4F8D919C91119701968F732D
:101350009927E901CE5BDF4F4881598184179507B2
:10136000D9F30D90BC91A02DA20FB31F6C93A6854D
:10137000B785A05CBF4F11969C938E93A689B789C1
:101380002C9181E090E0078C02C0880F991F0A948D
:10139000E2F7282B2C9381E081A30488F589E02DC6
:1013A00080818064808381E090E0DF91CF91089517
:1013B00008951F920F920FB60F9211242F933F930F
:1013C0004F938F939F93EF93FF938091C00082FD83
:1013D0001CC04091C60080919303909194030196A4
:1013E0008F73992720919503309196038217930765
:1013F00071F0E0919303F0919403ED5AFC4F408318
:10140000909394038093930302C08091C600FF9150
:10141000EF919F918F914F913F912F910F900FBE20
:101420000F901F9018958DEE92E00E944109892B34
:1014300011F00C94D80908951F920F920FB60F92D5
:1014400011242F933F938F939F93EF93FF932091BA
:101450004F0330915003809151039091520328170C
:10146000390731F48091C1008F7D8093C10014C091
:10147000E0915103F0915203E15FFC4F2081809194
:1014800051039091520301968F73992790935203C1
:10149000809351032093C600FF91EF919F918F910C
:1014A0003F912F910F900FBE0F901F901895CF92E4
:1014B000DF92EF92FF92CF93DF93EC016A017B0101
:1014C000411581EE580761057105F9F0EC89FD8938
:1014D00081E090E008A002C0880F991F0A94E2F70B
:1014E000808360E079E08DE390E0A70196010E949F
:1014F000581321503109410951095695479537959F
:101500002795211580E1380798F0EC89FD89108234
:1015100060E874E88EE190E0A70196010E945813FC
:10152000215031094109510956954795379527951D
:10153000E889F9893083EA89FB89208319A2EE8939
:10154000FF89408181E090E09C010C8C02C0220F59
:10155000331F0A94E2F7422B4083EE89FF894081D2
:101560009C010D8C02C0220F331F0A94E2F7422B1C
:101570004083EE89FF8940819C010E8C02C0220FBE
:10158000331F0A94E2F7422B4083EE89FF892081C2
:101590000F8C02C0880F991F0A94E2F7809582236E
:1015A0008083DF91CF91FF90EF90DF90CF900895EF
:1015B0001092F0021092EF0288EE93E0A0E0B0E00B
:1015C0008093F1029093F202A093F302B093F4029D
:1015D00086EF91E09093EE028093ED0283E593E035
:1015E0009093FA028093F9028FE093E09093FC02CB
:1015F0008093FB0285EC90E09093FE028093FD02C5
:1016000084EC90E0909300038093FF0280EC90E0E4
:10161000909302038093010381EC90E09093040384
:101620008093030382EC90E090930603809305037C
:1016300086EC90E0909308038093070384E0809306
:10164000090383E080930A0387E080930B0385E01E
:1016500080930C0381E080930D0308950E94BA07E4
:101660000E949D05C3E1DAE00E9437062097E1F36E
:101670000E94130AF9CFCF92DF92EF92FF920F935D
:101680001F93CF93DF936C017A01EB01E60EF71EF7
:1016900000E010E0CE15DF0561F06991D601ED9113
:1016A000FC910190F081E02DC6010995080F191FEA
:1016B000F1CFC801DF91CF911F910F91FF90EF9073
:1016C000DF90CF9008956115710581F0DB010D90D9
:1016D0000020E9F7AD0141505109461B570BDC01D1
:1016E000ED91FC910280F381E02D099480E090E07F
:1016F00008950C94630BDC01ED91FC910190F08155
:10170000E02D09940F931F93CF93DF93EC016DE0CD
:101710000E947B0B8C016AE0CE010E947B0B800F44
:10172000911FDF91CF911F910F9108950F931F93F8
:10173000CF93DF93EC010E94630B8C01CE010E94DA
:10174000820B800F911FDF91CF911F910F91089510
:101750008F929F92AF92BF92CF92DF92EF92FF92C1
:101760000F931F93CF93DF93CDB7DEB7A1970FB63B
:10177000F894DEBF0FBECDBF7C01C42EE52FCB0198
:10178000D22E19A221E02D1510F02AE0D22E8E01C2
:101790000F5D1F4F8D2C912CA12CB12C6C2D7E2F09
:1017A000A50194010E9458138C2DD29E80191124FA
:1017B000015011098A3014F4805D01C0895CF80180
:1017C0008083211531054105510521F0C22EE32FFB
:1017D000CA01E4CFB801C7010E94630BA1960FB6FE
:1017E000F894DEBF0FBECDBFDF91CF911F910F9157
:1017F000FF90EF90DF90CF90BF90AF909F908F9031
:1018000008952115310541F4DC01ED91FC91019021
:10181000F081E02D642F09940C94A80B9A01462FB7
:1018200050E060E070E00C94010C0F931F93CF9395
:10183000DF93EC019A01462F50E060E070E00E94D7
:10184000010C8C01CE010E94820B800F911FDF9151
:10185000CF911F910F9108954F925F926F927F9257
:10186000AF92BF92CF92DF92EF92FF920F931F93AE
:10187000CF93DF93CDB7DEB729013A01621B730B1B
:10188000840B950B29893A894B895C892A193B0974
:101890004C095D09298B3A8B4B8B5C8B9B01AC010E
:1018A00069897A898B899C890E944813E418F50814
:1018B00006091709A80197010E947A132A0D3B1DFA
:1018C0004C1D5D1DCA01B901DF91CF911F910F9190
:1018D000FF90EF90DF90CF90BF90AF907F906F9090
:1018E0005F904F9008958091C70390E02091C803C6
:1018F000821B910908952091C8038091C70328177E
:1019000050F4E22FF0E0E753FC4F808190E02F5F2E
:101910002093C80308958FEF9FEF0895E091C803C7
:101920008091C703E81730F4F0E0E753FC4F808163
:1019300090E008958FEF9FEF08950895CF92DF9282
:10194000EF92FF920F931F93CF93DF937C01CB0114
:101950008A012091A303222389F0EB016B01C40EBD
:10196000D51ECC15DD0569F06991D701ED91FC918B
:101970000190F081E02DC7010995F3CF642F0E94FB
:10198000FF0DC801DF91CF911F910F91FF90EF9054
:10199000DF90CF900895CF93DF931F92CDB7DEB73E
:1019A00069832091A3032223D1F02091A403203244
:1019B00040F021E030E0FC013383228380E090E0BE
:1019C00015C08091A503E82FF0E0EA55FC4F9981FE
:1019D00090838F5F8093A5038093A40305C061E08B
:1019E000CE0101960E94FF0D81E090E00F90DF9103
:1019F000CF910895FC011382128248EE53E060E01B
:101A000070E0448355836683778386E092E0918318
:101A1000808308951092C8031092C7031092A50303
:101A20001092A4030C944A0D862F413208F040E234
:101A300069EC73E00E94680D1092C8038093C7039D
:101A4000089521E00C94140D81E08093A30360932A
:101A5000C6031092A5031092A40308950C94240DBC
:101A60000F93062F21E04091A40366EA73E0809172
:101A7000C6030E94AC0D1092A5031092A40310920D
:101A8000A3030F91089561E00C94300D87E993E072
:101A90000C94FA0C1092560481E080935404109236
:101AA000530461E082E10E94570861E083E10E94F3
:101AB0005708E9EBF0E080818E7F808380818D7F05
:101AC000808388E48093B80085E48093BC00089507
:101AD000413208F03FC0909156049111FCCF91E043
:101AE00090935604209354042FEF2093E90310920F
:101AF0002E04240F20932D049093550490915504A7
:101B0000880F892B8093550480915304813041F4D0
:101B100010925304809155048093BB0085EC01C062
:101B200085EE8093BC00809156048130E1F3809172
:101B30002E04841710F440912E042FE234E0FB01B0
:101B4000D9018A2F821B841718F48D918193F9CFC4
:101B5000842F089580E008950F93413208F046C025
:101B6000909156049111FCCF92E09093560400930B
:101B700054049FEF9093E90310922E0440932D0498
:101B8000FB016FE274E0DB019A2F961B941718F4A7
:101B900091919D93F9CF1092550490915504880F1F
:101BA000892B8093550480915304813041F4109225
:101BB0005304809155048093BB0085EC01C085EEF1
:101BC0008093BC00222321F0809156048230E1F3FF
:101BD0008091E9038F3F61F08091E903803251F0F9
:101BE0008091E903803341F483E007C081E005C0C0
:101BF00080E003C082E001C084E00F91089561326B
:101C000098F420915604243089F460930B04FC016D
:101C10008DE094E0DC012A2F281B261718F421916F
:101C20002D93F9CF80E0089581E0089582E0089532
:101C300085ED8093BC008091BC0084FDFCCF1092A8
:101C40005604089585EC8093BC00109256040895C4
:101C50001F920F920FB60F9211242F933F934F9321
:101C60005F936F937F938F939F93AF93BF93EF9304
:101C7000FF938091B900887F803609F49CC068F595
:101C8000883209F45BC090F4803109F454C038F410
:101C9000882309F4F5C0883009F44DC0F5C08831B7
:101CA00009F44CC0803209F45DC0EEC0803409F400
:101CB00068C048F4803309F455C0883309F0E4C0A3
:101CC0008093E903A8C0803509F44FC0883509F432
:101CD0005DC0883409F0D8C0D5C0883909F4C6C0C1
:101CE000A8F4883709F467C038F4883609F463C06B
:101CF000803709F460C0C8C0883809F4B7C080399B
:101D000009F45FC0803809F0BFC05BC0803B09F4B4
:101D100085C038F4803A09F466C0883A09F47EC078
:101D2000B3C0803C09F4A6C0883C09F4A3C0883B3A
:101D300009F489C0A9C08091550410C090912E0467
:101D400080912D04981770F5E0912E0481E08E0F9C
:101D500080932E04F0E0E15DFB4F80818093BB0017
:101D600085EC85C08093E9038DC0E0912E0481E06D
:101D70008E0F80932E048091BB00F0E0E15DFB4F5D
:101D8000808390912E0480912D046DC0E0912E04EB
:101D900081E08E0F80932E048091BB00F0E0E15D26
:101DA000FB4F80838091540481116CC081E080934B
:101DB000530484EA60C083E0809356041092EA03DF
:101DC000CFCF8091EA03803208F050C0E091EA035F
:101DD00081E08E0F8093EA038091BB00F0E0E55133
:101DE000FC4F8083BDCF8091EA03803230F4E091D4
:101DF000EA03F0E0E551FC4F10820E94180E60915A
:101E0000EA0370E0E0914F04F09150048BEE93E010
:101E100009951092EA030E94220E36C084E0809356
:101E2000560410920C0410920B04E0915104F091AE
:101E30005204099580910B04811105C081E08093C3
:101E40000B0410920D04E0910C0481E08E0F80933E
:101E50000C04F0E0E35FFB4F80818093BB00909126
:101E60000C0480910B04981708F47ACF85E88093CE
:101E7000BC000AC085EC8093BC001092560404C0DC
:101E80001092E9030E94180EFF91EF91BF91AF915C
:101E90009F918F917F916F915F914F913F912F9182
:101EA0000F900FBE0F901F901895F8940C94E513A7
:101EB000AEE0B0E0EEE5FFE00C94A7130D891E89BB
:101EC00086E08C831A8309838FEF9FE79E838D833F
:101ED000AE01475E5F4F6F89788DCE0101960E94FB
:101EE000C510EF81F885E00FF11F10822E96E4E017
:101EF0000C94C3135058BB27AA270ED008C1F9D0A1
:101F000030F0FED020F031F49F3F11F41EF4EEC00B
:101F10000EF4E095E7FBE4C0E92F0AD180F3BA178D
:101F2000620773078407950718F071F49EF522C1C4
:101F30000EF4E0950B2EBA2FA02D0B01B9019001E4
:101F40000C01CA01A0011124FF27591B99F0593F28
:101F500050F4503E68F11A16F040A22F232F342F70
:101F60004427585FF3CF469537952795A795F040BE
:101F70005395C9F77EF41F16BA0B620B730B840BD3
:101F8000BAF09150A1F0FF0FBB1F661F771F881F8B
:101F9000C2F70EC0BA0F621F731F841F48F48795E3
:101FA00077956795B795F7959E3F08F0B3CF9395D2
:101FB000880F08F09927EE0F9795879508956CD0B4
:101FC00008F481E00895BCD088F09F5790F0B92FB5
:101FD0009927B751A0F0D1F0660F771F881F991F7E
:101FE0001AF0BA95C9F712C0B13081F0C3D0B1E090
:101FF0000895C0C0672F782F8827B85F39F0B93FA0
:10200000CCF3869577956795B395D9F73EF490957F
:102010008095709561957F4F8F4F9F4F0895E894FD
:1020200009C097FB3EF490958095709561957F4F20
:102030008F4F9F4F9923A9F0F92F96E9BB279395CE
:10204000F695879577956795B795F111F8CFFAF4DE
:10205000BB0F11F460FF1BC06F5F7F4F8F4F9F4F0F
:1020600016C0882311F096E911C0772321F09EE86D
:10207000872F762F05C0662371F096E8862F70E0D3
:1020800060E02AF09A95660F771F881FDAF7880FAD
:102090009695879597F90895990F0008550FAA0B03
:1020A000E0E8FEEF16161706E807F907C0F012166B
:1020B0001306E407F50798F0621B730B840B950B6E
:1020C00039F40A2661F0232B242B252B21F40895C3
:1020D0000A2609F4A140A6958FEF811D811D089560
:1020E00097F99F6780E870E060E008959FEF80ECCB
:1020F000089500240A94161617061806090608956E
:1021000000240A9412161306140605060895092ED3
:102110000394000C11F4882352F0BB0F40F4BF2B42
:1021200011F460FF04C06F5F7F4F8F4F9F4F089582
:1021300057FD9058440F551F59F05F3F71F0479578
:10214000880F97FB991F61F09F3F79F0879508955D
:10215000121613061406551FF2CF4695F1DF08C07C
:10216000161617061806991FF1CF86957105610599
:1021700008940895E894BB2766277727CB0197F941
:1021800008958ADF08F48FEF0895ACE0B0E0EBEC3F
:10219000F0E10C9499137C016B018A01FC01178218
:1021A0001682838181FFBDC1CE0101964C01F701EA
:1021B0009381F60193FD859193FF81916F018823AF
:1021C00009F4ABC1853239F493FD859193FF819178
:1021D0006F01853229F4B70190E00E94AD12E7CF7C
:1021E000512C312C20E02032A0F48B3269F030F4F5
:1021F000803259F0833269F420612CC08D3239F07D
:10220000803339F4216026C02260246023C0286016
:1022100021C027FD27C030ED380F3A3078F426FF73
:1022200006C0FAE05F9E300D1124532E13C08AE0E1
:10223000389E300D1124332E20620CC08E3221F4D2
:1022400026FD6BC1206406C08C3611F4206802C0E4
:10225000883641F4F60193FD859193FF81916F01DA
:102260008111C1CF982F9F7D9554933028F40C5F36
:102270001F4FFFE3F9830DC0833631F0833771F0D0
:10228000833509F05BC022C0F801808189830E5F2D
:102290001F4F44244394512C540115C03801F2E0DF
:1022A0006F0E711CF801A080B18026FF03C0652D60
:1022B00070E002C06FEF7FEFC5012C870E94A21271
:1022C0002C0183012C852F77222E17C03801F2E0D4
:1022D0006F0E711CF801A080B18026FF03C0652D30
:1022E00070E002C06FEF7FEFC5012C870E9497124C
:1022F0002C012C852068222E830123FC1BC0832DFA
:1023000090E048165906B0F4B70180E290E00E94D0
:10231000AD123A94F4CFF50127FC859127FE819107
:102320005F01B70190E00E94AD1231103A94F1E0E4
:102330004F1A51084114510471F7E5C0843611F069
:10234000893639F5F80127FF07C0608171818281E4
:1023500093810C5F1F4F08C060817181882777FDD2
:102360008095982F0E5F1F4F2F76B22E97FF09C0D2
:1023700090958095709561957F4F8F4F9F4F206806
:10238000B22E2AE030E0A4010E94DF12A82EA81885
:1023900044C0853729F42F7EB22E2AE030E025C0D4
:1023A000F22FF97FBF2E8F36C1F018F4883579F0FF
:1023B000B4C0803719F0883721F0AFC02F2F2061CB
:1023C000B22EB4FE0DC08B2D8460B82E09C024FF40
:1023D0000AC09F2F9660B92E06C028E030E005C0E5
:1023E00020E130E002C020E132E0F801B7FE07C092
:1023F00060817181828193810C5F1F4F06C0608173
:10240000718180E090E00E5F1F4FA4010E94DF12F7
:10241000A82EA818FB2DFF77BF2EB6FE0BC02B2DC4
:102420002E7FA51450F4B4FE0AC0B2FC08C02B2DB8
:102430002E7E05C07A2C2B2D03C07A2C01C0752C62
:1024400024FF0DC0FE01EA0DF11D8081803311F4DF
:10245000297E09C022FF06C07394739404C0822FA2
:10246000867809F0739423FD13C020FF06C05A2C10
:10247000731418F4530C5718732C731468F4B701C1
:1024800080E290E02C870E94AD1273942C85F5CFEA
:10249000731410F4371801C0312C24FF12C0B70197
:1024A00080E390E02C870E94AD122C8522FF17C09C
:1024B00021FF03C088E590E002C088E790E0B70103
:1024C0000CC0822F867859F021FD02C080E201C045
:1024D0008BE227FD8DE2B70190E00E94AD12A514BA
:1024E00038F4B70180E390E00E94AD125A94F7CF20
:1024F000AA94F401EA0DF11D8081B70190E00E94D9
:10250000AD12A110F5CF332009F451CEB70180E20E
:1025100090E00E94AD123A94F6CFF7018681978140
:1025200002C08FEF9FEF2C96E2E10C94B513FC01F3
:102530000590615070400110D8F7809590958E0FEE
:102540009F1F0895FC016150704001900110D8F761
:10255000809590958E0F9F1F08950F931F93CF9393
:10256000DF93182F092FEB018B8181FD03C08FEFC3
:102570009FEF20C082FF10C04E815F812C813D8182
:10258000421753077CF4E881F9819F012F5F3F4F89
:1025900039832883108306C0E885F985812F099542
:1025A000892B29F72E813F812F5F3F4F3F832E8359
:1025B000812F902FDF91CF911F910F910895FA01F4
:1025C000AA27283051F1203181F1E8946F936E7F72
:1025D0006E5F7F4F8F4F9F4FAF4FB1E03ED0B4E063
:1025E0003CD0670F781F891F9A1FA11D680F791FA4
:1025F0008A1F911DA11D6A0F711D811D911DA11DB5
:1026000020D009F468943F912AE0269F11243019C4
:10261000305D3193DEF6CF010895462F4770405D5F
:102620004193B3E00FD0C9F7F6CF462F4F70405D0E
:102630004A3318F0495D31FD4052419302D0A9F769
:10264000EACFB4E0A6959795879577956795BA9563
:10265000C9F700976105710508959B01AC010A2E29
:1026600006945795479537952795BA95C9F7620F00
:10267000731F841F951FA01D08950E94D013A59F4E
:10268000900DB49F900DA49F800D911D112408956D
:10269000DB018F939F930E943D13BF91AF91A29F47
:1026A000800D911DA39F900DB29F900D1124089550
:1026B000A1E21A2EAA1BBB1BFD010DC0AA1FBB1F46
:1026C000EE1FFF1FA217B307E407F50720F0A21BB8
:1026D000B30BE40BF50B661F771F881F991F1A9425
:1026E00069F760957095809590959B01AC01BD014F
:1026F000CF010895052E97FB1EF400940E949113BC
:1027000057FD07D00E94581307FC03D04EF40C94D9
:10271000911350954095309521953F4F4F4F5F4F06
:10272000089590958095709561957F4F8F4F9F4F3D
:1027300008952F923F924F925F926F927F928F9265
:102740009F92AF92BF92CF92DF92EF92FF920F9340
:102750001F93CF93DF93CDB7DEB7CA1BDB0B0FB64A
:10276000F894DEBF0FBECDBF09942A883988488807
:102770005F846E847D848C849B84AA84B984C8849D
:10278000DF80EE80FD800C811B81AA81B981CE0F94
:10279000D11D0FB6F894DEBF0FBECDBFED01089579
:1027A000A29FB001B39FC001A39F700D811D112492
:1027B000911DB29F700D811D1124911D0895EE0F82
:0E27C000FF1F0590F491E02D0994F894FFCFCF
:1027CE0001000000014D000001014300005A5A5A59
:1027DE005A5A014F00FFFF0300000001440001039D
:1027EE000000000001430001002C00436F6E747264
:1027FE006F6C6C6572206D6F6465206E6F74206DEA
:10280E00617463686564206F72206E6F20636F6EF3
:10281E0074726F6C6C657220666F756E64004578AD
:10282E0070656374656420307834312C20307837CD
:10283E0033206F7220307837392C20627574206700
:10284E006F742000436F6E74726F6C6C6572206EC5
:10285E006F7420616363657074696E6720636F6D5A
:10286E006D616E6473006D6F6465207374696C20A6
:10287E00736574206174000145005A5A5A5A5A5AA7
:10288E00256C642C25642C25642C25642C25642C45
:10289E0025642C25642C25642C25642C25642C257C
:1028AE00642C25642C25640009000800070006002E
:1028BE000500000000009B093B0B41096E095309FE
:1028CE00900900000000CB0C9E0C730C7B0C8E0C40
:0228DE009D0C4F
:00000001FF
