:100000000C9459000C9481000C9481000C94810094
:100010000C9481000C9481000C9481000C9481005C
:100020000C9481000C9481000C9481000C9481004C
:100030000C9481000C9481000C9481000C9481003C
:100040000C94B2010C9481000C9418030C945B0383
:100050000C9481000C9481000C9481000C9481001C
:100060000C949A060C948100000000070002010025
:100070000003040600000000000000000102040864
:100080001020408001020408102001020408102002
:10009000040404040404040402020202020203032E
:1000A0000303030300000000250028002B001704B1
:1000B000B80511241FBECFEFD8E0DEBFCDBF11E0E1
:1000C000A0E0B1E0E8E4F6E102C005900D92AE35A3
:1000D000B107D9F714E0AEE5B1E001C01D92A73D2C
:1000E000B107E1F710E0C2EBD0E004C02297FE01B7
:1000F0000E941E0BCE3AD107C9F70E946D040C94E2
:1001000026080C9400001F93CF93DF931F92CDB766
:10011000DEB7162FBC0187E194E049830E94A00559
:10012000612F87E194E00E943D054981642F87E1BA
:1001300094E00E943D0587E194E00F90DF91CF911C
:100140001F910C94B50540E061E38091000190910E
:1001500001010E94830048E06CE2809100019091CF
:1001600001010E94830048E06DE2809100019091BE
:1001700001010E94830040E06EE2809100019091B5
:1001800001010E94830040E06EE1809100019091A6
:1001900001010E94830040E06FE180910001909195
:1001A00001010E94830040E060E280910001909193
:1001B00001010C94830087E194E00E947C0540E0FB
:1001C00052EC61E070E08DE693E00E94960362E0FD
:1001D00071E08DE693E00E94D3040E94A3006BE1DE
:1001E00071E08DE693E00E94D3046CED75E080E051
:1001F00090E00C941F021F93CF93DF93EC01162F16
:10020000BC0187E194E00E94A005612F87E194E0A2
:100210000E943D0587E194E00E94B505BE0187E19B
:1002200094E00E94A00541E050E0BE0187E194E027
:100230000E94930587E194E00E94E504892BD1F3A5
:1002400087E194E00E94ED04EC0187E194E00E94D4
:10025000B505CE01DF91CF911F910895DF92EF9206
:10026000FF920F931F93CF93DF9363E3809100017D
:10027000909101010E94FB00D82E62E38091000161
:10028000909101010E94FB00FD2CE12CE82AF092E4
:100290006303E092620365E38091000190910101A4
:1002A0000E94FB00F82E64E380910001909101010F
:1002B0000E94FB001F2D00E0082B109361030093A8
:1002C000600367E380910001909101010E94FB00AF
:1002D000182F66E380910001909101010E94FB00BC
:1002E000D12F90E0C92FC82BD0935F03C0935E033A
:1002F000DF91CF911F910F91FF90EF90DF900895C4
:100300000E942E0164E670E080E090E00E941F02EF
:1003100080915F038F9380915E038F93809161033F
:100320008F93809160038F93809163038F9380916B
:1003300062038F9381E391E09F938F938EE591E029
:100340009F938F930E9429088DB79EB70A960FB688
:10035000F8949EBF0FBE8DBF6EE571E08DE693E011
:100360000C94D3041F920F920FB60F9211242F9367
:100370003F938F939F93AF93BF9380916503909129
:100380006603A0916703B09168033091640323E092
:10039000230F2D3720F40196A11DB11D05C026E8BD
:1003A000230F0296A11DB11D209364038093650362
:1003B00090936603A0936703B093680380916903E9
:1003C00090916A03A0916B03B0916C030196A11DFB
:1003D000B11D8093690390936A03A0936B03B0935C
:1003E0006C03BF91AF919F918F913F912F910F908F
:1003F0000FBE0F901F9018953FB7F8948091690336
:1004000090916A03A0916B03B0916C0326B5A89BF1
:1004100005C02F3F19F00196A11DB11D3FBF6627F2
:10042000782F892F9A2F620F711D811D911D42E037
:10043000660F771F881F991F4A95D1F70895CF92AD
:10044000DF92EF92FF92CF93DF936B017C010E94CA
:10045000FC01EB01C114D104E104F10479F00E9424
:10046000FC016C1B7D0B683E7340A0F381E0C81A51
:10047000D108E108F108C851DC4FECCFDF91CF91F2
:10048000FF90EF90DF90CF900895789484B58260CC
:1004900084BD84B5816084BD85B5826085BD85B528
:1004A000816085BDEEE6F0E0808181608083E1E8D7
:1004B000F0E010828081826080838081816080830F
:1004C000E0E8F0E0808181608083E1EBF0E0808112
:1004D00084608083E0EBF0E0808181608083EAE7E4
:1004E000F0E080818460808380818260808380816D
:1004F000816080838081806880831092C10008952C
:10050000FC0124853585F901E05CFF4F80819181F4
:10051000F901EE5BFF4F20813181821B930B8F73BA
:1005200099270895FC0184859585FC01E05CFF4FC7
:1005300040815181FC01EE5BFF4F208131814217E8
:10054000530741F00190F081E02DE80FF91F808101
:1005500090E008958FEF9FEF0895FC0184859585C5
:10056000FC01E05CFF4F40815181FC01EE5BFF4FDD
:10057000208131814217530779F0A081B181A80F02
:10058000B91F8C91208131812F5F3F4F2F7333270B
:100590003183208390E008958FEF9FEF0895FC0151
:1005A00081A1882329F0A489B5898C9186FFFBCF8E
:1005B00011A20895CF93DF93FC0126853785D901D9
:1005C000A05CBF4F8D919C91119701968F739927D5
:1005D000E901CE5BDF4F4881598184179507D9F334
:1005E0000D90BC91A02DA20FB31F6C93A685B7856B
:1005F000A05CBF4F11969C938E93A689B7892C91CE
:1006000081E090E0078C02C0880F991F0A94E2F7FE
:10061000282B2C9381E081A30488F589E02D80812B
:100620008064808381E090E0DF91CF910895089508
:100630001F920F920FB60F9211242F933F934F9357
:100640008F939F93EF93FF938091C00082FD1CC016
:100650004091C600809113049091140401968F7309
:10066000992720911504309116048217930771F091
:10067000E0911304F0911404ED52FC4F40839093E9
:1006800014048093130402C08091C600FF91EF917F
:100690009F918F914F913F912F910F900FBE0F908F
:1006A0001F9018958DE693E00E948002892B11F02F
:1006B0000C94170308951F920F920FB60F921124F6
:1006C0002F933F938F939F93EF93FF932091CF03AB
:1006D0003091D0038091D1039091D203281739072C
:1006E00031F48091C1008F7D8093C10014C0E091EE
:1006F000D103F091D203E157FC4F20818091D103C7
:100700009091D20301968F7399279093D20380938F
:10071000D1032093C600FF91EF919F918F913F915C
:100720002F910F900FBE0F901F901895CF92DF92D0
:10073000EF92FF92CF93DF93EC016A017B014115A9
:1007400081EE580761057105F9F0EC89FD8981E0BA
:1007500090E008A002C0880F991F0A94E2F78083F6
:1007600060E079E08DE390E0A70196010E94C30A62
:1007700021503109410951095695479537952795DB
:10078000211580E1380798F0EC89FD89108260E836
:1007900074E88EE190E0A70196010E94C30A2150FF
:1007A0003109410951095695479537952795E889AB
:1007B000F9893083EA89FB89208319A2EE89FF89B0
:1007C000408181E090E09C010C8C02C0220F331F1D
:1007D0000A94E2F7422B4083EE89FF8940819C0115
:1007E0000D8C02C0220F331F0A94E2F7422B408384
:1007F000EE89FF8940819C010E8C02C0220F331FBD
:100800000A94E2F7422B4083EE89FF8920810F8C06
:1008100002C0880F991F0A94E2F780958223808393
:10082000DF91CF91FF90EF90DF90CF9008951092DD
:10083000700310926F0388EE93E0A0E0B0E0809325
:10084000710390937203A0937303B093740381E4D4
:1008500091E090936E0380936D0383ED93E090930A
:100860007A03809379038FE893E090937C038093DD
:100870007B0385EC90E090937E0380937D0384EC72
:1008800090E09093800380937F0380EC90E09093BE
:1008900082038093810381EC90E0909384038093A2
:1008A000830382EC90E0909386038093850386EC2B
:1008B00090E0909388038093870384E0809389037A
:1008C00083E080938A0387E080938B0385E08093A5
:1008D0008C0381E080938D0308950E9445020E945D
:1008E000DB00C2E5D3E00E9480012097E1F30E9483
:1008F0005203F9CFCF92DF92EF92FF920F931F93A3
:10090000CF93DF936C017A01EB01E60EF71E00E056
:1009100010E0CE15DF0561F06991D601ED91FC91F3
:100920000190F081E02DC6010995080F191FF1CF44
:10093000C801DF91CF911F910F91FF90EF90DF9051
:10094000CF9008956115710581F0DB010D900020B5
:10095000E9F7AD0141505109461B570BDC01ED9100
:10096000FC910280F381E02D099480E090E00895ED
:10097000DC01ED91FC910190F081E02D09940F9341
:100980001F93CF93DF93EC016DE00E94B8048C01BC
:100990006AE0CE010E94B804800F911FDF91CF91D1
:1009A0001F910F9108950F931F93CF93DF93EC0145
:1009B0000E94A2048C01CE010E94BF04800F911FEF
:1009C000DF91CF911F910F9108958091470490E09E
:1009D00020914804821B9109089520914804809138
:1009E0004704281750F4E22FF0E0E75BFB4F8081CB
:1009F00090E02F5F2093480408958FEF9FEF0895B4
:100A0000E091480480914704E81730F4F0E0E75B98
:100A1000FB4F808190E008958FEF9FEF0895089538
:100A2000CF92DF92EF92FF920F931F93CF93DF93BA
:100A30007C01CB018A0120912304222389F0EB0160
:100A40006B01C40ED51ECC15DD0569F06991D70187
:100A5000ED91FC910190F081E02DC7010995F3CF54
:100A6000642F0E947106C801DF91CF911F910F91F1
:100A7000FF90EF90DF90CF900895CF93DF931F9278
:100A8000CDB7DEB76983209123042223D1F02091D2
:100A90002404203240F021E030E0FC013383228343
:100AA00080E090E015C080912504E82FF0E0EA5D39
:100AB000FB4F998190838F5F80932504809324045A
:100AC00005C061E0CE0101960E94710681E090E0D0
:100AD0000F90DF91CF910895FC011382128248EEAE
:100AE00053E060E070E0448355836683778381E55B
:100AF00091E09183808308951092480410924704F6
:100B000010922504109224040C94BC05862F4132C7
:100B100008F040E269E474E00E94DA0510924804AB
:100B200080934704089521E00C94860581E080932A
:100B3000230460934604109225041092240408951F
:100B40000C9496050F93062F21E04091240466E251
:100B500074E0809146040E941E06109225041092B3
:100B60002404109223040F91089561E00C94A205CF
:100B700087E194E00C946C051092D60481E0809398
:100B8000D4041092D30461E082E10E94F00761E096
:100B900083E10E94F007E9EBF0E080818E7F8083A3
:100BA00080818D7F808388E48093B80085E4809382
:100BB000BC000895413208F03FC09091D6049111D5
:100BC000FCCF91E09093D6042093D4042FEF209390
:100BD00069041092AE04240F2093AD049093D504C1
:100BE0009091D504880F892B8093D5048091D304EC
:100BF000813041F41092D3048091D5048093BB00DE
:100C000085EC01C085EE8093BC008091D6048130D4
:100C1000E1F38091AE04841710F44091AE042FEA02
:100C200034E0FB01D9018A2F821B841718F48D91BF
:100C30008193F9CF842F089580E008950F93413276
:100C400008F046C09091D6049111FCCF92E09093A9
:100C5000D6040093D4049FEF909369041092AE04DD
:100C60004093AD04FB016FEA74E0DB019A2F961B01
:100C7000941718F491919D93F9CF1092D504909107
:100C8000D504880F892B8093D5048091D3048130BB
:100C900041F41092D3048091D5048093BB0085EC7D
:100CA00001C085EE8093BC00222321F08091D60400
:100CB0008230E1F3809169048F3F61F08091690493
:100CC000803251F080916904803341F483E007C0A1
:100CD00081E005C080E003C082E001C084E00F91A4
:100CE0000895613298F42091D604243089F46093F9
:100CF0008B04FC018DE894E0DC012A2F281B2617C9
:100D000018F421912D93F9CF80E0089581E00895A2
:100D100082E0089585ED8093BC008091BC0084FD45
:100D2000FCCF1092D604089585EC8093BC001092FD
:100D3000D60408951F920F920FB60F9211242F938D
:100D40003F934F935F936F937F938F939F93AF9353
:100D5000BF93EF93FF938091B900887F803609F4A9
:100D60009CC068F5883209F45BC090F4803109F4C6
:100D700054C038F4882309F4F5C0883009F44DC014
:100D8000F5C0883109F44CC0803209F45DC0EEC072
:100D9000803409F468C048F4803309F455C08833BE
:100DA00009F0E4C080936904A8C0803509F44FC0FD
:100DB000883509F45DC0883409F0D8C0D5C08839B9
:100DC00009F4C6C0A8F4883709F467C038F4883637
:100DD00009F463C0803709F460C0C8C0883809F4DA
:100DE000B7C0803909F45FC0803809F0BFC05BC06C
:100DF000803B09F485C038F4803A09F466C0883A2B
:100E000009F47EC0B3C0803C09F4A6C0883C09F454
:100E1000A3C0883B09F489C0A9C08091D50410C043
:100E20009091AE048091AD04981770F5E091AE04F6
:100E300081E08E0F8093AE04F0E0E155FB4F80819E
:100E40008093BB0085EC85C0809369048DC0E091E0
:100E5000AE0481E08E0F8093AE048091BB00F0E081
:100E6000E155FB4F80839091AE048091AD046DC03D
:100E7000E091AE0481E08E0F8093AE048091BB00C0
:100E8000F0E0E155FB4F80838091D40481116CC068
:100E900081E08093D30484EA60C083E08093D60429
:100EA00010926A04CFCF80916A04803208F050C05B
:100EB000E0916A0481E08E0F80936A048091BB0008
:100EC000F0E0E559FB4F8083BDCF80916A0480320A
:100ED00030F4E0916A04F0E0E559FB4F10820E9483
:100EE0008A0660916A0470E0E091CF04F091D0042A
:100EF0008BE694E0099510926A040E94940636C02D
:100F000084E08093D60410928C0410928B04E091BC
:100F1000D104F091D204099580918B04811105C010
:100F200081E080938B0410928D04E0918C0481E029
:100F30008E0F80938C04F0E0E357FB4F8081809309
:100F4000BB0090918C0480918B04981708F47ACFA1
:100F500085E88093BC000AC085EC8093BC001092A9
:100F6000D60404C0109269040E948A06FF91EF9192
:100F7000BF91AF919F918F917F916F915F914F91B1
:100F80003F912F910F900FBE0F901F9018958330B7
:100F900081F028F4813099F08230A1F008958630F4
:100FA000A9F08730B9F08430D1F4809180008F7D32
:100FB00003C0809180008F7780938000089584B56E
:100FC0008F7702C084B58F7D84BD08958091B00075
:100FD0008F7703C08091B0008F7D8093B00008951B
:100FE0000F931F93CF93DF931F92CDB7DEB7282FB8
:100FF00030E0F901E859FF4F8491F901E458FF4FBF
:101000001491F901E057FF4F04910023C9F08823A0
:1010100021F069830E94C7076981E02FF0E0EE0F9D
:10102000FF1FEC55FF4FA591B4919FB7F8948C9199
:10103000611103C01095812301C0812B8C939FBF48
:101040000F90DF91CF911F910F910895F8940C9418
:10105000220BAEE0B0E0EFE2F8E00C94F30A0D8969
:101060001E8986E08C831A8309838FEF9FE79E8316
:101070008D83AE01475E5F4F6F89788DCE010196FB
:101080000E944B08EF81F885E00FF11F10822E9629
:10109000E4E00C940F0BACE0B0E0E1E5F8E00C9478
:1010A000E50A7C016B018A01FC01178216828381AB
:1010B00081FFBDC1CE0101964C01F7019381F6017C
:1010C00093FD859193FF81916F01882309F4ABC152
:1010D000853239F493FD859193FF81916F018532BB
:1010E00029F4B70190E00E94330AE7CF512C312C4C
:1010F00020E02032A0F48B3269F030F4803259F0D5
:10110000833269F420612CC08D3239F0803339F498
:10111000216026C02260246023C0286021C027FDF2
:1011200027C030ED380F3A3078F426FF06C0FAE0D9
:101130005F9E300D1124532E13C08AE0389E300D6F
:101140001124332E20620CC08E3221F426FD6BC197
:10115000206406C08C3611F4206802C0883641F441
:10116000F60193FD859193FF81916F018111C1CFAC
:10117000982F9F7D9554933028F40C5F1F4FFFE309
:10118000F9830DC0833631F0833771F0833509F070
:101190005BC022C0F801808189830E5F1F4F442409
:1011A0004394512C540115C03801F2E06F0E711CAC
:1011B000F801A080B18026FF03C0652D70E002C059
:1011C0006FEF7FEFC5012C870E94280A2C01830155
:1011D0002C852F77222E17C03801F2E06F0E711C7C
:1011E000F801A080B18026FF03C0652D70E002C029
:1011F0006FEF7FEFC5012C870E941D0A2C012C8503
:101200002068222E830123FC1BC0832D90E048160A
:101210005906B0F4B70180E290E00E94330A3A9494
:10122000F4CFF50127FC859127FE81915F01B7017D
:1012300090E00E94330A31103A94F1E04F1A5108BD
:101240004114510471F7E5C0843611F0893639F53F
:10125000F80127FF07C060817181828193810C5F53
:101260001F4F08C060817181882777FD8095982F76
:101270000E5F1F4F2F76B22E97FF09C09095809575
:10128000709561957F4F8F4F9F4F2068B22E2AE057
:1012900030E0A4010E94650AA82EA81844C0853732
:1012A00029F42F7EB22E2AE030E025C0F22FF97FFC
:1012B000BF2E8F36C1F018F4883579F0B4C080376E
:1012C00019F0883721F0AFC02F2F2061B22EB4FE65
:1012D0000DC08B2D8460B82E09C024FF0AC09F2F3B
:1012E0009660B92E06C028E030E005C020E130E06D
:1012F00002C020E132E0F801B7FE07C060817181D1
:10130000828193810C5F1F4F06C06081718180E0F4
:1013100090E00E5F1F4FA4010E94650AA82EA81836
:10132000FB2DFF77BF2EB6FE0BC02B2D2E7FA514F5
:1013300050F4B4FE0AC0B2FC08C02B2D2E7E05C0AE
:101340007A2C2B2D03C07A2C01C0752C24FF0DC0E4
:10135000FE01EA0DF11D8081803311F4297E09C060
:1013600022FF06C07394739404C0822F867809F01C
:10137000739423FD13C020FF06C05A2C731418F475
:10138000530C5718732C731468F4B70180E290E083
:101390002C870E94330A73942C85F5CF731410F4B4
:1013A000371801C0312C24FF12C0B70180E390E050
:1013B0002C870E94330A2C8522FF17C021FF03C00F
:1013C00088E590E002C088E790E0B7010CC0822F6A
:1013D000867859F021FD02C080E201C08BE227FD32
:1013E0008DE2B70190E00E94330AA51438F4B701EA
:1013F00080E390E00E94330A5A94F7CFAA94F40154
:10140000EA0DF11D8081B70190E00E94330AA1101E
:10141000F5CF332009F451CEB70180E290E00E946D
:10142000330A3A94F6CFF7018681978102C08FEF95
:101430009FEF2C96E2E10C94010BFC0105906150AA
:1014400070400110D8F7809590958E0F9F1F0895DA
:10145000FC016150704001900110D8F78095909583
:101460008E0F9F1F08950F931F93CF93DF93182F15
:10147000092FEB018B8181FD03C08FEF9FEF20C00F
:1014800082FF10C04E815F812C813D81421753073E
:101490007CF4E881F9819F012F5F3F4F39832883D6
:1014A000108306C0E885F985812F0995892B29F7D6
:1014B0002E813F812F5F3F4F3F832E83812F902FBF
:1014C000DF91CF911F910F910895FA01AA2728303B
:1014D00051F1203181F1E8946F936E7F6E5F7F4F01
:1014E0008F4F9F4FAF4FB1E03ED0B4E03CD0670F7D
:1014F000781F891F9A1FA11D680F791F8A1F911DD0
:10150000A11D6A0F711D811D911DA11D20D009F41F
:1015100068943F912AE0269F11243019305D319361
:10152000DEF6CF010895462F4770405D4193B3E04A
:101530000FD0C9F7F6CF462F4F70405D4A3318F0F1
:10154000495D31FD4052419302D0A9F7EACFB4E0A2
:10155000A6959795879577956795BA95C9F700975A
:101560006105710508959B01AC010A2E06945795FB
:10157000479537952795BA95C9F7620F731F841F52
:10158000951FA01D0895A1E21A2EAA1BBB1BFD01E9
:101590000DC0AA1FBB1FEE1FFF1FA217B307E40752
:1015A000F50720F0A21BB30BE40BF50B661F771FAA
:1015B000881F991F1A9469F760957095809590958A
:1015C0009B01AC01BD01CF0108952F923F924F9234
:1015D0005F926F927F928F929F92AF92BF92CF92C3
:1015E000DF92EF92FF920F931F93CF93DF93CDB7CC
:1015F000DEB7CA1BDB0B0FB6F894DEBF0FBECDBF44
:1016000009942A88398848885F846E847D848C8414
:101610009B84AA84B984C884DF80EE80FD800C811D
:101620001B81AA81B981CE0FD11D0FB6F894DEBF00
:101630000FBECDBFED010895EE0FFF1F0590F49191
:08164000E02D0994F894FFCF9E
:1016480053007374617274696E67207570207365D6
:101658007475704144584C3334350066696E69734B
:101668006865642073657475704144584C3334352B
:10167800002534642C2534642C25346400000000D3
:1016880000DA027A048002AD029202CF0200000062
:0E169800003D051005E504ED0400050F0500FA
:00000001FF
