:100000000C9463000C948B000C948B000C948B006C
:100010000C948B000C948B000C948B000C948B0034
:100020000C948B000C94B2000C948B000C948B00FD
:100030000C948B000C948B000C948B000C948B0014
:100040000C9496050C948B000C943E070C9481073D
:100050000C948B000C948B000C948B000C948B00F4
:100060000C948B000C948B00000000070002010030
:100070000003040600000000000000000102040864
:100080001020408001020408102001020408102002
:10009000040404040404040402020202020203032E
:1000A00003030303000000002300260029000000D2
:1000B0000000250028002B0000000000240027007D
:1000C0002A008E053D0811241FBECFEFD8E0DEBF09
:1000D000CDBF11E0A0E0B1E0EAE1F7E102C0059098
:1000E0000D92A231B107D9F712E0A2E1B1E001C04F
:1000F0001D92A037B107E1F710E0C6ECD0E004C0D4
:100100002297FE010E94870BC23CD107C9F70E94CB
:1001100093080C9471090C940000609312011092E2
:10012000140108951092B000E1EBF0E080818B7F24
:10013000808380818260808380818E7F8083E0E7FE
:10014000F0E080818160808381EA8093B2007894BE
:1001500082E0809313011092AF018091120160E060
:100160000C9444061F920F920FB60F9211242F93F6
:100170003F934F935F936F937F938F939F93AF932F
:10018000BF93EF93FF9381EA8093B20080911201B5
:100190000E947D0620911501309116012F5F3F4F7F
:1001A00030931601209315019091AF019C3418F003
:1001B00095E090931301909113019330B9F018F4E6
:1001C000923039F057C0943059F1953009F44CC051
:1001D00051C081114FC02091150130911601243674
:1001E000310508F443C01092AF011CC0813009F002
:1001F00041C0E091AF0191E09E0F9093AF01F0E01C
:100200002091150130911601EE0FFF1FEE5EFE4F9B
:1002100036832583109216011092150194E021C0B7
:10022000811117C0E091AF0191E09E0F9093AF0153
:10023000F0E02091150130911601EE0FFF1FEE5EE8
:10024000FE4F36832583109216011092150193E01C
:1002500008C020911501309116012536310550F066
:1002600095E09093130106C0811104C0109216010D
:100270001092150190911401992329F0811102C067
:100280002D9A01C02D98FF91EF91BF91AF919F9151
:100290008F917F916F915F914F913F912F910F902F
:1002A0000FBE0F901F90189582E08093130110925B
:1002B000AF0108950F931F93CF93DF93EB01E88570
:1002C000F985828193818838910508F46CC0828118
:1002D0009381853E910508F066C08091AF0184301E
:1002E00081F484819581809760F084819581C7979E
:1002F00040F486819781099720F086819781429703
:1003000028F18091AF01843408F44DC08481958137
:100310008234910508F447C0848195818037910526
:1003200008F041C08F010A5F1F4F23E030E080E0FA
:1003300090E0DC01F801408151814930510598F18C
:10034000408151814231510598F02DC01F821E829B
:100350008FEF9FEFDC018A839B83AC83BD8381E0B9
:1003600090E09983888361E070E080E090E036C09F
:10037000A8014E5F5F4FF80162817381663171059C
:1003800030F0F801628173816732710580F0FA0103
:10039000608171816630710530F0FA0140815181D0
:1003A0004D305105B0F060E070E0CB0117C0880F10
:1003B000991FAA1FBB1F81602E5F3F4F0C5F1F4F0D
:1003C0002334310509F0B6CF20E230E03F832E839D
:1003D000C2CF880F991FAA1FBB1FEECFDF91CF910D
:1003E0001F910F9108950F931F93CF93DF938B016C
:1003F0008091AF018A3108F464C0DB011896ED9159
:10040000FC91199782819381859708F45AC0828163
:1004100093818034910508F054C0369622E030E094
:1004200080E090E0DC014091AF0150E0B9016F5FE6
:100430007F4F641775073CF4EF012297688179813B
:100440006730710570F42150310935952795F80111
:10045000378326832C30310554F4F8011782168235
:1004600030C0488159814E30510570F0ECCF828305
:100470009383A483B58382E090E09183808361E0DD
:1004800070E080E090E026C0408151814331510509
:1004900070F0408151814232510548F4880F991F14
:1004A000AA1FBB1F81602E5F3F4F3496BCCF408197
:1004B00051814A30510528F0408151814331510525
:1004C00020F060E070E0CB0105C0880F991FAA1FE3
:1004D000BB1FE9CFDF91CF911F910F9108954F92EC
:1004E0005F926F927F928F929F92AF92BF92CF92C4
:1004F000DF92EF92FF920F931F93CF93DF936A01E6
:100500005901DA01CD91DC91FB0182859385C817F1
:10051000D9070CF0D2C0CE01880F991F0084F18555
:10052000E02DE80FF91FE080F180C170DD27F1E0D8
:10053000CF27209719F484E690E002C08CE99FEF62
:100540004801880E991EB401882777FD8095982F61
:100550000E94740A2B013C0120E030E040E45FE39C
:100560000E94000B20E030E048E452E40E94D909E8
:100570000E94410AE616F706D4F020E030E040EA97
:100580005FE3C301B2010E94000B20E030E048E4C9
:1005900052E40E94D90920E030E040E85FE30E9485
:1005A00075090E94410A6E157F050CF06DC0800E22
:1005B000911EB401882777FD8095982F0E94740AB8
:1005C0002B013C0120E030E040E45FE30E94000B9F
:1005D00020E030E048E452E40E94D9090E94410A38
:1005E000E616F706CCF020E030E040EA5FE3C30116
:1005F000B2010E94000B20E030E048E452E40E9487
:10060000D90920E030E040E85FE30E9475090E94CC
:10061000410A6E157F05DCF5B401600F711F882754
:1006200077FD8095982F0E94740A2B013C0120E0F1
:1006300030E040E45FE30E94000B20E030E048E45B
:1006400052E40E94D9090E94410AE616F706C4F155
:1006500020E030E040EA5FE3C301B2010E94000BFA
:1006600020E030E048E452E40E94D90920E030E084
:1006700040E85FE30E9475090E94410A6E157F05FC
:10068000FCF023E030E005C021E030E002C022E0D1
:1006900030E0D5018D919C911197019682179307B7
:1006A00044F0F50111821082D6018D919C91119731
:1006B00001968D939C93CE0105C081E090E002C02D
:1006C0008FEF9FEFDF91CF911F910F91FF90EF90F0
:1006D000DF90CF90BF90AF909F908F907F906F9062
:1006E0005F904F9008954F925F926F927F928F929A
:1006F0009F92AF92BF92CF92DF92EF92FF920F93B1
:100700001F93CF93DF9300D000D0CDB7DEB76C013D
:100710007B018091AF018D3020F460E070E0CB016F
:100720007AC081E090E09C838B831A82198209E76A
:1007300013E09E012F5F3F4FAE014D5F5F4FC6013B
:100740000E946F02892B49F79E012F5F3F4FAE0138
:100750004D5F5F4FB701C6010E946F020197E9F636
:100760009E012F5F3F4FAE014D5F5F4FB701C60146
:100770000E946F02892B89F6A12CB12C412C512C9F
:1007800032018091AF0190E02B813C81281739071D
:100790009CF509E713E09E012F5F3F4FAE014D5FCF
:1007A0005F4FB701C6010E946F024C019E012F5F8F
:1007B0003F4FAE014D5F5F4FB701C6010E946F0210
:1007C00021E08216910451F4892B09F0A6CF440C44
:1007D000551C661C771C689440F80AC0892809F0EB
:1007E0009CCF019709F099CF440C551C661C771CCF
:1007F0008FEFA81AB80AC5CFF701B782A682428246
:1008000053826482758283E090E09183808361E00B
:1008100070E080E090E00F900F900F900F90DF91CC
:10082000CF911F910F91FF90EF90DF90CF90BF90ED
:10083000AF909F908F907F906F905F904F900895B2
:100840002F923F924F925F926F927F928F929F92E0
:10085000AF92BF92CF92DF92EF92FF920F931F93CE
:10086000CF93DF9300D000D0CDB7DEB76C017B0112
:10087000DB011A968D919C911B971816190624F08E
:1008800060E070E0CB01BDC081E090E09C838B8391
:10089000DB011896ED91FC911997828193818997DC
:1008A00078F3828193818734910550F782E090E05C
:1008B0009C838B83848195810B9710F38481958130
:1008C0004597F0F683E090E09C838B831A8219822F
:1008D0000CEB11E09E012F5F3F4FAE014D5F5F4F6C
:1008E000B701C6010E946F02892B51F60CEB11E093
:1008F0009E012F5F3F4FAE014D5F5F4FB701C601B5
:100900000E946F02019709F0BBCFA12CB12C212CC2
:10091000312C21012B813C81F70182859385281799
:1009200039070CF060C00CEB11E09E012F5F3F4FC8
:10093000AE014D5F5F4FB701C6010E946F023C01DF
:10094000B3E0AB16B10491F00CEB11E09E012F5F08
:100950003F4FAE014D5F5F4FB701C6010E946F026E
:100960004C01E3E0AE16B10409F510C00CEB11E048
:100970009E012F5F3F4FAE014D5F5F4FB701C60134
:100980000E946F0268167906F9F27ACF0CEB11E03B
:100990009E012F5F3F4FAE014D5F5F4FB701C60114
:1009A0000E946F028816990609F06ACF61147104DB
:1009B00059F48A94892809F063CF220C331C441C13
:1009C000551C689420F80BC06A94672809F058CF2A
:1009D000892809F055CF220C331C441C551CAFEF5D
:1009E000AA1ABA0A97CFB782A68222823382448299
:1009F000558284E090E09183808361E070E080E044
:100A000090E00F900F900F900F90DF91CF911F917A
:100A10000F91FF90EF90DF90CF90BF90AF909F909D
:100A20008F907F906F905F904F903F902F900895A0
:100A30000F931F93CF93DF938C01EB0187E191E03C
:100A4000998788878091AF0190E09B878A87809102
:100A500013018530A9F5C8010E945A01672B682B44
:100A6000692B31F5BE01C8010E94F301672B682B89
:100A7000692BF1F4BE01C8010E947303672B682B38
:100A8000692BB1F4BE01C8010E942004672B682BBA
:100A9000692B71F48A859B8506976CF08FEF9FEF29
:100AA000998388831F821E821A821B821C821D8268
:100AB00081E090E007C082E0809313011092AF01C3
:100AC00080E090E0DF91CF911F910F91089540E871
:100AD00055E260E070E086EC91E00E94BC078CEB90
:100AE00091E00C94920060EB71E08CEB91E00E943D
:100AF0001805892B91F04091B2015091B30160919A
:100B0000B4017091B50120E130E086EC91E00E94E3
:100B10005F098CEB91E00C94540108956091000101
:100B2000709101018CEB91E00C948D001F920F925B
:100B30000FB60F9211242F933F938F939F93AF93F0
:100B4000BF938091BE019091BF01A091C001B0916F
:100B5000C1013091BD0123E0230F2D3720F4019610
:100B6000A11DB11D05C026E8230F0296A11DB11DD0
:100B70002093BD018093BE019093BF01A093C0015B
:100B8000B093C1018091C2019091C301A091C401B1
:100B9000B091C5010196A11DB11D8093C201909332
:100BA000C301A093C401B093C501BF91AF919F91C0
:100BB0008F913F912F910F900FBE0F901F9018951E
:100BC000789484B5826084BD84B5816084BD85B528
:100BD000826085BD85B5816085BDEEE6F0E08081EF
:100BE00081608083E1E8F0E0108280818260808310
:100BF000808181608083E0E8F0E080818160808393
:100C0000E1EBF0E0808184608083E0EBF0E08081C4
:100C100081608083EAE7F0E0808184608083808166
:100C2000826080838081816080838081806880830E
:100C30001092C1000895833081F028F4813099F03A
:100C40008230A1F008958630A9F08730B9F0843061
:100C5000D1F4809180008F7D03C0809180008F77D8
:100C600080938000089584B58F7702C084B58F7D0E
:100C700084BD08958091B0008F7703C08091B0004B
:100C80008F7D8093B0000895CF93DF9390E0FC01B7
:100C9000E458FF4F2491FC01E057FF4F84918823D3
:100CA00049F190E0880F991FFC01E854FF4FA5918E
:100CB000B49182559F4FFC01C591D4919FB76111AA
:100CC00008C0F8948C91209582238C93888182238C
:100CD0000AC0623051F4F8948C91322F30958323FE
:100CE0008C938881822B888304C0F8948C91822B0A
:100CF0008C939FBFDF91CF910895CF93DF93282FDF
:100D000030E0F901E859FF4F8491F901E458FF4FB1
:100D1000D491F901E057FF4FC491CC2391F0811198
:100D20000E941B06EC2FF0E0EE0FFF1FEC55FF4F6B
:100D3000A591B4912C912D2381E090E021F480E0E5
:100D400002C080E090E0DF91CF910895FC012485FE
:100D50003585F901E05CFF4F80819181F901EE5BFF
:100D6000FF4F20813181821B930B8F739927089548
:100D7000FC0184859585FC01E05CFF4F4081518139
:100D8000FC01EE5BFF4F208131814217530741F098
:100D90000190F081E02DE80FF91F808190E0089527
:100DA0008FEF9FEF0895FC0184859585FC01E05C41
:100DB000FF4F40815181FC01EE5BFF4F208131816B
:100DC0004217530779F0A081B181A80FB91F8C9108
:100DD000208131812F5F3F4F2F7333273183208351
:100DE00090E008958FEF9FEF0895FC0181A1882383
:100DF00029F0A489B5898C9186FFFBCF11A20895B3
:100E0000CF93DF93FC0126853785D901A05CBF4FC6
:100E10008D919C91119701968F739927E901CE5B73
:100E2000DF4F4881598184179507D9F30D90BC9104
:100E3000A02DA20FB31F6C93A685B785A05CBF4FF2
:100E400011969C938E93A689B7892C9181E090E0AE
:100E5000078C02C0880F991F0A94E2F7282B2C9365
:100E600081E081A30488F589E02D808180648083FE
:100E700081E090E0DF91CF91089508951F920F9245
:100E80000FB60F9211242F933F934F938F939F93FD
:100E9000EF93FF938091C00082FD1CC04091C6007B
:100EA00080916C0290916D0201968F739927209129
:100EB0006E0230916F028217930771F0E0916C021D
:100EC000F0916D02E45DFD4F408390936D0280933D
:100ED0006C0202C08091C600FF91EF919F918F91AB
:100EE0004F913F912F910F900FBE0F901F9018952B
:100EF00086EC91E00E94A606892B11F00C943D0728
:100F000008951F920F920FB60F9211242F933F93C3
:100F10008F939F93EF93FF932091280230912902A2
:100F200080912A0290912B022817390731F4809181
:100F3000C1008F7D8093C10014C0E0912A02F0911E
:100F40002B02E851FE4F208180912A0290912B02C2
:100F500001968F73992790932B0280932A022093F6
:100F6000C600FF91EF919F918F913F912F910F902C
:100F70000FBE0F901F901895CF92DF92EF92FF92C5
:100F8000CF93DF93EC016A017B01411581EE580795
:100F900061057105F9F0EC89FD8981E090E008A018
:100FA00002C0880F991F0A94E2F7808360E079E01D
:100FB0008DE390E0A70196010E94630B2150310957
:100FC000410951095695479537952795211580E197
:100FD000380798F0EC89FD89108260E874E88EE1AA
:100FE00090E0A70196010E94630B2150310941094D
:100FF00051095695479537952795E889F9893083A2
:10100000EA89FB89208319A2EE89FF89408181E06A
:1010100090E09C010C8C02C0220F331F0A94E2F76F
:10102000422B4083EE89FF8940819C010D8C02C0D8
:10103000220F331F0A94E2F7422B4083EE89FF8987
:1010400040819C010E8C02C0220F331F0A94E2F7EC
:10105000422B4083EE89FF8920810F8C02C0880FCC
:10106000991F0A94E2F7809582238083DF91CF91C4
:10107000FF90EF90DF90CF9008951092C9011092E9
:10108000C80188EE93E0A0E0B0E08093CA0190939D
:10109000CB01A093CC01B093CD0186E091E0909379
:1010A000C7018093C6018CE292E09093D3018093B4
:1010B000D20188EE91E09093D5018093D40185EC24
:1010C00090E09093D7018093D60184EC90E09093C8
:1010D000D9018093D80180EC90E09093DB0180935C
:1010E000DA0181EC90E09093DD018093DC0182ECE9
:1010F00090E09093DF018093DE0186EC90E0909386
:10110000E1018093E00184E08093E20183E0809339
:10111000E30187E08093E40185E08093E50181E0CD
:101120008093E60108950E94E0050E946705C8E7E4
:10113000D7E00E9473052097E1F30E947807F9CF6A
:10114000CF92DF92EF92FF920F931F93CF93DF9393
:101150006C017A01EB01E60EF71E00E010E0CE15FF
:10116000DF0561F06991D601ED91FC910190F0816C
:10117000E02DC6010995080F191FF1CFC801DF91B5
:10118000CF911F910F91FF90EF90DF90CF90089536
:101190006115710581F0DB010D900020E9F7AD01CB
:1011A00041505109461B570BDC01ED91FC91028027
:1011B000F381E02D099480E090E00895DC01ED9149
:1011C000FC910190F081E02D09940F931F93CF9330
:1011D000DF93EC016DE00E94DE088C016AE0CE0135
:1011E0000E94DE08800F911FDF91CF911F910F9118
:1011F00008958F929F92AF92BF92CF92DF92EF921B
:10120000FF920F931F93CF93DF93CDB7DEB7A197D4
:101210000FB6F894DEBF0FBECDBF7C01C42EE52F04
:10122000CB01D22E19A221E02D1510F02AE0D22EEA
:101230008E010F5D1F4F8D2C912CA12CB12C6C2D8C
:101240007E2FA50194010E94630B8C2DD29E8019E4
:101250001124015011098A3014F4805D01C0895CA9
:10126000F8018083211531054105510521F0C22E79
:10127000E32FCA01E4CFB801C7010E94C808A196B4
:101280000FB6F894DEBF0FBECDBFDF91CF911F9197
:101290000F91FF90EF90DF90CF90BF90AF909F9015
:1012A0008F9008952115310541F4DC01ED91FC91F9
:1012B0000190F081E02D642F09940C94F9080F93AC
:1012C0001F93CF93DF93EC010E9452098C01CE0152
:1012D0000E94E508800F911FDF91CF911F910F9120
:1012E0000895F8940C948B0B5058BB27AA270ED066
:1012F0004DC13ED130F043D120F031F49F3F11F485
:101300001EF433C10EF4E095E7FB29C1E92F4FD15C
:1013100080F3BA17620773078407950718F071F412
:101320009EF567C10EF4E0950B2EBA2FA02D0B0190
:10133000B90190010C01CA01A0011124FF27591B1A
:1013400099F0593F50F4503E68F11A16F040A22F20
:10135000232F342F4427585FF3CF46953795279591
:10136000A795F0405395C9F77EF41F16BA0B620B90
:10137000730B840BBAF09150A1F0FF0FBB1F661FD7
:10138000771F881FC2F70EC0BA0F621F731F841F1A
:1013900048F4879577956795B795F7959E3F08F040
:1013A000B3CF9395880F08F09927EE0F97958795FF
:1013B00008950CD0EBC0E3D040F0DAD030F021F447
:1013C0005F3F19F0CCC0511115C1CFC0F0D098F3D8
:1013D0009923C9F35523B1F3951B550BBB27AA27B6
:1013E00062177307840738F09F5F5F4F220F331F28
:1013F000441FAA1FA9F333D00E2E3AF0E0E830D0F4
:1014000091505040E695001CCAF729D0FE2F27D0F6
:10141000660F771F881FBB1F261737074807AB07C4
:10142000B0E809F0BB0B802DBF01FF2793585F4F39
:101430002AF09E3F510568F092C0DCC05F3FECF39C
:10144000983EDCF3869577956795B795F7959F5FFE
:10145000C9F7880F911D9695879597F90895E1E052
:10146000660F771F881FBB1F621773078407BA07B1
:1014700020F0621B730B840BBA0BEE1F88F7E0950C
:10148000089504D06894B111B5C0089598D088F03B
:101490009F5790F0B92F9927B751A0F0D1F0660F60
:1014A000771F881F991F1AF0BA95C9F712C0B1307B
:1014B00081F09FD0B1E008959CC0672F782F8827D6
:1014C000B85F39F0B93FCCF3869577956795B395BA
:1014D000D9F73EF490958095709561957F4F8F4F29
:1014E0009F4F0895E89409C097FB3EF4909580952E
:1014F000709561957F4F8F4F9F4F9923A9F0F92FDA
:1015000096E9BB279395F695879577956795B79557
:10151000F111F8CFFAF4BB0F11F460FF1BC06F5F3D
:101520007F4F8F4F9F4F16C0882311F096E911C04F
:10153000772321F09EE8872F762F05C0662371F070
:1015400096E8862F70E060E02AF09A95660F771F84
:10155000881FDAF7880F9695879597F9089597F978
:101560009F6780E870E060E008959FEF80EC089549
:1015700000240A9416161706180609060895002472
:101580000A9412161306140605060895092E0394EC
:10159000000C11F4882352F0BB0F40F4BF2B11F460
:1015A00060FF04C06F5F7F4F8F4F9F4F089557FDBF
:1015B0009058440F551F59F05F3F71F04795880FC1
:1015C00097FB991F61F09F3F79F087950895121658
:1015D00013061406551FF2CF4695F1DF08C0161604
:1015E00017061806991FF1CF8695710561050894B5
:1015F0000895E894BB2766277727CB0197F90895CC
:101600000BD0C4CFB5DF28F0BADF18F0952309F06E
:10161000A6CFABCF1124EECFCADFA0F3959FD1F3B5
:10162000950F50E0551F629FF001729FBB27F00D90
:10163000B11D639FAA27F00DB11DAA1F649F6627E5
:10164000B00DA11D661F829F2227B00DA11D621F34
:10165000739FB00DA11D621F839FA00D611D221FEE
:10166000749F3327A00D611D231F849F600D211DD2
:10167000822F762F6A2F11249F5750408AF0E1F075
:1016800088234AF0EE0FFF1FBB1F661F771F881FBE
:1016900091505040A9F79E3F510570F060CFAACFFE
:1016A0005F3FECF3983EDCF3869577956795B795A9
:1016B000F795E7959F5FC1F7FE2B880F911D9695D3
:1016C000879597F90895A1E21A2EAA1BBB1BFD016D
:1016D0000DC0AA1FBB1FEE1FFF1FA217B307E40711
:1016E000F50720F0A21BB30BE40BF50B661F771F69
:1016F000881F991F1A9469F7609570958095909549
:101700009B01AC01BD01CF010895EE0FFF1F0590B5
:0A171000F491E02D0994F894FFCF46
:10171A000B00000000000007A008A606D306B806C2
:02172A00F506C2
:00000001FF
