:100000000C945E000C9486000C9486000C94860080
:100010000C9486000C9486000C9486000C94860048
:100020000C9486000C9486000C9486000C947C043E
:100030000C9486000C9486000C9486000C94860028
:100040000C9470060C9486000C9404020C944702E5
:100050000C9486000C9486000C9486000C94860008
:100060000C9486000C94860000000007000201003A
:100070000003040600000000000000000102040864
:100080001020408001020408102001020408102002
:10009000040404040404040402020202020203032E
:1000A0000303030300000000250028002B000000CC
:1000B0000000240027002A00B300030311241FBE00
:1000C000CFEFD8E0DEBFCDBF11E0A0E0B1E0ECE7BC
:1000D000FFE002C005900D92A032B107D9F711E000
:1000E000A0E2B1E001C01D92AE3FB107E1F710E020
:1000F000CCEBD0E004C02297FE010E94B807C83BB9
:10010000D107C9F70E9459030C943C070C940000D6
:1001100068E070E082E291E00E94D20540E052EC9B
:1001200061E070E085E291E00C9482026AE570E0A3
:1001300082E291E00E940B068EE00E94B70090934D
:1001400021018093200165E071E085E291E00E9449
:10015000A40360912001709121014AE050E085E202
:1001600091E00C94640482E291E00C9438058E30A6
:1001700008F08E5087702091040190E4299F90012F
:100180001124822B80937C0080917A00806480937C
:100190007A0080917A0086FDFCCF809178002091D2
:1001A000790090E0922B0895833081F028F481301B
:1001B00099F08230A1F008958630A9F08730B9F027
:1001C0008430D1F4809180008F7D03C080918000C5
:1001D0008F7780938000089584B58F7702C084B5AF
:1001E0008F7D84BD08958091B0008F7703C080918A
:1001F000B0008F7D8093B0000895CF93DF9390E09F
:10020000FC01E458FF4F2491FC01E057FF4F84911B
:10021000882349F190E0880F991FFC01E255FF4FB8
:10022000A591B4918C559F4FFC01C591D4919FB776
:10023000611108C0F8948C91209582238C93888159
:1002400082230AC0623051F4F8948C91322F309599
:1002500083238C938881822B888304C0F8948C91AB
:10026000822B8C939FBFDF91CF9108950F931F93A3
:10027000CF93DF931F92CDB7DEB7282F30E0F9017F
:10028000E859FF4F8491F901E458FF4F1491F901A7
:10029000E057FF4F04910023C9F0882321F06983C0
:1002A0000E94D4006981E02FF0E0EE0FFF1FEC55B3
:1002B000FF4FA591B4919FB7F8948C91611103C041
:1002C0001095812301C0812B8C939FBF0F90DF91EC
:1002D000CF911F910F910895FC0124853585F90177
:1002E000E05CFF4F80819181F901EE5BFF4F20813F
:1002F0003181821B930B8F7399270895FC018485AC
:100300009585FC01E05CFF4F40815181FC01EE5B73
:10031000FF4F208131814217530741F00190F08156
:10032000E02DE80FF91F808190E008958FEF9FEF97
:100330000895FC0184859585FC01E05CFF4F4081B8
:100340005181FC01EE5BFF4F208131814217530741
:1003500079F0A081B181A80FB91F8C9120813181E2
:100360002F5F3F4F2F7333273183208390E0089511
:100370008FEF9FEF0895FC0181A1882329F0A489C4
:10038000B5898C9186FFFBCF11A20895CF93DF939F
:10039000FC0126853785D901A05CBF4F8D919C91CA
:1003A000119701968F739927E901CE5BDF4F488142
:1003B000598184179507D9F30D90BC91A02DA20FF8
:1003C000B31F6C93A685B785A05CBF4F11969C9315
:1003D0008E93A689B7892C9181E090E0078C02C0AA
:1003E000880F991F0A94E2F7282B2C9381E081A3B0
:1003F0000488F589E02D80818064808381E090E02D
:10040000DF91CF91089508951F920F920FB60F922A
:1004100011242F933F934F938F939F93EF93FF93C9
:100420008091C00082FD1CC04091C6008091CB012C
:100430009091CC0101968F7399272091CD01309135
:10044000CE018217930771F0E091CB01F091CC01BE
:10045000E557FE4F40839093CC018093CB0102C0BF
:100460008091C600FF91EF919F918F914F913F91A5
:100470002F910F900FBE0F901F90189585E291E07D
:100480000E946C01892B11F00C94030208951F92B5
:100490000F920FB60F9211242F933F938F939F9338
:1004A000EF93FF932091870130918801809189011A
:1004B00090918A012817390731F48091C1008F7D0E
:1004C0008093C10014C0E0918901F0918A01E95B39
:1004D000FE4F20818091890190918A0101968F734E
:1004E000992790938A01809389012093C600FF91F8
:1004F000EF919F918F913F912F910F900FBE0F9091
:100500001F901895CF92DF92EF92FF92CF93DF93D7
:10051000EC016A017B01411581EE58076105710507
:10052000F9F0EC89FD8981E090E008A002C0880F15
:10053000991F0A94E2F7808360E079E08DE390E010
:10054000A70196010E94660721503109410951090E
:100550005695479537952795211580E1380798F0EE
:10056000EC89FD89108260E874E88EE190E0A701D3
:1005700096010E946607215031094109510956959B
:10058000479537952795E889F9893083EA89FB896A
:10059000208319A2EE89FF89408181E090E09C01CF
:1005A0000C8C02C0220F331F0A94E2F7422B4083C7
:1005B000EE89FF8940819C010D8C02C0220F331F00
:1005C0000A94E2F7422B4083EE89FF8940819C0127
:1005D0000E8C02C0220F331F0A94E2F7422B408395
:1005E000EE89FF8920810F8C02C0880F991F0A9421
:1005F000E2F7809582238083DF91CF91FF90EF9087
:10060000DF90CF900895109228011092270188EE74
:1006100093E0A0E0B0E08093290190932A01A09399
:100620002B01B0932C0183E191E0909326018093FC
:1006300025018BE891E0909332018093310187E4AA
:1006400091E0909334018093330185EC90E0909396
:1006500036018093350184EC90E0909338018093CB
:10066000370180EC90E090933A018093390181EC5E
:1006700090E090933C0180933B0182EC90E090935A
:100680003E0180933D0186EC90E090934001809381
:100690003F0184E08093410183E08093420187E041
:1006A0008093430185E08093440181E0809345017C
:1006B00008950E94BA060E948800CEE3D2E00E940C
:1006C00096002097E1F30E943E02F9CFCF92DF928D
:1006D000EF92FF920F931F93CF93DF936C017A01F8
:1006E000EB01E60EF71E00E010E0CE15DF0561F02D
:1006F0006991D601ED91FC910190F081E02DC60148
:100700000995080F191FF1CFC801DF91CF911F91F3
:100710000F91FF90EF90DF90CF90089561157105D4
:1007200081F0DB010D900020E9F7AD014150510946
:10073000461B570BDC01ED91FC910280F381E02D0B
:10074000099480E090E008950C948E03DC01ED9113
:10075000FC910190F081E02D09940F931F93CF93AA
:10076000DF93EC016DE00E94A6038C016AE0CE01EC
:100770000E94A603800F911FDF91CF911F910F91CF
:1007800008958F929F92AF92BF92CF92DF92EF9295
:10079000FF920F931F93CF93DF93CDB7DEB7A1974F
:1007A0000FB6F894DEBF0FBECDBF7C01C42EE52F7F
:1007B000CB01D22E19A221E02D1510F02AE0D22E65
:1007C0008E010F5D1F4F8D2C912CA12CB12C6C2D07
:1007D0007E2FA50194010E9466078C2DD29E801960
:1007E0001124015011098A3014F4805D01C0895C24
:1007F000F8018083211531054105510521F0C22EF4
:10080000E32FCA01E4CFB801C7010E948E03A1966D
:100810000FB6F894DEBF0FBECDBFDF91CF911F9111
:100820000F91FF90EF90DF90CF90BF90AF909F908F
:100830008F900895CF92DF92EF92FF920F931F93C4
:10084000CF93DF93EC016A017B012115310579F427
:10085000E881F9810190F081E02D642FDF91CF9143
:100860001F910F91FF90EF90DF90CF9009942A3065
:100870003105E9F477FF1AC06DE20E94A6038C01EE
:1008800044275527BA014C195D096E097F092AE0F2
:10089000CE010E94C103800F911FDF91CF911F9164
:1008A0000F91FF90EF90DF90CF9008952AE0B7016D
:1008B000A601CE01DF91CF911F910F91FF90EF9094
:1008C000DF90CF900C94C1030F931F93CF93DF93CE
:1008D000EC019A01AB01662757FD6095762F0E94C7
:1008E0001A048C01CE010E94AD03800F911FDF918D
:1008F000CF911F910F9108951F920F920FB60F92F3
:1009000011242F933F934F935F936F937F938F9314
:100910009F93AF93BF93EF93FF938091D00187FF95
:1009200005C010928500109284001AC02091D00159
:10093000332727FD30958091CF0190E028173907A4
:100940007CF48091D001992787FD9095FC01EE0FF2
:10095000FF1FE80FF91FEF52FE4F808186FD15C083
:100960008091D0018F5F8093D0012091D0013327F7
:1009700027FD30958091CF0190E028173907BCF40E
:100980008091D0018C305CF112C08091D001992708
:1009900087FD9095FC01EE0FFF1FE80FF91FEF5246
:1009A000FE4F808160E08F730E943601D9CF809125
:1009B000840090918500049680349C4918F480E46A
:1009C0009CE905C0809184009091850004969093E5
:1009D0008900809388008FEF8093D00138C0809188
:1009E0008400909185002091D001332727FD309518
:1009F000F901EE0FFF1FE20FF31FEF52FE4F2181AF
:100A00003281820F931F9093890080938800809198
:100A1000D001992787FD9095FC01EE0FFF1FE80F8D
:100A2000F91FEF52FE4F808186FF11C08091D001E7
:100A3000992787FD9095FC01EE0FFF1FE80FF91F26
:100A4000EF52FE4F808161E08F730E943601FF916B
:100A5000EF91BF91AF919F918F917F916F915F9136
:100A60004F913F912F910F900FBE0F901F901895AF
:100A70002091CF012C30A0F431E0320F3093CF0120
:100A8000FC012083822F90E0FC01EE0FFF1FE80F96
:100A9000F91FEF52FE4F88EB9BE09283818308950C
:100AA0002FEFFC0120830895DF92EF92FF920F93C6
:100AB0001F93CF93DF93EC01D62E7A0189018881B1
:100AC0008C3008F066C061E08D2D0E94FD008881A9
:100AD000A82FB0E0FD01EE0FFF1FEA0FFB1FEF5242
:100AE000FE4F2D2D2F739081907C922B908360E28E
:100AF00072E06E197F0977FF02C06D5F7F4F7595B9
:100B0000679575956795698340E659E0401B510BE1
:100B100057FF02C04D5F5F4F5595479555954795D7
:100B20004A836CE00E945A079CE0899FB00111241F
:100B300020E030E0A901460F571FFA01EE0FFF1F1A
:100B4000E40FF51FEF52FE4F908196FD16C02F5F08
:100B50003F4F2C30310571F781110FC0109280008A
:100B600082E0809381001092850010928400B19AF7
:100B700080916F00826080936F00888190E0FC011B
:100B8000EE0FFF1FE80FF91FEF52FE4F80818064C8
:100B900080838881DF91CF911F910F91FF90EF901B
:100BA000DF90089520E639E040E252E00C945405CD
:100BB000FC0180818C3070F5918128E830E0291BA0
:100BC000310997FD3395220F331F220F331F621710
:100BD00073077CF0928128E532E0291B310997FDEB
:100BE0003395220F331F220F331F621773070CF444
:100BF0009B014FB7F89490E0FC01EE0FFF1FE80F48
:100C0000F91FEF52FE4F22503109220F331F32835A
:100C100021834FBF08954F925F926F927F92AF9260
:100C2000BF92CF92DF92EF92FF920F931F93CF93D9
:100C3000DF93EC01603282E078070CF040C077FD72
:100C400006C0653B71052CF064EB70E002C060E00B
:100C500070E0898128E830E0281B310987FD339551
:100C6000220F331F220F331F5901CC24B7FCC0942D
:100C7000DC2C882777FD8095982F2A8148E552E063
:100C8000421B510927FD5395440F551F440F551F13
:100C90002A01662457FC6094762C7F926F925F92B3
:100CA0004F9214EBE12EF12C00E010E020E030E058
:100CB000A9010E94F5060F900F900F900F90CE01A2
:100CC000DF91CF911F910F91FF90EF90DF90CF9028
:100CD000BF90AF907F906F905F904F900C94D8052D
:100CE0001F920F920FB60F9211242F933F938F9361
:100CF0009F93AF93BF938091F6019091F701A091DC
:100D0000F801B091F9013091F50123E0230F2D375F
:100D100020F40196A11DB11D05C026E8230F0296FF
:100D2000A11DB11D2093F5018093F6019093F70169
:100D3000A093F801B093F9018091FA019091FB0121
:100D4000A091FC01B091FD010196A11DB11D809300
:100D5000FA019093FB01A093FC01B093FD01BF91B8
:100D6000AF919F918F913F912F910F900FBE0F9058
:100D70001F901895789484B5826084BD84B5816095
:100D800084BD85B5826085BD85B5816085BDEEE693
:100D9000F0E0808181608083E1E8F0E01082808172
:100DA00082608083808181608083E0E8F0E08081E0
:100DB00081608083E1EBF0E0808184608083E0EB00
:100DC000F0E0808181608083EAE7F0E080818460E8
:100DD0008083808182608083808181608083808144
:100DE000806880831092C10008954F925F926F9245
:100DF0007F92AF92BF92CF92DF92EF92FF920F93CA
:100E00001F93CF93DF93CDB7DEB729013A01621B61
:100E1000730B840B950B29893A894B895C892A19B4
:100E20003B094C095D09298B3A8B4B8B5C8B9B01F1
:100E3000AC0169897A898B899C890E944A07E418E8
:100E4000F50806091709A80197010E9488072A0DCD
:100E50003B1D4C1D5D1DCA01B901DF91CF911F9152
:100E60000F91FF90EF90DF90CF90BF90AF907F9069
:100E70006F905F904F900895F8940C94BC070E9477
:100E8000A707A59F900DB49F900DA49F800D911D65
:100E900011240895DB018F939F930E943F07BF9118
:100EA000AF91A29F800D911DA39F900DB29F900DB9
:100EB00011240895991B79E004C0991F961708F032
:100EC000961B881F7A95C9F780950895A1E21A2E7E
:100ED000AA1BBB1BFD010DC0AA1FBB1FEE1FFF1FDE
:100EE000A217B307E407F50720F0A21BB30BE40B2E
:100EF000F50B661F771F881F991F1A9469F7609575
:100F00007095809590959B01AC01BD01CF0108952E
:100F1000052E97FB1EF400940E949F0757FD07D0F3
:100F20000E94660707FC03D04EF40C949F0750956F
:100F30004095309521953F4F4F4F5F4F08959095C5
:100F40008095709561957F4F8F4F9F4F0895A29F19
:100F5000B001B39FC001A39F700D811D1124911D8D
:100F6000B29F700D811D1124911D0895EE0FFF1F7A
:0C0F70000590F491E02D0994F894FFCF57
:100F7C00010000000173656E736F72203D2000004C
:100F8C00000000C60166036C0199017E01BB0100E3
:00000001FF
