:100000000C9465000C948D000C948D000C948D0064
:100010000C948D000C948D000C948D000C948D002C
:100020000C948D000C948D000C948D000C948D001C
:100030000C948D000C948D000C948D000C948D000C
:100040000C94CC010C948D000C94D6030C941904E0
:100050000C948D000C948D000C948D000C948D00EC
:100060000C948D000C948D0000000007000201002C
:100070000003040600000000000000000102040864
:100080001020408001020408102001020408102002
:10009000040404040404040402020202020203032E
:1000A0000303030300000000250028002B000000CC
:1000B0000000240027002A008F00D5048605D308FD
:1000C000640A010CE50D6A12C31211241FBECFEFA2
:1000D000D8E0DEBFCDBF12E0A0E0B1E0E8E3FBE294
:1000E00002C005900D92A831B107D9F713E0A8E13D
:1000F000B2E001C01D92A932B107E1F710E0CAECED
:10010000D0E004C02297FE010E949615C83BD1079B
:10011000C9F70E9495050C946F150C9400000F937D
:1001200000E020E040E060E084E292E00E946F05A1
:1001300002EA2AE048EA60EC8EE192E00E946F0554
:1001400060E570E088E192E00F910C94CC0ACF93C7
:10015000DF9300D000D000D0CDB7DEB740E855E245
:1001600060E070E083E392E00E9454048CEC91E044
:100170009A8389838091200290912102A09122028A
:10018000B09123028B839C83AD83BE83AE014F5F0E
:100190005F4F64E071E089EE92E00E94040A88E11A
:1001A00092E00E94880A6DE071E083E392E00E9491
:1001B000E00569EE72E0CE0101960E94420ABE019E
:1001C0006F5F7F4F83E392E00E94190626960FB679
:1001D000F894DEBF0FBECDBFDF91CF910895EF92AF
:1001E000FF920F931F93CF93DF93CDB7DEB72D9779
:1001F0000FB6F894DEBF0FBECDBF68E172E0CE014E
:1002000001960E94900BCE0101960E941707882349
:1002100009F498C06BE171E083E392E00E94070665
:1002200011E0CE0101960E94AF08882309F47AC03C
:10023000CE0101960E943907892B99F3CE010196D0
:100240000E944407082FE0913302F091340201909C
:10025000F081E02D682F83E392E009950A3009F0E0
:100260005CC01123E9F266E271E0CE0101960E94C2
:10027000070666E371E0CE0101960E9407066EE470
:1002800071E0CE0101960E94070660E671E0CE01A2
:1002900001960E940706CE0101960E94F3056BE6C7
:1002A00071E0CE0101960E9407066BE771E0CE0176
:1002B00001960E94070600E010E0802F0E94AF0127
:1002C0007C0162E871E0CE0101960E94E0054AE0FF
:1002D00050E0B801CE0101960E94CE0660E971E0BF
:1002E000CE0101960E94E0054AE050E0B701CE0140
:1002F00001960E94CE0665E971E0CE0101960E944A
:1003000007060F5F1F4F06301105B9F66CE971E063
:10031000CE0101960E94070605C00D3009F481CF79
:1003200010E07FCF61E070E080E090E00E94450245
:10033000CE0101960E946E0864EA71E083E392E0C8
:100340000E9407062D960FB6F894DEBF0FBECDBFF4
:10035000DF91CF911F910F91FF90EF9008958E3014
:1003600008F08E50877020910A0190E4299F900137
:100370001124822B80937C0080917A00806480938A
:100380007A0080917A0086FDFCCF809178002091E0
:10039000790090E0922B08951F920F920FB60F9262
:1003A00011242F933F938F939F93AF93BF9380918B
:1003B0002B0290912C02A0912D02B0912E0230912F
:1003C0002A0223E0230F2D3720F40196A11DB11D31
:1003D00005C026E8230F0296A11DB11D20932A0215
:1003E00080932B0290932C02A0932D02B0932E02A7
:1003F00080912F0290913002A0913102B09132028F
:100400000196A11DB11D80932F0290933002A093FD
:100410003102B0933202BF91AF919F918F913F9182
:100420002F910F900FBE0F901F9018952FB7F89433
:1004300060912B0270912C0280912D0290912E02DE
:100440002FBF08953FB7F89480912F02909130020A
:10045000A0913102B091320226B5A89B05C02F3F72
:1004600019F00196A11DB11D3FBF6627782F892F76
:100470009A2F620F711D811D911D42E0660F771F3B
:10048000881F991F4A95D1F70895CF92DF92EF9276
:10049000FF92CF93DF936B017C010E942202EB015C
:1004A000C114D104E104F10479F00E9422026C1B12
:1004B0007D0B683E7340A0F381E0C81AD108E108C3
:1004C000F108C851DC4FECCFDF91CF91FF90EF9056
:1004D000DF90CF900895789484B5826084BD84B510
:1004E000816084BD85B5826085BD85B5816085BD2F
:1004F000EEE6F0E0808181608083E1E8F0E0108248
:10050000808182608083808181608083E0E8F0E088
:10051000808181608083E1EBF0E080818460808372
:10052000E0EBF0E0808181608083EAE7F0E08081A9
:100530008460808380818260808380818160808309
:100540008081806880831092C1000895833081F09B
:1005500028F4813099F08230A1F008958630A9F016
:100560008730B9F08430D1F4809180008F7D03C052
:10057000809180008F7780938000089584B58F7775
:1005800002C084B58F7D84BD08958091B0008F77BF
:1005900003C08091B0008F7D8093B0000895CF9309
:1005A000DF9390E0FC01E458FF4F2491FC01E057F9
:1005B000FF4F8491882349F190E0880F991FFC0137
:1005C000E255FF4FA591B4918C559F4FFC01C59109
:1005D000D4919FB7611108C0F8948C912095822323
:1005E0008C93888182230AC0623051F4F8948C91F4
:1005F000322F309583238C938881822B888304C08B
:10060000F8948C91822B8C939FBFDF91CF910895AA
:100610000F931F93CF93DF931F92CDB7DEB7282F91
:1006200030E0F901E859FF4F8491F901E458FF4F98
:100630001491F901E057FF4F04910023C9F088237A
:1006400021F069830E94A6026981E02FF0E0EE0F9D
:10065000FF1FEC55FF4FA591B4919FB7F8948C9173
:10066000611103C01095812301C0812B8C939FBF22
:100670000F90DF91CF911F910F910895FC01248578
:100680003585F901E05CFF4F80819181F901EE5BD6
:10069000FF4F20813181821B930B8F73992708951F
:1006A000FC0184859585FC01E05CFF4F4081518110
:1006B000FC01EE5BFF4F208131814217530741F06F
:1006C0000190F081E02DE80FF91F808190E00895FE
:1006D0008FEF9FEF0895FC0184859585FC01E05C18
:1006E000FF4F40815181FC01EE5BFF4F2081318142
:1006F0004217530779F0A081B181A80FB91F8C91DF
:10070000208131812F5F3F4F2F7333273183208327
:1007100090E008958FEF9FEF0895FC0181A1882359
:1007200029F0A489B5898C9186FFFBCF11A2089589
:10073000CF93DF93FC0126853785D901A05CBF4F9D
:100740008D919C91119701968F739927E901CE5B4A
:10075000DF4F4881598184179507D9F30D90BC91DB
:10076000A02DA20FB31F6C93A685B785A05CBF4FC9
:1007700011969C938E93A689B7892C9181E090E085
:10078000078C02C0880F991F0A94E2F7282B2C933C
:1007900081E081A30488F589E02D808180648083D5
:1007A00081E090E0DF91CF91089508951F920F921C
:1007B0000FB60F9211242F933F934F938F939F93D4
:1007C000EF93FF938091C00082FD1CC04091C60052
:1007D0008091D9029091DA0201968F739927209126
:1007E000DB023091DC028217930771F0E091D902AD
:1007F000F091DA02E756FD4F40839093DA0280933E
:10080000D90202C08091C600FF91EF919F918F9114
:100810004F913F912F910F900FBE0F901F90189501
:1008200083E392E00E943E03892B11F00C94D503E0
:1008300008951F920F920FB60F9211242F933F939A
:100840008F939F93EF93FF9320919502309196029F
:1008500080919702909198022817390731F480917E
:10086000C1008F7D8093C10014C0E0919702F09188
:100870009802EB5AFD4F2081809197029091980247
:1008800001968F73992790939802809397022093F3
:10089000C600FF91EF919F918F913F912F910F9003
:1008A0000FBE0F901F901895CF92DF92EF92FF929C
:1008B000CF93DF93EC016A017B01411581EE58076C
:1008C00061057105F9F0EC89FD8981E090E008A0EF
:1008D00002C0880F991F0A94E2F7808360E079E0F4
:1008E0008DE390E0A70196010E9472152150310915
:1008F000410951095695479537952795211580E16E
:10090000380798F0EC89FD89108260E874E88EE180
:1009100090E0A70196010E9472152150310941090A
:1009200051095695479537952795E889F989308378
:10093000EA89FB89208319A2EE89FF89408181E041
:1009400090E09C010C8C02C0220F331F0A94E2F746
:10095000422B4083EE89FF8940819C010D8C02C0AF
:10096000220F331F0A94E2F7422B4083EE89FF895E
:1009700040819C010E8C02C0220F331F0A94E2F7C3
:10098000422B4083EE89FF8920810F8C02C0880FA3
:10099000991F0A94E2F7809582238083DF91CF919B
:1009A000FF90EF90DF90CF90089510923602109252
:1009B000350288EE93E0A0E0B0E080933702909398
:1009C0003802A0933902B0933A028CEB91E09093F5
:1009D00034028093330289E992E09093400280933D
:1009E0003F0285E592E0909342028093410285ECBC
:1009F00090E0909344028093430284EC90E09093C3
:100A000046028093450280EC90E0909348028093E8
:100A1000470281EC90E090934A028093490282EC75
:100A200090E090934C0280934B0286EC90E0909380
:100A30004E0280934D0284E080934F0283E08093C6
:100A4000500287E08093510285E08093520281E05A
:100A5000809353020895AF92BF92CF92DF92EF92AC
:100A6000FF920F931F93CF93DF936C017B01C0E044
:100A7000D0E000E010E0F601EC0FFD1F4AE050E08E
:100A80006281C7010E94E3065C016EE2C7010E9419
:100A9000E2058A0D9B1D080F191F2196C330D10551
:100AA00051F74AE050E0F6016581C7010E94E30674
:100AB000800F911FDF91CF911F910F91FF90EF90C9
:100AC000DF90CF90BF90AF9008952CEC31E0FC0107
:100AD00031832083128213821482158208950F932A
:100AE000FC018CEC91E091838083628343832483B7
:100AF00005830F910895FB014081518162817381CB
:100B0000FC01428353836483758308958CEC91E0E8
:100B10009093DE028093DD021092DF021092E002D9
:100B20001092E1021092E20208950E946B020E946C
:100B3000A700C0E1D4E00E94EF002097E1F30E94FB
:100B40001004F9CFCF92DF92EF92FF920F931F9391
:100B5000CF93DF936C017A01EB01E60EF71E00E004
:100B600010E0CE15DF0561F06991D601ED91FC91A1
:100B70000190F081E02DC6010995080F191FF1CFF2
:100B8000C801DF91CF911F910F91FF90EF90DF90FF
:100B9000CF9008956115710581F0DB010D90002063
:100BA000E9F7AD0141505109461B570BDC01ED91AE
:100BB000FC910280F381E02D099480E090E008959B
:100BC0000C94CA05DC01ED91FC910190F081E02DBF
:100BD0000994DB01ED91FC9111970190F081E02DDA
:100BE000BC01CD0109940F931F93CF93DF93EC01C8
:100BF0006DE00E94E2058C016AE0CE010E94E205F0
:100C0000800F911FDF91CF911F910F9108950F9346
:100C10001F93CF93DF93EC010E94CA058C01CE0194
:100C20000E94F305800F911FDF91CF911F910F91CB
:100C300008950F931F93CF93DF93EC010E94E90572
:100C40008C01CE010E94F305800F911FDF91CF919F
:100C50001F910F9108958F929F92AF92BF92CF9262
:100C6000DF92EF92FF920F931F93CF93DF93CDB755
:100C7000DEB7A1970FB6F894DEBF0FBECDBF7C01E3
:100C8000C42EE52FCB01D22E19A221E02D1510F094
:100C90002AE0D22E8E010F5D1F4F8D2C912CA12C9E
:100CA000B12C6C2D7E2FA50194010E9472158C2D04
:100CB000D29E80191124015011098A3014F4805DEC
:100CC00001C0895CF801808321153105410551057A
:100CD00021F0C22EE32FCA01E4CFB801C7010E9460
:100CE000CA05A1960FB6F894DEBF0FBECDBFDF9147
:100CF000CF911F910F91FF90EF90DF90CF90BF9019
:100D0000AF909F908F900895CF92DF92EF92FF92D5
:100D10000F931F93CF93DF93EC016A017B012115A1
:100D2000310579F4E881F9810190F081E02D642F9B
:100D3000DF91CF911F910F91FF90EF90DF90CF90B7
:100D400009942A303105E9F477FF1AC06DE20E9458
:100D5000E2058C0144275527BA014C195D096E093B
:100D60007F092AE0CE010E942B06800F911FDF91A0
:100D7000CF911F910F91FF90EF90DF90CF9008954A
:100D80002AE0B701A601CE01DF91CF911F910F910B
:100D9000FF90EF90DF90CF900C942B069A01AB015F
:100DA000662757FD6095762F0C9484062115310532
:100DB00041F4DC01ED91FC910190F081E02D642F74
:100DC00009940C942B069A01462F50E060E070E0E5
:100DD0000C94D606CF93DF931F92CDB7DEB769830D
:100DE000DC01ED91FC910280F381E02D41E050E0C7
:100DF000BE016F5F7F4F09950F90DF91CF910895EE
:100E0000CF93DF93EC01E881F9810480F581E02D37
:100E1000CE010995892B41F0E881F9810680F7819F
:100E2000E02DCE010995EFCFDF91CF91089521E01C
:100E3000FC018485843009F420E0822F08950F930B
:100E40001F93CF93DF93EC018A018C85843021F0CE
:100E50000E94D90E892B39F481E090E09B838A832C
:100E600080E090E001C0C801DF91CF911F910F9108
:100E70000895FC016485643021F08DE093E00C94CA
:100E8000F71080E090E00895CF93DF931F92CDB7E5
:100E9000DEB741E050E0BE016F5F7F4FFC0184850B
:100EA0000E942B0F181619061CF4898190E002C0CD
:100EB0008FEF9FEF0F90DF91CF910895FC01848514
:100EC0000C942B0F0F931F93CF93DF931F92CDB7EB
:100ED000DEB78C01DC01ED91FC910480F581E02D01
:100EE0000995892B51F0BE016F5F7F4FF801848512
:100EF0000E946F0F898190E002C08FEF9FEF0F90EB
:100F0000DF91CF911F910F910895CF92DF92EF92D1
:100F1000FF920F931F93CF93DF93CDB7DEB7AF97B9
:100F20000FB6F894DEBF0FBECDBF7C018B016A0106
:100F3000CE0101960E946505CE0109960E94720DB0
:100F4000CE018A960E94650569EE72E0CE01849614
:100F50000E94540ABE016C5D7F4FCE0101960E9433
:100F60007512AE01465D5F4FB801CE0101960E9439
:100F7000DA1481309105C1F4D701ED91FC9104841C
:100F8000F585E02D8CEC91E09DA38CA30CA51DA50F
:100F90002EA53FA50EA31FA328A739A7A601BE0112
:100FA0006C5D7F4FC7010995AF960FB6F894DEBF11
:100FB0000FBECDBFDF91CF911F910F91FF90EF90AA
:100FC000DF90CF900895FC01262F1382128248EE05
:100FD00053E060E070E0448355836683778382ED5D
:100FE00091E09183808324870895FC018485843077
:100FF00039F090E0982F88278D5F9B4F0C948B10D1
:1010000080E00895AF92BF92CF92DF92EF92FF926D
:101010000F931F93CF93DF93EC015B016A018C85E3
:10102000843009F04EC033E0E32E34E0F32E00E0CC
:1010300010E0C7010E948B10811102C00C8709C00B
:101040008B7F8831D9F30F5F1F4FF3940430110564
:1010500081F78C858430A9F120910B0130910C012E
:101060002F5F3F4F2115310511F420E034E030931C
:101070000C0120930B0140910B0150910C0120E0D9
:1010800061E00E94480EB5016E5F7F4FA6018C851E
:101090000E949C0E811103C084E08C8712C0CE0197
:1010A0000E94F507873151F061E070E080E090E048
:1010B0000E944502CE010E94F507ECCF81E090E04E
:1010C00002C080E090E0DF91CF911F910F91FF90DF
:1010D000EF90DF90CF90BF90AF900895CF92DF92C6
:1010E000EF92FF92CF93DF93EC018C85843081F1F6
:1010F0000E94D20E0E9416026B017C01CE010E945A
:10110000F507882359F00E9416026C197D098E0993
:101110009F09683E73408105910598F0CE010E94B9
:10112000F507882319F08C850E943A0EEC85F0E0D3
:10113000EE0FFF1FEF50FD4F1182108284E08C876D
:1011400007C061E070E080E090E00E944502D6CFE9
:10115000DF91CF91FF90EF90DF90CF900895CF93E4
:10116000DF93EC018C858430D1F0CE010E94F5072D
:101170008431A9F0882399F0883189F08C3169F4A1
:10118000E881F9810480F581E02DCE01099521E007
:10119000892B09F420E0822F03C081E001C080E0A8
:1011A000DF91CF9108950F9300E020E040E060E0F0
:1011B00083EE92E00E946F050F91089544E050E0A5
:1011C000BC0181E090E00C945C1044E050E0BC0174
:1011D00085E090E00C945C1044E050E0BC018FE0AE
:1011E00090E00C945C108F929F92AF92BF92CF923E
:1011F000DF92EF92FF920F931F93CF93DF9300D074
:10120000CDB7DEB74C016A0159018DE093E06983E7
:101210007A830E941E1046E050E069817A8189E05D
:1012200090E00E945C10C60102960E94EC08C80182
:1012300002960E94DE08C70102960E94E508F501A9
:101240004281538164817581F401428353836483B5
:1012500075830F900F90DF91CF911F910F91FF90A9
:10126000EF90DF90CF90BF90AF909F908F900895B8
:101270006F927F928F929F92AF92BF92CF92DF92A6
:10128000EF92FF920F931F93CF93DF93CDB7DEB70B
:101290006E970FB6F894DEBF0FBECDBF6C015B0139
:1012A0007A014901380100E02FEF4FEF6FEFCE01D7
:1012B00049960E946F052CEC31E03A8329838B8D8F
:1012C0009C8DAD8DBE8D8B839C83AD83BE83388713
:1012D0002F83F30182819381A481B58189879A87C5
:1012E000AB87BC873E872D87F40182819381A481DF
:1012F000B5818F87988BA98BBA8B3C8B2B8BF70191
:1013000042815381648175814D8B5E8B6F8B788FA9
:10131000CE0101967C018E01095F1F4F9E01235F64
:101320003F4FAE014D5E5F4FB501C6010E94F3080D
:101330006E960FB6F894DEBF0FBECDBFDF91CF9192
:101340001F910F91FF90EF90DF90CF90BF90AF90E3
:101350009F908F907F906F900895CF92DF92EF9241
:10136000FF920F931F93CF93DF93CDB7DEB76897AC
:101370000FB6F894DEBF0FBECDBF6B017901DA0165
:1013800012964D915D916D917C9115974D8B5E8B71
:101390006F8B788FACECB1E0BA83A98321E0288F02
:1013A0000D891E892F89388D0B831C832D833E83E5
:1013B000B887AF83F70102811381248135810987C2
:1013C0001A872B873C87BE87AD874F87588B698BE1
:1013D0007A8B8E010F5F1F4F9E01295F3F4FAE0139
:1013E000435F5F4FB6010E94380968960FB6F894C4
:1013F000DEBF0FBECDBFDF91CF911F910F91FF9048
:10140000EF90DF90CF9008950F931F93CF93DF93CA
:10141000CDB7DEB762970FB6F894DEBF0FBECDBF73
:10142000DB01FA0142815381648175814F87588BBA
:10143000698B7A8BECECF1E0FA83E98321E02A8B6B
:101440000F85188929893A890B831C832D833E8354
:10145000F887EF8349875A876B877C879E012F5FC8
:101460003F4FAE01495F5F4FBD010E94AD096296DB
:101470000FB6F894DEBF0FBECDBFDF91CF911F91A5
:101480000F910895CF93DF93EC010E946505BE0193
:101490006E5F7F4F44E050E08FE090E00E948D113E
:1014A000CE01DF91CF9108952CEC31E0FC01318326
:1014B0002083FB014281538164817581FC01428359
:1014C00053836483758308950F9300E020E040E028
:1014D00060E089EF92E00E946F0589EE92E00F9143
:1014E0000C946505CF93DF931F92CDB7DEB7698368
:1014F000DC01ED91FC910280F381E02D41E050E0B0
:10150000BE016F5F7F4F09950F90DF91CF910895D6
:10151000EF92FF920F931F93CF93DF93CDB7DEB778
:101520002D970FB6F894DEBF0FBECDBF7C0100E053
:1015300010E0602FCE0101960E94E307CE010196D4
:101540000E94F507811116C0F7014481558120E002
:1015500061E0802F0E94480E802F0E94880EF701C4
:1015600084819581F801EE0FFF1FEF50FD4F9183AD
:10157000808305C00F5F1F4F04301105D1F62D96F3
:101580000FB6F894DEBF0FBECDBFDF91CF911F9194
:101590000F91FF90EF900895FC01138212828EEE5E
:1015A00091E091838083758364830895BF92CF9285
:1015B000DF92EF92FF920F931F93CF93DF93CDB7FC
:1015C000DEB72D970FB6F894DEBF0FBECDBF8C01EE
:1015D00041EFC42E42E0D42EB12CE12CF12C6B2D26
:1015E000CE0101960E94E307D6012D913D916D0138
:1015F000F8018481958128173907B1F4CE0101964D
:101600000E94F507843169F0CE0101960E94F5072A
:101610008C3151F4CE0101960E943907892B99F043
:1016200003C0EE24E394F12CB394F4E0BF12D7CFBF
:10163000EF2871F4D801ED91FC910480F581E02D43
:10164000C801099505C0CE0101960E946E08ECCF35
:101650002D960FB6F894DEBF0FBECDBFDF91CF91B0
:101660001F910F91FF90EF90DF90CF90BF90089562
:101670007F928F929F92AF92BF92CF92DF92EF9222
:10168000FF920F931F93CF93DF93CDB7DEB72D97C4
:101690000FB6F894DEBF0FBECDBF6C015B014A01EF
:1016A0000E94D60A51EFE52E52E0F52E712C00E093
:1016B00010E0672DCE0101960E94E307F70121910A
:1016C00031917F01F601848195812817390731F422
:1016D000CE0101960E94F5078731C9F07394F4E0BA
:1016E0007F12E7CFC8012D960FB6F894DEBF0FBE6C
:1016F000CDBFDF91CF911F910F91FF90EF90DF90C1
:10170000CF90BF90AF909F908F907F900895A4014D
:10171000B501CE0101960E941F07080F191FDECFE9
:10172000BF92CF92DF92EF92FF920F931F93CF93CE
:10173000DF93CDB7DEB72D970FB6F894DEBF0FBE9F
:10174000CDBF8C016B01CB010E94D60A61EFE62E62
:1017500062E0F62EB12C6B2DCE0101960E94E307BC
:10176000F701219131917F01F6018481958128173C
:10177000390761F4CE0101960E94F507873179F0AF
:10178000CE0101960E94F5078C3149F0B394F4E044
:10179000BF12E1CF64E0C8010E94E30721C0CE017F
:1017A00001960E943907892B89F38B819C81F8016E
:1017B000938382838D819E81AF81B8858483958355
:1017C000A683B78349855A856B857C854087518779
:1017D0006287738782ED91E0918380838D85848712
:1017E000C8012D960FB6F894DEBF0FBECDBFDF91B6
:1017F000CF911F910F91FF90EF90DF90CF90BF900E
:1018000008950F9300E020E040E060E08FEF92E069
:101810000E946F050F910895DC01ED91FC91008C01
:10182000F18DE02D09942CEC31E0FC013183208313
:10183000FB014189528963897489FC014283538386
:10184000648375830895FC01858996890895FC0158
:10185000818D928D0895CF93DF931F92CDB7DEB720
:101860006983DC01ED91FC910280F381E02D41E080
:1018700050E0BE016F5F7F4F09950F90DF91CF91D0
:101880000895CF93DF93EC01898D9A8D892B41F0D8
:10189000E881F9810680F781E02DCE010995F4CF2A
:1018A000DF91CF910895CF93DF93EC018C85843045
:1018B00061F00E943A0EEC85F0E0EE0FFF1FEF5052
:1018C000FD4F1182108284E08C87DF91CF910895C3
:1018D000FC01108E178A6E5F7F4F84850C94AB0FCE
:1018E000FC0184850C94D00FCF93DF93EC019A0117
:1018F0008F89988DAB01BC018C850E947D0F2F894B
:10190000388D280F391F388F2F8BDF91CF91089595
:101910000F931F93CF93DF931F92CDB7DEB78C0148
:10192000FC01818D928D892B59F041E050E0BE0180
:101930006F5F7F4F84850E942B0F181619061CF0CD
:101940008FEF9FEF08C0F801818D928D0197928FE4
:10195000818F898190E00F90DF91CF911F910F913E
:101960000895CF93DF93EC01898D9A8D009719F438
:101970008FEF9FEF10C04817590708F0AC018C8516
:101980000E942B0F181619069CF7298D3A8D281BDB
:10199000390B3A8F298FDF91CF910895CF93DF9341
:1019A0001F92CDB7DEB7FC01218D328D232B49F07C
:1019B000BE016F5F7F4F84850E946F0F898190E029
:1019C00002C08FEF9FEF0F90DF91CF9108950F939B
:1019D0001F93CF93DF93CDB7DEB728970FB6F89458
:1019E000DEBF0FBECDBF8C01DC01ED91FC91028406
:1019F000F385E02D0995F80164858DE093E00E9460
:101A0000F710892B41F148E050E0BE016F5F7F4F36
:101A1000D8011C968C910E942B0F18161906ECF415
:101A2000BE016F5F7F4FC8010F960E947B058D81BD
:101A300090E0982F88272E81820F911DF801968BB8
:101A4000858B8F8190E0982F88272885820F911DA4
:101A5000928F818F02C080E090E028960FB6F894B4
:101A6000DEBF0FBECDBFDF91CF911F910F910895C3
:101A7000CF92DF92EF92FF920F931F93CF93DF935A
:101A8000EC016B018C85843019F543E0E42E44E0D1
:101A9000F42E00E010E0C7010E948B10811102C0FB
:101AA0000C8708C08831E1F30F5F1F4FF3940430B7
:101AB000110589F78C85843059F0DE86CD861A8E23
:101AC000198E20E0A60162E00E94480E81E001C06C
:101AD00080E0DF91CF911F910F91FF90EF90DF9009
:101AE000CF900895FC011382128248EE53E060E02B
:101AF00070E0448355836683778388EF91E0918318
:101B0000808384E08487CF010F960C946505CF9283
:101B1000DF92EF92FF920F931F93CF93DF93CDB796
:101B2000DEB7AF970FB6F894DEBF0FBECDBF7C0116
:101B30008B016A01CE0101960E946505CE010996CE
:101B40000E94720DCE018A960E94650569EE72E0D0
:101B5000CE0184960E94540ABE016C5D7F4FCE0177
:101B600001960E947512AE01465D5F4FB801CE012D
:101B700001960E94DA1481309105C1F4D701ED91EC
:101B8000FC910088F189E02D8CEC91E09DA38CA361
:101B90000CA51DA52EA53FA50EA31FA328A739A7F9
:101BA000A601BE016C5D7F4FC7010995AF960FB6C8
:101BB000F894DEBF0FBECDBFDF91CF911F910F9183
:101BC000FF90EF90DF90CF9008950F9300E020E01A
:101BD00040E060E085E093E00E946F050F9108957A
:101BE00090E0982F882744E050E0845F9B4F0C944E
:101BF0005C10282F30E02C5F3F4F922F8827860FF4
:101C0000971F0C948B1062E070E00C94F90DFB01AF
:101C1000282F30E02C5F3F4F922F8827642F8E0FA4
:101C20009F1F0C94FC0FCF93DF93C82FD62F472F05
:101C300064E070E00E94070E4D2F65E070E08C2F8D
:101C4000DF91CF910C94070E462F62E070E00C9468
:101C5000070ECF93DF93C82FD62F472F60E170E098
:101C60000E94070E4D2F61E170E08C2FDF91CF9124
:101C70000C94070ECF93C82F40E150E0682F8DE001
:101C800093E00E9444126FEF8C2FCF910C94240E9E
:101C9000EF92FF921F93CF93DF9300D0CDB7DEB7C3
:101CA000182F7A018FEF860F853048F5812F2A8310
:101CB00069830E943A0E2A816981462F422B60E097
:101CC00070E0812F0E94070EE114F10411F0B701BA
:101CD0000AC060910B0370910C036F5F7F4F70938C
:101CE0000C0360930B03812F0E94130E41E050E020
:101CF000612F8DE093E00E94441281E001C080E0FA
:101D00000F900F90DF91CF911F91FF90EF9008956A
:101D1000CF93C82F63E070E00E94F90D833149F43E
:101D200042E050E06C2F8DE093E00E94441281E08D
:101D300001C080E0CF9108951F93CF93DF93182FB8
:101D4000FB01EA0180818F3F51F481818F3F91F443
:101D500082818F3F79F483818F3F61F41EC08111AE
:101D600009C08181811106C08281811103C08381F4
:101D7000882399F0209789F0BF01812F0E94F00DF0
:101D8000BE01812F0E94290E44E050E0612F8DE0BA
:101D900093E00E94441281E001C080E0DF91CF9186
:101DA0001F91089548E050E0682F8DE093E00C9477
:101DB0004412DF92EF92FF920F931F93CF93DF9322
:101DC000D82E8B01EA01413088E0580710F0C0E0BE
:101DD000D8E06D2D8DE093E00E94C3107C0163E09C
:101DE00070E08D2D0E94F90D873111F08C3121F4B6
:101DF000EC16FD0670F302C0C0E0D0E09E01A80121
:101E00006D2D8DE093E00E94821140E250E06D2D37
:101E10008DE093E00E9444128D2D0E94030E84FDFC
:101E20000DC063E070E08D2D0E94F90D8111F4CF9B
:101E30008D2D0E943A0E80E090E005C060E18D2D6E
:101E40000E94240ECE01DF91CF911F910F91FF9040
:101E5000EF90DF900895DF92EF92FF920F931F9320
:101E6000CF93DF93D82E7B018A01682F8DE093E01A
:101E70000E94F710EC01009799F463E070E08D2D5B
:101E80000E94F90D843111F1882301F1C1E0D0E005
:101E90008C3111F4C0E0D0E0D195C195D10916C0C4
:101EA000081719070CF4E8011C161D067CF400E065
:101EB0009E01A7016D2D8DE093E00E94F41140E496
:101EC00050E06D2D8DE093E00E944412CE01DF9131
:101ED000CF911F910F91FF90EF90DF9008950F9396
:101EE000AB0101E021E030E0682F8DE093E00E943B
:101EF000F41181E090E00F910895BF92CF92DF92AC
:101F0000EF92FF920F931F93CF93DF93B82E7B0135
:101F10006A01E901682F8DE093E00E94C3108C17DD
:101F20009D0730F46B2D8DE093E00E94C310EC010F
:101F30008E019601A7016B2D8DE093E00E94131195
:101F4000CE01DF91CF911F910F91FF90EF90DF9025
:101F5000CF90BF9008951F93CF93DF93182FFB016D
:101F6000EA018081811109C08181811106C08281CD
:101F7000811103C08381882369F0209759F0BF0144
:101F8000812F0E94F00DBE01812F0E94290E81E059
:101F900090E002C080E090E0DF91CF911F91089522
:101FA000CF93C82F40E250E0682F8DE093E00E946D
:101FB00044128C2F0E94030E84FD0CC08C2F0E94B3
:101FC000030E83FFF6CF68E18C2F0E94240E80E081
:101FD00090E006C060E18C2F0E94240E81E090E02A
:101FE000CF9108958EBD0DB407FEFDCF8EB5089537
:101FF0002A9808952A9A08951F93CF93DF9300D0CB
:10200000CDB7DEB7182F6A8399830E94F80F80EF4F
:102010000E94F20F9981892F0E94F20F812F0E9456
:10202000F20F6A81862F0E94F20F0E94FA0F81E060
:102030000F900F90DF91CF911F910895CF93DF9371
:10204000EC016CE271E080E090E00E9445020E94A9
:102050005412229A60E880E090E00E94FC0F65E54F
:102060008BE190E00E94FC0F65E58AE190E00E9420
:10207000FC0F80E090E49983888380E090E6998764
:10208000888780E098E49B838A8380E098E69B873A
:102090008A8780E090E59D838C8380E090E79D8730
:1020A0008C8780E098E59F838E8380E098E79F8708
:1020B0008E87DF91CF910895CF92DF92EF92FF92BA
:1020C0000F931F93CF93DF93EC017A018B016C0187
:1020D000C40ED51ECC15DD05A1F00E94F80F80EFCF
:1020E0000E94F20F8D2F0E94F20F8C2F0E94F20F90
:1020F0002196F80181918F010E94F20F0E94FA0F40
:10210000E9CFC701DF91CF911F910F91FF90EF9021
:10211000DF90CF9008951F93CF93DF931F92CDB799
:10212000DEB7182F99830E94F80F8FE00E94F20FFC
:102130009981892F0E94F20F812F0E94F20F80E077
:102140000E94F20F89830E94FA0F89810F90DF911C
:10215000CF911F9108951F93CF93DF93182F60E2C3
:1021600070E00E94F90DC82FD0E061E270E0812F8D
:102170000E94F90DDC2FCC279E01282BC901DF918D
:10218000CF911F910895FF920F931F93CF93DF93E9
:10219000F62EC0E0D0E08F2D0E94AB108C0100978E
:1021A00021F08F2D0E94AB10EC01C017D10799F7D9
:1021B000CE01DF91CF911F910F91FF9008951F9352
:1021C000CF93DF93182F66E270E00E94F90DC82FBD
:1021D000D0E067E270E0812F0E94F90DDC2FCC2760
:1021E0009E01282BC901DF91CF911F910895FF9285
:1021F0000F931F93CF93DF93F62EC0E0D0E08F2D87
:102200000E94DF108C01009721F08F2D0E94DF10BB
:10221000EC01C017D10799F7CE01DF91CF911F9143
:102220000F91FF9008956F927F929F92AF92BF920D
:10223000CF92DF92EF92FF920F931F93CF93DF9392
:102240001F92CDB7DEB7D82E962E3A01590164E21F
:1022500070E0892D99830E94F90DE82EF12C65E23A
:1022600070E0892D0E94F90DFE2CEE24E82AE60C80
:10227000F71C970137706D2C9981792E690C711CB0
:10228000690C711CD301ED91FC91E20FF31FC901A0
:10229000800F911F81309840A0F0C12C48E0D42ECF
:1022A000C21AD30AA601B501CF010E945C10A80191
:1022B0004C195D09B5016C0D7D1DF3018081918183
:1022C00003C0A801B501CF010E945C10E00EF11E11
:1022D0004F2D64E270E0892D0E94070E4E2D65E2BD
:1022E00070E0892D0F90DF91CF911F910F91FF909A
:1022F000EF90DF90CF90BF90AF909F907F906F90C6
:102300000C94070E0F931F9389019A0140E050E04F
:102310000E9413111F910F910895CF92DF92EF92B7
:10232000FF920F931F93CF93DF93EC017A018B0100
:102330006C01C40ED51ECC15DD05A9F00E94F80F66
:102340008FE00E94F20F8D2F0E94F20F8C2F0E94BF
:10235000F20F219680E00E94F20FF80181938F0125
:102360000E94FA0FE8CFC701DF91CF911F910F9123
:10237000FF90EF90DF90CF900895CF92DF92EF9291
:10238000FF920F931F93CF93DF9369015770EC0176
:10239000C60FD11DC60FD11D88859985840F951F45
:1023A0009A01200F311F2130384090F0E12C68E075
:1023B000F62EE41AF50AA701B6010E948D11A801B4
:1023C0004E195F09B6016E0D7F1D8885998502C083
:1023D000A801B601DF91CF911F910F91FF90EF906F
:1023E000DF90CF900C948D118F929F92AF92BF92FD
:1023F000CF92DF92EF92FF920F931F93CF93DF93D1
:102400006C01962E5A017901802E68E270E0892DC8
:102410000E94F90DC82FD0E069E270E0892D0E947A
:10242000F90DDC2FCC27C82B87019501AE01692D52
:10243000C6010E94BD1181101AC0CE0DDF1D4D2FA7
:1024400068E270E0892D0E94070E4C2F69E270E06F
:10245000892DDF91CF911F910F91FF90EF90DF9029
:10246000CF90BF90AF909F908F900C94070EDF910C
:10247000CF911F910F91FF90EF90DF90CF90BF9081
:10248000AF909F908F900895CF93C62F61E070E03A
:102490008C2F0E94070E61E070E08C2F0E94F90DD6
:1024A0008111F9CFCF91089561E08AE00E9408037D
:1024B00061E08AE00E94CF028CB580618CBD8CB552
:1024C00080648CBD61E08DE00E94CF0261E08BE012
:1024D0000C94CF020F9300E020E040E060E08DE13B
:1024E00093E00E946F050F910895FB014281538193
:1024F00064817581FC0142835383648375831782F1
:1025000016820895CF93FB0181918111FDCFFB01CC
:1025100080E090E020E030E0CAE06191662309F1BC
:102520002430310564F56E3271F48F3F910509F066
:1025300034F5DA01A20FB31F12968C932F5F3F4F31
:1025400080E090E0EACFDC01CA9FC001CB9F900DF4
:102550001124772767FD709560537109860F971FC7
:10256000DCCF8F3F910509F054F4243031053CF461
:10257000FA01E20FF31F828381E090E002C080E065
:1025800090E0CF9108950F9300E020E040E060E0FC
:1025900083E293E00E946F050F910895AF92BF927E
:1025A000CF92DF92EF92FF920F931F93CF93DF931F
:1025B00000D01F92CDB7DEB76C017B010E941602DE
:1025C000F601778366838601085F1F4FB6016A5F55
:1025D0007F4F42E050E0C8010E94740C81E090E01F
:1025E0009A83898342E050E0BE016F5F7F4FC8014C
:1025F0000E94740C80E091E09A83898342E050E06D
:10260000BE016F5F7F4FC8010E94740C1A8219824D
:1026100042E050E0BE016F5F7F4FC8010E94740C22
:1026200042E050E0BE016F5F7F4FC8010E94740C12
:1026300042E050E0BE016F5F7F4FC8010E94740C02
:102640006701F6018081882311F1F7016F01819103
:10265000811115C05601AE18BF081A141B0494F45A
:10266000AB8241E050E0BE016D5F7F4FC8010E9428
:10267000740CA501B701C8010E94740C03C08E320E
:1026800029F7E8CF7601FFEFEF1AFF0ADACF1B82B6
:1026900041E050E0BE016D5F7F4FC8010E94740CA5
:1026A000E12CFF24F394FA82E98242E050E0BE017B
:1026B0006F5F7F4FC8010E94740CFA82E98242E08A
:1026C00050E0BE016F5F7F4FC8010E94740C81E033
:1026D00090E00F900F900F90DF91CF911F910F918D
:1026E000FF90EF90DF90CF90BF90AF9008954F9202
:1026F0005F926F927F928F929F92AF92BF92CF9292
:10270000DF92EF92FF920F931F93CF93DF93CDB79A
:10271000DEB763970FB6F894DEBF0FBECDBF7C0166
:102720005B016A010E9416022B013C018701085FD0
:102730001F4F4501A12CB12CC8010E94E70C1816AF
:10274000190694F00E941602641975098609970902
:1027500086169706A806B906D0F062E370E080E01E
:1027600090E00E944502E8CFF701428153816481E5
:102770007581818D928DA38DB48D481759076A0795
:102780007B0741F4858D968DC59721F406C08FEFA8
:102790009FEFF9C08EEF9FEFF6C0C8010E94270C93
:1027A0000C970CF4EEC04CE050E0BE016F5F7F4F21
:1027B000C8010E94B10C8B819C819827892798279A
:1027C0009A8B898BF7014681578129813A8142177B
:1027D000530711F497FD06C0C8010E94410C8CEF0D
:1027E0009FEFD1C08F709270892B31F0C8010E9489
:1027F000410C8BEF9FEFC7C0AF80B884BA24AB24E5
:10280000BA24A114B10419F0E12CF12C23C0C801A1
:102810000E94410C8AEF9FEFB6C041E050E0BE013C
:10282000635F7F4FC8010E94B10C8D8581111BC071
:102830008D858111F2CFC8010E94880CC8010E94C9
:10284000880CC8010E94880CC8010E94880CFFEF08
:10285000EF1AFF0A8D819E81982789279827E8160D
:10286000F906D8F20AC08D859FEF980F9D878823BF
:10287000F9F2C8010E94880CF6CFE12CF12C41E05E
:1028800050E0BE016D5E7F4FC8010E94B10C8B8984
:10289000982F907C61F4882371F08B899FEF980FBB
:1028A0009B8B882341F0C8010E94880CF6CFC80199
:1028B0000E94880C1B8A8B898111E1CF42E050E095
:1028C000BE01615F7F4FC8010E94B10C42E050E041
:1028D000BE01635F7F4FC8010E94B10CC8010E9416
:1028E000880CC8010E94880CC8010E94880CC8018D
:1028F0000E94880C42E050E0BE016F5E7F4FC8012D
:102900000E94B10C8F8598898115914029F48D859D
:102910009E858115914019F0812C912C16C08989D2
:102920009A898115944031F0C8010E94410C87EFCB
:102930009FEF29C0B6016E5F7F4F44E050E0C801B1
:102940000E94B10C81E090E01EC089899A89982785
:10295000892798278816990638F4C8010E94880CA0
:102960002FEF821A920AF1CF8FEFE81AF80AEA14D1
:10297000FB0409F084CFC8010E94410C86EF9FEF51
:1029800002C08DEF9FEF63960FB6F894DEBF0FBEC7
:10299000CDBFDF91CF911F910F91FF90EF90DF900E
:1029A000CF90BF90AF909F908F907F906F905F90EF
:1029B0004F9008958F929F92AF92BF92CF92DF92E5
:1029C000EF92FF920F931F93CF93DF9300D000D02D
:1029D00000D0CDB7DEB78C015B016A010E94821284
:1029E0004C01009709F05FC0F80142815381648176
:1029F00075818091250390912603A0912703B091C2
:102A00002803481759076A077B0709F450C00E943A
:102A100016027801F8E0EF0EF11C6F7077277C5FEB
:102A2000C7010E94380D813009F045C08CEC91E05F
:102A30009A838983F80182819381A481B5818B83F4
:102A40009C83AD83BE8345E350E0BE016F5F7F4F43
:102A5000C7010E94680C892B19F4812C912C1FC08E
:102A6000B501C8010E94CE12892BB9F3C7010E949B
:102A7000700C892B91F333E0A32EB12CA60168E8EA
:102A800073E1C8010E9477134C01F1E0AF1AB1085D
:102A9000A114B10421F08F3F2FEF920779F3C70102
:102AA0000E94530C08C088248394912C04C09EEF8C
:102AB000892E99249A94C40126960FB6F894DEBF05
:102AC0000FBECDBFDF91CF911F910F91FF90EF907F
:102AD000DF90CF90BF90AF909F908F900895F89423
:102AE0000C949A15A1E21A2EAA1BBB1BFD010DC066
:102AF000AA1FBB1FEE1FFF1FA217B307E407F507AE
:102B000020F0A21BB30BE40BF50B661F771F881F89
:102B1000991F1A9469F760957095809590959B011F
:102B2000AC01BD01CF010895EE0FFF1F0590F49198
:082B3000E02D0994F894FFCF99
:102B3800010000000000BEEFBEEF010004736572E3
:102B480076657220697320617420006E6577206352
:102B58006C69656E7400485454502F312E31203200
:102B68003030204F4B00436F6E74656E742D54796E
:102B780070653A20746578742F68746D6C00436FC3
:102B88006E6E656374696F6E3A20636C6F7365006F
:102B9800526566726573683A2035003C21444F439C
:102BA800545950452048544D4C3E003C68746D6C57
:102BB8003E00616E616C6F6720696E7075742000ED
:102BC80020697320003C6272202F3E003C2F6874FD
:102BD8006D6C3E00636C69656E7420646973636F25
:102BE8006E6E656374656400000000009803A205BA
:102BF8003E036B0350038D03000000002B0500000B
:102C08000000EA061F0739074407620700070208A1
:102C180085075E076E08AF08170700000000720AF4
:102C2800380B880A000000002B0C740C270C880C49
:102C3800CE0C410C380D530C680C870D700CE70C4A
:082C4800B10C0C0C130C230C61
:00000001FF
